{
  "contractName": "AngelMint",
  "abi": [
    {
      "inputs": [],
      "stateMutability": "nonpayable",
      "type": "constructor"
    },
    {
      "anonymous": false,
      "inputs": [
        {
          "indexed": false,
          "internalType": "string",
          "name": "_name",
          "type": "string"
        },
        {
          "indexed": false,
          "internalType": "string",
          "name": "_symbol",
          "type": "string"
        },
        {
          "indexed": false,
          "internalType": "uint256",
          "name": "_id",
          "type": "uint256"
        },
        {
          "indexed": false,
          "internalType": "uint256",
          "name": "issue_num",
          "type": "uint256"
        },
        {
          "indexed": false,
          "internalType": "uint256",
          "name": "_mint_date",
          "type": "uint256"
        }
      ],
      "name": "ManifestedAngelToken",
      "type": "event"
    },
    {
      "inputs": [
        {
          "internalType": "string",
          "name": "_name",
          "type": "string"
        },
        {
          "internalType": "string",
          "name": "_symbol",
          "type": "string"
        },
        {
          "internalType": "uint256",
          "name": "_issue_num",
          "type": "uint256"
        },
        {
          "internalType": "uint256",
          "name": "_mint_date",
          "type": "uint256"
        }
      ],
      "name": "manifestAngelToken",
      "outputs": [],
      "stateMutability": "nonpayable",
      "type": "function"
    }
  ],
  "bytecode": "0x60806040526010600055600054600a0a60015534801561001e57600080fd5b506103a38061002e6000396000f3fe608060405234801561001057600080fd5b506004361061002b5760003560e01c80632347739c14610030575b600080fd5b6101946004803603608081101561004657600080fd5b810190808035906020019064010000000081111561006357600080fd5b82018360208201111561007557600080fd5b8035906020019184600183028401116401000000008311171561009757600080fd5b91908080601f016020809104026020016040519081016040528093929190818152602001838380828437600081840152601f19601f820116905080830192505050505050509192919290803590602001906401000000008111156100fa57600080fd5b82018360208201111561010c57600080fd5b8035906020019184600183028401116401000000008311171561012e57600080fd5b91908080601f016020809104026020016040519081016040528093929190818152602001838380828437600081840152601f19601f8201169050808301925050505050505091929192908035906020019092919080359060200190929190505050610196565b005b60006101a1856101b7565b90506101b08585838686610245565b5050505050565b600080826040516020018082805190602001908083835b602083106101f157805182526020820191506020810190506020830392506101ce565b6001836020036101000a0380198251168184511680821785525050505050509050019150506040516020818303038152906040528051906020012060001c9050600154818161023c57fe5b06915050919050565b7f79336daac126b894ebb6661d37675794b63c30955395c9176d0cffb0105f522a8585858585604051808060200180602001868152602001858152602001848152602001838103835288818151815260200191508051906020019080838360005b838110156102c15780820151818401526020810190506102a6565b50505050905090810190601f1680156102ee5780820380516001836020036101000a031916815260200191505b50838103825287818151815260200191508051906020019080838360005b8381101561032757808201518184015260208101905061030c565b50505050905090810190601f1680156103545780820380516001836020036101000a031916815260200191505b5097505050505050505060405180910390a1505050505056fea2646970667358221220438a80b077367c4104e0b74c1ef105c7793391f2edfe51c84d348cf264898ab964736f6c634300060c0033",
  "immutableReferences": {},
  "source": "pragma solidity >=0.4.21 <0.7.0;\nimport \"@openzeppelin/contracts/utils/Counters.sol\";\n/* import \"./AngelToken.sol\"; */\n\ncontract AngelMint{\n  /* using SafeMath for uint256; */\n  /* using Address for address; */\n  using Counters for Counters.Counter;\n  uint256 iddig = 16;\n  uint256 idmod = 10 ** iddig;\n  uint256 id;     //token identifier\n  uint256 series_issue_num; // the token number out of the total supply expressed as a fraction\n  uint256 series_mint_date; // the date the Angel minted the particular issuance\n  /* AngelToken[] angel_tokens; */\n  event ManifestedAngelToken(\n       string _name,\n        string _symbol,\n         uint256 _id,\n          uint256 issue_num,\n           uint256 _mint_date\n         );\n  constructor()\n     public {  //setup <-- run once like an init <-- pass in name and symbol as per ERC721 Standard\n }\n\n //create new Angel Token\n function _tokenGenesis (\n   string memory _name,\n    string memory _symbol,\n     uint256 _id,\n      uint256 _issue_num,\n        uint256 _mint_date\n      /* string memory _status,\n       string memory _product,\n        string memory _cost,\n         string memory _angel_coefficient,\n           */\n           ) private {\n   /* angel_tokens.push( alm(\n       _name,\n        _symbol,\n         _id,\n          _issue_num,\n           _mint_date\n           _status,\n           _product,\n            _cost,\n             _angel_coefficient\n           )\n     ); */\n   emit ManifestedAngelToken(\n          _name,\n           _symbol,\n            _id,\n             _issue_num,\n              _mint_date\n              );\n }\n // generate random id\n function _idGenesis(string memory _str) private view returns (uint256) {\n   uint256 token_id = uint256(keccak256(abi.encodePacked(_str)));\n   return token_id % idmod;\n }\n // use id and passed in information to manifest an AngelToken\n function manifestAngelToken(\n   string memory _name,\n    string memory _symbol,\n     uint256 _issue_num,\n      uint256 _mint_date\n     /* string memory _status,\n      string memory _product,\n       string memory _cost,\n        string memory _angel_coefficient,\n           */\n   ) public {\n     uint256 _id = _idGenesis(_name);\n     _tokenGenesis(\n       _name,\n        _symbol,\n         _id,\n          _issue_num,\n           _mint_date\n          /* _status,\n           _product,\n            _cost,\n             _angel_coefficient,\n              _mint_date,\n              */\n               );\n }\n\n}\n",
  "sourcePath": "/Volumes/ETH/webApp4/contracts/AngelMint.sol",
  "compiler": {
    "name": "solc",
    "version": "0.6.12+commit.27d51765.Emscripten.clang"
  },
  "schemaVersion": "3.3.2",
  "updatedAt": "2020-12-10T15:30:25.998Z",
  "devdoc": {
    "kind": "dev",
    "methods": {},
    "version": 1
  },
  "userdoc": {
    "kind": "user",
    "methods": {},
    "version": 1
  }
}