{
  "contractName": "AngelToken",
  "abi": [
    {
      "inputs": [],
      "stateMutability": "nonpayable",
      "type": "constructor"
    },
    {
      "anonymous": false,
      "inputs": [
        {
          "indexed": true,
          "internalType": "address",
          "name": "account",
          "type": "address"
        },
        {
          "indexed": true,
          "internalType": "address",
          "name": "operator",
          "type": "address"
        },
        {
          "indexed": false,
          "internalType": "bool",
          "name": "approved",
          "type": "bool"
        }
      ],
      "name": "ApprovalForAll",
      "type": "event"
    },
    {
      "anonymous": false,
      "inputs": [
        {
          "indexed": false,
          "internalType": "uint256",
          "name": "_id",
          "type": "uint256"
        },
        {
          "indexed": false,
          "internalType": "bool",
          "name": "progress",
          "type": "bool"
        }
      ],
      "name": "CrowdFundComplete",
      "type": "event"
    },
    {
      "anonymous": false,
      "inputs": [
        {
          "indexed": false,
          "internalType": "address",
          "name": "owner",
          "type": "address"
        },
        {
          "indexed": false,
          "internalType": "bytes",
          "name": "_uri",
          "type": "bytes"
        },
        {
          "indexed": false,
          "internalType": "string",
          "name": "_ename",
          "type": "string"
        },
        {
          "indexed": false,
          "internalType": "string",
          "name": "_esym",
          "type": "string"
        },
        {
          "indexed": false,
          "internalType": "uint256",
          "name": "_id",
          "type": "uint256"
        },
        {
          "indexed": false,
          "internalType": "bytes",
          "name": "mint_data",
          "type": "bytes"
        }
      ],
      "name": "ManifestedAngelToken",
      "type": "event"
    },
    {
      "anonymous": false,
      "inputs": [
        {
          "indexed": true,
          "internalType": "address",
          "name": "operator",
          "type": "address"
        },
        {
          "indexed": true,
          "internalType": "address",
          "name": "from",
          "type": "address"
        },
        {
          "indexed": true,
          "internalType": "address",
          "name": "to",
          "type": "address"
        },
        {
          "indexed": false,
          "internalType": "uint256[]",
          "name": "ids",
          "type": "uint256[]"
        },
        {
          "indexed": false,
          "internalType": "uint256[]",
          "name": "values",
          "type": "uint256[]"
        }
      ],
      "name": "TransferBatch",
      "type": "event"
    },
    {
      "anonymous": false,
      "inputs": [
        {
          "indexed": true,
          "internalType": "address",
          "name": "operator",
          "type": "address"
        },
        {
          "indexed": true,
          "internalType": "address",
          "name": "from",
          "type": "address"
        },
        {
          "indexed": true,
          "internalType": "address",
          "name": "to",
          "type": "address"
        },
        {
          "indexed": false,
          "internalType": "uint256",
          "name": "id",
          "type": "uint256"
        },
        {
          "indexed": false,
          "internalType": "uint256",
          "name": "value",
          "type": "uint256"
        }
      ],
      "name": "TransferSingle",
      "type": "event"
    },
    {
      "anonymous": false,
      "inputs": [
        {
          "indexed": false,
          "internalType": "string",
          "name": "value",
          "type": "string"
        },
        {
          "indexed": true,
          "internalType": "uint256",
          "name": "id",
          "type": "uint256"
        }
      ],
      "name": "URI",
      "type": "event"
    },
    {
      "inputs": [],
      "name": "CafLaMAccount",
      "outputs": [
        {
          "internalType": "address payable",
          "name": "",
          "type": "address"
        }
      ],
      "stateMutability": "view",
      "type": "function",
      "constant": true
    },
    {
      "inputs": [
        {
          "internalType": "uint256",
          "name": "",
          "type": "uint256"
        }
      ],
      "name": "CafLaM_angels_list",
      "outputs": [
        {
          "internalType": "address",
          "name": "",
          "type": "address"
        }
      ],
      "stateMutability": "view",
      "type": "function",
      "constant": true
    },
    {
      "inputs": [
        {
          "internalType": "uint256",
          "name": "",
          "type": "uint256"
        },
        {
          "internalType": "address",
          "name": "",
          "type": "address"
        }
      ],
      "name": "CafLaM_angels_map",
      "outputs": [
        {
          "internalType": "uint256",
          "name": "",
          "type": "uint256"
        }
      ],
      "stateMutability": "view",
      "type": "function",
      "constant": true
    },
    {
      "inputs": [],
      "name": "OA",
      "outputs": [
        {
          "internalType": "address payable",
          "name": "",
          "type": "address"
        }
      ],
      "stateMutability": "view",
      "type": "function",
      "constant": true
    },
    {
      "inputs": [
        {
          "internalType": "uint256",
          "name": "",
          "type": "uint256"
        }
      ],
      "name": "alms",
      "outputs": [
        {
          "internalType": "address",
          "name": "owner",
          "type": "address"
        },
        {
          "internalType": "bytes",
          "name": "uri",
          "type": "bytes"
        },
        {
          "internalType": "string",
          "name": "name",
          "type": "string"
        },
        {
          "internalType": "string",
          "name": "sym",
          "type": "string"
        },
        {
          "internalType": "uint256",
          "name": "id",
          "type": "uint256"
        },
        {
          "internalType": "bytes",
          "name": "mint_data",
          "type": "bytes"
        }
      ],
      "stateMutability": "view",
      "type": "function",
      "constant": true
    },
    {
      "inputs": [
        {
          "internalType": "address",
          "name": "account",
          "type": "address"
        },
        {
          "internalType": "uint256",
          "name": "id",
          "type": "uint256"
        }
      ],
      "name": "balanceOf",
      "outputs": [
        {
          "internalType": "uint256",
          "name": "",
          "type": "uint256"
        }
      ],
      "stateMutability": "view",
      "type": "function",
      "constant": true
    },
    {
      "inputs": [
        {
          "internalType": "address[]",
          "name": "accounts",
          "type": "address[]"
        },
        {
          "internalType": "uint256[]",
          "name": "ids",
          "type": "uint256[]"
        }
      ],
      "name": "balanceOfBatch",
      "outputs": [
        {
          "internalType": "uint256[]",
          "name": "",
          "type": "uint256[]"
        }
      ],
      "stateMutability": "view",
      "type": "function",
      "constant": true
    },
    {
      "inputs": [
        {
          "internalType": "address",
          "name": "account",
          "type": "address"
        },
        {
          "internalType": "address",
          "name": "operator",
          "type": "address"
        }
      ],
      "name": "isApprovedForAll",
      "outputs": [
        {
          "internalType": "bool",
          "name": "",
          "type": "bool"
        }
      ],
      "stateMutability": "view",
      "type": "function",
      "constant": true
    },
    {
      "inputs": [
        {
          "internalType": "uint256",
          "name": "",
          "type": "uint256"
        }
      ],
      "name": "is_on_manifest",
      "outputs": [
        {
          "internalType": "bool",
          "name": "",
          "type": "bool"
        }
      ],
      "stateMutability": "view",
      "type": "function",
      "constant": true
    },
    {
      "inputs": [
        {
          "internalType": "uint256",
          "name": "",
          "type": "uint256"
        }
      ],
      "name": "map_id_to_Alm",
      "outputs": [
        {
          "internalType": "address",
          "name": "owner",
          "type": "address"
        },
        {
          "internalType": "bytes",
          "name": "uri",
          "type": "bytes"
        },
        {
          "internalType": "string",
          "name": "name",
          "type": "string"
        },
        {
          "internalType": "string",
          "name": "sym",
          "type": "string"
        },
        {
          "internalType": "uint256",
          "name": "id",
          "type": "uint256"
        },
        {
          "internalType": "bytes",
          "name": "mint_data",
          "type": "bytes"
        }
      ],
      "stateMutability": "view",
      "type": "function",
      "constant": true
    },
    {
      "inputs": [
        {
          "internalType": "address",
          "name": "",
          "type": "address"
        }
      ],
      "name": "map_owner_to_id",
      "outputs": [
        {
          "internalType": "uint256",
          "name": "",
          "type": "uint256"
        }
      ],
      "stateMutability": "view",
      "type": "function",
      "constant": true
    },
    {
      "inputs": [
        {
          "internalType": "string",
          "name": "",
          "type": "string"
        }
      ],
      "name": "map_uri_to_Alm",
      "outputs": [
        {
          "internalType": "address",
          "name": "owner",
          "type": "address"
        },
        {
          "internalType": "bytes",
          "name": "uri",
          "type": "bytes"
        },
        {
          "internalType": "string",
          "name": "name",
          "type": "string"
        },
        {
          "internalType": "string",
          "name": "sym",
          "type": "string"
        },
        {
          "internalType": "uint256",
          "name": "id",
          "type": "uint256"
        },
        {
          "internalType": "bytes",
          "name": "mint_data",
          "type": "bytes"
        }
      ],
      "stateMutability": "view",
      "type": "function",
      "constant": true
    },
    {
      "inputs": [
        {
          "internalType": "address",
          "name": "from",
          "type": "address"
        },
        {
          "internalType": "address",
          "name": "to",
          "type": "address"
        },
        {
          "internalType": "uint256[]",
          "name": "ids",
          "type": "uint256[]"
        },
        {
          "internalType": "uint256[]",
          "name": "amounts",
          "type": "uint256[]"
        },
        {
          "internalType": "bytes",
          "name": "data",
          "type": "bytes"
        }
      ],
      "name": "safeBatchTransferFrom",
      "outputs": [],
      "stateMutability": "nonpayable",
      "type": "function"
    },
    {
      "inputs": [
        {
          "internalType": "address",
          "name": "from",
          "type": "address"
        },
        {
          "internalType": "address",
          "name": "to",
          "type": "address"
        },
        {
          "internalType": "uint256",
          "name": "id",
          "type": "uint256"
        },
        {
          "internalType": "uint256",
          "name": "amount",
          "type": "uint256"
        },
        {
          "internalType": "bytes",
          "name": "data",
          "type": "bytes"
        }
      ],
      "name": "safeTransferFrom",
      "outputs": [],
      "stateMutability": "nonpayable",
      "type": "function"
    },
    {
      "inputs": [
        {
          "internalType": "address",
          "name": "operator",
          "type": "address"
        },
        {
          "internalType": "bool",
          "name": "approved",
          "type": "bool"
        }
      ],
      "name": "setApprovalForAll",
      "outputs": [],
      "stateMutability": "nonpayable",
      "type": "function"
    },
    {
      "inputs": [
        {
          "internalType": "bytes4",
          "name": "interfaceId",
          "type": "bytes4"
        }
      ],
      "name": "supportsInterface",
      "outputs": [
        {
          "internalType": "bool",
          "name": "",
          "type": "bool"
        }
      ],
      "stateMutability": "view",
      "type": "function",
      "constant": true
    },
    {
      "inputs": [
        {
          "internalType": "uint256",
          "name": "",
          "type": "uint256"
        }
      ],
      "name": "uri",
      "outputs": [
        {
          "internalType": "string",
          "name": "",
          "type": "string"
        }
      ],
      "stateMutability": "view",
      "type": "function",
      "constant": true
    },
    {
      "inputs": [
        {
          "internalType": "string",
          "name": "_ename",
          "type": "string"
        },
        {
          "internalType": "string",
          "name": "_esym",
          "type": "string"
        },
        {
          "internalType": "uint256",
          "name": "_num_to_issue",
          "type": "uint256"
        },
        {
          "internalType": "string",
          "name": "_mint_date",
          "type": "string"
        },
        {
          "internalType": "uint256",
          "name": "_cost",
          "type": "uint256"
        },
        {
          "internalType": "uint256",
          "name": "_angel_coefficient",
          "type": "uint256"
        },
        {
          "internalType": "string",
          "name": "_product",
          "type": "string"
        }
      ],
      "name": "tokenGenesis",
      "outputs": [],
      "stateMutability": "nonpayable",
      "type": "function"
    },
    {
      "inputs": [],
      "name": "getAlmsLength",
      "outputs": [
        {
          "internalType": "uint256",
          "name": "",
          "type": "uint256"
        }
      ],
      "stateMutability": "view",
      "type": "function",
      "constant": true
    },
    {
      "inputs": [
        {
          "internalType": "address payable",
          "name": "_owner",
          "type": "address"
        },
        {
          "internalType": "address",
          "name": "_buyer",
          "type": "address"
        },
        {
          "internalType": "uint256",
          "name": "_id",
          "type": "uint256"
        },
        {
          "internalType": "uint256",
          "name": "_amount",
          "type": "uint256"
        },
        {
          "internalType": "bytes",
          "name": "_data",
          "type": "bytes"
        },
        {
          "internalType": "uint256",
          "name": "cost",
          "type": "uint256"
        }
      ],
      "name": "buyAlms",
      "outputs": [],
      "stateMutability": "payable",
      "type": "function",
      "payable": true
    },
    {
      "inputs": [],
      "name": "seed_round",
      "outputs": [],
      "stateMutability": "payable",
      "type": "function",
      "payable": true
    },
    {
      "inputs": [
        {
          "internalType": "uint256",
          "name": "_last_rnd_id",
          "type": "uint256"
        }
      ],
      "name": "payout_last",
      "outputs": [],
      "stateMutability": "payable",
      "type": "function",
      "payable": true
    },
    {
      "inputs": [
        {
          "internalType": "uint256",
          "name": "_id",
          "type": "uint256"
        }
      ],
      "name": "change_status_x",
      "outputs": [],
      "stateMutability": "view",
      "type": "function",
      "constant": true
    },
    {
      "inputs": [
        {
          "internalType": "uint256",
          "name": "_id",
          "type": "uint256"
        },
        {
          "internalType": "bool",
          "name": "is_shipping",
          "type": "bool"
        }
      ],
      "name": "change_status_s",
      "outputs": [],
      "stateMutability": "view",
      "type": "function",
      "constant": true
    }
  ],
  "bytecode": "0x608060405233600860006101000a81548173ffffffffffffffffffffffffffffffffffffffff021916908373ffffffffffffffffffffffffffffffffffffffff1602179055507335c9b089ea8703cc5e097fb0fba5d1ca850f9854600960006101000a81548173ffffffffffffffffffffffffffffffffffffffff021916908373ffffffffffffffffffffffffffffffffffffffff1602179055506000600c55348015620000ac57600080fd5b506040518060600160405280602f815260200162005d16602f9139620000df6301ffc9a760e01b6200012760201b60201c565b620000f0816200023060201b60201c565b6200010863d9b67a2660e01b6200012760201b60201c565b62000120630e89341c60e01b6200012760201b60201c565b50620002f2565b63ffffffff60e01b817bffffffffffffffffffffffffffffffffffffffffffffffffffffffff19161415620001c4576040517f08c379a000000000000000000000000000000000000000000000000000000000815260040180806020018281038252601c8152602001807f4552433136353a20696e76616c696420696e746572666163652069640000000081525060200191505060405180910390fd5b6001600080837bffffffffffffffffffffffffffffffffffffffffffffffffffffffff19167bffffffffffffffffffffffffffffffffffffffffffffffffffffffff1916815260200190815260200160002060006101000a81548160ff02191690831515021790555050565b8060039080519060200190620002489291906200024c565b5050565b828054600181600116156101000203166002900490600052602060002090601f016020900481019282601f106200028f57805160ff1916838001178555620002c0565b82800160010185558215620002c0579182015b82811115620002bf578251825591602001919060010190620002a2565b5b509050620002cf9190620002d3565b5090565b5b80821115620002ee576000816000905550600101620002d4565b5090565b615a1480620003026000396000f3fe6080604052600436106101495760003560e01c806376cdf224116100b6578063cf719ca01161006f578063cf719ca0146111ec578063d110dfa8146111f6578063d2a55e3314611231578063e40c03321461144d578063e985e9c5146114b2578063f242432a1461153957610149565b806376cdf22414610b27578063a22cb46514610dd2578063a2fe5f6f14610e2f578063a32212d81461104b578063bb0c15cf14611092578063caae5f94146111ab57610149565b80632eb2c2d6116101085780632eb2c2d6146105f9578063306e81cb146108295780634b8ae8cd146108985780634e1273f4146108e9578063590743e514610a975780635d91889a14610afc57610149565b8062f2f94c1461014e578062fdd58e1461017c57806301ffc9a7146101eb57806303a9c3d71461025b5780630e89341c1461029c5780632ba5d42714610350575b600080fd5b61017a6004803603602081101561016457600080fd5b8101908080359060200190929190505050611655565b005b34801561018857600080fd5b506101d56004803603604081101561019f57600080fd5b81019080803573ffffffffffffffffffffffffffffffffffffffff16906020019092919080359060200190929190505050611cf9565b6040518082815260200191505060405180910390f35b3480156101f757600080fd5b506102436004803603602081101561020e57600080fd5b8101908080357bffffffffffffffffffffffffffffffffffffffffffffffffffffffff19169060200190929190505050611dd9565b60405180821515815260200191505060405180910390f35b34801561026757600080fd5b50610270611e40565b604051808273ffffffffffffffffffffffffffffffffffffffff16815260200191505060405180910390f35b3480156102a857600080fd5b506102d5600480360360208110156102bf57600080fd5b8101908080359060200190929190505050611e66565b6040518080602001828103825283818151815260200191508051906020019080838360005b838110156103155780820151818401526020810190506102fa565b50505050905090810190601f1680156103425780820380516001836020036101000a031916815260200191505b509250505060405180910390f35b34801561035c57600080fd5b506104166004803603602081101561037357600080fd5b810190808035906020019064010000000081111561039057600080fd5b8201836020820111156103a257600080fd5b803590602001918460018302840111640100000000831117156103c457600080fd5b91908080601f016020809104026020016040519081016040528093929190818152602001838380828437600081840152601f19601f820116905080830192505050505050509192919290505050611f0a565b604051808773ffffffffffffffffffffffffffffffffffffffff1681526020018060200180602001806020018681526020018060200185810385528a818151815260200191508051906020019080838360005b83811015610484578082015181840152602081019050610469565b50505050905090810190601f1680156104b15780820380516001836020036101000a031916815260200191505b50858103845289818151815260200191508051906020019080838360005b838110156104ea5780820151818401526020810190506104cf565b50505050905090810190601f1680156105175780820380516001836020036101000a031916815260200191505b50858103835288818151815260200191508051906020019080838360005b83811015610550578082015181840152602081019050610535565b50505050905090810190601f16801561057d5780820380516001836020036101000a031916815260200191505b50858103825286818151815260200191508051906020019080838360005b838110156105b657808201518184015260208101905061059b565b50505050905090810190601f1680156105e35780820380516001836020036101000a031916815260200191505b509a505050505050505050505060405180910390f35b34801561060557600080fd5b50610827600480360360a081101561061c57600080fd5b81019080803573ffffffffffffffffffffffffffffffffffffffff169060200190929190803573ffffffffffffffffffffffffffffffffffffffff1690602001909291908035906020019064010000000081111561067957600080fd5b82018360208201111561068b57600080fd5b803590602001918460208302840111640100000000831117156106ad57600080fd5b919080806020026020016040519081016040528093929190818152602001838360200280828437600081840152601f19601f8201169050808301925050505050505091929192908035906020019064010000000081111561070d57600080fd5b82018360208201111561071f57600080fd5b8035906020019184602083028401116401000000008311171561074157600080fd5b919080806020026020016040519081016040528093929190818152602001838360200280828437600081840152601f19601f820116905080830192505050505050509192919290803590602001906401000000008111156107a157600080fd5b8201836020820111156107b357600080fd5b803590602001918460018302840111640100000000831117156107d557600080fd5b91908080601f016020809104026020016040519081016040528093929190818152602001838380828437600081840152601f19601f8201169050808301925050505050505091929192905050506121dc565b005b34801561083557600080fd5b506108826004803603604081101561084c57600080fd5b8101908080359060200190929190803573ffffffffffffffffffffffffffffffffffffffff169060200190929190505050612667565b6040518082815260200191505060405180910390f35b3480156108a457600080fd5b506108d1600480360360208110156108bb57600080fd5b810190808035906020019092919050505061268c565b60405180821515815260200191505060405180910390f35b3480156108f557600080fd5b50610a406004803603604081101561090c57600080fd5b810190808035906020019064010000000081111561092957600080fd5b82018360208201111561093b57600080fd5b8035906020019184602083028401116401000000008311171561095d57600080fd5b919080806020026020016040519081016040528093929190818152602001838360200280828437600081840152601f19601f820116905080830192505050505050509192919290803590602001906401000000008111156109bd57600080fd5b8201836020820111156109cf57600080fd5b803590602001918460208302840111640100000000831117156109f157600080fd5b919080806020026020016040519081016040528093929190818152602001838360200280828437600081840152601f19601f8201169050808301925050505050505091929192905050506126ac565b6040518080602001828103825283818151815260200191508051906020019060200280838360005b83811015610a83578082015181840152602081019050610a68565b505050509050019250505060405180910390f35b348015610aa357600080fd5b50610ae660048036036020811015610aba57600080fd5b81019080803573ffffffffffffffffffffffffffffffffffffffff16906020019092919050505061289e565b6040518082815260200191505060405180910390f35b348015610b0857600080fd5b50610b116128b6565b6040518082815260200191505060405180910390f35b348015610b3357600080fd5b50610dd0600480360360e0811015610b4a57600080fd5b8101908080359060200190640100000000811115610b6757600080fd5b820183602082011115610b7957600080fd5b80359060200191846001830284011164010000000083111715610b9b57600080fd5b91908080601f016020809104026020016040519081016040528093929190818152602001838380828437600081840152601f19601f82011690508083019250505050505050919291929080359060200190640100000000811115610bfe57600080fd5b820183602082011115610c1057600080fd5b80359060200191846001830284011164010000000083111715610c3257600080fd5b91908080601f016020809104026020016040519081016040528093929190818152602001838380828437600081840152601f19601f8201169050808301925050505050505091929192908035906020019092919080359060200190640100000000811115610c9f57600080fd5b820183602082011115610cb157600080fd5b80359060200191846001830284011164010000000083111715610cd357600080fd5b91908080601f016020809104026020016040519081016040528093929190818152602001838380828437600081840152601f19601f820116905080830192505050505050509192919290803590602001909291908035906020019092919080359060200190640100000000811115610d4a57600080fd5b820183602082011115610d5c57600080fd5b80359060200191846001830284011164010000000083111715610d7e57600080fd5b91908080601f016020809104026020016040519081016040528093929190818152602001838380828437600081840152601f19601f8201169050808301925050505050505091929192905050506128c3565b005b348015610dde57600080fd5b50610e2d60048036036040811015610df557600080fd5b81019080803573ffffffffffffffffffffffffffffffffffffffff169060200190929190803515159060200190929190505050612fc3565b005b348015610e3b57600080fd5b50610e6860048036036020811015610e5257600080fd5b810190808035906020019092919050505061315c565b604051808773ffffffffffffffffffffffffffffffffffffffff1681526020018060200180602001806020018681526020018060200185810385528a818151815260200191508051906020019080838360005b83811015610ed6578082015181840152602081019050610ebb565b50505050905090810190601f168015610f035780820380516001836020036101000a031916815260200191505b50858103845289818151815260200191508051906020019080838360005b83811015610f3c578082015181840152602081019050610f21565b50505050905090810190601f168015610f695780820380516001836020036101000a031916815260200191505b50858103835288818151815260200191508051906020019080838360005b83811015610fa2578082015181840152602081019050610f87565b50505050905090810190601f168015610fcf5780820380516001836020036101000a031916815260200191505b50858103825286818151815260200191508051906020019080838360005b83811015611008578082015181840152602081019050610fed565b50505050905090810190601f1680156110355780820380516001836020036101000a031916815260200191505b509a505050505050505050505060405180910390f35b34801561105757600080fd5b506110906004803603604081101561106e57600080fd5b8101908080359060200190929190803515159060200190929190505050613418565b005b6111a9600480360360c08110156110a857600080fd5b81019080803573ffffffffffffffffffffffffffffffffffffffff169060200190929190803573ffffffffffffffffffffffffffffffffffffffff16906020019092919080359060200190929190803590602001909291908035906020019064010000000081111561111957600080fd5b82018360208201111561112b57600080fd5b8035906020019184600183028401116401000000008311171561114d57600080fd5b91908080601f016020809104026020016040519081016040528093929190818152602001838380828437600081840152601f19601f82011690508083019250505050505050919291929080359060200190929190505050613a2e565b005b3480156111b757600080fd5b506111c0613cf7565b604051808273ffffffffffffffffffffffffffffffffffffffff16815260200191505060405180910390f35b6111f4613d1d565b005b34801561120257600080fd5b5061122f6004803603602081101561121957600080fd5b8101908080359060200190929190505050613d9f565b005b34801561123d57600080fd5b5061126a6004803603602081101561125457600080fd5b81019080803590602001909291905050506143ad565b604051808773ffffffffffffffffffffffffffffffffffffffff1681526020018060200180602001806020018681526020018060200185810385528a818151815260200191508051906020019080838360005b838110156112d85780820151818401526020810190506112bd565b50505050905090810190601f1680156113055780820380516001836020036101000a031916815260200191505b50858103845289818151815260200191508051906020019080838360005b8381101561133e578082015181840152602081019050611323565b50505050905090810190601f16801561136b5780820380516001836020036101000a031916815260200191505b50858103835288818151815260200191508051906020019080838360005b838110156113a4578082015181840152602081019050611389565b50505050905090810190601f1680156113d15780820380516001836020036101000a031916815260200191505b50858103825286818151815260200191508051906020019080838360005b8381101561140a5780820151818401526020810190506113ef565b50505050905090810190601f1680156114375780820380516001836020036101000a031916815260200191505b509a505050505050505050505060405180910390f35b34801561145957600080fd5b506114866004803603602081101561147057600080fd5b8101908080359060200190929190505050614676565b604051808273ffffffffffffffffffffffffffffffffffffffff16815260200191505060405180910390f35b3480156114be57600080fd5b50611521600480360360408110156114d557600080fd5b81019080803573ffffffffffffffffffffffffffffffffffffffff169060200190929190803573ffffffffffffffffffffffffffffffffffffffff1690602001909291905050506146b2565b60405180821515815260200191505060405180910390f35b34801561154557600080fd5b50611653600480360360a081101561155c57600080fd5b81019080803573ffffffffffffffffffffffffffffffffffffffff169060200190929190803573ffffffffffffffffffffffffffffffffffffffff1690602001909291908035906020019092919080359060200190929190803590602001906401000000008111156115cd57600080fd5b8201836020820111156115df57600080fd5b8035906020019184600183028401116401000000008311171561160157600080fd5b91908080601f016020809104026020016040519081016040528093929190818152602001838380828437600081840152601f19601f820116905080830192505050505050509192919290505050614746565b005b61165d6155cd565b600660008381526020019081526020016000206040518060c00160405290816000820160009054906101000a900473ffffffffffffffffffffffffffffffffffffffff1673ffffffffffffffffffffffffffffffffffffffff1673ffffffffffffffffffffffffffffffffffffffff168152602001600182018054600181600116156101000203166002900480601f01602080910402602001604051908101604052809291908181526020018280546001816001161561010002031660029004801561176a5780601f1061173f5761010080835404028352916020019161176a565b820191906000526020600020905b81548152906001019060200180831161174d57829003601f168201915b50505050508152602001600282018054600181600116156101000203166002900480601f01602080910402602001604051908101604052809291908181526020018280546001816001161561010002031660029004801561180c5780601f106117e15761010080835404028352916020019161180c565b820191906000526020600020905b8154815290600101906020018083116117ef57829003601f168201915b50505050508152602001600382018054600181600116156101000203166002900480601f0160208091040260200160405190810160405280929190818152602001828054600181600116156101000203166002900480156118ae5780601f10611883576101008083540402835291602001916118ae565b820191906000526020600020905b81548152906001019060200180831161189157829003601f168201915b5050505050815260200160048201548152602001600582018054600181600116156101000203166002900480601f01602080910402602001604051908101604052809291908181526020018280546001816001161561010002031660029004801561195a5780601f1061192f5761010080835404028352916020019161195a565b820191906000526020600020905b81548152906001019060200180831161193d57829003601f168201915b505050505081525050905060006060600080600060608660a0015180602001905160c081101561198957600080fd5b8101908080519060200190929190805160405193929190846401000000008211156119b357600080fd5b838201915060208201858111156119c957600080fd5b82518660018202830111640100000000821117156119e657600080fd5b8083526020830192505050908051906020019080838360005b83811015611a1a5780820151818401526020810190506119ff565b50505050905090810190601f168015611a475780820380516001836020036101000a031916815260200191505b5060405260200180519060200190929190805190602001909291908051906020019092919080516040519392919084640100000000821115611a8857600080fd5b83820191506020820185811115611a9e57600080fd5b8251866001820283011164010000000082111715611abb57600080fd5b8083526020830192505050908051906020019080838360005b83811015611aef578082015181840152602081019050611ad4565b50505050905090810190601f168015611b1c5780820380516001836020036101000a031916815260200191505b50604052505050809650819750829850839950849a50859b5050505050505060008685029050600061157c9050600081830390506000600190505b600b805490508111611bcd576000600b8281548110611b7257fe5b9060005260206000200160009054906101000a900473ffffffffffffffffffffffffffffffffffffffff1690506000611bab828f611cf9565b905060008982028581611bba57fe5b0490505050508080600101915050611b57565b5060049450888888888888604051602001808781526020018060200186815260200185815260200184815260200180602001838103835288818151815260200191508051906020019080838360005b83811015611c37578082015181840152602081019050611c1c565b50505050905090810190601f168015611c645780820380516001836020036101000a031916815260200191505b50838103825284818151815260200191508051906020019080838360005b83811015611c9d578082015181840152602081019050611c82565b50505050905090810190601f168015611cca5780820380516001836020036101000a031916815260200191505b50985050505050505050506040516020818303038152906040528a60a001819052505050505050505050505050565b60008073ffffffffffffffffffffffffffffffffffffffff168373ffffffffffffffffffffffffffffffffffffffff161415611d80576040517f08c379a000000000000000000000000000000000000000000000000000000000815260040180806020018281038252602b815260200180615867602b913960400191505060405180910390fd5b6001600083815260200190815260200160002060008473ffffffffffffffffffffffffffffffffffffffff1673ffffffffffffffffffffffffffffffffffffffff16815260200190815260200160002054905092915050565b6000806000837bffffffffffffffffffffffffffffffffffffffffffffffffffffffff19167bffffffffffffffffffffffffffffffffffffffffffffffffffffffff1916815260200190815260200160002060009054906101000a900460ff169050919050565b600860009054906101000a900473ffffffffffffffffffffffffffffffffffffffff1681565b606060038054600181600116156101000203166002900480601f016020809104026020016040519081016040528092919081815260200182805460018160011615610100020316600290048015611efe5780601f10611ed357610100808354040283529160200191611efe565b820191906000526020600020905b815481529060010190602001808311611ee157829003601f168201915b50505050509050919050565b6007818051602081018201805184825260208301602085012081835280955050505050506000915090508060000160009054906101000a900473ffffffffffffffffffffffffffffffffffffffff1690806001018054600181600116156101000203166002900480601f016020809104026020016040519081016040528092919081815260200182805460018160011615610100020316600290048015611ff25780601f10611fc757610100808354040283529160200191611ff2565b820191906000526020600020905b815481529060010190602001808311611fd557829003601f168201915b505050505090806002018054600181600116156101000203166002900480601f0160208091040260200160405190810160405280929190818152602001828054600181600116156101000203166002900480156120905780601f1061206557610100808354040283529160200191612090565b820191906000526020600020905b81548152906001019060200180831161207357829003601f168201915b505050505090806003018054600181600116156101000203166002900480601f01602080910402602001604051908101604052809291908181526020018280546001816001161561010002031660029004801561212e5780601f106121035761010080835404028352916020019161212e565b820191906000526020600020905b81548152906001019060200180831161211157829003601f168201915b505050505090806004015490806005018054600181600116156101000203166002900480601f0160208091040260200160405190810160405280929190818152602001828054600181600116156101000203166002900480156121d25780601f106121a7576101008083540402835291602001916121d2565b820191906000526020600020905b8154815290600101906020018083116121b557829003601f168201915b5050505050905086565b8151835114612236576040517f08c379a00000000000000000000000000000000000000000000000000000000081526004018080602001828103825260288152602001806159966028913960400191505060405180910390fd5b600073ffffffffffffffffffffffffffffffffffffffff168473ffffffffffffffffffffffffffffffffffffffff1614156122bc576040517f08c379a00000000000000000000000000000000000000000000000000000000081526004018080602001828103825260258152602001806158c36025913960400191505060405180910390fd5b6122c4614aba565b73ffffffffffffffffffffffffffffffffffffffff168573ffffffffffffffffffffffffffffffffffffffff16148061230a575061230985612304614aba565b6146b2565b5b61235f576040517f08c379a00000000000000000000000000000000000000000000000000000000081526004018080602001828103825260328152602001806158e86032913960400191505060405180910390fd5b6000612369614aba565b9050612379818787878787614ac2565b60005b845181101561254a57600085828151811061239357fe5b6020026020010151905060008583815181106123ab57fe5b60200260200101519050612432816040518060600160405280602a815260200161591a602a91396001600086815260200190815260200160002060008d73ffffffffffffffffffffffffffffffffffffffff1673ffffffffffffffffffffffffffffffffffffffff16815260200190815260200160002054614aca9092919063ffffffff16565b6001600084815260200190815260200160002060008b73ffffffffffffffffffffffffffffffffffffffff1673ffffffffffffffffffffffffffffffffffffffff168152602001908152602001600020819055506124e9816001600085815260200190815260200160002060008b73ffffffffffffffffffffffffffffffffffffffff1673ffffffffffffffffffffffffffffffffffffffff16815260200190815260200160002054614b8a90919063ffffffff16565b6001600084815260200190815260200160002060008a73ffffffffffffffffffffffffffffffffffffffff1673ffffffffffffffffffffffffffffffffffffffff16815260200190815260200160002081905550505080600101905061237c565b508473ffffffffffffffffffffffffffffffffffffffff168673ffffffffffffffffffffffffffffffffffffffff168273ffffffffffffffffffffffffffffffffffffffff167f4a39dc06d4c0dbc64b70af90fd698a233a518aa5d07e595d983b8c0526c8f7fb8787604051808060200180602001838103835285818151815260200191508051906020019060200280838360005b838110156125fa5780820151818401526020810190506125df565b50505050905001838103825284818151815260200191508051906020019060200280838360005b8381101561263c578082015181840152602081019050612621565b5050505090500194505050505060405180910390a461265f818787878787614c12565b505050505050565b600a602052816000526040600020602052806000526040600020600091509150505481565b60046020528060005260406000206000915054906101000a900460ff1681565b60608151835114612708576040517f08c379a000000000000000000000000000000000000000000000000000000000815260040180806020018281038252602981526020018061596d6029913960400191505060405180910390fd5b6060835167ffffffffffffffff8111801561272257600080fd5b506040519080825280602002602001820160405280156127515781602001602082028036833780820191505090505b50905060005b845181101561289357600073ffffffffffffffffffffffffffffffffffffffff1685828151811061278457fe5b602002602001015173ffffffffffffffffffffffffffffffffffffffff1614156127f9576040517f08c379a00000000000000000000000000000000000000000000000000000000081526004018080602001828103825260318152602001806158926031913960400191505060405180910390fd5b6001600085838151811061280957fe5b60200260200101518152602001908152602001600020600086838151811061282d57fe5b602002602001015173ffffffffffffffffffffffffffffffffffffffff1673ffffffffffffffffffffffffffffffffffffffff1681526020019081526020016000205482828151811061287c57fe5b602002602001018181525050806001019050612757565b508091505092915050565b60056020528060005260406000206000915090505481565b6000600e80549050905090565b60006128ce88614fa1565b90506004600082815260200190815260200160002060009054906101000a900460ff16156128fb57600080fd5b60016004600083815260200190815260200160002060006101000a81548160ff02191690831515021790555061292f6155cd565b33816000019073ffffffffffffffffffffffffffffffffffffffff16908173ffffffffffffffffffffffffffffffffffffffff16815250508881604001819052508781606001819052508181608001818152505060608883604051602001808060200183815260200180602001838103835285818151815260200191508051906020019080838360005b838110156129d45780820151818401526020810190506129b9565b50505050905090810190601f168015612a015780820380516001836020036101000a031916815260200191505b50838103825260058152602001807f2e6a736f6e0000000000000000000000000000000000000000000000000000008152506020019450505050506040516020818303038152906040529050808260200181905250606088888888600189604051602001808781526020018060200186815260200185815260200184815260200180602001838103835288818151815260200191508051906020019080838360005b83811015612abe578082015181840152602081019050612aa3565b50505050905090810190601f168015612aeb5780820380516001836020036101000a031916815260200191505b50838103825284818151815260200191508051906020019080838360005b83811015612b24578082015181840152602081019050612b09565b50505050905090810190601f168015612b515780820380516001836020036101000a031916815260200191505b50985050505050505050506040516020818303038152906040529050808360a00181905250600e83908060018154018082558091505060019003906000526020600020906006020160009091909190915060008201518160000160006101000a81548173ffffffffffffffffffffffffffffffffffffffff021916908373ffffffffffffffffffffffffffffffffffffffff1602179055506020820151816001019080519060200190612c05929190615619565b506040820151816002019080519060200190612c22929190615699565b506060820151816003019080519060200190612c3f929190615699565b506080820151816004015560a0820151816005019080519060200190612c66929190615619565b50505083600560003373ffffffffffffffffffffffffffffffffffffffff1673ffffffffffffffffffffffffffffffffffffffff16815260200190815260200160002081905550826006600086815260200190815260200160002060008201518160000160006101000a81548173ffffffffffffffffffffffffffffffffffffffff021916908373ffffffffffffffffffffffffffffffffffffffff1602179055506020820151816001019080519060200190612d24929190615619565b506040820151816002019080519060200190612d41929190615699565b506060820151816003019080519060200190612d5e929190615699565b506080820151816004015560a0820151816005019080519060200190612d85929190615619565b50905050612d9533858b8461503a565b7fe4db4d9bae6a7ea1c8f58bae49da45e3112df950e97a0b718e738b109807232e836000015184602001518560400151866060015187608001518860a00151604051808773ffffffffffffffffffffffffffffffffffffffff1681526020018060200180602001806020018681526020018060200185810385528a818151815260200191508051906020019080838360005b83811015612e42578082015181840152602081019050612e27565b50505050905090810190601f168015612e6f5780820380516001836020036101000a031916815260200191505b50858103845289818151815260200191508051906020019080838360005b83811015612ea8578082015181840152602081019050612e8d565b50505050905090810190601f168015612ed55780820380516001836020036101000a031916815260200191505b50858103835288818151815260200191508051906020019080838360005b83811015612f0e578082015181840152602081019050612ef3565b50505050905090810190601f168015612f3b5780820380516001836020036101000a031916815260200191505b50858103825286818151815260200191508051906020019080838360005b83811015612f74578082015181840152602081019050612f59565b50505050905090810190601f168015612fa15780820380516001836020036101000a031916815260200191505b509a505050505050505050505060405180910390a15050505050505050505050565b8173ffffffffffffffffffffffffffffffffffffffff16612fe2614aba565b73ffffffffffffffffffffffffffffffffffffffff16141561304f576040517f08c379a00000000000000000000000000000000000000000000000000000000081526004018080602001828103825260298152602001806159446029913960400191505060405180910390fd5b806002600061305c614aba565b73ffffffffffffffffffffffffffffffffffffffff1673ffffffffffffffffffffffffffffffffffffffff16815260200190815260200160002060008473ffffffffffffffffffffffffffffffffffffffff1673ffffffffffffffffffffffffffffffffffffffff16815260200190815260200160002060006101000a81548160ff0219169083151502179055508173ffffffffffffffffffffffffffffffffffffffff16613109614aba565b73ffffffffffffffffffffffffffffffffffffffff167f17307eab39ab6107e8899845ad3d59bd9653f200f220920489ca2b5937696c318360405180821515815260200191505060405180910390a35050565b60066020528060005260406000206000915090508060000160009054906101000a900473ffffffffffffffffffffffffffffffffffffffff1690806001018054600181600116156101000203166002900480601f01602080910402602001604051908101604052809291908181526020018280546001816001161561010002031660029004801561322e5780601f106132035761010080835404028352916020019161322e565b820191906000526020600020905b81548152906001019060200180831161321157829003601f168201915b505050505090806002018054600181600116156101000203166002900480601f0160208091040260200160405190810160405280929190818152602001828054600181600116156101000203166002900480156132cc5780601f106132a1576101008083540402835291602001916132cc565b820191906000526020600020905b8154815290600101906020018083116132af57829003601f168201915b505050505090806003018054600181600116156101000203166002900480601f01602080910402602001604051908101604052809291908181526020018280546001816001161561010002031660029004801561336a5780601f1061333f5761010080835404028352916020019161336a565b820191906000526020600020905b81548152906001019060200180831161334d57829003601f168201915b505050505090806004015490806005018054600181600116156101000203166002900480601f01602080910402602001604051908101604052809291908181526020018280546001816001161561010002031660029004801561340e5780601f106133e35761010080835404028352916020019161340e565b820191906000526020600020905b8154815290600101906020018083116133f157829003601f168201915b5050505050905086565b8015613a2a576134266155cd565b600660008481526020019081526020016000206040518060c00160405290816000820160009054906101000a900473ffffffffffffffffffffffffffffffffffffffff1673ffffffffffffffffffffffffffffffffffffffff1673ffffffffffffffffffffffffffffffffffffffff168152602001600182018054600181600116156101000203166002900480601f0160208091040260200160405190810160405280929190818152602001828054600181600116156101000203166002900480156135335780601f1061350857610100808354040283529160200191613533565b820191906000526020600020905b81548152906001019060200180831161351657829003601f168201915b50505050508152602001600282018054600181600116156101000203166002900480601f0160208091040260200160405190810160405280929190818152602001828054600181600116156101000203166002900480156135d55780601f106135aa576101008083540402835291602001916135d5565b820191906000526020600020905b8154815290600101906020018083116135b857829003601f168201915b50505050508152602001600382018054600181600116156101000203166002900480601f0160208091040260200160405190810160405280929190818152602001828054600181600116156101000203166002900480156136775780601f1061364c57610100808354040283529160200191613677565b820191906000526020600020905b81548152906001019060200180831161365a57829003601f168201915b5050505050815260200160048201548152602001600582018054600181600116156101000203166002900480601f0160208091040260200160405190810160405280929190818152602001828054600181600116156101000203166002900480156137235780601f106136f857610100808354040283529160200191613723565b820191906000526020600020905b81548152906001019060200180831161370657829003601f168201915b505050505081525050905060006060600080600060608660a0015180602001905160c081101561375257600080fd5b81019080805190602001909291908051604051939291908464010000000082111561377c57600080fd5b8382019150602082018581111561379257600080fd5b82518660018202830111640100000000821117156137af57600080fd5b8083526020830192505050908051906020019080838360005b838110156137e35780820151818401526020810190506137c8565b50505050905090810190601f1680156138105780820380516001836020036101000a031916815260200191505b506040526020018051906020019092919080519060200190929190805190602001909291908051604051939291908464010000000082111561385157600080fd5b8382019150602082018581111561386757600080fd5b825186600182028301116401000000008211171561388457600080fd5b8083526020830192505050908051906020019080838360005b838110156138b857808201518184015260208101905061389d565b50505050905090810190601f1680156138e55780820380516001836020036101000a031916815260200191505b50604052505050809650819750829850839950849a50859b5050505050505060039150858585858585604051602001808781526020018060200186815260200185815260200184815260200180602001838103835288818151815260200191508051906020019080838360005b8381101561396d578082015181840152602081019050613952565b50505050905090810190601f16801561399a5780820380516001836020036101000a031916815260200191505b50838103825284818151815260200191508051906020019080838360005b838110156139d35780820151818401526020810190506139b8565b50505050905090810190601f168015613a005780820380516001836020036101000a031916815260200191505b50985050505050505050506040516020818303038152906040528760a00181905250505050505050505b5050565b828102341015613aa6576040517f08c379a00000000000000000000000000000000000000000000000000000000081526004018080602001828103825260138152602001807f6e6f7420656e6f756768206574682073656e740000000000000000000000000081525060200191505060405180910390fd5b8573ffffffffffffffffffffffffffffffffffffffff166108fc349081150290604051600060405180830381858888f19350505050613b4d576040517f08c379a00000000000000000000000000000000000000000000000000000000081526004018080602001828103825260118152602001807f6f776e65722073656e642072657665727400000000000000000000000000000081525060200191505060405180910390fd5b82613b588786611cf9565b1015613bcc576040517f08c379a00000000000000000000000000000000000000000000000000000000081526004018080602001828103825260198152602001807f796f7572652061736b696e6720666f7220746f6f206d7563680000000000000081525060200191505060405180910390fd5b82600a600086815260200190815260200160002060008773ffffffffffffffffffffffffffffffffffffffff1673ffffffffffffffffffffffffffffffffffffffff16815260200190815260200160002060008282540192505081905550600b859080600181540180825580915050600190039060005260206000200160009091909190916101000a81548173ffffffffffffffffffffffffffffffffffffffff021916908373ffffffffffffffffffffffffffffffffffffffff160217905550613c9a8686868686614746565b6000613ca68786611cf9565b1415613cef577fc81463067a3bdbb38282be3a24410e624c1c0a955e94ce8eda861d2318d20b908460016040518083815260200182151581526020019250505060405180910390a15b505050505050565b600960009054906101000a900473ffffffffffffffffffffffffffffffffffffffff1681565b6000600a905060006103e8905060008183029050600860009054906101000a900473ffffffffffffffffffffffffffffffffffffffff1673ffffffffffffffffffffffffffffffffffffffff166108fc829081150290604051600060405180830381858888f19350505050158015613d99573d6000803e3d6000fd5b50505050565b613da76155cd565b600660008381526020019081526020016000206040518060c00160405290816000820160009054906101000a900473ffffffffffffffffffffffffffffffffffffffff1673ffffffffffffffffffffffffffffffffffffffff1673ffffffffffffffffffffffffffffffffffffffff168152602001600182018054600181600116156101000203166002900480601f016020809104026020016040519081016040528092919081815260200182805460018160011615610100020316600290048015613eb45780601f10613e8957610100808354040283529160200191613eb4565b820191906000526020600020905b815481529060010190602001808311613e9757829003601f168201915b50505050508152602001600282018054600181600116156101000203166002900480601f016020809104026020016040519081016040528092919081815260200182805460018160011615610100020316600290048015613f565780601f10613f2b57610100808354040283529160200191613f56565b820191906000526020600020905b815481529060010190602001808311613f3957829003601f168201915b50505050508152602001600382018054600181600116156101000203166002900480601f016020809104026020016040519081016040528092919081815260200182805460018160011615610100020316600290048015613ff85780601f10613fcd57610100808354040283529160200191613ff8565b820191906000526020600020905b815481529060010190602001808311613fdb57829003601f168201915b5050505050815260200160048201548152602001600582018054600181600116156101000203166002900480601f0160208091040260200160405190810160405280929190818152602001828054600181600116156101000203166002900480156140a45780601f10614079576101008083540402835291602001916140a4565b820191906000526020600020905b81548152906001019060200180831161408757829003601f168201915b505050505081525050905060006060600080600060608660a0015180602001905160c08110156140d357600080fd5b8101908080519060200190929190805160405193929190846401000000008211156140fd57600080fd5b8382019150602082018581111561411357600080fd5b825186600182028301116401000000008211171561413057600080fd5b8083526020830192505050908051906020019080838360005b83811015614164578082015181840152602081019050614149565b50505050905090810190601f1680156141915780820380516001836020036101000a031916815260200191505b50604052602001805190602001909291908051906020019092919080519060200190929190805160405193929190846401000000008211156141d257600080fd5b838201915060208201858111156141e857600080fd5b825186600182028301116401000000008211171561420557600080fd5b8083526020830192505050908051906020019080838360005b8381101561423957808201518184015260208101905061421e565b50505050905090810190601f1680156142665780820380516001836020036101000a031916815260200191505b50604052505050809650819750829850839950849a50859b5050505050505060029150858585858585604051602001808781526020018060200186815260200185815260200184815260200180602001838103835288818151815260200191508051906020019080838360005b838110156142ee5780820151818401526020810190506142d3565b50505050905090810190601f16801561431b5780820380516001836020036101000a031916815260200191505b50838103825284818151815260200191508051906020019080838360005b83811015614354578082015181840152602081019050614339565b50505050905090810190601f1680156143815780820380516001836020036101000a031916815260200191505b50985050505050505050506040516020818303038152906040528760a001819052505050505050505050565b600e81815481106143ba57fe5b90600052602060002090600602016000915090508060000160009054906101000a900473ffffffffffffffffffffffffffffffffffffffff1690806001018054600181600116156101000203166002900480601f01602080910402602001604051908101604052809291908181526020018280546001816001161561010002031660029004801561448c5780601f106144615761010080835404028352916020019161448c565b820191906000526020600020905b81548152906001019060200180831161446f57829003601f168201915b505050505090806002018054600181600116156101000203166002900480601f01602080910402602001604051908101604052809291908181526020018280546001816001161561010002031660029004801561452a5780601f106144ff5761010080835404028352916020019161452a565b820191906000526020600020905b81548152906001019060200180831161450d57829003601f168201915b505050505090806003018054600181600116156101000203166002900480601f0160208091040260200160405190810160405280929190818152602001828054600181600116156101000203166002900480156145c85780601f1061459d576101008083540402835291602001916145c8565b820191906000526020600020905b8154815290600101906020018083116145ab57829003601f168201915b505050505090806004015490806005018054600181600116156101000203166002900480601f01602080910402602001604051908101604052809291908181526020018280546001816001161561010002031660029004801561466c5780601f106146415761010080835404028352916020019161466c565b820191906000526020600020905b81548152906001019060200180831161464f57829003601f168201915b5050505050905086565b600b818154811061468357fe5b906000526020600020016000915054906101000a900473ffffffffffffffffffffffffffffffffffffffff1681565b6000600260008473ffffffffffffffffffffffffffffffffffffffff1673ffffffffffffffffffffffffffffffffffffffff16815260200190815260200160002060008373ffffffffffffffffffffffffffffffffffffffff1673ffffffffffffffffffffffffffffffffffffffff16815260200190815260200160002060009054906101000a900460ff16905092915050565b600073ffffffffffffffffffffffffffffffffffffffff168473ffffffffffffffffffffffffffffffffffffffff1614156147cc576040517f08c379a00000000000000000000000000000000000000000000000000000000081526004018080602001828103825260258152602001806158c36025913960400191505060405180910390fd5b8473ffffffffffffffffffffffffffffffffffffffff168473ffffffffffffffffffffffffffffffffffffffff16141561486e576040517f08c379a00000000000000000000000000000000000000000000000000000000081526004018080602001828103825260208152602001807f455243313135353a2063616e6e6f74207472616e7366657220746f2073656c6681525060200191505060405180910390fd5b6000614878614aba565b90506148988187876148898861523d565b6148928861523d565b87614ac2565b614915836040518060600160405280602a815260200161591a602a91396001600088815260200190815260200160002060008a73ffffffffffffffffffffffffffffffffffffffff1673ffffffffffffffffffffffffffffffffffffffff16815260200190815260200160002054614aca9092919063ffffffff16565b6001600086815260200190815260200160002060008873ffffffffffffffffffffffffffffffffffffffff1673ffffffffffffffffffffffffffffffffffffffff168152602001908152602001600020819055506149cc836001600087815260200190815260200160002060008873ffffffffffffffffffffffffffffffffffffffff1673ffffffffffffffffffffffffffffffffffffffff16815260200190815260200160002054614b8a90919063ffffffff16565b6001600086815260200190815260200160002060008773ffffffffffffffffffffffffffffffffffffffff1673ffffffffffffffffffffffffffffffffffffffff168152602001908152602001600020819055508473ffffffffffffffffffffffffffffffffffffffff168673ffffffffffffffffffffffffffffffffffffffff168273ffffffffffffffffffffffffffffffffffffffff167fc3d58168c5ae7397731d063d5bbf3d657854427343f4c083240f7aacaa2d0f628787604051808381526020018281526020019250505060405180910390a4614ab28187878787876152ad565b505050505050565b600033905090565b505050505050565b6000838311158290614b77576040517f08c379a00000000000000000000000000000000000000000000000000000000081526004018080602001828103825283818151815260200191508051906020019080838360005b83811015614b3c578082015181840152602081019050614b21565b50505050905090810190601f168015614b695780820380516001836020036101000a031916815260200191505b509250505060405180910390fd5b5060008385039050809150509392505050565b600080828401905083811015614c08576040517f08c379a000000000000000000000000000000000000000000000000000000000815260040180806020018281038252601b8152602001807f536166654d6174683a206164646974696f6e206f766572666c6f77000000000081525060200191505060405180910390fd5b8091505092915050565b614c318473ffffffffffffffffffffffffffffffffffffffff166155ba565b15614f99578373ffffffffffffffffffffffffffffffffffffffff1663bc197c8187878686866040518663ffffffff1660e01b8152600401808673ffffffffffffffffffffffffffffffffffffffff1681526020018573ffffffffffffffffffffffffffffffffffffffff168152602001806020018060200180602001848103845287818151815260200191508051906020019060200280838360005b83811015614ce9578082015181840152602081019050614cce565b50505050905001848103835286818151815260200191508051906020019060200280838360005b83811015614d2b578082015181840152602081019050614d10565b50505050905001848103825285818151815260200191508051906020019080838360005b83811015614d6a578082015181840152602081019050614d4f565b50505050905090810190601f168015614d975780820380516001836020036101000a031916815260200191505b5098505050505050505050602060405180830381600087803b158015614dbc57600080fd5b505af1925050508015614df057506040513d6020811015614ddc57600080fd5b810190808051906020019092919050505060015b614efa57614dfc615754565b80614e075750614ea9565b806040517f08c379a00000000000000000000000000000000000000000000000000000000081526004018080602001828103825283818151815260200191508051906020019080838360005b83811015614e6e578082015181840152602081019050614e53565b50505050905090810190601f168015614e9b5780820380516001836020036101000a031916815260200191505b509250505060405180910390fd5b6040517f08c379a000000000000000000000000000000000000000000000000000000000815260040180806020018281038252603481526020018061580b6034913960400191505060405180910390fd5b63bc197c8160e01b7bffffffffffffffffffffffffffffffffffffffffffffffffffffffff1916817bffffffffffffffffffffffffffffffffffffffffffffffffffffffff191614614f97576040517f08c379a000000000000000000000000000000000000000000000000000000000815260040180806020018281038252602881526020018061583f6028913960400191505060405180910390fd5b505b505050505050565b600080662386f26fc1000090506000836040516020018082805190602001908083835b60208310614fe75780518252602082019150602081019050602083039250614fc4565b6001836020036101000a0380198251168184511680821785525050505050509050019150506040516020818303038152906040528051906020012060001c905081818161503057fe5b0692505050919050565b600073ffffffffffffffffffffffffffffffffffffffff168473ffffffffffffffffffffffffffffffffffffffff1614156150c0576040517f08c379a00000000000000000000000000000000000000000000000000000000081526004018080602001828103825260218152602001806159be6021913960400191505060405180910390fd5b60006150ca614aba565b90506150eb816000876150dc8861523d565b6150e58861523d565b87614ac2565b61514e836001600087815260200190815260200160002060008873ffffffffffffffffffffffffffffffffffffffff1673ffffffffffffffffffffffffffffffffffffffff16815260200190815260200160002054614b8a90919063ffffffff16565b6001600086815260200190815260200160002060008773ffffffffffffffffffffffffffffffffffffffff1673ffffffffffffffffffffffffffffffffffffffff168152602001908152602001600020819055508473ffffffffffffffffffffffffffffffffffffffff16600073ffffffffffffffffffffffffffffffffffffffff168273ffffffffffffffffffffffffffffffffffffffff167fc3d58168c5ae7397731d063d5bbf3d657854427343f4c083240f7aacaa2d0f628787604051808381526020018281526020019250505060405180910390a4615236816000878787876152ad565b5050505050565b606080600167ffffffffffffffff8111801561525857600080fd5b506040519080825280602002602001820160405280156152875781602001602082028036833780820191505090505b509050828160008151811061529857fe5b60200260200101818152505080915050919050565b6152cc8473ffffffffffffffffffffffffffffffffffffffff166155ba565b156155b2578373ffffffffffffffffffffffffffffffffffffffff1663f23a6e6187878686866040518663ffffffff1660e01b8152600401808673ffffffffffffffffffffffffffffffffffffffff1681526020018573ffffffffffffffffffffffffffffffffffffffff16815260200184815260200183815260200180602001828103825283818151815260200191508051906020019080838360005b8381101561538557808201518184015260208101905061536a565b50505050905090810190601f1680156153b25780820380516001836020036101000a031916815260200191505b509650505050505050602060405180830381600087803b1580156153d557600080fd5b505af192505050801561540957506040513d60208110156153f557600080fd5b810190808051906020019092919050505060015b61551357615415615754565b8061542057506154c2565b806040517f08c379a00000000000000000000000000000000000000000000000000000000081526004018080602001828103825283818151815260200191508051906020019080838360005b8381101561548757808201518184015260208101905061546c565b50505050905090810190601f1680156154b45780820380516001836020036101000a031916815260200191505b509250505060405180910390fd5b6040517f08c379a000000000000000000000000000000000000000000000000000000000815260040180806020018281038252603481526020018061580b6034913960400191505060405180910390fd5b63f23a6e6160e01b7bffffffffffffffffffffffffffffffffffffffffffffffffffffffff1916817bffffffffffffffffffffffffffffffffffffffffffffffffffffffff1916146155b0576040517f08c379a000000000000000000000000000000000000000000000000000000000815260040180806020018281038252602881526020018061583f6028913960400191505060405180910390fd5b505b505050505050565b600080823b905060008111915050919050565b6040518060c00160405280600073ffffffffffffffffffffffffffffffffffffffff16815260200160608152602001606081526020016060815260200160008152602001606081525090565b828054600181600116156101000203166002900490600052602060002090601f016020900481019282601f1061565a57805160ff1916838001178555615688565b82800160010185558215615688579182015b8281111561568757825182559160200191906001019061566c565b5b5090506156959190615719565b5090565b828054600181600116156101000203166002900490600052602060002090601f016020900481019282601f106156da57805160ff1916838001178555615708565b82800160010185558215615708579182015b828111156157075782518255916020019190600101906156ec565b5b5090506157159190615719565b5090565b5b8082111561573257600081600090555060010161571a565b5090565b6000601f19601f8301169050919050565b60008160e01c9050919050565b600060443d101561576457615807565b60046000803e615775600051615747565b6308c379a081146157865750615807565b60405160043d036004823e80513d602482011167ffffffffffffffff821117156157b257505050615807565b808201805167ffffffffffffffff8111156157d1575050505050615807565b8060208301013d85018111156157ec57505050505050615807565b6157f582615736565b60208401016040528296505050505050505b9056fe455243313135353a207472616e7366657220746f206e6f6e2045524331313535526563656976657220696d706c656d656e746572455243313135353a204552433131353552656365697665722072656a656374656420746f6b656e73455243313135353a2062616c616e636520717565727920666f7220746865207a65726f2061646472657373455243313135353a2062617463682062616c616e636520717565727920666f7220746865207a65726f2061646472657373455243313135353a207472616e7366657220746f20746865207a65726f2061646472657373455243313135353a207472616e736665722063616c6c6572206973206e6f74206f776e6572206e6f7220617070726f766564455243313135353a20696e73756666696369656e742062616c616e636520666f72207472616e73666572455243313135353a2073657474696e6720617070726f76616c2073746174757320666f722073656c66455243313135353a206163636f756e747320616e6420696473206c656e677468206d69736d61746368455243313135353a2069647320616e6420616d6f756e7473206c656e677468206d69736d61746368455243313135353a206d696e7420746f20746865207a65726f2061646472657373a264697066735822122061f8b707464844c0082a65a9ca85bb25faacaa067d5617ff119f2b04f37bc9a964736f6c634300060c0033687474703a2f2f6c6f63616c686f73743a333030302f7075626c69632f23212f74726561737572655f63686573742f",
  "immutableReferences": {},
  "source": "pragma solidity >=0.4.21 <0.7.0;\n//it's been quite the year on our little blue sphere\nimport \"@openzeppelin/contracts/token/ERC1155/ERC1155.sol\";\n/*\n  mad props to the crypto zombies tutorial!  Thanks!\n  And gregory at Dapp U\n  and anthony at the daily gwei\n  stand on the shoulders of giants\n*/\ncontract AngelToken is ERC1155{\n  /* State variables are stored in the blockchain */\n  mapping(uint256 => bool) public is_on_manifest;\n  mapping (address => uint256) public map_owner_to_id;\n  mapping (uint256 => Alm) public map_id_to_Alm;\n  mapping (string => Alm) public map_uri_to_Alm;\n\n  address payable public CafLaMAccount = msg.sender;\n  address payable public OA = 0x35C9B089ea8703cC5e097fb0fBA5d1ca850f9854;\n  mapping(uint256 => mapping(address => uint256)) public CafLaM_angels_map;\n  address[] public CafLaM_angels_list;\n  uint256 last_rnd_id = 0;\n  uint256 this_round_id;\n\n  struct Alm {\n    address owner;\n     bytes uri;\n      string name;\n       string sym;\n        uint256 id;  // the id of the token issuance\n         bytes mint_data;\n          }\n  Alm[] public alms;\n  event ManifestedAngelToken(\n     address owner,\n      bytes _uri,\n       string _ename,\n        string _esym,\n         uint256 _id,\n          bytes mint_data\n           );\n  event CrowdFundComplete(uint256 _id, bool progress);\n\n  constructor()\n    ERC1155(\"http://localhost:3000/public/#!/treasure_chest/\")\n      public {}\n\n   function tokenGenesis (\n      string memory _ename,\n       string memory _esym,\n        uint256 _num_to_issue,\n         string memory _mint_date,\n          uint256 _cost,\n           uint256 _angel_coefficient,\n            string memory _product\n            )\n      public {\n          uint256 _id = _idGenesis(_ename);\n          require(!is_on_manifest[_id]);\n          is_on_manifest[_id] = true;\n          Alm memory new_alm;\n          new_alm.owner = msg.sender;\n          new_alm.name = _ename;\n          new_alm.sym = _esym;\n          new_alm.id = _id;\n          bytes memory new_uri = abi.encode(_esym, _id, \".json\");\n          new_alm.uri = new_uri;\n          bytes memory mintData = abi.encode(_num_to_issue, _mint_date, _cost, _angel_coefficient, 1, _product);\n          new_alm.mint_data = mintData;\n          alms.push(new_alm);\n          map_owner_to_id[msg.sender] = _id;\n          map_id_to_Alm[_id] = new_alm;\n          _mint(msg.sender, _id, _num_to_issue, mintData);\n          emit ManifestedAngelToken(\n               new_alm.owner,\n                new_alm.uri,\n                 new_alm.name,\n                  new_alm.sym,\n                   new_alm.id,\n                    new_alm.mint_data\n                     );\n                     /* address payable oa = OA; */\n                     /* require(oa.send(1/1000)); // rice for the deities whenever a new batch of alms is manifested */\n  }\n  function getAlmsLength() public view returns(uint256){\n    return alms.length;\n  }\n  function _idGenesis(string memory _str) internal pure returns (uint256) {\n    uint256 idmod = 10 ** 16;\n    uint256 token_id = uint256(keccak256(abi.encodePacked(_str)));\n    return token_id % idmod;\n  }\n  function buyAlms(address payable _owner, address _buyer, uint256 _id, uint256 _amount, bytes memory _data, uint256 cost) public payable {\n      require(msg.value >= (cost * _amount), \"not enough eth sent\");\n      require(_owner.send(msg.value), \"owner send revert\"); // replace with deposits to escrow account\n      require(balanceOf(_owner, _id) >= _amount, \"youre asking for too much\");\n      /* require(OA.send(10 wei)); // rice for the deities */\n      CafLaM_angels_map[_id][_buyer] += _amount;\n      CafLaM_angels_list.push(_buyer);\n\n      safeTransferFrom(_owner, _buyer, _id, _amount, _data);\n\n      /* trigger crowdfund phase 1 execution if all alms are sold */\n      if(balanceOf(_owner, _id) == 0){\n        /* crowd_sale_complete */\n        /* crowdfund_execution(_id); */\n        emit CrowdFundComplete(_id,true);\n      }\n      /* pause tokens until next round executes*/\n\n  }\n  function crowdfund_execution(uint256 _id) private {\n    change_status_x(_id);\n    if(false){\n      payout_last(last_rnd_id);\n    }else{\n      seed_round();//no angel share - first round goes directly to startup funding\n    }\n    this_now_last(_id);\n  /*   send email to minter to prompt a week long roast session */\n  }\n  function this_now_last(uint256 _id) private {\n    last_rnd_id = _id;\n  }\n  function seed_round() public payable {\n    uint256 _cost = 10;\n    uint256 _num_to_issue = 1000;\n    uint256 total_fund = _cost * _num_to_issue;\n    /* require(total_fund >= EscrowAccount) */ //withdraw amount from escrow and\n    /* send to contract owner, creator of the alm */\n    CafLaMAccount.transfer(total_fund); // make CafLaMAccount the contract Escrow and send total_funds to the token owner, which would generally be the RoastMeister\n  }\n  function payout_last(uint256 _last_rnd_id) public payable {\n      /* fetch the current alm */\n      /* _id = id to last alm; */\n      AngelToken.Alm memory last_alm = map_id_to_Alm[_last_rnd_id];\n        uint256 _num_to_issue;\n         string memory _mint_date;\n          uint256 _cost;\n           uint256 _angel_coefficient;\n            uint256 _status;\n             string memory _product;\n      (_num_to_issue, _mint_date, _cost, _angel_coefficient, _status, _product) = abi.decode(last_alm.mint_data,(uint256, string, uint256, uint256, uint256, string));\n      /* Load tokens with payout from this round */\n      uint256 total_fund = _cost * _num_to_issue;\n      uint256 expenses = 5500;// estimated expenses to import, produce, and ship product\n      uint256 _total_angels_share = total_fund - expenses;\n\n      for(uint256 i=1; i<=CafLaM_angels_list.length; i++) {\n        address angel = CafLaM_angels_list[i];\n        uint256 angels_bal = ERC1155.balanceOf(angel, _last_rnd_id);\n        uint256 payout_amt = _total_angels_share / (angels_bal * _angel_coefficient);\n        /* angel.transfer(payout_amt); */\n      }\n\n      /* change status on tokens to 'PAID' */\n      _status = 4;\n      /* reencode */\n      last_alm.mint_data = abi.encode(_num_to_issue, _mint_date, _cost, _angel_coefficient, _status, _product);\n\n  }\n\n  function change_status_x(uint256 _id) public view {\n  /* fetch the current alm */\n  AngelToken.Alm memory cur_alm =  AngelToken.map_id_to_Alm[_id];\n    uint256 _num_to_issue;\n     string memory _mint_date;\n      uint256 _cost;\n       uint256 _angel_coefficient;\n        uint256 _status;\n         string memory _product;\n  (_num_to_issue, _mint_date, _cost, _angel_coefficient, _status, _product) = abi.decode(cur_alm.mint_data,(uint256, string, uint256, uint256, uint256, string));\n  /* change status on tokens to 'executed' */\n  _status = 2;\n  /* reencode */\n  cur_alm.mint_data = abi.encode(_num_to_issue, _mint_date, _cost, _angel_coefficient, _status, _product);\n  }\n  function change_status_s(uint256 _id, bool is_shipping) public view{\n    if(is_shipping){\n      /* fetch the current alm */\n      AngelToken.Alm memory cur_alm =  AngelToken.map_id_to_Alm[_id];\n        uint256 _num_to_issue;\n         string memory _mint_date;\n          uint256 _cost;\n           uint256 _angel_coefficient;\n            uint256 _status;\n             string memory _product;\n      (_num_to_issue, _mint_date, _cost, _angel_coefficient, _status, _product) = abi.decode(cur_alm.mint_data,(uint256, string, uint256, uint256, uint256, string));\n      /* change status on tokens to 'executed' */\n      _status = 3;\n      /* reencode */\n      cur_alm.mint_data = abi.encode(_num_to_issue, _mint_date, _cost, _angel_coefficient, _status, _product);\n    }\n  }\n}\n",
  "sourcePath": "/Volumes/ETH/AngelTokens/contracts/AngelToken.sol",
  "compiler": {
    "name": "solc",
    "version": "0.6.12+commit.27d51765.Emscripten.clang"
  },
  "schemaVersion": "3.3.2",
  "updatedAt": "2021-01-17T02:56:10.429Z",
  "networkType": "ethereum",
  "devdoc": {
    "kind": "dev",
    "methods": {
      "balanceOf(address,uint256)": {
        "details": "See {IERC1155-balanceOf}. Requirements: - `account` cannot be the zero address."
      },
      "balanceOfBatch(address[],uint256[])": {
        "details": "See {IERC1155-balanceOfBatch}. Requirements: - `accounts` and `ids` must have the same length."
      },
      "isApprovedForAll(address,address)": {
        "details": "See {IERC1155-isApprovedForAll}."
      },
      "safeBatchTransferFrom(address,address,uint256[],uint256[],bytes)": {
        "details": "See {IERC1155-safeBatchTransferFrom}."
      },
      "safeTransferFrom(address,address,uint256,uint256,bytes)": {
        "details": "See {IERC1155-safeTransferFrom}."
      },
      "setApprovalForAll(address,bool)": {
        "details": "See {IERC1155-setApprovalForAll}."
      },
      "supportsInterface(bytes4)": {
        "details": "See {IERC165-supportsInterface}. Time complexity O(1), guaranteed to always use less than 30 000 gas."
      },
      "uri(uint256)": {
        "details": "See {IERC1155MetadataURI-uri}. This implementation returns the same URI for *all* token types. It relies on the token type ID substitution mechanism https://eips.ethereum.org/EIPS/eip-1155#metadata[defined in the EIP]. Clients calling this function must replace the `\\{id\\}` substring with the actual token type ID."
      }
    },
    "version": 1
  },
  "userdoc": {
    "kind": "user",
    "methods": {},
    "version": 1
  }
}