{
  "contractName": "AngelToken",
  "abi": [
    {
      "inputs": [
        {
          "internalType": "string",
          "name": "_ename",
          "type": "string"
        },
        {
          "internalType": "string",
          "name": "_esym",
          "type": "string"
        },
        {
          "internalType": "uint256",
          "name": "_issue_num",
          "type": "uint256"
        },
        {
          "internalType": "uint256",
          "name": "_mint_date",
          "type": "uint256"
        },
        {
          "internalType": "uint256",
          "name": "_cost",
          "type": "uint256"
        },
        {
          "internalType": "uint256",
          "name": "_angel_coefficient",
          "type": "uint256"
        },
        {
          "internalType": "uint256",
          "name": "_status",
          "type": "uint256"
        },
        {
          "internalType": "string",
          "name": "_product",
          "type": "string"
        }
      ],
      "stateMutability": "nonpayable",
      "type": "constructor"
    },
    {
      "anonymous": false,
      "inputs": [
        {
          "indexed": true,
          "internalType": "address",
          "name": "owner",
          "type": "address"
        },
        {
          "indexed": true,
          "internalType": "address",
          "name": "approved",
          "type": "address"
        },
        {
          "indexed": true,
          "internalType": "uint256",
          "name": "tokenId",
          "type": "uint256"
        }
      ],
      "name": "Approval",
      "type": "event"
    },
    {
      "anonymous": false,
      "inputs": [
        {
          "indexed": true,
          "internalType": "address",
          "name": "owner",
          "type": "address"
        },
        {
          "indexed": true,
          "internalType": "address",
          "name": "operator",
          "type": "address"
        },
        {
          "indexed": false,
          "internalType": "bool",
          "name": "approved",
          "type": "bool"
        }
      ],
      "name": "ApprovalForAll",
      "type": "event"
    },
    {
      "anonymous": false,
      "inputs": [
        {
          "indexed": false,
          "internalType": "string",
          "name": "_uri",
          "type": "string"
        },
        {
          "indexed": false,
          "internalType": "string",
          "name": "_ename",
          "type": "string"
        },
        {
          "indexed": false,
          "internalType": "string",
          "name": "_esym",
          "type": "string"
        },
        {
          "indexed": false,
          "internalType": "uint256",
          "name": "_id",
          "type": "uint256"
        },
        {
          "indexed": false,
          "internalType": "uint256",
          "name": "_issue_num",
          "type": "uint256"
        },
        {
          "indexed": false,
          "internalType": "uint256",
          "name": "_mint_date",
          "type": "uint256"
        },
        {
          "indexed": false,
          "internalType": "uint256",
          "name": "_cost",
          "type": "uint256"
        },
        {
          "indexed": false,
          "internalType": "uint256",
          "name": "_angel_coefficient",
          "type": "uint256"
        },
        {
          "indexed": false,
          "internalType": "uint256",
          "name": "_status",
          "type": "uint256"
        },
        {
          "indexed": false,
          "internalType": "string",
          "name": "_product",
          "type": "string"
        }
      ],
      "name": "ManifestedAngelToken",
      "type": "event"
    },
    {
      "anonymous": false,
      "inputs": [
        {
          "indexed": false,
          "internalType": "bytes",
          "name": "mintData",
          "type": "bytes"
        }
      ],
      "name": "MintDataEvent",
      "type": "event"
    },
    {
      "anonymous": false,
      "inputs": [
        {
          "indexed": true,
          "internalType": "address",
          "name": "from",
          "type": "address"
        },
        {
          "indexed": true,
          "internalType": "address",
          "name": "to",
          "type": "address"
        },
        {
          "indexed": true,
          "internalType": "uint256",
          "name": "tokenId",
          "type": "uint256"
        }
      ],
      "name": "Transfer",
      "type": "event"
    },
    {
      "inputs": [
        {
          "internalType": "uint256",
          "name": "",
          "type": "uint256"
        }
      ],
      "name": "alms",
      "outputs": [
        {
          "internalType": "string",
          "name": "uri",
          "type": "string"
        },
        {
          "internalType": "string",
          "name": "name",
          "type": "string"
        },
        {
          "internalType": "string",
          "name": "sym",
          "type": "string"
        },
        {
          "internalType": "uint256",
          "name": "id",
          "type": "uint256"
        },
        {
          "internalType": "uint256",
          "name": "issue_num",
          "type": "uint256"
        },
        {
          "internalType": "uint256",
          "name": "mint_date",
          "type": "uint256"
        },
        {
          "internalType": "uint256",
          "name": "cost",
          "type": "uint256"
        },
        {
          "internalType": "uint256",
          "name": "angel_coefficient",
          "type": "uint256"
        },
        {
          "internalType": "uint256",
          "name": "status",
          "type": "uint256"
        },
        {
          "internalType": "string",
          "name": "product",
          "type": "string"
        }
      ],
      "stateMutability": "view",
      "type": "function",
      "constant": true
    },
    {
      "inputs": [
        {
          "internalType": "address",
          "name": "to",
          "type": "address"
        },
        {
          "internalType": "uint256",
          "name": "tokenId",
          "type": "uint256"
        }
      ],
      "name": "approve",
      "outputs": [],
      "stateMutability": "nonpayable",
      "type": "function"
    },
    {
      "inputs": [
        {
          "internalType": "address",
          "name": "owner",
          "type": "address"
        }
      ],
      "name": "balanceOf",
      "outputs": [
        {
          "internalType": "uint256",
          "name": "",
          "type": "uint256"
        }
      ],
      "stateMutability": "view",
      "type": "function",
      "constant": true
    },
    {
      "inputs": [],
      "name": "baseURI",
      "outputs": [
        {
          "internalType": "string",
          "name": "",
          "type": "string"
        }
      ],
      "stateMutability": "view",
      "type": "function",
      "constant": true
    },
    {
      "inputs": [
        {
          "internalType": "uint256",
          "name": "tokenId",
          "type": "uint256"
        }
      ],
      "name": "getApproved",
      "outputs": [
        {
          "internalType": "address",
          "name": "",
          "type": "address"
        }
      ],
      "stateMutability": "view",
      "type": "function",
      "constant": true
    },
    {
      "inputs": [
        {
          "internalType": "address",
          "name": "owner",
          "type": "address"
        },
        {
          "internalType": "address",
          "name": "operator",
          "type": "address"
        }
      ],
      "name": "isApprovedForAll",
      "outputs": [
        {
          "internalType": "bool",
          "name": "",
          "type": "bool"
        }
      ],
      "stateMutability": "view",
      "type": "function",
      "constant": true
    },
    {
      "inputs": [
        {
          "internalType": "uint256",
          "name": "",
          "type": "uint256"
        }
      ],
      "name": "is_on_manifest",
      "outputs": [
        {
          "internalType": "bool",
          "name": "",
          "type": "bool"
        }
      ],
      "stateMutability": "view",
      "type": "function",
      "constant": true
    },
    {
      "inputs": [
        {
          "internalType": "string",
          "name": "",
          "type": "string"
        }
      ],
      "name": "map_uri_to_Alm",
      "outputs": [
        {
          "internalType": "string",
          "name": "uri",
          "type": "string"
        },
        {
          "internalType": "string",
          "name": "name",
          "type": "string"
        },
        {
          "internalType": "string",
          "name": "sym",
          "type": "string"
        },
        {
          "internalType": "uint256",
          "name": "id",
          "type": "uint256"
        },
        {
          "internalType": "uint256",
          "name": "issue_num",
          "type": "uint256"
        },
        {
          "internalType": "uint256",
          "name": "mint_date",
          "type": "uint256"
        },
        {
          "internalType": "uint256",
          "name": "cost",
          "type": "uint256"
        },
        {
          "internalType": "uint256",
          "name": "angel_coefficient",
          "type": "uint256"
        },
        {
          "internalType": "uint256",
          "name": "status",
          "type": "uint256"
        },
        {
          "internalType": "string",
          "name": "product",
          "type": "string"
        }
      ],
      "stateMutability": "view",
      "type": "function",
      "constant": true
    },
    {
      "inputs": [],
      "name": "mintData",
      "outputs": [
        {
          "internalType": "bytes",
          "name": "",
          "type": "bytes"
        }
      ],
      "stateMutability": "view",
      "type": "function",
      "constant": true
    },
    {
      "inputs": [],
      "name": "name",
      "outputs": [
        {
          "internalType": "string",
          "name": "",
          "type": "string"
        }
      ],
      "stateMutability": "view",
      "type": "function",
      "constant": true
    },
    {
      "inputs": [
        {
          "internalType": "uint256",
          "name": "tokenId",
          "type": "uint256"
        }
      ],
      "name": "ownerOf",
      "outputs": [
        {
          "internalType": "address",
          "name": "",
          "type": "address"
        }
      ],
      "stateMutability": "view",
      "type": "function",
      "constant": true
    },
    {
      "inputs": [
        {
          "internalType": "address",
          "name": "from",
          "type": "address"
        },
        {
          "internalType": "address",
          "name": "to",
          "type": "address"
        },
        {
          "internalType": "uint256",
          "name": "tokenId",
          "type": "uint256"
        }
      ],
      "name": "safeTransferFrom",
      "outputs": [],
      "stateMutability": "nonpayable",
      "type": "function"
    },
    {
      "inputs": [
        {
          "internalType": "address",
          "name": "from",
          "type": "address"
        },
        {
          "internalType": "address",
          "name": "to",
          "type": "address"
        },
        {
          "internalType": "uint256",
          "name": "tokenId",
          "type": "uint256"
        },
        {
          "internalType": "bytes",
          "name": "_data",
          "type": "bytes"
        }
      ],
      "name": "safeTransferFrom",
      "outputs": [],
      "stateMutability": "nonpayable",
      "type": "function"
    },
    {
      "inputs": [
        {
          "internalType": "address",
          "name": "operator",
          "type": "address"
        },
        {
          "internalType": "bool",
          "name": "approved",
          "type": "bool"
        }
      ],
      "name": "setApprovalForAll",
      "outputs": [],
      "stateMutability": "nonpayable",
      "type": "function"
    },
    {
      "inputs": [
        {
          "internalType": "bytes4",
          "name": "interfaceId",
          "type": "bytes4"
        }
      ],
      "name": "supportsInterface",
      "outputs": [
        {
          "internalType": "bool",
          "name": "",
          "type": "bool"
        }
      ],
      "stateMutability": "view",
      "type": "function",
      "constant": true
    },
    {
      "inputs": [],
      "name": "symbol",
      "outputs": [
        {
          "internalType": "string",
          "name": "",
          "type": "string"
        }
      ],
      "stateMutability": "view",
      "type": "function",
      "constant": true
    },
    {
      "inputs": [
        {
          "internalType": "uint256",
          "name": "index",
          "type": "uint256"
        }
      ],
      "name": "tokenByIndex",
      "outputs": [
        {
          "internalType": "uint256",
          "name": "",
          "type": "uint256"
        }
      ],
      "stateMutability": "view",
      "type": "function",
      "constant": true
    },
    {
      "inputs": [
        {
          "internalType": "address",
          "name": "owner",
          "type": "address"
        },
        {
          "internalType": "uint256",
          "name": "index",
          "type": "uint256"
        }
      ],
      "name": "tokenOfOwnerByIndex",
      "outputs": [
        {
          "internalType": "uint256",
          "name": "",
          "type": "uint256"
        }
      ],
      "stateMutability": "view",
      "type": "function",
      "constant": true
    },
    {
      "inputs": [
        {
          "internalType": "uint256",
          "name": "tokenId",
          "type": "uint256"
        }
      ],
      "name": "tokenURI",
      "outputs": [
        {
          "internalType": "string",
          "name": "",
          "type": "string"
        }
      ],
      "stateMutability": "view",
      "type": "function",
      "constant": true
    },
    {
      "inputs": [],
      "name": "totalSupply",
      "outputs": [
        {
          "internalType": "uint256",
          "name": "",
          "type": "uint256"
        }
      ],
      "stateMutability": "view",
      "type": "function",
      "constant": true
    },
    {
      "inputs": [
        {
          "internalType": "address",
          "name": "from",
          "type": "address"
        },
        {
          "internalType": "address",
          "name": "to",
          "type": "address"
        },
        {
          "internalType": "uint256",
          "name": "tokenId",
          "type": "uint256"
        }
      ],
      "name": "transferFrom",
      "outputs": [],
      "stateMutability": "nonpayable",
      "type": "function"
    },
    {
      "inputs": [
        {
          "internalType": "string",
          "name": "_ename",
          "type": "string"
        },
        {
          "internalType": "string",
          "name": "_esym",
          "type": "string"
        },
        {
          "internalType": "uint256",
          "name": "_issue_num",
          "type": "uint256"
        },
        {
          "internalType": "uint256",
          "name": "_mint_date",
          "type": "uint256"
        },
        {
          "internalType": "uint256",
          "name": "_cost",
          "type": "uint256"
        },
        {
          "internalType": "uint256",
          "name": "_angel_coefficient",
          "type": "uint256"
        },
        {
          "internalType": "uint256",
          "name": "_status",
          "type": "uint256"
        },
        {
          "internalType": "string",
          "name": "_product",
          "type": "string"
        }
      ],
      "name": "manifestAngelToken",
      "outputs": [],
      "stateMutability": "nonpayable",
      "type": "function"
    }
  ],
  "bytecode": "0x60806040523480156200001157600080fd5b50604051620063e1380380620063e183398181016040526101008110156200003857600080fd5b81019080805160405193929190846401000000008211156200005957600080fd5b838201915060208201858111156200007057600080fd5b82518660018202830111640100000000821117156200008e57600080fd5b8083526020830192505050908051906020019080838360005b83811015620000c4578082015181840152602081019050620000a7565b50505050905090810190601f168015620000f25780820380516001836020036101000a031916815260200191505b50604052602001805160405193929190846401000000008211156200011657600080fd5b838201915060208201858111156200012d57600080fd5b82518660018202830111640100000000821117156200014b57600080fd5b8083526020830192505050908051906020019080838360005b838110156200018157808201518184015260208101905062000164565b50505050905090810190601f168015620001af5780820380516001836020036101000a031916815260200191505b506040526020018051906020019092919080519060200190929190805190602001909291908051906020019092919080519060200190929190805160405193929190846401000000008211156200020557600080fd5b838201915060208201858111156200021c57600080fd5b82518660018202830111640100000000821117156200023a57600080fd5b8083526020830192505050908051906020019080838360005b838110156200027057808201518184015260208101905062000253565b50505050905090810190601f1680156200029e5780820380516001836020036101000a031916815260200191505b506040525050506040518060400160405280600a81526020017f416e67656c546f6b656e000000000000000000000000000000000000000000008152506040518060400160405280600581526020017f414e47454c000000000000000000000000000000000000000000000000000000815250620003296301ffc9a760e01b620003cb60201b60201c565b81600690805190602001906200034192919062001c71565b5080600790805190602001906200035a92919062001c71565b50620003736380ac58cd60e01b620003cb60201b60201c565b6200038b635b5e139f60e01b620003cb60201b60201c565b620003a363780e9d6360e01b620003cb60201b60201c565b5050620003bd8888888888888888620004d460201b60201c565b505050505050505062001df1565b63ffffffff60e01b817bffffffffffffffffffffffffffffffffffffffffffffffffffffffff1916141562000468576040517f08c379a000000000000000000000000000000000000000000000000000000000815260040180806020018281038252601c8152602001807f4552433136353a20696e76616c696420696e746572666163652069640000000081525060200191505060405180910390fd5b6001600080837bffffffffffffffffffffffffffffffffffffffffffffffffffffffff19167bffffffffffffffffffffffffffffffffffffffffffffffffffffffff1916815260200190815260200160002060006101000a81548160ff02191690831515021790555050565b6000620004e7896200050d60201b60201c565b9050620005028989838a8a8a8a8a8a620005a960201b60201c565b505050505050505050565b600080662386f26fc1000090506000836040516020018082805190602001908083835b6020831062000555578051825260208201915060208101905060208303925062000530565b6001836020036101000a0380198251168184511680821785525050505050509050019150506040516020818303038152906040528051906020012060001c90508181816200059f57fe5b0692505050919050565b600b600088815260200190815260200160002060009054906101000a900460ff1615620005d557600080fd5b606088620005ee896200108360201b620022b11760201c565b6040516020018083805190602001908083835b6020831062000626578051825260208201915060208101905060208303925062000601565b6001836020036101000a03801982511681845116808217855250505050505090500182805190602001908083835b6020831062000679578051825260208201915060208101905060208303925062000654565b6001836020036101000a038019825116818451168082178552505050505050905001925050506040516020818303038152906040529050806040516020018082805190602001908083835b60208310620006e95780518252602082019150602081019050602083039250620006c4565b6001836020036101000a038019825116818451168082178552505050505050905001807f2e6a736f6e00000000000000000000000000000000000000000000000000000081525060050191505060405160208183030381529060405290506200075162001cf8565b8181600001819052508a81602001819052508981604001819052508881606001818152505087816080018181525050868160a0018181525050858160c0018181525050848160e0018181525050838161010001818152505082816101200181905250620007c9886200108360201b620022b11760201c565b620007df886200108360201b620022b11760201c565b620007f5886200108360201b620022b11760201c565b6200080b886200108360201b620022b11760201c565b878760405160200180806020018060200180602001806020018781526020018060200186810386528c818151815260200191508051906020019080838360005b83811015620008685780820151818401526020810190506200084b565b50505050905090810190601f168015620008965780820380516001836020036101000a031916815260200191505b5086810385528b818151815260200191508051906020019080838360005b83811015620008d1578082015181840152602081019050620008b4565b50505050905090810190601f168015620008ff5780820380516001836020036101000a031916815260200191505b5086810384528a818151815260200191508051906020019080838360005b838110156200093a5780820151818401526020810190506200091d565b50505050905090810190601f168015620009685780820380516001836020036101000a031916815260200191505b50868103835289818151815260200191508051906020019080838360005b83811015620009a357808201518184015260208101905062000986565b50505050905090810190601f168015620009d15780820380516001836020036101000a031916815260200191505b50868103825287818151815260200191508051906020019080838360005b8381101562000a0c578082015181840152602081019050620009ef565b50505050905090810190601f16801562000a3a5780820380516001836020036101000a031916815260200191505b509b505050505050505050505050604051602081830303815290604052600a908051906020019062000a6e92919062001d4b565b50600d8190806001815401808255809150506001900390600052602060002090600a0201600090919091909150600082015181600001908051906020019062000ab992919062001c71565b50602082015181600101908051906020019062000ad892919062001c71565b50604082015181600201908051906020019062000af792919062001c71565b50606082015181600301556080820151816004015560a0820151816005015560c0820151816006015560e08201518160070155610100820151816008015561012082015181600901908051906020019062000b5492919062001c71565b5050506001600b60008b815260200190815260200160002060006101000a81548160ff02191690831515021790555080600c836040518082805190602001908083835b6020831062000bbc578051825260208201915060208101905060208303925062000b97565b6001836020036101000a0380198251168184511680821785525050505050509050019150509081526020016040518091039020600082015181600001908051906020019062000c0d92919062001c71565b50602082015181600101908051906020019062000c2c92919062001c71565b50604082015181600201908051906020019062000c4b92919062001c71565b50606082015181600301556080820151816004015560a0820151816005015560c0820151816006015560e08201518160070155610100820151816008015561012082015181600901908051906020019062000ca892919062001c71565b5090505062000d5d338a600a8054600181600116156101000203166002900480601f01602080910402602001604051908101604052809291908181526020018280546001816001161561010002031660029004801562000d4c5780601f1062000d205761010080835404028352916020019162000d4c565b820191906000526020600020905b81548152906001019060200180831162000d2e57829003601f168201915b5050505050620011d660201b60201c565b62000d876040518060600160405280602f815260200162006360602f91396200125960201b60201c565b62000d9989836200127560201b60201c565b7f12ae7fc64a50ae84cc0201fbe8dbdd65d11d5627f33d37124e44d747d70a1e25600a604051808060200182810382528381815460018160011615610100020316600290048152602001915080546001816001161561010002031660029004801562000e495780601f1062000e1d5761010080835404028352916020019162000e49565b820191906000526020600020905b81548152906001019060200180831162000e2b57829003601f168201915b50509250505060405180910390a17f6a04168520174b5a6c4c6756da84236dd5310ed0345d6f627a3f85d295762c15828c8c8c8c8c8c8c8c8c604051808060200180602001806020018b81526020018a81526020018981526020018881526020018781526020018681526020018060200185810385528f818151815260200191508051906020019080838360005b8381101562000ef457808201518184015260208101905062000ed7565b50505050905090810190601f16801562000f225780820380516001836020036101000a031916815260200191505b5085810384528e818151815260200191508051906020019080838360005b8381101562000f5d57808201518184015260208101905062000f40565b50505050905090810190601f16801562000f8b5780820380516001836020036101000a031916815260200191505b5085810383528d818151815260200191508051906020019080838360005b8381101562000fc657808201518184015260208101905062000fa9565b50505050905090810190601f16801562000ff45780820380516001836020036101000a031916815260200191505b50858103825286818151815260200191508051906020019080838360005b838110156200102f57808201518184015260208101905062001012565b50505050905090810190601f1680156200105d5780820380516001836020036101000a031916815260200191505b509e50505050505050505050505050505060405180910390a15050505050505050505050565b60606000821415620010cd576040518060400160405280600181526020017f30000000000000000000000000000000000000000000000000000000000000008152509050620011d1565b600082905060005b60008214620010fa578080600101915050600a8281620010f157fe5b049150620010d5565b60608167ffffffffffffffff811180156200111457600080fd5b506040519080825280601f01601f191660200182016040528015620011485781602001600182028036833780820191505090505b50905060006001830390508593505b60008414620011c957600a84816200116b57fe5b0660300160f81b828280600190039350815181106200118657fe5b60200101907effffffffffffffffffffffffffffffffffffffffffffffffffffffffffffff1916908160001a905350600a8481620011c057fe5b04935062001157565b819450505050505b919050565b620011e883836200130b60201b60201c565b620011fd60008484846200151f60201b60201c565b62001254576040517f08c379a00000000000000000000000000000000000000000000000000000000081526004018080602001828103825260328152602001806200632e6032913960400191505060405180910390fd5b505050565b80600990805190602001906200127192919062001c71565b5050565b62001286826200175b60201b60201c565b620012dd576040517f08c379a000000000000000000000000000000000000000000000000000000000815260040180806020018281038252602c815260200180620063b5602c913960400191505060405180910390fd5b806008600084815260200190815260200160002090805190602001906200130692919062001c71565b505050565b600073ffffffffffffffffffffffffffffffffffffffff168273ffffffffffffffffffffffffffffffffffffffff161415620013af576040517f08c379a00000000000000000000000000000000000000000000000000000000081526004018080602001828103825260208152602001807f4552433732313a206d696e7420746f20746865207a65726f206164647265737381525060200191505060405180910390fd5b620013c0816200175b60201b60201c565b1562001434576040517f08c379a000000000000000000000000000000000000000000000000000000000815260040180806020018281038252601c8152602001807f4552433732313a20746f6b656e20616c7265616479206d696e7465640000000081525060200191505060405180910390fd5b62001448600083836200177f60201b60201c565b620014a081600160008573ffffffffffffffffffffffffffffffffffffffff1673ffffffffffffffffffffffffffffffffffffffff1681526020019081526020016000206200178460201b620023f81790919060201c565b50620014be81836002620017a660201b62002412179092919060201c565b50808273ffffffffffffffffffffffffffffffffffffffff16600073ffffffffffffffffffffffffffffffffffffffff167fddf252ad1be2c89b69c2b068fc378daa952ba7f163c4a11628f55a4df523b3ef60405160405180910390a45050565b60006200154d8473ffffffffffffffffffffffffffffffffffffffff16620017e360201b620024471760201c565b6200155c576001905062001753565b6060620016d963150b7a0260e01b6200157a620017f660201b60201c565b888787604051602401808573ffffffffffffffffffffffffffffffffffffffff1681526020018473ffffffffffffffffffffffffffffffffffffffff16815260200183815260200180602001828103825283818151815260200191508051906020019080838360005b8381101562001600578082015181840152602081019050620015e3565b50505050905090810190601f1680156200162e5780820380516001836020036101000a031916815260200191505b5095505050505050604051602081830303815290604052907bffffffffffffffffffffffffffffffffffffffffffffffffffffffff19166020820180517bffffffffffffffffffffffffffffffffffffffffffffffffffffffff83818316178352505050506040518060600160405280603281526020016200632e603291398773ffffffffffffffffffffffffffffffffffffffff16620017fe60201b6200245a179092919060201c565b90506000818060200190516020811015620016f357600080fd5b8101908080519060200190929190505050905063150b7a0260e01b7bffffffffffffffffffffffffffffffffffffffffffffffffffffffff1916817bffffffffffffffffffffffffffffffffffffffffffffffffffffffff191614925050505b949350505050565b6000620017788260026200181e60201b620024721790919060201c565b9050919050565b505050565b60006200179e836000018360001b6200184060201b60201c565b905092915050565b6000620017da846000018460001b8473ffffffffffffffffffffffffffffffffffffffff1660001b620018ba60201b60201c565b90509392505050565b600080823b905060008111915050919050565b600033905090565b60606200181584846000856200199960201b60201c565b90509392505050565b600062001838836000018360001b62001b5960201b60201c565b905092915050565b600062001854838362001b7c60201b60201c565b620018af578260000182908060018154018082558091505060019003906000526020600020016000909190919091505582600001805490508360010160008481526020019081526020016000208190555060019050620018b4565b600090505b92915050565b6000808460010160008581526020019081526020016000205490506000811415620019635784600001604051806040016040528086815260200185815250908060018154018082558091505060019003906000526020600020906002020160009091909190915060008201518160000155602082015181600101555050846000018054905085600101600086815260200190815260200160002081905550600191505062001992565b828560000160018303815481106200197757fe5b90600052602060002090600202016001018190555060009150505b9392505050565b606082471015620019f6576040517f08c379a00000000000000000000000000000000000000000000000000000000081526004018080602001828103825260268152602001806200638f6026913960400191505060405180910390fd5b62001a0785620017e360201b60201c565b62001a7a576040517f08c379a000000000000000000000000000000000000000000000000000000000815260040180806020018281038252601d8152602001807f416464726573733a2063616c6c20746f206e6f6e2d636f6e747261637400000081525060200191505060405180910390fd5b600060608673ffffffffffffffffffffffffffffffffffffffff1685876040518082805190602001908083835b6020831062001acc578051825260208201915060208101905060208303925062001aa7565b6001836020036101000a03801982511681845116808217855250505050505090500191505060006040518083038185875af1925050503d806000811462001b30576040519150601f19603f3d011682016040523d82523d6000602084013e62001b35565b606091505b509150915062001b4d82828662001b9f60201b60201c565b92505050949350505050565b600080836001016000848152602001908152602001600020541415905092915050565b600080836001016000848152602001908152602001600020541415905092915050565b6060831562001bb15782905062001c6a565b60008351111562001bc55782518084602001fd5b816040517f08c379a00000000000000000000000000000000000000000000000000000000081526004018080602001828103825283818151815260200191508051906020019080838360005b8381101562001c2e57808201518184015260208101905062001c11565b50505050905090810190601f16801562001c5c5780820380516001836020036101000a031916815260200191505b509250505060405180910390fd5b9392505050565b828054600181600116156101000203166002900490600052602060002090601f016020900481019282601f1062001cb457805160ff191683800117855562001ce5565b8280016001018555821562001ce5579182015b8281111562001ce457825182559160200191906001019062001cc7565b5b50905062001cf4919062001dd2565b5090565b604051806101400160405280606081526020016060815260200160608152602001600081526020016000815260200160008152602001600081526020016000815260200160008152602001606081525090565b828054600181600116156101000203166002900490600052602060002090601f016020900481019282601f1062001d8e57805160ff191683800117855562001dbf565b8280016001018555821562001dbf579182015b8281111562001dbe57825182559160200191906001019062001da1565b5b50905062001dce919062001dd2565b5090565b5b8082111562001ded57600081600090555060010162001dd3565b5090565b61452d8062001e016000396000f3fe608060405234801561001057600080fd5b50600436106101425760003560e01c80635195e8c5116100b857806395d89b411161007c57806395d89b4114610b29578063a22cb46514610bac578063b88d4fde14610bfc578063c87b56dd14610d01578063d2a55e3314610da8578063e985e9c514610fbd57610142565b80635195e8c5146107575780636352211e146107da5780636c0360eb1461083257806370a08231146108b55780638c60a24b1461090d57610142565b806323b872dd1161010a57806323b872dd146102f15780632ba5d4271461035f5780632f745c591461060157806342842e0e146106635780634b8ae8cd146106d15780634f6ccce71461071557610142565b806301ffc9a71461014757806306fdde03146101aa578063081812fc1461022d578063095ea7b31461028557806318160ddd146102d3575b600080fd5b6101926004803603602081101561015d57600080fd5b8101908080357bffffffffffffffffffffffffffffffffffffffffffffffffffffffff19169060200190929190505050611037565b60405180821515815260200191505060405180910390f35b6101b261109e565b6040518080602001828103825283818151815260200191508051906020019080838360005b838110156101f25780820151818401526020810190506101d7565b50505050905090810190601f16801561021f5780820380516001836020036101000a031916815260200191505b509250505060405180910390f35b6102596004803603602081101561024357600080fd5b8101908080359060200190929190505050611140565b604051808273ffffffffffffffffffffffffffffffffffffffff16815260200191505060405180910390f35b6102d16004803603604081101561029b57600080fd5b81019080803573ffffffffffffffffffffffffffffffffffffffff169060200190929190803590602001909291905050506111db565b005b6102db61131f565b6040518082815260200191505060405180910390f35b61035d6004803603606081101561030757600080fd5b81019080803573ffffffffffffffffffffffffffffffffffffffff169060200190929190803573ffffffffffffffffffffffffffffffffffffffff16906020019092919080359060200190929190505050611330565b005b6104186004803603602081101561037557600080fd5b810190808035906020019064010000000081111561039257600080fd5b8201836020820111156103a457600080fd5b803590602001918460018302840111640100000000831117156103c657600080fd5b91908080601f016020809104026020016040519081016040528093929190818152602001838380828437600081840152601f19601f8201169050808301925050505050505091929192905050506113a6565b604051808060200180602001806020018b81526020018a81526020018981526020018881526020018781526020018681526020018060200185810385528f818151815260200191508051906020019080838360005b8381101561048857808201518184015260208101905061046d565b50505050905090810190601f1680156104b55780820380516001836020036101000a031916815260200191505b5085810384528e818151815260200191508051906020019080838360005b838110156104ee5780820151818401526020810190506104d3565b50505050905090810190601f16801561051b5780820380516001836020036101000a031916815260200191505b5085810383528d818151815260200191508051906020019080838360005b83811015610554578082015181840152602081019050610539565b50505050905090810190601f1680156105815780820380516001836020036101000a031916815260200191505b50858103825286818151815260200191508051906020019080838360005b838110156105ba57808201518184015260208101905061059f565b50505050905090810190601f1680156105e75780820380516001836020036101000a031916815260200191505b509e50505050505050505050505050505060405180910390f35b61064d6004803603604081101561061757600080fd5b81019080803573ffffffffffffffffffffffffffffffffffffffff16906020019092919080359060200190929190505050611670565b6040518082815260200191505060405180910390f35b6106cf6004803603606081101561067957600080fd5b81019080803573ffffffffffffffffffffffffffffffffffffffff169060200190929190803573ffffffffffffffffffffffffffffffffffffffff169060200190929190803590602001909291905050506116cb565b005b6106fd600480360360208110156106e757600080fd5b81019080803590602001909291905050506116eb565b60405180821515815260200191505060405180910390f35b6107416004803603602081101561072b57600080fd5b810190808035906020019092919050505061170b565b6040518082815260200191505060405180910390f35b61075f61172e565b6040518080602001828103825283818151815260200191508051906020019080838360005b8381101561079f578082015181840152602081019050610784565b50505050905090810190601f1680156107cc5780820380516001836020036101000a031916815260200191505b509250505060405180910390f35b610806600480360360208110156107f057600080fd5b81019080803590602001909291905050506117cc565b604051808273ffffffffffffffffffffffffffffffffffffffff16815260200191505060405180910390f35b61083a611803565b6040518080602001828103825283818151815260200191508051906020019080838360005b8381101561087a57808201518184015260208101905061085f565b50505050905090810190601f1680156108a75780820380516001836020036101000a031916815260200191505b509250505060405180910390f35b6108f7600480360360208110156108cb57600080fd5b81019080803573ffffffffffffffffffffffffffffffffffffffff1690602001909291905050506118a5565b6040518082815260200191505060405180910390f35b610b27600480360361010081101561092457600080fd5b810190808035906020019064010000000081111561094157600080fd5b82018360208201111561095357600080fd5b8035906020019184600183028401116401000000008311171561097557600080fd5b91908080601f016020809104026020016040519081016040528093929190818152602001838380828437600081840152601f19601f820116905080830192505050505050509192919290803590602001906401000000008111156109d857600080fd5b8201836020820111156109ea57600080fd5b80359060200191846001830284011164010000000083111715610a0c57600080fd5b91908080601f016020809104026020016040519081016040528093929190818152602001838380828437600081840152601f19601f820116905080830192505050505050509192919290803590602001909291908035906020019092919080359060200190929190803590602001909291908035906020019092919080359060200190640100000000811115610aa157600080fd5b820183602082011115610ab357600080fd5b80359060200191846001830284011164010000000083111715610ad557600080fd5b91908080601f016020809104026020016040519081016040528093929190818152602001838380828437600081840152601f19601f82011690508083019250505050505050919291929050505061197a565b005b610b316119a3565b6040518080602001828103825283818151815260200191508051906020019080838360005b83811015610b71578082015181840152602081019050610b56565b50505050905090810190601f168015610b9e5780820380516001836020036101000a031916815260200191505b509250505060405180910390f35b610bfa60048036036040811015610bc257600080fd5b81019080803573ffffffffffffffffffffffffffffffffffffffff169060200190929190803515159060200190929190505050611a45565b005b610cff60048036036080811015610c1257600080fd5b81019080803573ffffffffffffffffffffffffffffffffffffffff169060200190929190803573ffffffffffffffffffffffffffffffffffffffff1690602001909291908035906020019092919080359060200190640100000000811115610c7957600080fd5b820183602082011115610c8b57600080fd5b80359060200191846001830284011164010000000083111715610cad57600080fd5b91908080601f016020809104026020016040519081016040528093929190818152602001838380828437600081840152601f19601f820116905080830192505050505050509192919290505050611bfb565b005b610d2d60048036036020811015610d1757600080fd5b8101908080359060200190929190505050611c73565b6040518080602001828103825283818151815260200191508051906020019080838360005b83811015610d6d578082015181840152602081019050610d52565b50505050905090810190601f168015610d9a5780820380516001836020036101000a031916815260200191505b509250505060405180910390f35b610dd460048036036020811015610dbe57600080fd5b8101908080359060200190929190505050611f5c565b604051808060200180602001806020018b81526020018a81526020018981526020018881526020018781526020018681526020018060200185810385528f818151815260200191508051906020019080838360005b83811015610e44578082015181840152602081019050610e29565b50505050905090810190601f168015610e715780820380516001836020036101000a031916815260200191505b5085810384528e818151815260200191508051906020019080838360005b83811015610eaa578082015181840152602081019050610e8f565b50505050905090810190601f168015610ed75780820380516001836020036101000a031916815260200191505b5085810383528d818151815260200191508051906020019080838360005b83811015610f10578082015181840152602081019050610ef5565b50505050905090810190601f168015610f3d5780820380516001836020036101000a031916815260200191505b50858103825286818151815260200191508051906020019080838360005b83811015610f76578082015181840152602081019050610f5b565b50505050905090810190601f168015610fa35780820380516001836020036101000a031916815260200191505b509e50505050505050505050505050505060405180910390f35b61101f60048036036040811015610fd357600080fd5b81019080803573ffffffffffffffffffffffffffffffffffffffff169060200190929190803573ffffffffffffffffffffffffffffffffffffffff16906020019092919050505061221d565b60405180821515815260200191505060405180910390f35b6000806000837bffffffffffffffffffffffffffffffffffffffffffffffffffffffff19167bffffffffffffffffffffffffffffffffffffffffffffffffffffffff1916815260200190815260200160002060009054906101000a900460ff169050919050565b606060068054600181600116156101000203166002900480601f0160208091040260200160405190810160405280929190818152602001828054600181600116156101000203166002900480156111365780601f1061110b57610100808354040283529160200191611136565b820191906000526020600020905b81548152906001019060200180831161111957829003601f168201915b5050505050905090565b600061114b8261248c565b6111a0576040517f08c379a000000000000000000000000000000000000000000000000000000000815260040180806020018281038252602c8152602001806143f6602c913960400191505060405180910390fd5b6004600083815260200190815260200160002060009054906101000a900473ffffffffffffffffffffffffffffffffffffffff169050919050565b60006111e6826117cc565b90508073ffffffffffffffffffffffffffffffffffffffff168373ffffffffffffffffffffffffffffffffffffffff16141561126d576040517f08c379a00000000000000000000000000000000000000000000000000000000081526004018080602001828103825260218152602001806144a66021913960400191505060405180910390fd5b8073ffffffffffffffffffffffffffffffffffffffff1661128c6124a9565b73ffffffffffffffffffffffffffffffffffffffff1614806112bb57506112ba816112b56124a9565b61221d565b5b611310576040517f08c379a00000000000000000000000000000000000000000000000000000000081526004018080602001828103825260388152602001806143496038913960400191505060405180910390fd5b61131a83836124b1565b505050565b600061132b600261256a565b905090565b61134161133b6124a9565b8261257f565b611396576040517f08c379a00000000000000000000000000000000000000000000000000000000081526004018080602001828103825260318152602001806144c76031913960400191505060405180910390fd5b6113a1838383612673565b505050565b600c81805160208101820180518482526020830160208501208183528095505050505050600091509050806000018054600181600116156101000203166002900480601f0160208091040260200160405190810160405280929190818152602001828054600181600116156101000203166002900480156114685780601f1061143d57610100808354040283529160200191611468565b820191906000526020600020905b81548152906001019060200180831161144b57829003601f168201915b505050505090806001018054600181600116156101000203166002900480601f0160208091040260200160405190810160405280929190818152602001828054600181600116156101000203166002900480156115065780601f106114db57610100808354040283529160200191611506565b820191906000526020600020905b8154815290600101906020018083116114e957829003601f168201915b505050505090806002018054600181600116156101000203166002900480601f0160208091040260200160405190810160405280929190818152602001828054600181600116156101000203166002900480156115a45780601f10611579576101008083540402835291602001916115a4565b820191906000526020600020905b81548152906001019060200180831161158757829003601f168201915b505050505090806003015490806004015490806005015490806006015490806007015490806008015490806009018054600181600116156101000203166002900480601f0160208091040260200160405190810160405280929190818152602001828054600181600116156101000203166002900480156116665780601f1061163b57610100808354040283529160200191611666565b820191906000526020600020905b81548152906001019060200180831161164957829003601f168201915b505050505090508a565b60006116c382600160008673ffffffffffffffffffffffffffffffffffffffff1673ffffffffffffffffffffffffffffffffffffffff1681526020019081526020016000206128b690919063ffffffff16565b905092915050565b6116e683838360405180602001604052806000815250611bfb565b505050565b600b6020528060005260406000206000915054906101000a900460ff1681565b6000806117228360026128d090919063ffffffff16565b50905080915050919050565b600a8054600181600116156101000203166002900480601f0160208091040260200160405190810160405280929190818152602001828054600181600116156101000203166002900480156117c45780601f10611799576101008083540402835291602001916117c4565b820191906000526020600020905b8154815290600101906020018083116117a757829003601f168201915b505050505081565b60006117fc826040518060600160405280602981526020016143ab6029913960026128fc9092919063ffffffff16565b9050919050565b606060098054600181600116156101000203166002900480601f01602080910402602001604051908101604052809291908181526020018280546001816001161561010002031660029004801561189b5780601f106118705761010080835404028352916020019161189b565b820191906000526020600020905b81548152906001019060200180831161187e57829003601f168201915b5050505050905090565b60008073ffffffffffffffffffffffffffffffffffffffff168273ffffffffffffffffffffffffffffffffffffffff16141561192c576040517f08c379a000000000000000000000000000000000000000000000000000000000815260040180806020018281038252602a815260200180614381602a913960400191505060405180910390fd5b611973600160008473ffffffffffffffffffffffffffffffffffffffff1673ffffffffffffffffffffffffffffffffffffffff16815260200190815260200160002061291b565b9050919050565b600061198589612930565b90506119988989838a8a8a8a8a8a6129c9565b505050505050505050565b606060078054600181600116156101000203166002900480601f016020809104026020016040519081016040528092919081815260200182805460018160011615610100020316600290048015611a3b5780601f10611a1057610100808354040283529160200191611a3b565b820191906000526020600020905b815481529060010190602001808311611a1e57829003601f168201915b5050505050905090565b611a4d6124a9565b73ffffffffffffffffffffffffffffffffffffffff168273ffffffffffffffffffffffffffffffffffffffff161415611aee576040517f08c379a00000000000000000000000000000000000000000000000000000000081526004018080602001828103825260198152602001807f4552433732313a20617070726f766520746f2063616c6c65720000000000000081525060200191505060405180910390fd5b8060056000611afb6124a9565b73ffffffffffffffffffffffffffffffffffffffff1673ffffffffffffffffffffffffffffffffffffffff16815260200190815260200160002060008473ffffffffffffffffffffffffffffffffffffffff1673ffffffffffffffffffffffffffffffffffffffff16815260200190815260200160002060006101000a81548160ff0219169083151502179055508173ffffffffffffffffffffffffffffffffffffffff16611ba86124a9565b73ffffffffffffffffffffffffffffffffffffffff167f17307eab39ab6107e8899845ad3d59bd9653f200f220920489ca2b5937696c318360405180821515815260200191505060405180910390a35050565b611c0c611c066124a9565b8361257f565b611c61576040517f08c379a00000000000000000000000000000000000000000000000000000000081526004018080602001828103825260318152602001806144c76031913960400191505060405180910390fd5b611c6d84848484613409565b50505050565b6060611c7e8261248c565b611cd3576040517f08c379a000000000000000000000000000000000000000000000000000000000815260040180806020018281038252602f815260200180614477602f913960400191505060405180910390fd5b6060600860008481526020019081526020016000208054600181600116156101000203166002900480601f016020809104026020016040519081016040528092919081815260200182805460018160011615610100020316600290048015611d7c5780601f10611d5157610100808354040283529160200191611d7c565b820191906000526020600020905b815481529060010190602001808311611d5f57829003601f168201915b50505050509050600060098054600181600116156101000203166002900490501415611dab5780915050611f57565b600081511115611e84576009816040516020018083805460018160011615610100020316600290048015611e165780601f10611df4576101008083540402835291820191611e16565b820191906000526020600020905b815481529060010190602001808311611e02575b505082805190602001908083835b60208310611e475780518252602082019150602081019050602083039250611e24565b6001836020036101000a03801982511681845116808217855250505050505090500192505050604051602081830303815290604052915050611f57565b6009611e8f846122b1565b6040516020018083805460018160011615610100020316600290048015611eed5780601f10611ecb576101008083540402835291820191611eed565b820191906000526020600020905b815481529060010190602001808311611ed9575b505082805190602001908083835b60208310611f1e5780518252602082019150602081019050602083039250611efb565b6001836020036101000a038019825116818451168082178552505050505050905001925050506040516020818303038152906040529150505b919050565b600d8181548110611f6957fe5b90600052602060002090600a0201600091509050806000018054600181600116156101000203166002900480601f0160208091040260200160405190810160405280929190818152602001828054600181600116156101000203166002900480156120155780601f10611fea57610100808354040283529160200191612015565b820191906000526020600020905b815481529060010190602001808311611ff857829003601f168201915b505050505090806001018054600181600116156101000203166002900480601f0160208091040260200160405190810160405280929190818152602001828054600181600116156101000203166002900480156120b35780601f10612088576101008083540402835291602001916120b3565b820191906000526020600020905b81548152906001019060200180831161209657829003601f168201915b505050505090806002018054600181600116156101000203166002900480601f0160208091040260200160405190810160405280929190818152602001828054600181600116156101000203166002900480156121515780601f1061212657610100808354040283529160200191612151565b820191906000526020600020905b81548152906001019060200180831161213457829003601f168201915b505050505090806003015490806004015490806005015490806006015490806007015490806008015490806009018054600181600116156101000203166002900480601f0160208091040260200160405190810160405280929190818152602001828054600181600116156101000203166002900480156122135780601f106121e857610100808354040283529160200191612213565b820191906000526020600020905b8154815290600101906020018083116121f657829003601f168201915b505050505090508a565b6000600560008473ffffffffffffffffffffffffffffffffffffffff1673ffffffffffffffffffffffffffffffffffffffff16815260200190815260200160002060008373ffffffffffffffffffffffffffffffffffffffff1673ffffffffffffffffffffffffffffffffffffffff16815260200190815260200160002060009054906101000a900460ff16905092915050565b606060008214156122f9576040518060400160405280600181526020017f300000000000000000000000000000000000000000000000000000000000000081525090506123f3565b600082905060005b60008214612323578080600101915050600a828161231b57fe5b049150612301565b60608167ffffffffffffffff8111801561233c57600080fd5b506040519080825280601f01601f19166020018201604052801561236f5781602001600182028036833780820191505090505b50905060006001830390508593505b600084146123eb57600a848161239057fe5b0660300160f81b828280600190039350815181106123aa57fe5b60200101907effffffffffffffffffffffffffffffffffffffffffffffffffffffffffffff1916908160001a905350600a84816123e357fe5b04935061237e565b819450505050505b919050565b600061240a836000018360001b61347b565b905092915050565b600061243e846000018460001b8473ffffffffffffffffffffffffffffffffffffffff1660001b6134eb565b90509392505050565b600080823b905060008111915050919050565b606061246984846000856135c7565b90509392505050565b6000612484836000018360001b613770565b905092915050565b60006124a282600261247290919063ffffffff16565b9050919050565b600033905090565b816004600083815260200190815260200160002060006101000a81548173ffffffffffffffffffffffffffffffffffffffff021916908373ffffffffffffffffffffffffffffffffffffffff160217905550808273ffffffffffffffffffffffffffffffffffffffff16612524836117cc565b73ffffffffffffffffffffffffffffffffffffffff167f8c5be1e5ebec7d5bd14f71427d1e84f3dd0314c0f7b2291e5b200ac8c7c3b92560405160405180910390a45050565b600061257882600001613793565b9050919050565b600061258a8261248c565b6125df576040517f08c379a000000000000000000000000000000000000000000000000000000000815260040180806020018281038252602c81526020018061431d602c913960400191505060405180910390fd5b60006125ea836117cc565b90508073ffffffffffffffffffffffffffffffffffffffff168473ffffffffffffffffffffffffffffffffffffffff16148061265957508373ffffffffffffffffffffffffffffffffffffffff1661264184611140565b73ffffffffffffffffffffffffffffffffffffffff16145b8061266a5750612669818561221d565b5b91505092915050565b8273ffffffffffffffffffffffffffffffffffffffff16612693826117cc565b73ffffffffffffffffffffffffffffffffffffffff16146126ff576040517f08c379a000000000000000000000000000000000000000000000000000000000815260040180806020018281038252602981526020018061444e6029913960400191505060405180910390fd5b600073ffffffffffffffffffffffffffffffffffffffff168273ffffffffffffffffffffffffffffffffffffffff161415612785576040517f08c379a00000000000000000000000000000000000000000000000000000000081526004018080602001828103825260248152602001806142d36024913960400191505060405180910390fd5b6127908383836137a4565b61279b6000826124b1565b6127ec81600160008673ffffffffffffffffffffffffffffffffffffffff1673ffffffffffffffffffffffffffffffffffffffff1681526020019081526020016000206137a990919063ffffffff16565b5061283e81600160008573ffffffffffffffffffffffffffffffffffffffff1673ffffffffffffffffffffffffffffffffffffffff1681526020019081526020016000206123f890919063ffffffff16565b50612855818360026124129092919063ffffffff16565b50808273ffffffffffffffffffffffffffffffffffffffff168473ffffffffffffffffffffffffffffffffffffffff167fddf252ad1be2c89b69c2b068fc378daa952ba7f163c4a11628f55a4df523b3ef60405160405180910390a4505050565b60006128c583600001836137c3565b60001c905092915050565b6000806000806128e38660000186613846565b915091508160001c8160001c9350935050509250929050565b600061290f846000018460001b846138df565b60001c90509392505050565b6000612929826000016139d5565b9050919050565b600080662386f26fc1000090506000836040516020018082805190602001908083835b602083106129765780518252602082019150602081019050602083039250612953565b6001836020036101000a0380198251168184511680821785525050505050509050019150506040516020818303038152906040528051906020012060001c90508181816129bf57fe5b0692505050919050565b600b600088815260200190815260200160002060009054906101000a900460ff16156129f457600080fd5b606088612a00896122b1565b6040516020018083805190602001908083835b60208310612a365780518252602082019150602081019050602083039250612a13565b6001836020036101000a03801982511681845116808217855250505050505090500182805190602001908083835b60208310612a875780518252602082019150602081019050602083039250612a64565b6001836020036101000a038019825116818451168082178552505050505050905001925050506040516020818303038152906040529050806040516020018082805190602001908083835b60208310612af55780518252602082019150602081019050602083039250612ad2565b6001836020036101000a038019825116818451168082178552505050505050905001807f2e6a736f6e0000000000000000000000000000000000000000000000000000008152506005019150506040516020818303038152906040529050612b5b6140df565b8181600001819052508a81602001819052508981604001819052508881606001818152505087816080018181525050868160a0018181525050858160c0018181525050848160e0018181525050838161010001818152505082816101200181905250612bc6886122b1565b612bcf886122b1565b612bd8886122b1565b612be1886122b1565b878760405160200180806020018060200180602001806020018781526020018060200186810386528c818151815260200191508051906020019080838360005b83811015612c3c578082015181840152602081019050612c21565b50505050905090810190601f168015612c695780820380516001836020036101000a031916815260200191505b5086810385528b818151815260200191508051906020019080838360005b83811015612ca2578082015181840152602081019050612c87565b50505050905090810190601f168015612ccf5780820380516001836020036101000a031916815260200191505b5086810384528a818151815260200191508051906020019080838360005b83811015612d08578082015181840152602081019050612ced565b50505050905090810190601f168015612d355780820380516001836020036101000a031916815260200191505b50868103835289818151815260200191508051906020019080838360005b83811015612d6e578082015181840152602081019050612d53565b50505050905090810190601f168015612d9b5780820380516001836020036101000a031916815260200191505b50868103825287818151815260200191508051906020019080838360005b83811015612dd4578082015181840152602081019050612db9565b50505050905090810190601f168015612e015780820380516001836020036101000a031916815260200191505b509b505050505050505050505050604051602081830303815290604052600a9080519060200190612e33929190614132565b50600d8190806001815401808255809150506001900390600052602060002090600a02016000909190919091506000820151816000019080519060200190612e7c9291906141b2565b506020820151816001019080519060200190612e999291906141b2565b506040820151816002019080519060200190612eb69291906141b2565b50606082015181600301556080820151816004015560a0820151816005015560c0820151816006015560e082015181600701556101008201518160080155610120820151816009019080519060200190612f119291906141b2565b5050506001600b60008b815260200190815260200160002060006101000a81548160ff02191690831515021790555080600c836040518082805190602001908083835b60208310612f775780518252602082019150602081019050602083039250612f54565b6001836020036101000a03801982511681845116808217855250505050505090500191505090815260200160405180910390206000820151816000019080519060200190612fc69291906141b2565b506020820151816001019080519060200190612fe39291906141b2565b5060408201518160020190805190602001906130009291906141b2565b50606082015181600301556080820151816004015560a0820151816005015560c0820151816006015560e08201518160070155610100820151816008015561012082015181600901908051906020019061305b9291906141b2565b50905050613104338a600a8054600181600116156101000203166002900480601f0160208091040260200160405190810160405280929190818152602001828054600181600116156101000203166002900480156130fa5780601f106130cf576101008083540402835291602001916130fa565b820191906000526020600020905b8154815290600101906020018083116130dd57829003601f168201915b50505050506139e6565b6131256040518060600160405280602f81526020016142a4602f9139613a57565b61312f8983613a71565b7f12ae7fc64a50ae84cc0201fbe8dbdd65d11d5627f33d37124e44d747d70a1e25600a60405180806020018281038252838181546001816001161561010002031660029004815260200191508054600181600116156101000203166002900480156131db5780601f106131b0576101008083540402835291602001916131db565b820191906000526020600020905b8154815290600101906020018083116131be57829003601f168201915b50509250505060405180910390a17f6a04168520174b5a6c4c6756da84236dd5310ed0345d6f627a3f85d295762c15828c8c8c8c8c8c8c8c8c604051808060200180602001806020018b81526020018a81526020018981526020018881526020018781526020018681526020018060200185810385528f818151815260200191508051906020019080838360005b83811015613284578082015181840152602081019050613269565b50505050905090810190601f1680156132b15780820380516001836020036101000a031916815260200191505b5085810384528e818151815260200191508051906020019080838360005b838110156132ea5780820151818401526020810190506132cf565b50505050905090810190601f1680156133175780820380516001836020036101000a031916815260200191505b5085810383528d818151815260200191508051906020019080838360005b83811015613350578082015181840152602081019050613335565b50505050905090810190601f16801561337d5780820380516001836020036101000a031916815260200191505b50858103825286818151815260200191508051906020019080838360005b838110156133b657808201518184015260208101905061339b565b50505050905090810190601f1680156133e35780820380516001836020036101000a031916815260200191505b509e50505050505050505050505050505060405180910390a15050505050505050505050565b613414848484612673565b61342084848484613afb565b613475576040517f08c379a00000000000000000000000000000000000000000000000000000000081526004018080602001828103825260328152602001806142726032913960400191505060405180910390fd5b50505050565b60006134878383613d14565b6134e05782600001829080600181540180825580915050600190039060005260206000200160009091909190915055826000018054905083600101600084815260200190815260200160002081905550600190506134e5565b600090505b92915050565b6000808460010160008581526020019081526020016000205490506000811415613592578460000160405180604001604052808681526020018581525090806001815401808255809150506001900390600052602060002090600202016000909190919091506000820151816000015560208201518160010155505084600001805490508560010160008681526020019081526020016000208190555060019150506135c0565b828560000160018303815481106135a557fe5b90600052602060002090600202016001018190555060009150505b9392505050565b606082471015613622576040517f08c379a00000000000000000000000000000000000000000000000000000000081526004018080602001828103825260268152602001806142f76026913960400191505060405180910390fd5b61362b85612447565b61369d576040517f08c379a000000000000000000000000000000000000000000000000000000000815260040180806020018281038252601d8152602001807f416464726573733a2063616c6c20746f206e6f6e2d636f6e747261637400000081525060200191505060405180910390fd5b600060608673ffffffffffffffffffffffffffffffffffffffff1685876040518082805190602001908083835b602083106136ed57805182526020820191506020810190506020830392506136ca565b6001836020036101000a03801982511681845116808217855250505050505090500191505060006040518083038185875af1925050503d806000811461374f576040519150601f19603f3d011682016040523d82523d6000602084013e613754565b606091505b5091509150613764828286613d37565b92505050949350505050565b600080836001016000848152602001908152602001600020541415905092915050565b600081600001805490509050919050565b505050565b60006137bb836000018360001b613e03565b905092915050565b600081836000018054905011613824576040517f08c379a00000000000000000000000000000000000000000000000000000000081526004018080602001828103825260228152602001806142506022913960400191505060405180910390fd5b82600001828154811061383357fe5b9060005260206000200154905092915050565b600080828460000180549050116138a8576040517f08c379a00000000000000000000000000000000000000000000000000000000081526004018080602001828103825260228152602001806143d46022913960400191505060405180910390fd5b60008460000184815481106138b957fe5b906000526020600020906002020190508060000154816001015492509250509250929050565b600080846001016000858152602001908152602001600020549050600081141583906139a6576040517f08c379a00000000000000000000000000000000000000000000000000000000081526004018080602001828103825283818151815260200191508051906020019080838360005b8381101561396b578082015181840152602081019050613950565b50505050905090810190601f1680156139985780820380516001836020036101000a031916815260200191505b509250505060405180910390fd5b508460000160018203815481106139b957fe5b9060005260206000209060020201600101549150509392505050565b600081600001805490509050919050565b6139f08383613eeb565b6139fd6000848484613afb565b613a52576040517f08c379a00000000000000000000000000000000000000000000000000000000081526004018080602001828103825260328152602001806142726032913960400191505060405180910390fd5b505050565b8060099080519060200190613a6d9291906141b2565b5050565b613a7a8261248c565b613acf576040517f08c379a000000000000000000000000000000000000000000000000000000000815260040180806020018281038252602c815260200180614422602c913960400191505060405180910390fd5b80600860008481526020019081526020016000209080519060200190613af69291906141b2565b505050565b6000613b1c8473ffffffffffffffffffffffffffffffffffffffff16612447565b613b295760019050613d0c565b6060613c9363150b7a0260e01b613b3e6124a9565b888787604051602401808573ffffffffffffffffffffffffffffffffffffffff1681526020018473ffffffffffffffffffffffffffffffffffffffff16815260200183815260200180602001828103825283818151815260200191508051906020019080838360005b83811015613bc2578082015181840152602081019050613ba7565b50505050905090810190601f168015613bef5780820380516001836020036101000a031916815260200191505b5095505050505050604051602081830303815290604052907bffffffffffffffffffffffffffffffffffffffffffffffffffffffff19166020820180517bffffffffffffffffffffffffffffffffffffffffffffffffffffffff8381831617835250505050604051806060016040528060328152602001614272603291398773ffffffffffffffffffffffffffffffffffffffff1661245a9092919063ffffffff16565b90506000818060200190516020811015613cac57600080fd5b8101908080519060200190929190505050905063150b7a0260e01b7bffffffffffffffffffffffffffffffffffffffffffffffffffffffff1916817bffffffffffffffffffffffffffffffffffffffffffffffffffffffff191614925050505b949350505050565b600080836001016000848152602001908152602001600020541415905092915050565b60608315613d4757829050613dfc565b600083511115613d5a5782518084602001fd5b816040517f08c379a00000000000000000000000000000000000000000000000000000000081526004018080602001828103825283818151815260200191508051906020019080838360005b83811015613dc1578082015181840152602081019050613da6565b50505050905090810190601f168015613dee5780820380516001836020036101000a031916815260200191505b509250505060405180910390fd5b9392505050565b60008083600101600084815260200190815260200160002054905060008114613edf5760006001820390506000600186600001805490500390506000866000018281548110613e4e57fe5b9060005260206000200154905080876000018481548110613e6b57fe5b9060005260206000200181905550600183018760010160008381526020019081526020016000208190555086600001805480613ea357fe5b60019003818190600052602060002001600090559055866001016000878152602001908152602001600020600090556001945050505050613ee5565b60009150505b92915050565b600073ffffffffffffffffffffffffffffffffffffffff168273ffffffffffffffffffffffffffffffffffffffff161415613f8e576040517f08c379a00000000000000000000000000000000000000000000000000000000081526004018080602001828103825260208152602001807f4552433732313a206d696e7420746f20746865207a65726f206164647265737381525060200191505060405180910390fd5b613f978161248c565b1561400a576040517f08c379a000000000000000000000000000000000000000000000000000000000815260040180806020018281038252601c8152602001807f4552433732313a20746f6b656e20616c7265616479206d696e7465640000000081525060200191505060405180910390fd5b614016600083836137a4565b61406781600160008573ffffffffffffffffffffffffffffffffffffffff1673ffffffffffffffffffffffffffffffffffffffff1681526020019081526020016000206123f890919063ffffffff16565b5061407e818360026124129092919063ffffffff16565b50808273ffffffffffffffffffffffffffffffffffffffff16600073ffffffffffffffffffffffffffffffffffffffff167fddf252ad1be2c89b69c2b068fc378daa952ba7f163c4a11628f55a4df523b3ef60405160405180910390a45050565b604051806101400160405280606081526020016060815260200160608152602001600081526020016000815260200160008152602001600081526020016000815260200160008152602001606081525090565b828054600181600116156101000203166002900490600052602060002090601f016020900481019282601f1061417357805160ff19168380011785556141a1565b828001600101855582156141a1579182015b828111156141a0578251825591602001919060010190614185565b5b5090506141ae9190614232565b5090565b828054600181600116156101000203166002900490600052602060002090601f016020900481019282601f106141f357805160ff1916838001178555614221565b82800160010185558215614221579182015b82811115614220578251825591602001919060010190614205565b5b50905061422e9190614232565b5090565b5b8082111561424b576000816000905550600101614233565b509056fe456e756d657261626c655365743a20696e646578206f7574206f6620626f756e64734552433732313a207472616e7366657220746f206e6f6e20455243373231526563656976657220696d706c656d656e746572687474703a2f2f6c6f63616c686f73743a333030302f7075626c69632f23212f74726561737572655f63686573742f4552433732313a207472616e7366657220746f20746865207a65726f2061646472657373416464726573733a20696e73756666696369656e742062616c616e636520666f722063616c6c4552433732313a206f70657261746f7220717565727920666f72206e6f6e6578697374656e7420746f6b656e4552433732313a20617070726f76652063616c6c6572206973206e6f74206f776e6572206e6f7220617070726f76656420666f7220616c6c4552433732313a2062616c616e636520717565727920666f7220746865207a65726f20616464726573734552433732313a206f776e657220717565727920666f72206e6f6e6578697374656e7420746f6b656e456e756d657261626c654d61703a20696e646578206f7574206f6620626f756e64734552433732313a20617070726f76656420717565727920666f72206e6f6e6578697374656e7420746f6b656e4552433732314d657461646174613a2055524920736574206f66206e6f6e6578697374656e7420746f6b656e4552433732313a207472616e73666572206f6620746f6b656e2074686174206973206e6f74206f776e4552433732314d657461646174613a2055524920717565727920666f72206e6f6e6578697374656e7420746f6b656e4552433732313a20617070726f76616c20746f2063757272656e74206f776e65724552433732313a207472616e736665722063616c6c6572206973206e6f74206f776e6572206e6f7220617070726f766564a26469706673582212209700fa91b18223c6101f2f8a9f34fa04ba45142fd288792874edce5d1c182b5464736f6c634300060c00334552433732313a207472616e7366657220746f206e6f6e20455243373231526563656976657220696d706c656d656e746572687474703a2f2f6c6f63616c686f73743a333030302f7075626c69632f23212f74726561737572655f63686573742f416464726573733a20696e73756666696369656e742062616c616e636520666f722063616c6c4552433732314d657461646174613a2055524920736574206f66206e6f6e6578697374656e7420746f6b656e",
  "immutableReferences": {},
  "source": "pragma solidity >=0.4.21 <0.7.0;\n//V5\nimport \"@openzeppelin/contracts/token/ERC721/ERC721.sol\";\nimport \"@openzeppelin/contracts/utils/Strings.sol\";\n//mad props to the crypto zombies tutorial!  Thanks!\ncontract AngelToken is ERC721{\n  /* State variables are stored in the blockchain */\n  bytes public mintData;\n  mapping(uint256 => bool) public is_on_manifest;\n  /* mapping (address => uint256) public map_address_to_id; */\n  /* mapping (uint256 => Alm) public map_id_to_Alm; */\n mapping (string => Alm) public map_uri_to_Alm;\n\n  struct Alm {\n   string uri;\n    string name;\n     string sym;  // <10 alpha num\n      uint256 id;  // the id of the token issuance\n       uint256 issue_num;\n        uint256 mint_date;\n         uint256 cost; // the Unit Retail Cost of your product in wei\n          uint256 angel_coefficient; // coefficient of next round's profits\n           uint256 status;  // the status of the contract\n            string product; // the unit product being produced in the endeavor - a lb of coffee, a chocalate bar, a bar of soap, a board, solar panel, or your grandmas comfy undies\n             }\n   Alm[] public alms;\n   event MintDataEvent(bytes mintData);\n   event ManifestedAngelToken(\n      string _uri,\n       string _ename, // endeavor name\n        string _esym,  // endeavor symbol\n         uint256 _id,\n          uint256 _issue_num,\n           uint256 _mint_date,\n            uint256 _cost,\n             uint256 _angel_coefficient,\n              uint256 _status,\n               string _product\n          );\n\n  constructor(\n    string memory _ename, // endeavor name\n     string memory _esym,  // endeavor symbol\n       uint256 _issue_num,\n        uint256 _mint_date,\n         uint256 _cost,\n          uint256 _angel_coefficient,\n           uint256 _status, // 1: waiting 2: executed 3: shipped 4: fullfilled\n            string memory _product\n            )\n\n    ERC721(\"AngelToken\", \"ANGEL\")\n      public {  //setup <-- run once like an init <-- pass in name and symbol as per ERC721 Standard\n        /*uncomment below to run through mocha tests */\n        manifestAngelToken(_ename, _esym, _issue_num, _mint_date, _cost, _angel_coefficient, _status, _product);\n\n  }\n\n\n  function manifestAngelToken(\n    string memory _ename,\n     string memory _esym,\n      uint256 _issue_num,\n       uint256 _mint_date,\n        uint256 _cost,\n         uint256 _angel_coefficient,\n          uint256 _status,\n           string memory _product\n    ) public {\n      uint256 _id = _idGenesis(_ename); //the id is made of the name and has the symbol attached to the front\n      _tokenGenesis(_ename, _esym, _id, _issue_num, _mint_date, _cost, _angel_coefficient, _status, _product);\n  }\n\n   function _tokenGenesis (\n    string memory _ename,\n     string memory _esym,\n      uint256 _id,\n       uint256 _issue_num,\n        uint256 _mint_date,\n         uint256 _cost,\n          uint256 _angel_coefficient,\n           uint256 _status,\n            string memory _product\n            )\n\n      internal {\n        require(!is_on_manifest[_id]);\n        string memory new_uri = string(abi.encodePacked(_esym, _id.toString())); //Hare Krsna to the String library\n        new_uri = string(abi.encodePacked(new_uri, \".json\"));\n\n        Alm memory new_alm;// = Alm(new_uri, _ename, _esym, _id, _issue_num, _mint_date, _cost, _angel_coefficient, _status, _product);\n        new_alm.uri = new_uri;\n        new_alm.name = _ename;\n        new_alm.sym = _esym;\n        new_alm.id = _id;\n\n        new_alm.issue_num = _issue_num;\n        new_alm.mint_date = _mint_date;\n        new_alm.cost = _cost;\n        new_alm.angel_coefficient = _angel_coefficient;\n        new_alm.status = _status;\n        new_alm.product = _product;\n        mintData = abi.encode(_issue_num.toString(), _mint_date.toString(), _cost.toString(), _angel_coefficient.toString(), _status, _product);\n        /* bytes with a fixed variable length can be passed between contracts */\n\n        alms.push(new_alm);\n        is_on_manifest[_id] = true;\n        /* map_id_to_Alm[_id] = new_alm; */\n        map_uri_to_Alm[new_uri] = new_alm;\n//      map_address_to_id[msg.sender] = _id; */ //redundant and expensive unless there's some other reason to have them\n    /*  convert new_alm to bytes so _mint will accept it\n        /* mintData = toBytes(new_alm); */\n        _safeMint(msg.sender, _id, mintData);\n        _setBaseURI(\"http://localhost:3000/public/#!/treasure_chest/\");\n        _setTokenURI(_id, new_uri);\n        /* _mint(msg.sender, _id); */\n    /*  send data to file at uri on unstoppable domains or some other decentralized servicer */\n        emit MintDataEvent(mintData);\n        emit ManifestedAngelToken(\n              new_uri,\n               _ename,\n                _esym,\n                 _id,\n                  _issue_num,\n                   _mint_date,\n                    _cost,\n                     _angel_coefficient,\n                      _status,\n                       _product\n                       );\n\n\n  }\n  // generate random id\n  function _idGenesis(string memory _str) internal pure returns (uint256) {\n    uint256 idmod = 10 ** 16;\n    uint256 token_id = uint256(keccak256(abi.encodePacked(_str)));\n    return token_id % idmod;\n  }\n\n}\n",
  "sourcePath": "/Volumes/ETH/webApp6/contracts/AngelToken.sol",
  "compiler": {
    "name": "solc",
    "version": "0.6.12+commit.27d51765.Emscripten.clang"
  },
  "schemaVersion": "3.3.2",
  "updatedAt": "2020-12-17T00:36:06.257Z",
  "networkType": "ethereum",
  "devdoc": {
    "kind": "dev",
    "methods": {
      "approve(address,uint256)": {
        "details": "See {IERC721-approve}."
      },
      "balanceOf(address)": {
        "details": "See {IERC721-balanceOf}."
      },
      "baseURI()": {
        "details": "Returns the base URI set via {_setBaseURI}. This will be automatically added as a prefix in {tokenURI} to each token's URI, or to the token ID if no specific URI is set for that token ID."
      },
      "getApproved(uint256)": {
        "details": "See {IERC721-getApproved}."
      },
      "isApprovedForAll(address,address)": {
        "details": "See {IERC721-isApprovedForAll}."
      },
      "name()": {
        "details": "See {IERC721Metadata-name}."
      },
      "ownerOf(uint256)": {
        "details": "See {IERC721-ownerOf}."
      },
      "safeTransferFrom(address,address,uint256)": {
        "details": "See {IERC721-safeTransferFrom}."
      },
      "safeTransferFrom(address,address,uint256,bytes)": {
        "details": "See {IERC721-safeTransferFrom}."
      },
      "setApprovalForAll(address,bool)": {
        "details": "See {IERC721-setApprovalForAll}."
      },
      "supportsInterface(bytes4)": {
        "details": "See {IERC165-supportsInterface}. Time complexity O(1), guaranteed to always use less than 30 000 gas."
      },
      "symbol()": {
        "details": "See {IERC721Metadata-symbol}."
      },
      "tokenByIndex(uint256)": {
        "details": "See {IERC721Enumerable-tokenByIndex}."
      },
      "tokenOfOwnerByIndex(address,uint256)": {
        "details": "See {IERC721Enumerable-tokenOfOwnerByIndex}."
      },
      "tokenURI(uint256)": {
        "details": "See {IERC721Metadata-tokenURI}."
      },
      "totalSupply()": {
        "details": "See {IERC721Enumerable-totalSupply}."
      },
      "transferFrom(address,address,uint256)": {
        "details": "See {IERC721-transferFrom}."
      }
    },
    "version": 1
  },
  "userdoc": {
    "kind": "user",
    "methods": {},
    "version": 1
  }
}