{
  "contractName": "AngelToken",
  "abi": [
    {
      "inputs": [
        {
          "internalType": "string",
          "name": "_ename",
          "type": "string"
        },
        {
          "internalType": "string",
          "name": "_esym",
          "type": "string"
        },
        {
          "internalType": "uint256",
          "name": "_issue_num",
          "type": "uint256"
        },
        {
          "internalType": "uint256",
          "name": "_mint_date",
          "type": "uint256"
        },
        {
          "internalType": "uint256",
          "name": "_cost",
          "type": "uint256"
        },
        {
          "internalType": "uint256",
          "name": "_angel_coefficient",
          "type": "uint256"
        },
        {
          "internalType": "string",
          "name": "_status",
          "type": "string"
        },
        {
          "internalType": "string",
          "name": "_product",
          "type": "string"
        }
      ],
      "stateMutability": "nonpayable",
      "type": "constructor"
    },
    {
      "anonymous": false,
      "inputs": [
        {
          "indexed": true,
          "internalType": "address",
          "name": "owner",
          "type": "address"
        },
        {
          "indexed": true,
          "internalType": "address",
          "name": "approved",
          "type": "address"
        },
        {
          "indexed": true,
          "internalType": "uint256",
          "name": "tokenId",
          "type": "uint256"
        }
      ],
      "name": "Approval",
      "type": "event"
    },
    {
      "anonymous": false,
      "inputs": [
        {
          "indexed": true,
          "internalType": "address",
          "name": "owner",
          "type": "address"
        },
        {
          "indexed": true,
          "internalType": "address",
          "name": "operator",
          "type": "address"
        },
        {
          "indexed": false,
          "internalType": "bool",
          "name": "approved",
          "type": "bool"
        }
      ],
      "name": "ApprovalForAll",
      "type": "event"
    },
    {
      "anonymous": false,
      "inputs": [
        {
          "indexed": false,
          "internalType": "string",
          "name": "_ename",
          "type": "string"
        },
        {
          "indexed": false,
          "internalType": "string",
          "name": "_esym",
          "type": "string"
        },
        {
          "indexed": false,
          "internalType": "uint256",
          "name": "_id",
          "type": "uint256"
        },
        {
          "indexed": false,
          "internalType": "uint256",
          "name": "_issue_num",
          "type": "uint256"
        },
        {
          "indexed": false,
          "internalType": "uint256",
          "name": "_mint_date",
          "type": "uint256"
        },
        {
          "indexed": false,
          "internalType": "uint256",
          "name": "_cost",
          "type": "uint256"
        },
        {
          "indexed": false,
          "internalType": "uint256",
          "name": "_angel_coefficient",
          "type": "uint256"
        },
        {
          "indexed": false,
          "internalType": "string",
          "name": "_status",
          "type": "string"
        },
        {
          "indexed": false,
          "internalType": "string",
          "name": "_product",
          "type": "string"
        }
      ],
      "name": "ManifestedAngelToken",
      "type": "event"
    },
    {
      "anonymous": false,
      "inputs": [
        {
          "indexed": true,
          "internalType": "address",
          "name": "from",
          "type": "address"
        },
        {
          "indexed": true,
          "internalType": "address",
          "name": "to",
          "type": "address"
        },
        {
          "indexed": true,
          "internalType": "uint256",
          "name": "tokenId",
          "type": "uint256"
        }
      ],
      "name": "Transfer",
      "type": "event"
    },
    {
      "inputs": [
        {
          "internalType": "uint256",
          "name": "",
          "type": "uint256"
        }
      ],
      "name": "alms",
      "outputs": [
        {
          "internalType": "string",
          "name": "name",
          "type": "string"
        },
        {
          "internalType": "string",
          "name": "sym",
          "type": "string"
        },
        {
          "internalType": "uint256",
          "name": "id",
          "type": "uint256"
        },
        {
          "internalType": "uint256",
          "name": "issue_num",
          "type": "uint256"
        },
        {
          "internalType": "uint256",
          "name": "mint_date",
          "type": "uint256"
        },
        {
          "internalType": "uint256",
          "name": "cost",
          "type": "uint256"
        },
        {
          "internalType": "uint256",
          "name": "angel_coefficient",
          "type": "uint256"
        },
        {
          "internalType": "string",
          "name": "status",
          "type": "string"
        },
        {
          "internalType": "string",
          "name": "product",
          "type": "string"
        }
      ],
      "stateMutability": "view",
      "type": "function",
      "constant": true
    },
    {
      "inputs": [
        {
          "internalType": "address",
          "name": "to",
          "type": "address"
        },
        {
          "internalType": "uint256",
          "name": "tokenId",
          "type": "uint256"
        }
      ],
      "name": "approve",
      "outputs": [],
      "stateMutability": "nonpayable",
      "type": "function"
    },
    {
      "inputs": [
        {
          "internalType": "address",
          "name": "owner",
          "type": "address"
        }
      ],
      "name": "balanceOf",
      "outputs": [
        {
          "internalType": "uint256",
          "name": "",
          "type": "uint256"
        }
      ],
      "stateMutability": "view",
      "type": "function",
      "constant": true
    },
    {
      "inputs": [],
      "name": "baseURI",
      "outputs": [
        {
          "internalType": "string",
          "name": "",
          "type": "string"
        }
      ],
      "stateMutability": "view",
      "type": "function",
      "constant": true
    },
    {
      "inputs": [
        {
          "internalType": "uint256",
          "name": "tokenId",
          "type": "uint256"
        }
      ],
      "name": "getApproved",
      "outputs": [
        {
          "internalType": "address",
          "name": "",
          "type": "address"
        }
      ],
      "stateMutability": "view",
      "type": "function",
      "constant": true
    },
    {
      "inputs": [],
      "name": "iddig",
      "outputs": [
        {
          "internalType": "uint256",
          "name": "",
          "type": "uint256"
        }
      ],
      "stateMutability": "view",
      "type": "function",
      "constant": true
    },
    {
      "inputs": [
        {
          "internalType": "address",
          "name": "owner",
          "type": "address"
        },
        {
          "internalType": "address",
          "name": "operator",
          "type": "address"
        }
      ],
      "name": "isApprovedForAll",
      "outputs": [
        {
          "internalType": "bool",
          "name": "",
          "type": "bool"
        }
      ],
      "stateMutability": "view",
      "type": "function",
      "constant": true
    },
    {
      "inputs": [
        {
          "internalType": "uint256",
          "name": "",
          "type": "uint256"
        }
      ],
      "name": "is_on_manifest",
      "outputs": [
        {
          "internalType": "bool",
          "name": "",
          "type": "bool"
        }
      ],
      "stateMutability": "view",
      "type": "function",
      "constant": true
    },
    {
      "inputs": [
        {
          "internalType": "address",
          "name": "",
          "type": "address"
        }
      ],
      "name": "map_address_to_id",
      "outputs": [
        {
          "internalType": "uint256",
          "name": "",
          "type": "uint256"
        }
      ],
      "stateMutability": "view",
      "type": "function",
      "constant": true
    },
    {
      "inputs": [
        {
          "internalType": "uint256",
          "name": "",
          "type": "uint256"
        }
      ],
      "name": "map_id_to_Alm",
      "outputs": [
        {
          "internalType": "string",
          "name": "name",
          "type": "string"
        },
        {
          "internalType": "string",
          "name": "sym",
          "type": "string"
        },
        {
          "internalType": "uint256",
          "name": "id",
          "type": "uint256"
        },
        {
          "internalType": "uint256",
          "name": "issue_num",
          "type": "uint256"
        },
        {
          "internalType": "uint256",
          "name": "mint_date",
          "type": "uint256"
        },
        {
          "internalType": "uint256",
          "name": "cost",
          "type": "uint256"
        },
        {
          "internalType": "uint256",
          "name": "angel_coefficient",
          "type": "uint256"
        },
        {
          "internalType": "string",
          "name": "status",
          "type": "string"
        },
        {
          "internalType": "string",
          "name": "product",
          "type": "string"
        }
      ],
      "stateMutability": "view",
      "type": "function",
      "constant": true
    },
    {
      "inputs": [
        {
          "internalType": "uint256",
          "name": "",
          "type": "uint256"
        }
      ],
      "name": "map_id_to_address",
      "outputs": [
        {
          "internalType": "address",
          "name": "",
          "type": "address"
        }
      ],
      "stateMutability": "view",
      "type": "function",
      "constant": true
    },
    {
      "inputs": [],
      "name": "name",
      "outputs": [
        {
          "internalType": "string",
          "name": "",
          "type": "string"
        }
      ],
      "stateMutability": "view",
      "type": "function",
      "constant": true
    },
    {
      "inputs": [
        {
          "internalType": "uint256",
          "name": "tokenId",
          "type": "uint256"
        }
      ],
      "name": "ownerOf",
      "outputs": [
        {
          "internalType": "address",
          "name": "",
          "type": "address"
        }
      ],
      "stateMutability": "view",
      "type": "function",
      "constant": true
    },
    {
      "inputs": [
        {
          "internalType": "address",
          "name": "from",
          "type": "address"
        },
        {
          "internalType": "address",
          "name": "to",
          "type": "address"
        },
        {
          "internalType": "uint256",
          "name": "tokenId",
          "type": "uint256"
        }
      ],
      "name": "safeTransferFrom",
      "outputs": [],
      "stateMutability": "nonpayable",
      "type": "function"
    },
    {
      "inputs": [
        {
          "internalType": "address",
          "name": "from",
          "type": "address"
        },
        {
          "internalType": "address",
          "name": "to",
          "type": "address"
        },
        {
          "internalType": "uint256",
          "name": "tokenId",
          "type": "uint256"
        },
        {
          "internalType": "bytes",
          "name": "_data",
          "type": "bytes"
        }
      ],
      "name": "safeTransferFrom",
      "outputs": [],
      "stateMutability": "nonpayable",
      "type": "function"
    },
    {
      "inputs": [
        {
          "internalType": "address",
          "name": "operator",
          "type": "address"
        },
        {
          "internalType": "bool",
          "name": "approved",
          "type": "bool"
        }
      ],
      "name": "setApprovalForAll",
      "outputs": [],
      "stateMutability": "nonpayable",
      "type": "function"
    },
    {
      "inputs": [
        {
          "internalType": "bytes4",
          "name": "interfaceId",
          "type": "bytes4"
        }
      ],
      "name": "supportsInterface",
      "outputs": [
        {
          "internalType": "bool",
          "name": "",
          "type": "bool"
        }
      ],
      "stateMutability": "view",
      "type": "function",
      "constant": true
    },
    {
      "inputs": [],
      "name": "symbol",
      "outputs": [
        {
          "internalType": "string",
          "name": "",
          "type": "string"
        }
      ],
      "stateMutability": "view",
      "type": "function",
      "constant": true
    },
    {
      "inputs": [
        {
          "internalType": "uint256",
          "name": "index",
          "type": "uint256"
        }
      ],
      "name": "tokenByIndex",
      "outputs": [
        {
          "internalType": "uint256",
          "name": "",
          "type": "uint256"
        }
      ],
      "stateMutability": "view",
      "type": "function",
      "constant": true
    },
    {
      "inputs": [
        {
          "internalType": "address",
          "name": "owner",
          "type": "address"
        },
        {
          "internalType": "uint256",
          "name": "index",
          "type": "uint256"
        }
      ],
      "name": "tokenOfOwnerByIndex",
      "outputs": [
        {
          "internalType": "uint256",
          "name": "",
          "type": "uint256"
        }
      ],
      "stateMutability": "view",
      "type": "function",
      "constant": true
    },
    {
      "inputs": [
        {
          "internalType": "uint256",
          "name": "tokenId",
          "type": "uint256"
        }
      ],
      "name": "tokenURI",
      "outputs": [
        {
          "internalType": "string",
          "name": "",
          "type": "string"
        }
      ],
      "stateMutability": "view",
      "type": "function",
      "constant": true
    },
    {
      "inputs": [],
      "name": "totalSupply",
      "outputs": [
        {
          "internalType": "uint256",
          "name": "",
          "type": "uint256"
        }
      ],
      "stateMutability": "view",
      "type": "function",
      "constant": true
    },
    {
      "inputs": [
        {
          "internalType": "address",
          "name": "from",
          "type": "address"
        },
        {
          "internalType": "address",
          "name": "to",
          "type": "address"
        },
        {
          "internalType": "uint256",
          "name": "tokenId",
          "type": "uint256"
        }
      ],
      "name": "transferFrom",
      "outputs": [],
      "stateMutability": "nonpayable",
      "type": "function"
    },
    {
      "inputs": [
        {
          "internalType": "string",
          "name": "_ename",
          "type": "string"
        },
        {
          "internalType": "string",
          "name": "_esym",
          "type": "string"
        },
        {
          "internalType": "uint256",
          "name": "_id",
          "type": "uint256"
        },
        {
          "internalType": "uint256",
          "name": "_issue_num",
          "type": "uint256"
        },
        {
          "internalType": "uint256",
          "name": "_mint_date",
          "type": "uint256"
        },
        {
          "internalType": "uint256",
          "name": "_cost",
          "type": "uint256"
        },
        {
          "internalType": "uint256",
          "name": "_angel_coefficient",
          "type": "uint256"
        },
        {
          "internalType": "string",
          "name": "_status",
          "type": "string"
        },
        {
          "internalType": "string",
          "name": "_product",
          "type": "string"
        }
      ],
      "name": "_tokenGenesis",
      "outputs": [
        {
          "internalType": "uint256",
          "name": "",
          "type": "uint256"
        }
      ],
      "stateMutability": "nonpayable",
      "type": "function"
    },
    {
      "inputs": [
        {
          "internalType": "string",
          "name": "_ename",
          "type": "string"
        },
        {
          "internalType": "string",
          "name": "_esym",
          "type": "string"
        },
        {
          "internalType": "uint256",
          "name": "_issue_num",
          "type": "uint256"
        },
        {
          "internalType": "uint256",
          "name": "_mint_date",
          "type": "uint256"
        },
        {
          "internalType": "uint256",
          "name": "_cost",
          "type": "uint256"
        },
        {
          "internalType": "uint256",
          "name": "_angel_coefficient",
          "type": "uint256"
        },
        {
          "internalType": "string",
          "name": "_status",
          "type": "string"
        },
        {
          "internalType": "string",
          "name": "_product",
          "type": "string"
        }
      ],
      "name": "manifestAngelToken",
      "outputs": [],
      "stateMutability": "nonpayable",
      "type": "function"
    }
  ],
  "bytecode": "0x60806040526010600a55600a54600a0a600b553480156200001f57600080fd5b5060405162004b0f38038062004b0f83398181016040526101008110156200004657600080fd5b81019080805160405193929190846401000000008211156200006757600080fd5b838201915060208201858111156200007e57600080fd5b82518660018202830111640100000000821117156200009c57600080fd5b8083526020830192505050908051906020019080838360005b83811015620000d2578082015181840152602081019050620000b5565b50505050905090810190601f168015620001005780820380516001836020036101000a031916815260200191505b50604052602001805160405193929190846401000000008211156200012457600080fd5b838201915060208201858111156200013b57600080fd5b82518660018202830111640100000000821117156200015957600080fd5b8083526020830192505050908051906020019080838360005b838110156200018f57808201518184015260208101905062000172565b50505050905090810190601f168015620001bd5780820380516001836020036101000a031916815260200191505b5060405260200180519060200190929190805190602001909291908051906020019092919080519060200190929190805160405193929190846401000000008211156200020957600080fd5b838201915060208201858111156200022057600080fd5b82518660018202830111640100000000821117156200023e57600080fd5b8083526020830192505050908051906020019080838360005b838110156200027457808201518184015260208101905062000257565b50505050905090810190601f168015620002a25780820380516001836020036101000a031916815260200191505b5060405260200180516040519392919084640100000000821115620002c657600080fd5b83820191506020820185811115620002dd57600080fd5b8251866001820283011164010000000082111715620002fb57600080fd5b8083526020830192505050908051906020019080838360005b838110156200033157808201518184015260208101905062000314565b50505050905090810190601f1680156200035f5780820380516001836020036101000a031916815260200191505b506040525050506040518060400160405280600a81526020017f416e67656c546f6b656e000000000000000000000000000000000000000000008152506040518060400160405280600581526020017f414e47454c000000000000000000000000000000000000000000000000000000815250620003ea6301ffc9a760e01b6200048c60201b60201c565b81600690805190602001906200040292919062000b67565b5080600790805190602001906200041b92919062000b67565b50620004346380ac58cd60e01b6200048c60201b60201c565b6200044c635b5e139f60e01b6200048c60201b60201c565b6200046463780e9d6360e01b6200048c60201b60201c565b50506200047e88888888888888886200059560201b60201c565b505050505050505062000c59565b63ffffffff60e01b817bffffffffffffffffffffffffffffffffffffffffffffffffffffffff1916141562000529576040517f08c379a000000000000000000000000000000000000000000000000000000000815260040180806020018281038252601c8152602001807f4552433136353a20696e76616c696420696e746572666163652069640000000081525060200191505060405180910390fd5b6001600080837bffffffffffffffffffffffffffffffffffffffffffffffffffffffff19167bffffffffffffffffffffffffffffffffffffffffffffffffffffffff1916815260200190815260200160002060006101000a81548160ff02191690831515021790555050565b6000620005a889620005cf60201b60201c565b9050620005c38989838a8a8a8a8a8a6200066060201b60201c565b50505050505050505050565b600080826040516020018082805190602001908083835b602083106200060b5780518252602082019150602081019050602083039250620005e6565b6001836020036101000a0380198251168184511680821785525050505050509050019150506040516020818303038152906040528051906020012060001c9050600b5481816200065757fe5b06915050919050565b6000600f600089815260200190815260200160002060009054906101000a900460ff16156200068e57600080fd5b6200069862000bee565b6040518061012001604052808c81526020018b81526020018a8152602001898152602001888152602001878152602001868152602001858152602001848152509050601181908060018154018082558091505060019003906000526020600020906009020160009091909190915060008201518160000190805190602001906200072492919062000b67565b5060208201518160010190805190602001906200074392919062000b67565b5060408201518160020155606082015181600301556080820151816004015560a0820151816005015560c0820151816006015560e08201518160070190805190602001906200079492919062000b67565b50610100820151816008019080519060200190620007b492919062000b67565b5050506001600f60008b815260200190815260200160002060006101000a81548160ff02191690831515021790555080601060008b815260200190815260200160002060008201518160000190805190602001906200081592919062000b67565b5060208201518160010190805190602001906200083492919062000b67565b5060408201518160020155606082015181600301556080820151816004015560a0820151816005015560c0820151816006015560e08201518160070190805190602001906200088592919062000b67565b50610100820151816008019080519060200190620008a592919062000b67565b5090505088600d60003373ffffffffffffffffffffffffffffffffffffffff1673ffffffffffffffffffffffffffffffffffffffff1681526020019081526020016000208190555033600e60008b815260200190815260200160002060006101000a81548173ffffffffffffffffffffffffffffffffffffffff021916908373ffffffffffffffffffffffffffffffffffffffff1602179055507fe8186644d56f664d2697c4d958fb13bff9aa22cefaa82d99da2e92b1299ee6498b8b8b8b8b8b8b8b8b6040518080602001806020018a8152602001898152602001888152602001878152602001868152602001806020018060200185810385528e818151815260200191508051906020019080838360005b83811015620009d5578082015181840152602081019050620009b8565b50505050905090810190601f16801562000a035780820380516001836020036101000a031916815260200191505b5085810384528d818151815260200191508051906020019080838360005b8381101562000a3e57808201518184015260208101905062000a21565b50505050905090810190601f16801562000a6c5780820380516001836020036101000a031916815260200191505b50858103835287818151815260200191508051906020019080838360005b8381101562000aa757808201518184015260208101905062000a8a565b50505050905090810190601f16801562000ad55780820380516001836020036101000a031916815260200191505b50858103825286818151815260200191508051906020019080838360005b8381101562000b1057808201518184015260208101905062000af3565b50505050905090810190601f16801562000b3e5780820380516001836020036101000a031916815260200191505b509d505050505050505050505050505060405180910390a1889150509998505050505050505050565b828054600181600116156101000203166002900490600052602060002090601f016020900481019282601f1062000baa57805160ff191683800117855562000bdb565b8280016001018555821562000bdb579182015b8281111562000bda57825182559160200191906001019062000bbd565b5b50905062000bea919062000c3a565b5090565b6040518061012001604052806060815260200160608152602001600081526020016000815260200160008152602001600081526020016000815260200160608152602001606081525090565b5b8082111562000c5557600081600090555060010162000c3b565b5090565b613ea68062000c696000396000f3fe608060405234801561001057600080fd5b50600436106101735760003560e01c80635e2f31e7116100de578063a2fe5f6f11610097578063c87b56dd11610071578063c87b56dd14610d94578063d2a55e3314610e3b578063dc8b989114611049578063e985e9c5146112f257610173565b8063a2fe5f6f146107ba578063b88d4fde146109c8578063b94fb12c14610acd57610173565b80635e2f31e71461055c5780636352211e146105b45780636c0360eb1461060c57806370a082311461068f57806395d89b41146106e7578063a22cb4651461076a57610173565b80632f745c59116101305780632f745c591461039057806336fcf18d146103f2578063385b5b901461041057806342842e0e146104685780634b8ae8cd146104d65780634f6ccce71461051a57610173565b806301ffc9a71461017857806306fdde03146101db578063081812fc1461025e578063095ea7b3146102b657806318160ddd1461030457806323b872dd14610322575b600080fd5b6101c36004803603602081101561018e57600080fd5b8101908080357bffffffffffffffffffffffffffffffffffffffffffffffffffffffff1916906020019092919050505061136c565b60405180821515815260200191505060405180910390f35b6101e36113d3565b6040518080602001828103825283818151815260200191508051906020019080838360005b83811015610223578082015181840152602081019050610208565b50505050905090810190601f1680156102505780820380516001836020036101000a031916815260200191505b509250505060405180910390f35b61028a6004803603602081101561027457600080fd5b8101908080359060200190929190505050611475565b604051808273ffffffffffffffffffffffffffffffffffffffff16815260200191505060405180910390f35b610302600480360360408110156102cc57600080fd5b81019080803573ffffffffffffffffffffffffffffffffffffffff16906020019092919080359060200190929190505050611510565b005b61030c611654565b6040518082815260200191505060405180910390f35b61038e6004803603606081101561033857600080fd5b81019080803573ffffffffffffffffffffffffffffffffffffffff169060200190929190803573ffffffffffffffffffffffffffffffffffffffff16906020019092919080359060200190929190505050611665565b005b6103dc600480360360408110156103a657600080fd5b81019080803573ffffffffffffffffffffffffffffffffffffffff169060200190929190803590602001909291905050506116db565b6040518082815260200191505060405180910390f35b6103fa611736565b6040518082815260200191505060405180910390f35b61043c6004803603602081101561042657600080fd5b810190808035906020019092919050505061173c565b604051808273ffffffffffffffffffffffffffffffffffffffff16815260200191505060405180910390f35b6104d46004803603606081101561047e57600080fd5b81019080803573ffffffffffffffffffffffffffffffffffffffff169060200190929190803573ffffffffffffffffffffffffffffffffffffffff1690602001909291908035906020019092919050505061176f565b005b610502600480360360208110156104ec57600080fd5b810190808035906020019092919050505061178f565b60405180821515815260200191505060405180910390f35b6105466004803603602081101561053057600080fd5b81019080803590602001909291905050506117af565b6040518082815260200191505060405180910390f35b61059e6004803603602081101561057257600080fd5b81019080803573ffffffffffffffffffffffffffffffffffffffff1690602001909291905050506117d2565b6040518082815260200191505060405180910390f35b6105e0600480360360208110156105ca57600080fd5b81019080803590602001909291905050506117ea565b604051808273ffffffffffffffffffffffffffffffffffffffff16815260200191505060405180910390f35b610614611821565b6040518080602001828103825283818151815260200191508051906020019080838360005b83811015610654578082015181840152602081019050610639565b50505050905090810190601f1680156106815780820380516001836020036101000a031916815260200191505b509250505060405180910390f35b6106d1600480360360208110156106a557600080fd5b81019080803573ffffffffffffffffffffffffffffffffffffffff1690602001909291905050506118c3565b6040518082815260200191505060405180910390f35b6106ef611998565b6040518080602001828103825283818151815260200191508051906020019080838360005b8381101561072f578082015181840152602081019050610714565b50505050905090810190601f16801561075c5780820380516001836020036101000a031916815260200191505b509250505060405180910390f35b6107b86004803603604081101561078057600080fd5b81019080803573ffffffffffffffffffffffffffffffffffffffff169060200190929190803515159060200190929190505050611a3a565b005b6107e6600480360360208110156107d057600080fd5b8101908080359060200190929190505050611bf0565b6040518080602001806020018a8152602001898152602001888152602001878152602001868152602001806020018060200185810385528e818151815260200191508051906020019080838360005b83811015610850578082015181840152602081019050610835565b50505050905090810190601f16801561087d5780820380516001836020036101000a031916815260200191505b5085810384528d818151815260200191508051906020019080838360005b838110156108b657808201518184015260208101905061089b565b50505050905090810190601f1680156108e35780820380516001836020036101000a031916815260200191505b50858103835287818151815260200191508051906020019080838360005b8381101561091c578082015181840152602081019050610901565b50505050905090810190601f1680156109495780820380516001836020036101000a031916815260200191505b50858103825286818151815260200191508051906020019080838360005b83811015610982578082015181840152602081019050610967565b50505050905090810190601f1680156109af5780820380516001836020036101000a031916815260200191505b509d505050505050505050505050505060405180910390f35b610acb600480360360808110156109de57600080fd5b81019080803573ffffffffffffffffffffffffffffffffffffffff169060200190929190803573ffffffffffffffffffffffffffffffffffffffff1690602001909291908035906020019092919080359060200190640100000000811115610a4557600080fd5b820183602082011115610a5757600080fd5b80359060200191846001830284011164010000000083111715610a7957600080fd5b91908080601f016020809104026020016040519081016040528093929190818152602001838380828437600081840152601f19601f820116905080830192505050505050509192919290505050611e9e565b005b610d7e6004803603610120811015610ae457600080fd5b8101908080359060200190640100000000811115610b0157600080fd5b820183602082011115610b1357600080fd5b80359060200191846001830284011164010000000083111715610b3557600080fd5b91908080601f016020809104026020016040519081016040528093929190818152602001838380828437600081840152601f19601f82011690508083019250505050505050919291929080359060200190640100000000811115610b9857600080fd5b820183602082011115610baa57600080fd5b80359060200191846001830284011164010000000083111715610bcc57600080fd5b91908080601f016020809104026020016040519081016040528093929190818152602001838380828437600081840152601f19601f820116905080830192505050505050509192919290803590602001909291908035906020019092919080359060200190929190803590602001909291908035906020019092919080359060200190640100000000811115610c6157600080fd5b820183602082011115610c7357600080fd5b80359060200191846001830284011164010000000083111715610c9557600080fd5b91908080601f016020809104026020016040519081016040528093929190818152602001838380828437600081840152601f19601f82011690508083019250505050505050919291929080359060200190640100000000811115610cf857600080fd5b820183602082011115610d0a57600080fd5b80359060200191846001830284011164010000000083111715610d2c57600080fd5b91908080601f016020809104026020016040519081016040528093929190818152602001838380828437600081840152601f19601f820116905080830192505050505050509192919290505050611f16565b6040518082815260200191505060405180910390f35b610dc060048036036020811015610daa57600080fd5b81019080803590602001909291905050506123fe565b6040518080602001828103825283818151815260200191508051906020019080838360005b83811015610e00578082015181840152602081019050610de5565b50505050905090810190601f168015610e2d5780820380516001836020036101000a031916815260200191505b509250505060405180910390f35b610e6760048036036020811015610e5157600080fd5b81019080803590602001909291905050506126e7565b6040518080602001806020018a8152602001898152602001888152602001878152602001868152602001806020018060200185810385528e818151815260200191508051906020019080838360005b83811015610ed1578082015181840152602081019050610eb6565b50505050905090810190601f168015610efe5780820380516001836020036101000a031916815260200191505b5085810384528d818151815260200191508051906020019080838360005b83811015610f37578082015181840152602081019050610f1c565b50505050905090810190601f168015610f645780820380516001836020036101000a031916815260200191505b50858103835287818151815260200191508051906020019080838360005b83811015610f9d578082015181840152602081019050610f82565b50505050905090810190601f168015610fca5780820380516001836020036101000a031916815260200191505b50858103825286818151815260200191508051906020019080838360005b83811015611003578082015181840152602081019050610fe8565b50505050905090810190601f1680156110305780820380516001836020036101000a031916815260200191505b509d505050505050505050505050505060405180910390f35b6112f0600480360361010081101561106057600080fd5b810190808035906020019064010000000081111561107d57600080fd5b82018360208201111561108f57600080fd5b803590602001918460018302840111640100000000831117156110b157600080fd5b91908080601f016020809104026020016040519081016040528093929190818152602001838380828437600081840152601f19601f8201169050808301925050505050505091929192908035906020019064010000000081111561111457600080fd5b82018360208201111561112657600080fd5b8035906020019184600183028401116401000000008311171561114857600080fd5b91908080601f016020809104026020016040519081016040528093929190818152602001838380828437600081840152601f19601f82011690508083019250505050505050919291929080359060200190929190803590602001909291908035906020019092919080359060200190929190803590602001906401000000008111156111d357600080fd5b8201836020820111156111e557600080fd5b8035906020019184600183028401116401000000008311171561120757600080fd5b91908080601f016020809104026020016040519081016040528093929190818152602001838380828437600081840152601f19601f8201169050808301925050505050505091929192908035906020019064010000000081111561126a57600080fd5b82018360208201111561127c57600080fd5b8035906020019184600183028401116401000000008311171561129e57600080fd5b91908080601f016020809104026020016040519081016040528093929190818152602001838380828437600081840152601f19601f8201169050808301925050505050505091929192905050506129a2565b005b6113546004803603604081101561130857600080fd5b81019080803573ffffffffffffffffffffffffffffffffffffffff169060200190929190803573ffffffffffffffffffffffffffffffffffffffff1690602001909291905050506129cc565b60405180821515815260200191505060405180910390f35b6000806000837bffffffffffffffffffffffffffffffffffffffffffffffffffffffff19167bffffffffffffffffffffffffffffffffffffffffffffffffffffffff1916815260200190815260200160002060009054906101000a900460ff169050919050565b606060068054600181600116156101000203166002900480601f01602080910402602001604051908101604052809291908181526020018280546001816001161561010002031660029004801561146b5780601f106114405761010080835404028352916020019161146b565b820191906000526020600020905b81548152906001019060200180831161144e57829003601f168201915b5050505050905090565b600061148082612a60565b6114d5576040517f08c379a000000000000000000000000000000000000000000000000000000000815260040180806020018281038252602c815260200180613d9b602c913960400191505060405180910390fd5b6004600083815260200190815260200160002060009054906101000a900473ffffffffffffffffffffffffffffffffffffffff169050919050565b600061151b826117ea565b90508073ffffffffffffffffffffffffffffffffffffffff168373ffffffffffffffffffffffffffffffffffffffff1614156115a2576040517f08c379a0000000000000000000000000000000000000000000000000000000008152600401808060200182810382526021815260200180613e1f6021913960400191505060405180910390fd5b8073ffffffffffffffffffffffffffffffffffffffff166115c1612a7d565b73ffffffffffffffffffffffffffffffffffffffff1614806115f057506115ef816115ea612a7d565b6129cc565b5b611645576040517f08c379a0000000000000000000000000000000000000000000000000000000008152600401808060200182810382526038815260200180613cee6038913960400191505060405180910390fd5b61164f8383612a85565b505050565b60006116606002612b3e565b905090565b611676611670612a7d565b82612b53565b6116cb576040517f08c379a0000000000000000000000000000000000000000000000000000000008152600401808060200182810382526031815260200180613e406031913960400191505060405180910390fd5b6116d6838383612c47565b505050565b600061172e82600160008673ffffffffffffffffffffffffffffffffffffffff1673ffffffffffffffffffffffffffffffffffffffff168152602001908152602001600020612e8a90919063ffffffff16565b905092915050565b600a5481565b600e6020528060005260406000206000915054906101000a900473ffffffffffffffffffffffffffffffffffffffff1681565b61178a83838360405180602001604052806000815250611e9e565b505050565b600f6020528060005260406000206000915054906101000a900460ff1681565b6000806117c6836002612ea490919063ffffffff16565b50905080915050919050565b600d6020528060005260406000206000915090505481565b600061181a82604051806060016040528060298152602001613d50602991396002612ed09092919063ffffffff16565b9050919050565b606060098054600181600116156101000203166002900480601f0160208091040260200160405190810160405280929190818152602001828054600181600116156101000203166002900480156118b95780601f1061188e576101008083540402835291602001916118b9565b820191906000526020600020905b81548152906001019060200180831161189c57829003601f168201915b5050505050905090565b60008073ffffffffffffffffffffffffffffffffffffffff168273ffffffffffffffffffffffffffffffffffffffff16141561194a576040517f08c379a000000000000000000000000000000000000000000000000000000000815260040180806020018281038252602a815260200180613d26602a913960400191505060405180910390fd5b611991600160008473ffffffffffffffffffffffffffffffffffffffff1673ffffffffffffffffffffffffffffffffffffffff168152602001908152602001600020612eef565b9050919050565b606060078054600181600116156101000203166002900480601f016020809104026020016040519081016040528092919081815260200182805460018160011615610100020316600290048015611a305780601f10611a0557610100808354040283529160200191611a30565b820191906000526020600020905b815481529060010190602001808311611a1357829003601f168201915b5050505050905090565b611a42612a7d565b73ffffffffffffffffffffffffffffffffffffffff168273ffffffffffffffffffffffffffffffffffffffff161415611ae3576040517f08c379a00000000000000000000000000000000000000000000000000000000081526004018080602001828103825260198152602001807f4552433732313a20617070726f766520746f2063616c6c65720000000000000081525060200191505060405180910390fd5b8060056000611af0612a7d565b73ffffffffffffffffffffffffffffffffffffffff1673ffffffffffffffffffffffffffffffffffffffff16815260200190815260200160002060008473ffffffffffffffffffffffffffffffffffffffff1673ffffffffffffffffffffffffffffffffffffffff16815260200190815260200160002060006101000a81548160ff0219169083151502179055508173ffffffffffffffffffffffffffffffffffffffff16611b9d612a7d565b73ffffffffffffffffffffffffffffffffffffffff167f17307eab39ab6107e8899845ad3d59bd9653f200f220920489ca2b5937696c318360405180821515815260200191505060405180910390a35050565b6010602052806000526040600020600091509050806000018054600181600116156101000203166002900480601f016020809104026020016040519081016040528092919081815260200182805460018160011615610100020316600290048015611c9c5780601f10611c7157610100808354040283529160200191611c9c565b820191906000526020600020905b815481529060010190602001808311611c7f57829003601f168201915b505050505090806001018054600181600116156101000203166002900480601f016020809104026020016040519081016040528092919081815260200182805460018160011615610100020316600290048015611d3a5780601f10611d0f57610100808354040283529160200191611d3a565b820191906000526020600020905b815481529060010190602001808311611d1d57829003601f168201915b505050505090806002015490806003015490806004015490806005015490806006015490806007018054600181600116156101000203166002900480601f016020809104026020016040519081016040528092919081815260200182805460018160011615610100020316600290048015611df65780601f10611dcb57610100808354040283529160200191611df6565b820191906000526020600020905b815481529060010190602001808311611dd957829003601f168201915b505050505090806008018054600181600116156101000203166002900480601f016020809104026020016040519081016040528092919081815260200182805460018160011615610100020316600290048015611e945780601f10611e6957610100808354040283529160200191611e94565b820191906000526020600020905b815481529060010190602001808311611e7757829003601f168201915b5050505050905089565b611eaf611ea9612a7d565b83612b53565b611f04576040517f08c379a0000000000000000000000000000000000000000000000000000000008152600401808060200182810382526031815260200180613e406031913960400191505060405180910390fd5b611f1084848484612f04565b50505050565b6000600f600089815260200190815260200160002060009054906101000a900460ff1615611f4357600080fd5b611f4b613b3a565b6040518061012001604052808c81526020018b81526020018a815260200189815260200188815260200187815260200186815260200185815260200184815250905060118190806001815401808255809150506001900390600052602060002090600902016000909190919091506000820151816000019080519060200190611fd5929190613b86565b506020820151816001019080519060200190611ff2929190613b86565b5060408201518160020155606082015181600301556080820151816004015560a0820151816005015560c0820151816006015560e0820151816007019080519060200190612041929190613b86565b5061010082015181600801908051906020019061205f929190613b86565b5050506001600f60008b815260200190815260200160002060006101000a81548160ff02191690831515021790555080601060008b815260200190815260200160002060008201518160000190805190602001906120be929190613b86565b5060208201518160010190805190602001906120db929190613b86565b5060408201518160020155606082015181600301556080820151816004015560a0820151816005015560c0820151816006015560e082015181600701908051906020019061212a929190613b86565b50610100820151816008019080519060200190612148929190613b86565b5090505088600d60003373ffffffffffffffffffffffffffffffffffffffff1673ffffffffffffffffffffffffffffffffffffffff1681526020019081526020016000208190555033600e60008b815260200190815260200160002060006101000a81548173ffffffffffffffffffffffffffffffffffffffff021916908373ffffffffffffffffffffffffffffffffffffffff1602179055507fe8186644d56f664d2697c4d958fb13bff9aa22cefaa82d99da2e92b1299ee6498b8b8b8b8b8b8b8b8b6040518080602001806020018a8152602001898152602001888152602001878152602001868152602001806020018060200185810385528e818151815260200191508051906020019080838360005b8381101561227657808201518184015260208101905061225b565b50505050905090810190601f1680156122a35780820380516001836020036101000a031916815260200191505b5085810384528d818151815260200191508051906020019080838360005b838110156122dc5780820151818401526020810190506122c1565b50505050905090810190601f1680156123095780820380516001836020036101000a031916815260200191505b50858103835287818151815260200191508051906020019080838360005b83811015612342578082015181840152602081019050612327565b50505050905090810190601f16801561236f5780820380516001836020036101000a031916815260200191505b50858103825286818151815260200191508051906020019080838360005b838110156123a857808201518184015260208101905061238d565b50505050905090810190601f1680156123d55780820380516001836020036101000a031916815260200191505b509d505050505050505050505050505060405180910390a1889150509998505050505050505050565b606061240982612a60565b61245e576040517f08c379a000000000000000000000000000000000000000000000000000000000815260040180806020018281038252602f815260200180613df0602f913960400191505060405180910390fd5b6060600860008481526020019081526020016000208054600181600116156101000203166002900480601f0160208091040260200160405190810160405280929190818152602001828054600181600116156101000203166002900480156125075780601f106124dc57610100808354040283529160200191612507565b820191906000526020600020905b8154815290600101906020018083116124ea57829003601f168201915b5050505050905060006009805460018160011615610100020316600290049050141561253657809150506126e2565b60008151111561260f5760098160405160200180838054600181600116156101000203166002900480156125a15780601f1061257f5761010080835404028352918201916125a1565b820191906000526020600020905b81548152906001019060200180831161258d575b505082805190602001908083835b602083106125d257805182526020820191506020810190506020830392506125af565b6001836020036101000a038019825116818451168082178552505050505050905001925050506040516020818303038152906040529150506126e2565b600961261a84612f76565b60405160200180838054600181600116156101000203166002900480156126785780601f10612656576101008083540402835291820191612678565b820191906000526020600020905b815481529060010190602001808311612664575b505082805190602001908083835b602083106126a95780518252602082019150602081019050602083039250612686565b6001836020036101000a038019825116818451168082178552505050505050905001925050506040516020818303038152906040529150505b919050565b601181815481106126f457fe5b9060005260206000209060090201600091509050806000018054600181600116156101000203166002900480601f0160208091040260200160405190810160405280929190818152602001828054600181600116156101000203166002900480156127a05780601f10612775576101008083540402835291602001916127a0565b820191906000526020600020905b81548152906001019060200180831161278357829003601f168201915b505050505090806001018054600181600116156101000203166002900480601f01602080910402602001604051908101604052809291908181526020018280546001816001161561010002031660029004801561283e5780601f106128135761010080835404028352916020019161283e565b820191906000526020600020905b81548152906001019060200180831161282157829003601f168201915b505050505090806002015490806003015490806004015490806005015490806006015490806007018054600181600116156101000203166002900480601f0160208091040260200160405190810160405280929190818152602001828054600181600116156101000203166002900480156128fa5780601f106128cf576101008083540402835291602001916128fa565b820191906000526020600020905b8154815290600101906020018083116128dd57829003601f168201915b505050505090806008018054600181600116156101000203166002900480601f0160208091040260200160405190810160405280929190818152602001828054600181600116156101000203166002900480156129985780601f1061296d57610100808354040283529160200191612998565b820191906000526020600020905b81548152906001019060200180831161297b57829003601f168201915b5050505050905089565b60006129ad896130bd565b90506129c08989838a8a8a8a8a8a611f16565b50505050505050505050565b6000600560008473ffffffffffffffffffffffffffffffffffffffff1673ffffffffffffffffffffffffffffffffffffffff16815260200190815260200160002060008373ffffffffffffffffffffffffffffffffffffffff1673ffffffffffffffffffffffffffffffffffffffff16815260200190815260200160002060009054906101000a900460ff16905092915050565b6000612a7682600261314b90919063ffffffff16565b9050919050565b600033905090565b816004600083815260200190815260200160002060006101000a81548173ffffffffffffffffffffffffffffffffffffffff021916908373ffffffffffffffffffffffffffffffffffffffff160217905550808273ffffffffffffffffffffffffffffffffffffffff16612af8836117ea565b73ffffffffffffffffffffffffffffffffffffffff167f8c5be1e5ebec7d5bd14f71427d1e84f3dd0314c0f7b2291e5b200ac8c7c3b92560405160405180910390a45050565b6000612b4c82600001613165565b9050919050565b6000612b5e82612a60565b612bb3576040517f08c379a000000000000000000000000000000000000000000000000000000000815260040180806020018281038252602c815260200180613cc2602c913960400191505060405180910390fd5b6000612bbe836117ea565b90508073ffffffffffffffffffffffffffffffffffffffff168473ffffffffffffffffffffffffffffffffffffffff161480612c2d57508373ffffffffffffffffffffffffffffffffffffffff16612c1584611475565b73ffffffffffffffffffffffffffffffffffffffff16145b80612c3e5750612c3d81856129cc565b5b91505092915050565b8273ffffffffffffffffffffffffffffffffffffffff16612c67826117ea565b73ffffffffffffffffffffffffffffffffffffffff1614612cd3576040517f08c379a0000000000000000000000000000000000000000000000000000000008152600401808060200182810382526029815260200180613dc76029913960400191505060405180910390fd5b600073ffffffffffffffffffffffffffffffffffffffff168273ffffffffffffffffffffffffffffffffffffffff161415612d59576040517f08c379a0000000000000000000000000000000000000000000000000000000008152600401808060200182810382526024815260200180613c786024913960400191505060405180910390fd5b612d64838383613176565b612d6f600082612a85565b612dc081600160008673ffffffffffffffffffffffffffffffffffffffff1673ffffffffffffffffffffffffffffffffffffffff16815260200190815260200160002061317b90919063ffffffff16565b50612e1281600160008573ffffffffffffffffffffffffffffffffffffffff1673ffffffffffffffffffffffffffffffffffffffff16815260200190815260200160002061319590919063ffffffff16565b50612e29818360026131af9092919063ffffffff16565b50808273ffffffffffffffffffffffffffffffffffffffff168473ffffffffffffffffffffffffffffffffffffffff167fddf252ad1be2c89b69c2b068fc378daa952ba7f163c4a11628f55a4df523b3ef60405160405180910390a4505050565b6000612e9983600001836131e4565b60001c905092915050565b600080600080612eb78660000186613267565b915091508160001c8160001c9350935050509250929050565b6000612ee3846000018460001b84613300565b60001c90509392505050565b6000612efd826000016133f6565b9050919050565b612f0f848484612c47565b612f1b84848484613407565b612f70576040517f08c379a0000000000000000000000000000000000000000000000000000000008152600401808060200182810382526032815260200180613c466032913960400191505060405180910390fd5b50505050565b60606000821415612fbe576040518060400160405280600181526020017f300000000000000000000000000000000000000000000000000000000000000081525090506130b8565b600082905060005b60008214612fe8578080600101915050600a8281612fe057fe5b049150612fc6565b60608167ffffffffffffffff8111801561300157600080fd5b506040519080825280601f01601f1916602001820160405280156130345781602001600182028036833780820191505090505b50905060006001830390508593505b600084146130b057600a848161305557fe5b0660300160f81b8282806001900393508151811061306f57fe5b60200101907effffffffffffffffffffffffffffffffffffffffffffffffffffffffffffff1916908160001a905350600a84816130a857fe5b049350613043565b819450505050505b919050565b600080826040516020018082805190602001908083835b602083106130f757805182526020820191506020810190506020830392506130d4565b6001836020036101000a0380198251168184511680821785525050505050509050019150506040516020818303038152906040528051906020012060001c9050600b54818161314257fe5b06915050919050565b600061315d836000018360001b613620565b905092915050565b600081600001805490509050919050565b505050565b600061318d836000018360001b613643565b905092915050565b60006131a7836000018360001b61372b565b905092915050565b60006131db846000018460001b8473ffffffffffffffffffffffffffffffffffffffff1660001b61379b565b90509392505050565b600081836000018054905011613245576040517f08c379a0000000000000000000000000000000000000000000000000000000008152600401808060200182810382526022815260200180613c246022913960400191505060405180910390fd5b82600001828154811061325457fe5b9060005260206000200154905092915050565b600080828460000180549050116132c9576040517f08c379a0000000000000000000000000000000000000000000000000000000008152600401808060200182810382526022815260200180613d796022913960400191505060405180910390fd5b60008460000184815481106132da57fe5b906000526020600020906002020190508060000154816001015492509250509250929050565b600080846001016000858152602001908152602001600020549050600081141583906133c7576040517f08c379a00000000000000000000000000000000000000000000000000000000081526004018080602001828103825283818151815260200191508051906020019080838360005b8381101561338c578082015181840152602081019050613371565b50505050905090810190601f1680156133b95780820380516001836020036101000a031916815260200191505b509250505060405180910390fd5b508460000160018203815481106133da57fe5b9060005260206000209060020201600101549150509392505050565b600081600001805490509050919050565b60006134288473ffffffffffffffffffffffffffffffffffffffff16613877565b6134355760019050613618565b606061359f63150b7a0260e01b61344a612a7d565b888787604051602401808573ffffffffffffffffffffffffffffffffffffffff1681526020018473ffffffffffffffffffffffffffffffffffffffff16815260200183815260200180602001828103825283818151815260200191508051906020019080838360005b838110156134ce5780820151818401526020810190506134b3565b50505050905090810190601f1680156134fb5780820380516001836020036101000a031916815260200191505b5095505050505050604051602081830303815290604052907bffffffffffffffffffffffffffffffffffffffffffffffffffffffff19166020820180517bffffffffffffffffffffffffffffffffffffffffffffffffffffffff8381831617835250505050604051806060016040528060328152602001613c46603291398773ffffffffffffffffffffffffffffffffffffffff1661388a9092919063ffffffff16565b905060008180602001905160208110156135b857600080fd5b8101908080519060200190929190505050905063150b7a0260e01b7bffffffffffffffffffffffffffffffffffffffffffffffffffffffff1916817bffffffffffffffffffffffffffffffffffffffffffffffffffffffff191614925050505b949350505050565b600080836001016000848152602001908152602001600020541415905092915050565b6000808360010160008481526020019081526020016000205490506000811461371f576000600182039050600060018660000180549050039050600086600001828154811061368e57fe5b90600052602060002001549050808760000184815481106136ab57fe5b90600052602060002001819055506001830187600101600083815260200190815260200160002081905550866000018054806136e357fe5b60019003818190600052602060002001600090559055866001016000878152602001908152602001600020600090556001945050505050613725565b60009150505b92915050565b600061373783836138a2565b613790578260000182908060018154018082558091505060019003906000526020600020016000909190919091505582600001805490508360010160008481526020019081526020016000208190555060019050613795565b600090505b92915050565b600080846001016000858152602001908152602001600020549050600081141561384257846000016040518060400160405280868152602001858152509080600181540180825580915050600190039060005260206000209060020201600090919091909150600082015181600001556020820151816001015550508460000180549050856001016000868152602001908152602001600020819055506001915050613870565b8285600001600183038154811061385557fe5b90600052602060002090600202016001018190555060009150505b9392505050565b600080823b905060008111915050919050565b606061389984846000856138c5565b90509392505050565b600080836001016000848152602001908152602001600020541415905092915050565b606082471015613920576040517f08c379a0000000000000000000000000000000000000000000000000000000008152600401808060200182810382526026815260200180613c9c6026913960400191505060405180910390fd5b61392985613877565b61399b576040517f08c379a000000000000000000000000000000000000000000000000000000000815260040180806020018281038252601d8152602001807f416464726573733a2063616c6c20746f206e6f6e2d636f6e747261637400000081525060200191505060405180910390fd5b600060608673ffffffffffffffffffffffffffffffffffffffff1685876040518082805190602001908083835b602083106139eb57805182526020820191506020810190506020830392506139c8565b6001836020036101000a03801982511681845116808217855250505050505090500191505060006040518083038185875af1925050503d8060008114613a4d576040519150601f19603f3d011682016040523d82523d6000602084013e613a52565b606091505b5091509150613a62828286613a6e565b92505050949350505050565b60608315613a7e57829050613b33565b600083511115613a915782518084602001fd5b816040517f08c379a00000000000000000000000000000000000000000000000000000000081526004018080602001828103825283818151815260200191508051906020019080838360005b83811015613af8578082015181840152602081019050613add565b50505050905090810190601f168015613b255780820380516001836020036101000a031916815260200191505b509250505060405180910390fd5b9392505050565b6040518061012001604052806060815260200160608152602001600081526020016000815260200160008152602001600081526020016000815260200160608152602001606081525090565b828054600181600116156101000203166002900490600052602060002090601f016020900481019282601f10613bc757805160ff1916838001178555613bf5565b82800160010185558215613bf5579182015b82811115613bf4578251825591602001919060010190613bd9565b5b509050613c029190613c06565b5090565b5b80821115613c1f576000816000905550600101613c07565b509056fe456e756d657261626c655365743a20696e646578206f7574206f6620626f756e64734552433732313a207472616e7366657220746f206e6f6e20455243373231526563656976657220696d706c656d656e7465724552433732313a207472616e7366657220746f20746865207a65726f2061646472657373416464726573733a20696e73756666696369656e742062616c616e636520666f722063616c6c4552433732313a206f70657261746f7220717565727920666f72206e6f6e6578697374656e7420746f6b656e4552433732313a20617070726f76652063616c6c6572206973206e6f74206f776e6572206e6f7220617070726f76656420666f7220616c6c4552433732313a2062616c616e636520717565727920666f7220746865207a65726f20616464726573734552433732313a206f776e657220717565727920666f72206e6f6e6578697374656e7420746f6b656e456e756d657261626c654d61703a20696e646578206f7574206f6620626f756e64734552433732313a20617070726f76656420717565727920666f72206e6f6e6578697374656e7420746f6b656e4552433732313a207472616e73666572206f6620746f6b656e2074686174206973206e6f74206f776e4552433732314d657461646174613a2055524920717565727920666f72206e6f6e6578697374656e7420746f6b656e4552433732313a20617070726f76616c20746f2063757272656e74206f776e65724552433732313a207472616e736665722063616c6c6572206973206e6f74206f776e6572206e6f7220617070726f766564a26469706673582212200d508dcee3eafd3ca853ac8f3a5e02239cf557a9ab6f94b72a0378dec156595964736f6c634300060c0033",
  "immutableReferences": {},
  "source": "pragma solidity >=0.4.21 <0.7.0;\n\nimport \"@openzeppelin/contracts/token/ERC721/ERC721.sol\";\n//mad props to the crypto zombies tutorial!  Thanks!\ncontract AngelToken is ERC721{\n  /* State variables are stored in the blockchain */\n  uint256 public iddig = 16;\n  uint256 idmod = 10 ** iddig;\n  uint256 id;\n  mapping (address => uint256) public map_address_to_id;\n  mapping (uint256 => address) public map_id_to_address;\n  mapping(uint256 => bool) public is_on_manifest;\n\n  struct Alm {\n    string name;\n     string sym;  // <10 alpha num\n      uint256 id;  // the id of the token issuance\n       uint256 issue_num;\n        uint256 mint_date;\n         uint256 cost; // the Unit Retail Cost of your product in wei\n          uint256 angel_coefficient; // coefficient of next round's profits\n           string status;  // the status of the contract\n            string product; // the unit product being produced in the endeavor - a lb of coffee, a chocalate bar, a bar of soap, a board, solar panel, or your grandmas comfy undies\n             }\n\n  mapping (uint256 => Alm) public map_id_to_Alm;\n\n  Alm[] public alms;\n  event ManifestedAngelToken(\n    string _ename, // endeavor name\n     string _esym,  // endeavor symbol\n      uint256 _id,\n       uint256 _issue_num,\n        uint256 _mint_date,\n         uint256 _cost,\n          uint256 _angel_coefficient,\n           string _status,\n            string _product\n         );\n  constructor(\n    string memory _ename, // endeavor name\n     string memory _esym,  // endeavor symbol\n       uint256 _issue_num,\n        uint256 _mint_date,\n         uint256 _cost,\n          uint256 _angel_coefficient,\n           string memory _status,\n            string memory _product\n            )\n\n    ERC721(\"AngelToken\", \"ANGEL\")\n      public {  //setup <-- run once like an init <-- pass in name and symbol as per ERC721 Standard\n        manifestAngelToken(_ename, _esym, _issue_num, _mint_date, _cost, _angel_coefficient, _status, _product);\n\n  }\n\n  function _tokenGenesis (\n    string memory _ename,\n     string memory _esym,\n      uint256 _id,\n       uint256 _issue_num,\n        uint256 _mint_date,\n         uint256 _cost,\n          uint256 _angel_coefficient,\n           string memory _status,\n            string memory _product\n            )\n\n      public returns(uint256){\n        require(!is_on_manifest[_id]);\n        Alm memory new_alm = Alm(_ename, _esym, _id, _issue_num, _mint_date, _cost, _angel_coefficient, _status, _product);\n        alms.push(new_alm);\n        is_on_manifest[_id] = true;\n        map_id_to_Alm[_id] = new_alm;\n        map_address_to_id[msg.sender] = _id;\n        map_id_to_address[_id] = msg.sender;\n    /*  _safeMint(_ename, _id, new_alm); */\n        emit ManifestedAngelToken(\n               _ename,\n                _esym,\n                 _id,\n                  _issue_num,\n                   _mint_date,\n                    _cost,\n                     _angel_coefficient,\n                      _status,\n                       _product\n                       );\n        return _id;\n  }\n  // generate random id\n  function _idGenesis(string memory _str) private view returns (uint256) {\n    uint256 token_id = uint256(keccak256(abi.encodePacked(_str)));\n    return token_id % idmod;\n  }\n\n  function manifestAngelToken(\n    string memory _ename,\n     string memory _esym,\n       uint256 _issue_num,\n        uint256 _mint_date,\n         uint256 _cost,\n          uint256 _angel_coefficient,\n           string memory _status,\n            string memory _product\n    ) public {\n      uint256 _id = _idGenesis(_ename);\n      _tokenGenesis(_ename, _esym, _id, _issue_num, _mint_date, _cost, _angel_coefficient, _status, _product);\n  }\n}\n",
  "sourcePath": "/Volumes/ETH/webApp4/contracts/AngelToken.sol",
  "compiler": {
    "name": "solc",
    "version": "0.6.12+commit.27d51765.Emscripten.clang"
  },
  "schemaVersion": "3.3.2",
  "updatedAt": "2020-12-11T17:22:08.897Z",
  "networkType": "ethereum",
  "devdoc": {
    "kind": "dev",
    "methods": {
      "approve(address,uint256)": {
        "details": "See {IERC721-approve}."
      },
      "balanceOf(address)": {
        "details": "See {IERC721-balanceOf}."
      },
      "baseURI()": {
        "details": "Returns the base URI set via {_setBaseURI}. This will be automatically added as a prefix in {tokenURI} to each token's URI, or to the token ID if no specific URI is set for that token ID."
      },
      "getApproved(uint256)": {
        "details": "See {IERC721-getApproved}."
      },
      "isApprovedForAll(address,address)": {
        "details": "See {IERC721-isApprovedForAll}."
      },
      "name()": {
        "details": "See {IERC721Metadata-name}."
      },
      "ownerOf(uint256)": {
        "details": "See {IERC721-ownerOf}."
      },
      "safeTransferFrom(address,address,uint256)": {
        "details": "See {IERC721-safeTransferFrom}."
      },
      "safeTransferFrom(address,address,uint256,bytes)": {
        "details": "See {IERC721-safeTransferFrom}."
      },
      "setApprovalForAll(address,bool)": {
        "details": "See {IERC721-setApprovalForAll}."
      },
      "supportsInterface(bytes4)": {
        "details": "See {IERC165-supportsInterface}. Time complexity O(1), guaranteed to always use less than 30 000 gas."
      },
      "symbol()": {
        "details": "See {IERC721Metadata-symbol}."
      },
      "tokenByIndex(uint256)": {
        "details": "See {IERC721Enumerable-tokenByIndex}."
      },
      "tokenOfOwnerByIndex(address,uint256)": {
        "details": "See {IERC721Enumerable-tokenOfOwnerByIndex}."
      },
      "tokenURI(uint256)": {
        "details": "See {IERC721Metadata-tokenURI}."
      },
      "totalSupply()": {
        "details": "See {IERC721Enumerable-totalSupply}."
      },
      "transferFrom(address,address,uint256)": {
        "details": "See {IERC721-transferFrom}."
      }
    },
    "version": 1
  },
  "userdoc": {
    "kind": "user",
    "methods": {},
    "version": 1
  }
}