{
  "contractName": "AngelToken",
  "abi": [
    {
      "inputs": [],
      "stateMutability": "nonpayable",
      "type": "constructor"
    },
    {
      "anonymous": false,
      "inputs": [
        {
          "indexed": true,
          "internalType": "address",
          "name": "account",
          "type": "address"
        },
        {
          "indexed": true,
          "internalType": "address",
          "name": "operator",
          "type": "address"
        },
        {
          "indexed": false,
          "internalType": "bool",
          "name": "approved",
          "type": "bool"
        }
      ],
      "name": "ApprovalForAll",
      "type": "event"
    },
    {
      "anonymous": false,
      "inputs": [
        {
          "indexed": false,
          "internalType": "address",
          "name": "owner",
          "type": "address"
        },
        {
          "indexed": false,
          "internalType": "bytes",
          "name": "_uri",
          "type": "bytes"
        },
        {
          "indexed": false,
          "internalType": "string",
          "name": "_ename",
          "type": "string"
        },
        {
          "indexed": false,
          "internalType": "string",
          "name": "_esym",
          "type": "string"
        },
        {
          "indexed": false,
          "internalType": "uint256",
          "name": "_id",
          "type": "uint256"
        },
        {
          "indexed": false,
          "internalType": "bytes",
          "name": "mint_data",
          "type": "bytes"
        }
      ],
      "name": "ManifestedAngelToken",
      "type": "event"
    },
    {
      "anonymous": false,
      "inputs": [
        {
          "indexed": true,
          "internalType": "address",
          "name": "previousOwner",
          "type": "address"
        },
        {
          "indexed": true,
          "internalType": "address",
          "name": "newOwner",
          "type": "address"
        }
      ],
      "name": "OwnershipTransferred",
      "type": "event"
    },
    {
      "anonymous": false,
      "inputs": [
        {
          "indexed": true,
          "internalType": "address",
          "name": "operator",
          "type": "address"
        },
        {
          "indexed": true,
          "internalType": "address",
          "name": "from",
          "type": "address"
        },
        {
          "indexed": true,
          "internalType": "address",
          "name": "to",
          "type": "address"
        },
        {
          "indexed": false,
          "internalType": "uint256[]",
          "name": "ids",
          "type": "uint256[]"
        },
        {
          "indexed": false,
          "internalType": "uint256[]",
          "name": "values",
          "type": "uint256[]"
        }
      ],
      "name": "TransferBatch",
      "type": "event"
    },
    {
      "anonymous": false,
      "inputs": [
        {
          "indexed": true,
          "internalType": "address",
          "name": "operator",
          "type": "address"
        },
        {
          "indexed": true,
          "internalType": "address",
          "name": "from",
          "type": "address"
        },
        {
          "indexed": true,
          "internalType": "address",
          "name": "to",
          "type": "address"
        },
        {
          "indexed": false,
          "internalType": "uint256",
          "name": "id",
          "type": "uint256"
        },
        {
          "indexed": false,
          "internalType": "uint256",
          "name": "value",
          "type": "uint256"
        }
      ],
      "name": "TransferSingle",
      "type": "event"
    },
    {
      "anonymous": false,
      "inputs": [
        {
          "indexed": false,
          "internalType": "string",
          "name": "value",
          "type": "string"
        },
        {
          "indexed": true,
          "internalType": "uint256",
          "name": "id",
          "type": "uint256"
        }
      ],
      "name": "URI",
      "type": "event"
    },
    {
      "inputs": [
        {
          "internalType": "uint256",
          "name": "",
          "type": "uint256"
        }
      ],
      "name": "Angel_List",
      "outputs": [
        {
          "internalType": "address",
          "name": "",
          "type": "address"
        }
      ],
      "stateMutability": "view",
      "type": "function",
      "constant": true
    },
    {
      "inputs": [
        {
          "internalType": "uint256",
          "name": "",
          "type": "uint256"
        },
        {
          "internalType": "address",
          "name": "",
          "type": "address"
        }
      ],
      "name": "Angel_Map",
      "outputs": [
        {
          "internalType": "uint256",
          "name": "",
          "type": "uint256"
        }
      ],
      "stateMutability": "view",
      "type": "function",
      "constant": true
    },
    {
      "inputs": [],
      "name": "OA",
      "outputs": [
        {
          "internalType": "address",
          "name": "",
          "type": "address"
        }
      ],
      "stateMutability": "view",
      "type": "function",
      "constant": true
    },
    {
      "inputs": [
        {
          "internalType": "uint256",
          "name": "",
          "type": "uint256"
        }
      ],
      "name": "alms",
      "outputs": [
        {
          "internalType": "address payable",
          "name": "owner",
          "type": "address"
        },
        {
          "internalType": "bytes",
          "name": "uri",
          "type": "bytes"
        },
        {
          "internalType": "string",
          "name": "name",
          "type": "string"
        },
        {
          "internalType": "string",
          "name": "sym",
          "type": "string"
        },
        {
          "internalType": "uint256",
          "name": "id",
          "type": "uint256"
        },
        {
          "internalType": "bytes",
          "name": "mint_data",
          "type": "bytes"
        }
      ],
      "stateMutability": "view",
      "type": "function",
      "constant": true
    },
    {
      "inputs": [
        {
          "internalType": "address",
          "name": "account",
          "type": "address"
        },
        {
          "internalType": "uint256",
          "name": "id",
          "type": "uint256"
        }
      ],
      "name": "balanceOf",
      "outputs": [
        {
          "internalType": "uint256",
          "name": "",
          "type": "uint256"
        }
      ],
      "stateMutability": "view",
      "type": "function",
      "constant": true
    },
    {
      "inputs": [
        {
          "internalType": "address[]",
          "name": "accounts",
          "type": "address[]"
        },
        {
          "internalType": "uint256[]",
          "name": "ids",
          "type": "uint256[]"
        }
      ],
      "name": "balanceOfBatch",
      "outputs": [
        {
          "internalType": "uint256[]",
          "name": "",
          "type": "uint256[]"
        }
      ],
      "stateMutability": "view",
      "type": "function",
      "constant": true
    },
    {
      "inputs": [
        {
          "internalType": "address",
          "name": "account",
          "type": "address"
        },
        {
          "internalType": "address",
          "name": "operator",
          "type": "address"
        }
      ],
      "name": "isApprovedForAll",
      "outputs": [
        {
          "internalType": "bool",
          "name": "",
          "type": "bool"
        }
      ],
      "stateMutability": "view",
      "type": "function",
      "constant": true
    },
    {
      "inputs": [
        {
          "internalType": "uint256",
          "name": "",
          "type": "uint256"
        }
      ],
      "name": "is_on_manifest",
      "outputs": [
        {
          "internalType": "bool",
          "name": "",
          "type": "bool"
        }
      ],
      "stateMutability": "view",
      "type": "function",
      "constant": true
    },
    {
      "inputs": [
        {
          "internalType": "uint256",
          "name": "",
          "type": "uint256"
        }
      ],
      "name": "map_id_to_Alm",
      "outputs": [
        {
          "internalType": "address payable",
          "name": "owner",
          "type": "address"
        },
        {
          "internalType": "bytes",
          "name": "uri",
          "type": "bytes"
        },
        {
          "internalType": "string",
          "name": "name",
          "type": "string"
        },
        {
          "internalType": "string",
          "name": "sym",
          "type": "string"
        },
        {
          "internalType": "uint256",
          "name": "id",
          "type": "uint256"
        },
        {
          "internalType": "bytes",
          "name": "mint_data",
          "type": "bytes"
        }
      ],
      "stateMutability": "view",
      "type": "function",
      "constant": true
    },
    {
      "inputs": [
        {
          "internalType": "address",
          "name": "",
          "type": "address"
        }
      ],
      "name": "map_owner_to_id",
      "outputs": [
        {
          "internalType": "uint256",
          "name": "",
          "type": "uint256"
        }
      ],
      "stateMutability": "view",
      "type": "function",
      "constant": true
    },
    {
      "inputs": [],
      "name": "owner",
      "outputs": [
        {
          "internalType": "address",
          "name": "",
          "type": "address"
        }
      ],
      "stateMutability": "view",
      "type": "function",
      "constant": true
    },
    {
      "inputs": [],
      "name": "renounceOwnership",
      "outputs": [],
      "stateMutability": "nonpayable",
      "type": "function"
    },
    {
      "inputs": [
        {
          "internalType": "address",
          "name": "from",
          "type": "address"
        },
        {
          "internalType": "address",
          "name": "to",
          "type": "address"
        },
        {
          "internalType": "uint256[]",
          "name": "ids",
          "type": "uint256[]"
        },
        {
          "internalType": "uint256[]",
          "name": "amounts",
          "type": "uint256[]"
        },
        {
          "internalType": "bytes",
          "name": "data",
          "type": "bytes"
        }
      ],
      "name": "safeBatchTransferFrom",
      "outputs": [],
      "stateMutability": "nonpayable",
      "type": "function"
    },
    {
      "inputs": [
        {
          "internalType": "address",
          "name": "from",
          "type": "address"
        },
        {
          "internalType": "address",
          "name": "to",
          "type": "address"
        },
        {
          "internalType": "uint256",
          "name": "id",
          "type": "uint256"
        },
        {
          "internalType": "uint256",
          "name": "amount",
          "type": "uint256"
        },
        {
          "internalType": "bytes",
          "name": "data",
          "type": "bytes"
        }
      ],
      "name": "safeTransferFrom",
      "outputs": [],
      "stateMutability": "nonpayable",
      "type": "function"
    },
    {
      "inputs": [
        {
          "internalType": "address",
          "name": "operator",
          "type": "address"
        },
        {
          "internalType": "bool",
          "name": "approved",
          "type": "bool"
        }
      ],
      "name": "setApprovalForAll",
      "outputs": [],
      "stateMutability": "nonpayable",
      "type": "function"
    },
    {
      "inputs": [
        {
          "internalType": "bytes4",
          "name": "interfaceId",
          "type": "bytes4"
        }
      ],
      "name": "supportsInterface",
      "outputs": [
        {
          "internalType": "bool",
          "name": "",
          "type": "bool"
        }
      ],
      "stateMutability": "view",
      "type": "function",
      "constant": true
    },
    {
      "inputs": [
        {
          "internalType": "address",
          "name": "newOwner",
          "type": "address"
        }
      ],
      "name": "transferOwnership",
      "outputs": [],
      "stateMutability": "nonpayable",
      "type": "function"
    },
    {
      "inputs": [
        {
          "internalType": "uint256",
          "name": "",
          "type": "uint256"
        }
      ],
      "name": "uri",
      "outputs": [
        {
          "internalType": "string",
          "name": "",
          "type": "string"
        }
      ],
      "stateMutability": "view",
      "type": "function",
      "constant": true
    },
    {
      "inputs": [
        {
          "internalType": "string",
          "name": "_ename",
          "type": "string"
        },
        {
          "internalType": "string",
          "name": "_esym",
          "type": "string"
        },
        {
          "internalType": "uint256",
          "name": "_num_to_issue",
          "type": "uint256"
        },
        {
          "internalType": "string",
          "name": "_mint_date",
          "type": "string"
        },
        {
          "internalType": "uint256",
          "name": "_cost",
          "type": "uint256"
        },
        {
          "internalType": "uint256",
          "name": "_angel_coefficient",
          "type": "uint256"
        },
        {
          "internalType": "string",
          "name": "_product",
          "type": "string"
        }
      ],
      "name": "tokenGenesis",
      "outputs": [],
      "stateMutability": "nonpayable",
      "type": "function"
    },
    {
      "inputs": [],
      "name": "getAlmsLength",
      "outputs": [
        {
          "internalType": "uint256",
          "name": "",
          "type": "uint256"
        }
      ],
      "stateMutability": "view",
      "type": "function",
      "constant": true
    },
    {
      "inputs": [
        {
          "internalType": "address",
          "name": "_owner",
          "type": "address"
        },
        {
          "internalType": "address",
          "name": "_buyer",
          "type": "address"
        },
        {
          "internalType": "uint256",
          "name": "_id",
          "type": "uint256"
        },
        {
          "internalType": "uint256",
          "name": "_amount",
          "type": "uint256"
        },
        {
          "internalType": "bytes",
          "name": "_data",
          "type": "bytes"
        },
        {
          "internalType": "uint256",
          "name": "cost",
          "type": "uint256"
        }
      ],
      "name": "buyAlms",
      "outputs": [],
      "stateMutability": "nonpayable",
      "type": "function"
    }
  ],
  "bytecode": "0x608060405233600860006101000a81548173ffffffffffffffffffffffffffffffffffffffff021916908373ffffffffffffffffffffffffffffffffffffffff1602179055503480156200005257600080fd5b506040518060600160405280603881526020016200459460389139620000856301ffc9a760e01b6200017e60201b60201c565b62000096816200028760201b60201c565b620000ae63d9b67a2660e01b6200017e60201b60201c565b620000c6630e89341c60e01b6200017e60201b60201c565b506000620000d9620002a360201b60201c565b905080600460006101000a81548173ffffffffffffffffffffffffffffffffffffffff021916908373ffffffffffffffffffffffffffffffffffffffff1602179055508073ffffffffffffffffffffffffffffffffffffffff16600073ffffffffffffffffffffffffffffffffffffffff167f8be0079c531659141344cd1fd0a4f28419497f9722a3daafe3b4186f6b6457e060405160405180910390a35062000351565b63ffffffff60e01b817bffffffffffffffffffffffffffffffffffffffffffffffffffffffff191614156200021b576040517f08c379a000000000000000000000000000000000000000000000000000000000815260040180806020018281038252601c8152602001807f4552433136353a20696e76616c696420696e746572666163652069640000000081525060200191505060405180910390fd5b6001600080837bffffffffffffffffffffffffffffffffffffffffffffffffffffffff19167bffffffffffffffffffffffffffffffffffffffffffffffffffffffff1916815260200190815260200160002060006101000a81548160ff02191690831515021790555050565b80600390805190602001906200029f929190620002ab565b5050565b600033905090565b828054600181600116156101000203166002900490600052602060002090601f016020900481019282601f10620002ee57805160ff19168380011785556200031f565b828001600101855582156200031f579182015b828111156200031e57825182559160200191906001019062000301565b5b5090506200032e919062000332565b5090565b5b808211156200034d57600081600090555060010162000333565b5090565b61423380620003616000396000f3fe608060405234801561001057600080fd5b50600436106101365760003560e01c8063715018a6116100b8578063bb0c15cf1161007c578063bb0c15cf14610d1a578063caae5f9414610e33578063d2a55e3314610e67578063e985e9c514611076578063f242432a146110f0578063f2fde38b146111ff57610136565b8063715018a6146107df57806376cdf224146107e95780638da5cb5b14610a87578063a22cb46514610abb578063a2fe5f6f14610b0b57610136565b80634b8ae8cd116100ff5780634b8ae8cd146105225780634e1273f414610566578063590743e514610707578063592048851461075f5780635d91889a146107c157610136565b8062fdd58e1461013b57806301ffc9a71461019d5780630e89341c146102005780631e5be179146102a75780632eb2c2d6146102ff575b600080fd5b6101876004803603604081101561015157600080fd5b81019080803573ffffffffffffffffffffffffffffffffffffffff16906020019092919080359060200190929190505050611243565b6040518082815260200191505060405180910390f35b6101e8600480360360208110156101b357600080fd5b8101908080357bffffffffffffffffffffffffffffffffffffffffffffffffffffffff19169060200190929190505050611323565b60405180821515815260200191505060405180910390f35b61022c6004803603602081101561021657600080fd5b810190808035906020019092919050505061138a565b6040518080602001828103825283818151815260200191508051906020019080838360005b8381101561026c578082015181840152602081019050610251565b50505050905090810190601f1680156102995780820380516001836020036101000a031916815260200191505b509250505060405180910390f35b6102d3600480360360208110156102bd57600080fd5b810190808035906020019092919050505061142e565b604051808273ffffffffffffffffffffffffffffffffffffffff16815260200191505060405180910390f35b610520600480360360a081101561031557600080fd5b81019080803573ffffffffffffffffffffffffffffffffffffffff169060200190929190803573ffffffffffffffffffffffffffffffffffffffff1690602001909291908035906020019064010000000081111561037257600080fd5b82018360208201111561038457600080fd5b803590602001918460208302840111640100000000831117156103a657600080fd5b919080806020026020016040519081016040528093929190818152602001838360200280828437600081840152601f19601f8201169050808301925050505050505091929192908035906020019064010000000081111561040657600080fd5b82018360208201111561041857600080fd5b8035906020019184602083028401116401000000008311171561043a57600080fd5b919080806020026020016040519081016040528093929190818152602001838360200280828437600081840152601f19601f8201169050808301925050505050505091929192908035906020019064010000000081111561049a57600080fd5b8201836020820111156104ac57600080fd5b803590602001918460018302840111640100000000831117156104ce57600080fd5b91908080601f016020809104026020016040519081016040528093929190818152602001838380828437600081840152601f19601f82011690508083019250505050505050919291929050505061146a565b005b61054e6004803603602081101561053857600080fd5b81019080803590602001909291905050506118f5565b60405180821515815260200191505060405180910390f35b6106b06004803603604081101561057c57600080fd5b810190808035906020019064010000000081111561059957600080fd5b8201836020820111156105ab57600080fd5b803590602001918460208302840111640100000000831117156105cd57600080fd5b919080806020026020016040519081016040528093929190818152602001838360200280828437600081840152601f19601f8201169050808301925050505050505091929192908035906020019064010000000081111561062d57600080fd5b82018360208201111561063f57600080fd5b8035906020019184602083028401116401000000008311171561066157600080fd5b919080806020026020016040519081016040528093929190818152602001838360200280828437600081840152601f19601f820116905080830192505050505050509192919290505050611915565b6040518080602001828103825283818151815260200191508051906020019060200280838360005b838110156106f35780820151818401526020810190506106d8565b505050509050019250505060405180910390f35b6107496004803603602081101561071d57600080fd5b81019080803573ffffffffffffffffffffffffffffffffffffffff169060200190929190505050611b07565b6040518082815260200191505060405180910390f35b6107ab6004803603604081101561077557600080fd5b8101908080359060200190929190803573ffffffffffffffffffffffffffffffffffffffff169060200190929190505050611b1f565b6040518082815260200191505060405180910390f35b6107c9611b44565b6040518082815260200191505060405180910390f35b6107e7611b51565b005b610a85600480360360e08110156107ff57600080fd5b810190808035906020019064010000000081111561081c57600080fd5b82018360208201111561082e57600080fd5b8035906020019184600183028401116401000000008311171561085057600080fd5b91908080601f016020809104026020016040519081016040528093929190818152602001838380828437600081840152601f19601f820116905080830192505050505050509192919290803590602001906401000000008111156108b357600080fd5b8201836020820111156108c557600080fd5b803590602001918460018302840111640100000000831117156108e757600080fd5b91908080601f016020809104026020016040519081016040528093929190818152602001838380828437600081840152601f19601f820116905080830192505050505050509192919290803590602001909291908035906020019064010000000081111561095457600080fd5b82018360208201111561096657600080fd5b8035906020019184600183028401116401000000008311171561098857600080fd5b91908080601f016020809104026020016040519081016040528093929190818152602001838380828437600081840152601f19601f8201169050808301925050505050505091929192908035906020019092919080359060200190929190803590602001906401000000008111156109ff57600080fd5b820183602082011115610a1157600080fd5b80359060200191846001830284011164010000000083111715610a3357600080fd5b91908080601f016020809104026020016040519081016040528093929190818152602001838380828437600081840152601f19601f820116905080830192505050505050509192919290505050611cdc565b005b610a8f612464565b604051808273ffffffffffffffffffffffffffffffffffffffff16815260200191505060405180910390f35b610b0960048036036040811015610ad157600080fd5b81019080803573ffffffffffffffffffffffffffffffffffffffff16906020019092919080351515906020019092919050505061248e565b005b610b3760048036036020811015610b2157600080fd5b8101908080359060200190929190505050612627565b604051808773ffffffffffffffffffffffffffffffffffffffff1681526020018060200180602001806020018681526020018060200185810385528a818151815260200191508051906020019080838360005b83811015610ba5578082015181840152602081019050610b8a565b50505050905090810190601f168015610bd25780820380516001836020036101000a031916815260200191505b50858103845289818151815260200191508051906020019080838360005b83811015610c0b578082015181840152602081019050610bf0565b50505050905090810190601f168015610c385780820380516001836020036101000a031916815260200191505b50858103835288818151815260200191508051906020019080838360005b83811015610c71578082015181840152602081019050610c56565b50505050905090810190601f168015610c9e5780820380516001836020036101000a031916815260200191505b50858103825286818151815260200191508051906020019080838360005b83811015610cd7578082015181840152602081019050610cbc565b50505050905090810190601f168015610d045780820380516001836020036101000a031916815260200191505b509a505050505050505050505060405180910390f35b610e31600480360360c0811015610d3057600080fd5b81019080803573ffffffffffffffffffffffffffffffffffffffff169060200190929190803573ffffffffffffffffffffffffffffffffffffffff169060200190929190803590602001909291908035906020019092919080359060200190640100000000811115610da157600080fd5b820183602082011115610db357600080fd5b80359060200191846001830284011164010000000083111715610dd557600080fd5b91908080601f016020809104026020016040519081016040528093929190818152602001838380828437600081840152601f19601f820116905080830192505050505050509192919290803590602001909291905050506128e3565b005b610e3b612a1b565b604051808273ffffffffffffffffffffffffffffffffffffffff16815260200191505060405180910390f35b610e9360048036036020811015610e7d57600080fd5b8101908080359060200190929190505050612a41565b604051808773ffffffffffffffffffffffffffffffffffffffff1681526020018060200180602001806020018681526020018060200185810385528a818151815260200191508051906020019080838360005b83811015610f01578082015181840152602081019050610ee6565b50505050905090810190601f168015610f2e5780820380516001836020036101000a031916815260200191505b50858103845289818151815260200191508051906020019080838360005b83811015610f67578082015181840152602081019050610f4c565b50505050905090810190601f168015610f945780820380516001836020036101000a031916815260200191505b50858103835288818151815260200191508051906020019080838360005b83811015610fcd578082015181840152602081019050610fb2565b50505050905090810190601f168015610ffa5780820380516001836020036101000a031916815260200191505b50858103825286818151815260200191508051906020019080838360005b83811015611033578082015181840152602081019050611018565b50505050905090810190601f1680156110605780820380516001836020036101000a031916815260200191505b509a505050505050505050505060405180910390f35b6110d86004803603604081101561108c57600080fd5b81019080803573ffffffffffffffffffffffffffffffffffffffff169060200190929190803573ffffffffffffffffffffffffffffffffffffffff169060200190929190505050612d0a565b60405180821515815260200191505060405180910390f35b6111fd600480360360a081101561110657600080fd5b81019080803573ffffffffffffffffffffffffffffffffffffffff169060200190929190803573ffffffffffffffffffffffffffffffffffffffff16906020019092919080359060200190929190803590602001909291908035906020019064010000000081111561117757600080fd5b82018360208201111561118957600080fd5b803590602001918460018302840111640100000000831117156111ab57600080fd5b91908080601f016020809104026020016040519081016040528093929190818152602001838380828437600081840152601f19601f820116905080830192505050505050509192919290505050612d9e565b005b6112416004803603602081101561121557600080fd5b81019080803573ffffffffffffffffffffffffffffffffffffffff169060200190929190505050613112565b005b60008073ffffffffffffffffffffffffffffffffffffffff168373ffffffffffffffffffffffffffffffffffffffff1614156112ca576040517f08c379a000000000000000000000000000000000000000000000000000000000815260040180806020018281038252602b815260200180614036602b913960400191505060405180910390fd5b6001600083815260200190815260200160002060008473ffffffffffffffffffffffffffffffffffffffff1673ffffffffffffffffffffffffffffffffffffffff16815260200190815260200160002054905092915050565b6000806000837bffffffffffffffffffffffffffffffffffffffffffffffffffffffff19167bffffffffffffffffffffffffffffffffffffffffffffffffffffffff1916815260200190815260200160002060009054906101000a900460ff169050919050565b606060038054600181600116156101000203166002900480601f0160208091040260200160405190810160405280929190818152602001828054600181600116156101000203166002900480156114225780601f106113f757610100808354040283529160200191611422565b820191906000526020600020905b81548152906001019060200180831161140557829003601f168201915b50505050509050919050565b600a818154811061143b57fe5b906000526020600020016000915054906101000a900473ffffffffffffffffffffffffffffffffffffffff1681565b81518351146114c4576040517f08c379a00000000000000000000000000000000000000000000000000000000081526004018080602001828103825260288152602001806141b56028913960400191505060405180910390fd5b600073ffffffffffffffffffffffffffffffffffffffff168473ffffffffffffffffffffffffffffffffffffffff16141561154a576040517f08c379a00000000000000000000000000000000000000000000000000000000081526004018080602001828103825260258152602001806140b86025913960400191505060405180910390fd5b611552613322565b73ffffffffffffffffffffffffffffffffffffffff168573ffffffffffffffffffffffffffffffffffffffff161480611598575061159785611592613322565b612d0a565b5b6115ed576040517f08c379a00000000000000000000000000000000000000000000000000000000081526004018080602001828103825260328152602001806140dd6032913960400191505060405180910390fd5b60006115f7613322565b905061160781878787878761332a565b60005b84518110156117d857600085828151811061162157fe5b60200260200101519050600085838151811061163957fe5b602002602001015190506116c0816040518060600160405280602a815260200161410f602a91396001600086815260200190815260200160002060008d73ffffffffffffffffffffffffffffffffffffffff1673ffffffffffffffffffffffffffffffffffffffff168152602001908152602001600020546133329092919063ffffffff16565b6001600084815260200190815260200160002060008b73ffffffffffffffffffffffffffffffffffffffff1673ffffffffffffffffffffffffffffffffffffffff16815260200190815260200160002081905550611777816001600085815260200190815260200160002060008b73ffffffffffffffffffffffffffffffffffffffff1673ffffffffffffffffffffffffffffffffffffffff168152602001908152602001600020546133f290919063ffffffff16565b6001600084815260200190815260200160002060008a73ffffffffffffffffffffffffffffffffffffffff1673ffffffffffffffffffffffffffffffffffffffff16815260200190815260200160002081905550505080600101905061160a565b508473ffffffffffffffffffffffffffffffffffffffff168673ffffffffffffffffffffffffffffffffffffffff168273ffffffffffffffffffffffffffffffffffffffff167f4a39dc06d4c0dbc64b70af90fd698a233a518aa5d07e595d983b8c0526c8f7fb8787604051808060200180602001838103835285818151815260200191508051906020019060200280838360005b8381101561188857808201518184015260208101905061186d565b50505050905001838103825284818151815260200191508051906020019060200280838360005b838110156118ca5780820151818401526020810190506118af565b5050505090500194505050505060405180910390a46118ed81878787878761347a565b505050505050565b60056020528060005260406000206000915054906101000a900460ff1681565b60608151835114611971576040517f08c379a000000000000000000000000000000000000000000000000000000000815260040180806020018281038252602981526020018061418c6029913960400191505060405180910390fd5b6060835167ffffffffffffffff8111801561198b57600080fd5b506040519080825280602002602001820160405280156119ba5781602001602082028036833780820191505090505b50905060005b8451811015611afc57600073ffffffffffffffffffffffffffffffffffffffff168582815181106119ed57fe5b602002602001015173ffffffffffffffffffffffffffffffffffffffff161415611a62576040517f08c379a00000000000000000000000000000000000000000000000000000000081526004018080602001828103825260318152602001806140616031913960400191505060405180910390fd5b60016000858381518110611a7257fe5b602002602001015181526020019081526020016000206000868381518110611a9657fe5b602002602001015173ffffffffffffffffffffffffffffffffffffffff1673ffffffffffffffffffffffffffffffffffffffff16815260200190815260200160002054828281518110611ae557fe5b6020026020010181815250508060010190506119c0565b508091505092915050565b60066020528060005260406000206000915090505481565b6009602052816000526040600020602052806000526040600020600091509150505481565b6000600b80549050905090565b611b59613322565b73ffffffffffffffffffffffffffffffffffffffff16600460009054906101000a900473ffffffffffffffffffffffffffffffffffffffff1673ffffffffffffffffffffffffffffffffffffffff1614611c1b576040517f08c379a00000000000000000000000000000000000000000000000000000000081526004018080602001828103825260208152602001807f4f776e61626c653a2063616c6c6572206973206e6f7420746865206f776e657281525060200191505060405180910390fd5b600073ffffffffffffffffffffffffffffffffffffffff16600460009054906101000a900473ffffffffffffffffffffffffffffffffffffffff1673ffffffffffffffffffffffffffffffffffffffff167f8be0079c531659141344cd1fd0a4f28419497f9722a3daafe3b4186f6b6457e060405160405180910390a36000600460006101000a81548173ffffffffffffffffffffffffffffffffffffffff021916908373ffffffffffffffffffffffffffffffffffffffff160217905550565b6000662386f26fc1000090506000886040516020018082805190602001908083835b60208310611d215780518252602082019150602081019050602083039250611cfe565b6001836020036101000a0380198251168184511680821785525050505050509050019150506040516020818303038152906040528051906020012060001c90506000828281611d6c57fe5b0690506005600082815260200190815260200160002060009054906101000a900460ff1615611d9a57600080fd5b60016005600083815260200190815260200160002060006101000a81548160ff021916908315150217905550611dce613d9c565b33816000019073ffffffffffffffffffffffffffffffffffffffff16908173ffffffffffffffffffffffffffffffffffffffff16815250508a81604001819052508981606001819052508181608001818152505060608a83604051602001808060200183815260200180602001838103835285818151815260200191508051906020019080838360005b83811015611e73578082015181840152602081019050611e58565b50505050905090810190601f168015611ea05780820380516001836020036101000a031916815260200191505b50838103825260058152602001807f2e6a736f6e000000000000000000000000000000000000000000000000000000815250602001945050505050604051602081830303815290604052905080826020018190525060608a8a8a8a60018b604051602001808781526020018060200186815260200185815260200184815260200180602001838103835288818151815260200191508051906020019080838360005b83811015611f5d578082015181840152602081019050611f42565b50505050905090810190601f168015611f8a5780820380516001836020036101000a031916815260200191505b50838103825284818151815260200191508051906020019080838360005b83811015611fc3578082015181840152602081019050611fa8565b50505050905090810190601f168015611ff05780820380516001836020036101000a031916815260200191505b50985050505050505050506040516020818303038152906040529050808360a00181905250600b83908060018154018082558091505060019003906000526020600020906006020160009091909190915060008201518160000160006101000a81548173ffffffffffffffffffffffffffffffffffffffff021916908373ffffffffffffffffffffffffffffffffffffffff16021790555060208201518160010190805190602001906120a4929190613de8565b5060408201518160020190805190602001906120c1929190613e68565b5060608201518160030190805190602001906120de929190613e68565b506080820151816004015560a0820151816005019080519060200190612105929190613de8565b50505083600660003373ffffffffffffffffffffffffffffffffffffffff1673ffffffffffffffffffffffffffffffffffffffff16815260200190815260200160002081905550826007600086815260200190815260200160002060008201518160000160006101000a81548173ffffffffffffffffffffffffffffffffffffffff021916908373ffffffffffffffffffffffffffffffffffffffff16021790555060208201518160010190805190602001906121c3929190613de8565b5060408201518160020190805190602001906121e0929190613e68565b5060608201518160030190805190602001906121fd929190613e68565b506080820151816004015560a0820151816005019080519060200190612224929190613de8565b5090505061223433858d84613809565b7fe4db4d9bae6a7ea1c8f58bae49da45e3112df950e97a0b718e738b109807232e836000015184602001518560400151866060015187608001518860a00151604051808773ffffffffffffffffffffffffffffffffffffffff1681526020018060200180602001806020018681526020018060200185810385528a818151815260200191508051906020019080838360005b838110156122e15780820151818401526020810190506122c6565b50505050905090810190601f16801561230e5780820380516001836020036101000a031916815260200191505b50858103845289818151815260200191508051906020019080838360005b8381101561234757808201518184015260208101905061232c565b50505050905090810190601f1680156123745780820380516001836020036101000a031916815260200191505b50858103835288818151815260200191508051906020019080838360005b838110156123ad578082015181840152602081019050612392565b50505050905090810190601f1680156123da5780820380516001836020036101000a031916815260200191505b50858103825286818151815260200191508051906020019080838360005b838110156124135780820151818401526020810190506123f8565b50505050905090810190601f1680156124405780820380516001836020036101000a031916815260200191505b509a505050505050505050505060405180910390a150505050505050505050505050565b6000600460009054906101000a900473ffffffffffffffffffffffffffffffffffffffff16905090565b8173ffffffffffffffffffffffffffffffffffffffff166124ad613322565b73ffffffffffffffffffffffffffffffffffffffff16141561251a576040517f08c379a00000000000000000000000000000000000000000000000000000000081526004018080602001828103825260298152602001806141636029913960400191505060405180910390fd5b8060026000612527613322565b73ffffffffffffffffffffffffffffffffffffffff1673ffffffffffffffffffffffffffffffffffffffff16815260200190815260200160002060008473ffffffffffffffffffffffffffffffffffffffff1673ffffffffffffffffffffffffffffffffffffffff16815260200190815260200160002060006101000a81548160ff0219169083151502179055508173ffffffffffffffffffffffffffffffffffffffff166125d4613322565b73ffffffffffffffffffffffffffffffffffffffff167f17307eab39ab6107e8899845ad3d59bd9653f200f220920489ca2b5937696c318360405180821515815260200191505060405180910390a35050565b60076020528060005260406000206000915090508060000160009054906101000a900473ffffffffffffffffffffffffffffffffffffffff1690806001018054600181600116156101000203166002900480601f0160208091040260200160405190810160405280929190818152602001828054600181600116156101000203166002900480156126f95780601f106126ce576101008083540402835291602001916126f9565b820191906000526020600020905b8154815290600101906020018083116126dc57829003601f168201915b505050505090806002018054600181600116156101000203166002900480601f0160208091040260200160405190810160405280929190818152602001828054600181600116156101000203166002900480156127975780601f1061276c57610100808354040283529160200191612797565b820191906000526020600020905b81548152906001019060200180831161277a57829003601f168201915b505050505090806003018054600181600116156101000203166002900480601f0160208091040260200160405190810160405280929190818152602001828054600181600116156101000203166002900480156128355780601f1061280a57610100808354040283529160200191612835565b820191906000526020600020905b81548152906001019060200180831161281857829003601f168201915b505050505090806004015490806005018054600181600116156101000203166002900480601f0160208091040260200160405190810160405280929190818152602001828054600181600116156101000203166002900480156128d95780601f106128ae576101008083540402835291602001916128d9565b820191906000526020600020905b8154815290600101906020018083116128bc57829003601f168201915b5050505050905086565b826128ee8786611243565b1015612945576040517f08c379a000000000000000000000000000000000000000000000000000000000815260040180806020018281038252602a815260200180614139602a913960400191505060405180910390fd5b6129528686868686612d9e565b826009600086815260200190815260200160002060008773ffffffffffffffffffffffffffffffffffffffff1673ffffffffffffffffffffffffffffffffffffffff16815260200190815260200160002060008282540192505081905550600a859080600181540180825580915050600190039060005260206000200160009091909190916101000a81548173ffffffffffffffffffffffffffffffffffffffff021916908373ffffffffffffffffffffffffffffffffffffffff160217905550505050505050565b600860009054906101000a900473ffffffffffffffffffffffffffffffffffffffff1681565b600b8181548110612a4e57fe5b90600052602060002090600602016000915090508060000160009054906101000a900473ffffffffffffffffffffffffffffffffffffffff1690806001018054600181600116156101000203166002900480601f016020809104026020016040519081016040528092919081815260200182805460018160011615610100020316600290048015612b205780601f10612af557610100808354040283529160200191612b20565b820191906000526020600020905b815481529060010190602001808311612b0357829003601f168201915b505050505090806002018054600181600116156101000203166002900480601f016020809104026020016040519081016040528092919081815260200182805460018160011615610100020316600290048015612bbe5780601f10612b9357610100808354040283529160200191612bbe565b820191906000526020600020905b815481529060010190602001808311612ba157829003601f168201915b505050505090806003018054600181600116156101000203166002900480601f016020809104026020016040519081016040528092919081815260200182805460018160011615610100020316600290048015612c5c5780601f10612c3157610100808354040283529160200191612c5c565b820191906000526020600020905b815481529060010190602001808311612c3f57829003601f168201915b505050505090806004015490806005018054600181600116156101000203166002900480601f016020809104026020016040519081016040528092919081815260200182805460018160011615610100020316600290048015612d005780601f10612cd557610100808354040283529160200191612d00565b820191906000526020600020905b815481529060010190602001808311612ce357829003601f168201915b5050505050905086565b6000600260008473ffffffffffffffffffffffffffffffffffffffff1673ffffffffffffffffffffffffffffffffffffffff16815260200190815260200160002060008373ffffffffffffffffffffffffffffffffffffffff1673ffffffffffffffffffffffffffffffffffffffff16815260200190815260200160002060009054906101000a900460ff16905092915050565b600073ffffffffffffffffffffffffffffffffffffffff168473ffffffffffffffffffffffffffffffffffffffff161415612e24576040517f08c379a00000000000000000000000000000000000000000000000000000000081526004018080602001828103825260258152602001806140b86025913960400191505060405180910390fd5b8473ffffffffffffffffffffffffffffffffffffffff168473ffffffffffffffffffffffffffffffffffffffff161415612ec6576040517f08c379a00000000000000000000000000000000000000000000000000000000081526004018080602001828103825260208152602001807f455243313135353a2063616e6e6f74207472616e7366657220746f2073656c6681525060200191505060405180910390fd5b6000612ed0613322565b9050612ef0818787612ee188613a0c565b612eea88613a0c565b8761332a565b612f6d836040518060600160405280602a815260200161410f602a91396001600088815260200190815260200160002060008a73ffffffffffffffffffffffffffffffffffffffff1673ffffffffffffffffffffffffffffffffffffffff168152602001908152602001600020546133329092919063ffffffff16565b6001600086815260200190815260200160002060008873ffffffffffffffffffffffffffffffffffffffff1673ffffffffffffffffffffffffffffffffffffffff16815260200190815260200160002081905550613024836001600087815260200190815260200160002060008873ffffffffffffffffffffffffffffffffffffffff1673ffffffffffffffffffffffffffffffffffffffff168152602001908152602001600020546133f290919063ffffffff16565b6001600086815260200190815260200160002060008773ffffffffffffffffffffffffffffffffffffffff1673ffffffffffffffffffffffffffffffffffffffff168152602001908152602001600020819055508473ffffffffffffffffffffffffffffffffffffffff168673ffffffffffffffffffffffffffffffffffffffff168273ffffffffffffffffffffffffffffffffffffffff167fc3d58168c5ae7397731d063d5bbf3d657854427343f4c083240f7aacaa2d0f628787604051808381526020018281526020019250505060405180910390a461310a818787878787613a7c565b505050505050565b61311a613322565b73ffffffffffffffffffffffffffffffffffffffff16600460009054906101000a900473ffffffffffffffffffffffffffffffffffffffff1673ffffffffffffffffffffffffffffffffffffffff16146131dc576040517f08c379a00000000000000000000000000000000000000000000000000000000081526004018080602001828103825260208152602001807f4f776e61626c653a2063616c6c6572206973206e6f7420746865206f776e657281525060200191505060405180910390fd5b600073ffffffffffffffffffffffffffffffffffffffff168173ffffffffffffffffffffffffffffffffffffffff161415613262576040517f08c379a00000000000000000000000000000000000000000000000000000000081526004018080602001828103825260268152602001806140926026913960400191505060405180910390fd5b8073ffffffffffffffffffffffffffffffffffffffff16600460009054906101000a900473ffffffffffffffffffffffffffffffffffffffff1673ffffffffffffffffffffffffffffffffffffffff167f8be0079c531659141344cd1fd0a4f28419497f9722a3daafe3b4186f6b6457e060405160405180910390a380600460006101000a81548173ffffffffffffffffffffffffffffffffffffffff021916908373ffffffffffffffffffffffffffffffffffffffff16021790555050565b600033905090565b505050505050565b60008383111582906133df576040517f08c379a00000000000000000000000000000000000000000000000000000000081526004018080602001828103825283818151815260200191508051906020019080838360005b838110156133a4578082015181840152602081019050613389565b50505050905090810190601f1680156133d15780820380516001836020036101000a031916815260200191505b509250505060405180910390fd5b5060008385039050809150509392505050565b600080828401905083811015613470576040517f08c379a000000000000000000000000000000000000000000000000000000000815260040180806020018281038252601b8152602001807f536166654d6174683a206164646974696f6e206f766572666c6f77000000000081525060200191505060405180910390fd5b8091505092915050565b6134998473ffffffffffffffffffffffffffffffffffffffff16613d89565b15613801578373ffffffffffffffffffffffffffffffffffffffff1663bc197c8187878686866040518663ffffffff1660e01b8152600401808673ffffffffffffffffffffffffffffffffffffffff1681526020018573ffffffffffffffffffffffffffffffffffffffff168152602001806020018060200180602001848103845287818151815260200191508051906020019060200280838360005b83811015613551578082015181840152602081019050613536565b50505050905001848103835286818151815260200191508051906020019060200280838360005b83811015613593578082015181840152602081019050613578565b50505050905001848103825285818151815260200191508051906020019080838360005b838110156135d25780820151818401526020810190506135b7565b50505050905090810190601f1680156135ff5780820380516001836020036101000a031916815260200191505b5098505050505050505050602060405180830381600087803b15801561362457600080fd5b505af192505050801561365857506040513d602081101561364457600080fd5b810190808051906020019092919050505060015b61376257613664613f23565b8061366f5750613711565b806040517f08c379a00000000000000000000000000000000000000000000000000000000081526004018080602001828103825283818151815260200191508051906020019080838360005b838110156136d65780820151818401526020810190506136bb565b50505050905090810190601f1680156137035780820380516001836020036101000a031916815260200191505b509250505060405180910390fd5b6040517f08c379a0000000000000000000000000000000000000000000000000000000008152600401808060200182810382526034815260200180613fda6034913960400191505060405180910390fd5b63bc197c8160e01b7bffffffffffffffffffffffffffffffffffffffffffffffffffffffff1916817bffffffffffffffffffffffffffffffffffffffffffffffffffffffff1916146137ff576040517f08c379a000000000000000000000000000000000000000000000000000000000815260040180806020018281038252602881526020018061400e6028913960400191505060405180910390fd5b505b505050505050565b600073ffffffffffffffffffffffffffffffffffffffff168473ffffffffffffffffffffffffffffffffffffffff16141561388f576040517f08c379a00000000000000000000000000000000000000000000000000000000081526004018080602001828103825260218152602001806141dd6021913960400191505060405180910390fd5b6000613899613322565b90506138ba816000876138ab88613a0c565b6138b488613a0c565b8761332a565b61391d836001600087815260200190815260200160002060008873ffffffffffffffffffffffffffffffffffffffff1673ffffffffffffffffffffffffffffffffffffffff168152602001908152602001600020546133f290919063ffffffff16565b6001600086815260200190815260200160002060008773ffffffffffffffffffffffffffffffffffffffff1673ffffffffffffffffffffffffffffffffffffffff168152602001908152602001600020819055508473ffffffffffffffffffffffffffffffffffffffff16600073ffffffffffffffffffffffffffffffffffffffff168273ffffffffffffffffffffffffffffffffffffffff167fc3d58168c5ae7397731d063d5bbf3d657854427343f4c083240f7aacaa2d0f628787604051808381526020018281526020019250505060405180910390a4613a0581600087878787613a7c565b5050505050565b606080600167ffffffffffffffff81118015613a2757600080fd5b50604051908082528060200260200182016040528015613a565781602001602082028036833780820191505090505b5090508281600081518110613a6757fe5b60200260200101818152505080915050919050565b613a9b8473ffffffffffffffffffffffffffffffffffffffff16613d89565b15613d81578373ffffffffffffffffffffffffffffffffffffffff1663f23a6e6187878686866040518663ffffffff1660e01b8152600401808673ffffffffffffffffffffffffffffffffffffffff1681526020018573ffffffffffffffffffffffffffffffffffffffff16815260200184815260200183815260200180602001828103825283818151815260200191508051906020019080838360005b83811015613b54578082015181840152602081019050613b39565b50505050905090810190601f168015613b815780820380516001836020036101000a031916815260200191505b509650505050505050602060405180830381600087803b158015613ba457600080fd5b505af1925050508015613bd857506040513d6020811015613bc457600080fd5b810190808051906020019092919050505060015b613ce257613be4613f23565b80613bef5750613c91565b806040517f08c379a00000000000000000000000000000000000000000000000000000000081526004018080602001828103825283818151815260200191508051906020019080838360005b83811015613c56578082015181840152602081019050613c3b565b50505050905090810190601f168015613c835780820380516001836020036101000a031916815260200191505b509250505060405180910390fd5b6040517f08c379a0000000000000000000000000000000000000000000000000000000008152600401808060200182810382526034815260200180613fda6034913960400191505060405180910390fd5b63f23a6e6160e01b7bffffffffffffffffffffffffffffffffffffffffffffffffffffffff1916817bffffffffffffffffffffffffffffffffffffffffffffffffffffffff191614613d7f576040517f08c379a000000000000000000000000000000000000000000000000000000000815260040180806020018281038252602881526020018061400e6028913960400191505060405180910390fd5b505b505050505050565b600080823b905060008111915050919050565b6040518060c00160405280600073ffffffffffffffffffffffffffffffffffffffff16815260200160608152602001606081526020016060815260200160008152602001606081525090565b828054600181600116156101000203166002900490600052602060002090601f016020900481019282601f10613e2957805160ff1916838001178555613e57565b82800160010185558215613e57579182015b82811115613e56578251825591602001919060010190613e3b565b5b509050613e649190613ee8565b5090565b828054600181600116156101000203166002900490600052602060002090601f016020900481019282601f10613ea957805160ff1916838001178555613ed7565b82800160010185558215613ed7579182015b82811115613ed6578251825591602001919060010190613ebb565b5b509050613ee49190613ee8565b5090565b5b80821115613f01576000816000905550600101613ee9565b5090565b6000601f19601f8301169050919050565b60008160e01c9050919050565b600060443d1015613f3357613fd6565b60046000803e613f44600051613f16565b6308c379a08114613f555750613fd6565b60405160043d036004823e80513d602482011167ffffffffffffffff82111715613f8157505050613fd6565b808201805167ffffffffffffffff811115613fa0575050505050613fd6565b8060208301013d8501811115613fbb57505050505050613fd6565b613fc482613f05565b60208401016040528296505050505050505b9056fe455243313135353a207472616e7366657220746f206e6f6e2045524331313535526563656976657220696d706c656d656e746572455243313135353a204552433131353552656365697665722072656a656374656420746f6b656e73455243313135353a2062616c616e636520717565727920666f7220746865207a65726f2061646472657373455243313135353a2062617463682062616c616e636520717565727920666f7220746865207a65726f20616464726573734f776e61626c653a206e6577206f776e657220697320746865207a65726f2061646472657373455243313135353a207472616e7366657220746f20746865207a65726f2061646472657373455243313135353a207472616e736665722063616c6c6572206973206e6f74206f776e6572206e6f7220617070726f766564455243313135353a20696e73756666696369656e742062616c616e636520666f72207472616e736665724572723a206e6f7420656e6f75676820746f6b656e7320746f2066696c6c20796f7572206f7264657221455243313135353a2073657474696e6720617070726f76616c2073746174757320666f722073656c66455243313135353a206163636f756e747320616e6420696473206c656e677468206d69736d61746368455243313135353a2069647320616e6420616d6f756e7473206c656e677468206d69736d61746368455243313135353a206d696e7420746f20746865207a65726f2061646472657373a2646970667358221220a2cac8d5a5aa634a7ba54ea5369cc77828f7a90012bcaa836ec31cb7166dec4464736f6c634300060c0033687474703a2f2f6c6f63616c686f73743a333030302f7075626c69632f23212f74726561737572655f63686573742f7b69647d2e6a736f6e",
  "immutableReferences": {},
  "source": "pragma solidity >=0.4.21 <0.7.0;\nimport \"@openzeppelin/contracts/token/ERC1155/ERC1155.sol\";\nimport '@openzeppelin/contracts/access/Ownable.sol';\nimport \"./Alm.sol\";\n\ncontract AngelToken is ERC1155, Ownable{\n  /* State variables are stored in the blockchain */\n  mapping(uint256 => bool) public is_on_manifest;\n  mapping (address => uint256) public map_owner_to_id;\n  mapping (uint256 => Alms.Alm) public map_id_to_Alm;\n\n  address public OA = msg.sender;\n  mapping(uint256 => mapping(address => uint256)) public Angel_Map;\n  address [] public Angel_List;\n\n  Alms.Alm[] public alms;\n  event ManifestedAngelToken(\n     address owner,\n      bytes _uri,\n       string _ename,\n        string _esym,\n         uint256 _id,\n          bytes mint_data\n           );\n  constructor()\n    ERC1155(\"http://localhost:3000/public/#!/treasure_chest/{id}.json\")\n      Ownable()\n          public {\n          }\n\n   function tokenGenesis (string memory _ename,string memory _esym,uint256 _num_to_issue,\n         string memory _mint_date,uint256 _cost,uint256 _angel_coefficient,string memory _product)\n      public {\n          uint256 idmod = 10 ** 16;\n          uint256 token_id = uint256(keccak256(abi.encodePacked(_ename)));\n          uint256 _id = token_id % idmod;\n          require(!is_on_manifest[_id]);\n          is_on_manifest[_id] = true;\n          Alms.Alm memory new_alm;\n          new_alm.owner = msg.sender;\n          new_alm.name = _ename;\n          new_alm.sym = _esym;\n          new_alm.id = _id;\n          bytes memory new_uri = abi.encode(_esym, _id, \".json\");\n          new_alm.uri = new_uri;\n          bytes memory mintData = abi.encode(_num_to_issue, _mint_date, _cost, _angel_coefficient, 1, _product);\n          new_alm.mint_data = mintData;\n          alms.push(new_alm);\n          map_owner_to_id[msg.sender] = _id;\n          map_id_to_Alm[_id] = new_alm;\n          _mint(msg.sender, _id, _num_to_issue, mintData);\n          emit ManifestedAngelToken(new_alm.owner,new_alm.uri,new_alm.name,new_alm.sym,new_alm.id,new_alm.mint_data);\n  }\n  function getAlmsLength() public view returns(uint256){\n    return alms.length;\n  }\n  function buyAlms(address _owner, address _buyer, uint256 _id, uint256 _amount, bytes memory _data, uint256 cost) public {\n      /* require(msg.value >= (cost * _amount), \"Err: not enough eth sent, No Soup For You!\"); */\n      require(balanceOf(_owner, _id) >= _amount, \"Err: not enough tokens to fill your order!\");\n      safeTransferFrom(_owner, _buyer, _id, _amount, _data);\n      Angel_Map[_id][_buyer] += _amount;\n      Angel_List.push(_buyer);\n  }\n\n}\n",
  "sourcePath": "/Volumes/DEVBAR/eth/AngelTokens/contracts/AngelToken.sol",
  "compiler": {
    "name": "solc",
    "version": "0.6.12+commit.27d51765.Emscripten.clang"
  },
  "schemaVersion": "3.3.2",
  "updatedAt": "2021-03-30T00:38:47.892Z",
  "networkType": "ethereum",
  "devdoc": {
    "kind": "dev",
    "methods": {
      "balanceOf(address,uint256)": {
        "details": "See {IERC1155-balanceOf}. Requirements: - `account` cannot be the zero address."
      },
      "balanceOfBatch(address[],uint256[])": {
        "details": "See {IERC1155-balanceOfBatch}. Requirements: - `accounts` and `ids` must have the same length."
      },
      "isApprovedForAll(address,address)": {
        "details": "See {IERC1155-isApprovedForAll}."
      },
      "owner()": {
        "details": "Returns the address of the current owner."
      },
      "renounceOwnership()": {
        "details": "Leaves the contract without owner. It will not be possible to call `onlyOwner` functions anymore. Can only be called by the current owner. NOTE: Renouncing ownership will leave the contract without an owner, thereby removing any functionality that is only available to the owner."
      },
      "safeBatchTransferFrom(address,address,uint256[],uint256[],bytes)": {
        "details": "See {IERC1155-safeBatchTransferFrom}."
      },
      "safeTransferFrom(address,address,uint256,uint256,bytes)": {
        "details": "See {IERC1155-safeTransferFrom}."
      },
      "setApprovalForAll(address,bool)": {
        "details": "See {IERC1155-setApprovalForAll}."
      },
      "supportsInterface(bytes4)": {
        "details": "See {IERC165-supportsInterface}. Time complexity O(1), guaranteed to always use less than 30 000 gas."
      },
      "transferOwnership(address)": {
        "details": "Transfers ownership of the contract to a new account (`newOwner`). Can only be called by the current owner."
      },
      "uri(uint256)": {
        "details": "See {IERC1155MetadataURI-uri}. This implementation returns the same URI for *all* token types. It relies on the token type ID substitution mechanism https://eips.ethereum.org/EIPS/eip-1155#metadata[defined in the EIP]. Clients calling this function must replace the `\\{id\\}` substring with the actual token type ID."
      }
    },
    "version": 1
  },
  "userdoc": {
    "kind": "user",
    "methods": {},
    "version": 1
  }
}