{
  "contractName": "AngelTokenManifestation",
  "abi": [
    {
      "inputs": [],
      "stateMutability": "nonpayable",
      "type": "constructor"
    },
    {
      "anonymous": false,
      "inputs": [
        {
          "indexed": true,
          "internalType": "address",
          "name": "owner",
          "type": "address"
        },
        {
          "indexed": true,
          "internalType": "address",
          "name": "approved",
          "type": "address"
        },
        {
          "indexed": true,
          "internalType": "uint256",
          "name": "tokenId",
          "type": "uint256"
        }
      ],
      "name": "Approval",
      "type": "event"
    },
    {
      "anonymous": false,
      "inputs": [
        {
          "indexed": true,
          "internalType": "address",
          "name": "owner",
          "type": "address"
        },
        {
          "indexed": true,
          "internalType": "address",
          "name": "operator",
          "type": "address"
        },
        {
          "indexed": false,
          "internalType": "bool",
          "name": "approved",
          "type": "bool"
        }
      ],
      "name": "ApprovalForAll",
      "type": "event"
    },
    {
      "anonymous": false,
      "inputs": [
        {
          "indexed": false,
          "internalType": "string",
          "name": "_name",
          "type": "string"
        },
        {
          "indexed": false,
          "internalType": "string",
          "name": "_symbol",
          "type": "string"
        },
        {
          "indexed": false,
          "internalType": "uint256",
          "name": "_id",
          "type": "uint256"
        },
        {
          "indexed": false,
          "internalType": "uint256",
          "name": "issue_num",
          "type": "uint256"
        },
        {
          "indexed": false,
          "internalType": "uint256",
          "name": "_mint_date",
          "type": "uint256"
        }
      ],
      "name": "ManifestedAngelToken",
      "type": "event"
    },
    {
      "anonymous": false,
      "inputs": [
        {
          "indexed": true,
          "internalType": "address",
          "name": "from",
          "type": "address"
        },
        {
          "indexed": true,
          "internalType": "address",
          "name": "to",
          "type": "address"
        },
        {
          "indexed": true,
          "internalType": "uint256",
          "name": "tokenId",
          "type": "uint256"
        }
      ],
      "name": "Transfer",
      "type": "event"
    },
    {
      "inputs": [
        {
          "internalType": "address",
          "name": "to",
          "type": "address"
        },
        {
          "internalType": "uint256",
          "name": "tokenId",
          "type": "uint256"
        }
      ],
      "name": "approve",
      "outputs": [],
      "stateMutability": "nonpayable",
      "type": "function"
    },
    {
      "inputs": [
        {
          "internalType": "address",
          "name": "owner",
          "type": "address"
        }
      ],
      "name": "balanceOf",
      "outputs": [
        {
          "internalType": "uint256",
          "name": "",
          "type": "uint256"
        }
      ],
      "stateMutability": "view",
      "type": "function"
    },
    {
      "inputs": [],
      "name": "baseURI",
      "outputs": [
        {
          "internalType": "string",
          "name": "",
          "type": "string"
        }
      ],
      "stateMutability": "view",
      "type": "function"
    },
    {
      "inputs": [
        {
          "internalType": "uint256",
          "name": "tokenId",
          "type": "uint256"
        }
      ],
      "name": "getApproved",
      "outputs": [
        {
          "internalType": "address",
          "name": "",
          "type": "address"
        }
      ],
      "stateMutability": "view",
      "type": "function"
    },
    {
      "inputs": [
        {
          "internalType": "address",
          "name": "owner",
          "type": "address"
        },
        {
          "internalType": "address",
          "name": "operator",
          "type": "address"
        }
      ],
      "name": "isApprovedForAll",
      "outputs": [
        {
          "internalType": "bool",
          "name": "",
          "type": "bool"
        }
      ],
      "stateMutability": "view",
      "type": "function"
    },
    {
      "inputs": [],
      "name": "name",
      "outputs": [
        {
          "internalType": "string",
          "name": "",
          "type": "string"
        }
      ],
      "stateMutability": "view",
      "type": "function"
    },
    {
      "inputs": [
        {
          "internalType": "uint256",
          "name": "tokenId",
          "type": "uint256"
        }
      ],
      "name": "ownerOf",
      "outputs": [
        {
          "internalType": "address",
          "name": "",
          "type": "address"
        }
      ],
      "stateMutability": "view",
      "type": "function"
    },
    {
      "inputs": [
        {
          "internalType": "address",
          "name": "from",
          "type": "address"
        },
        {
          "internalType": "address",
          "name": "to",
          "type": "address"
        },
        {
          "internalType": "uint256",
          "name": "tokenId",
          "type": "uint256"
        }
      ],
      "name": "safeTransferFrom",
      "outputs": [],
      "stateMutability": "nonpayable",
      "type": "function"
    },
    {
      "inputs": [
        {
          "internalType": "address",
          "name": "from",
          "type": "address"
        },
        {
          "internalType": "address",
          "name": "to",
          "type": "address"
        },
        {
          "internalType": "uint256",
          "name": "tokenId",
          "type": "uint256"
        },
        {
          "internalType": "bytes",
          "name": "_data",
          "type": "bytes"
        }
      ],
      "name": "safeTransferFrom",
      "outputs": [],
      "stateMutability": "nonpayable",
      "type": "function"
    },
    {
      "inputs": [
        {
          "internalType": "address",
          "name": "operator",
          "type": "address"
        },
        {
          "internalType": "bool",
          "name": "approved",
          "type": "bool"
        }
      ],
      "name": "setApprovalForAll",
      "outputs": [],
      "stateMutability": "nonpayable",
      "type": "function"
    },
    {
      "inputs": [
        {
          "internalType": "bytes4",
          "name": "interfaceId",
          "type": "bytes4"
        }
      ],
      "name": "supportsInterface",
      "outputs": [
        {
          "internalType": "bool",
          "name": "",
          "type": "bool"
        }
      ],
      "stateMutability": "view",
      "type": "function"
    },
    {
      "inputs": [],
      "name": "symbol",
      "outputs": [
        {
          "internalType": "string",
          "name": "",
          "type": "string"
        }
      ],
      "stateMutability": "view",
      "type": "function"
    },
    {
      "inputs": [
        {
          "internalType": "uint256",
          "name": "index",
          "type": "uint256"
        }
      ],
      "name": "tokenByIndex",
      "outputs": [
        {
          "internalType": "uint256",
          "name": "",
          "type": "uint256"
        }
      ],
      "stateMutability": "view",
      "type": "function"
    },
    {
      "inputs": [
        {
          "internalType": "address",
          "name": "owner",
          "type": "address"
        },
        {
          "internalType": "uint256",
          "name": "index",
          "type": "uint256"
        }
      ],
      "name": "tokenOfOwnerByIndex",
      "outputs": [
        {
          "internalType": "uint256",
          "name": "",
          "type": "uint256"
        }
      ],
      "stateMutability": "view",
      "type": "function"
    },
    {
      "inputs": [
        {
          "internalType": "uint256",
          "name": "tokenId",
          "type": "uint256"
        }
      ],
      "name": "tokenURI",
      "outputs": [
        {
          "internalType": "string",
          "name": "",
          "type": "string"
        }
      ],
      "stateMutability": "view",
      "type": "function"
    },
    {
      "inputs": [],
      "name": "totalSupply",
      "outputs": [
        {
          "internalType": "uint256",
          "name": "",
          "type": "uint256"
        }
      ],
      "stateMutability": "view",
      "type": "function"
    },
    {
      "inputs": [
        {
          "internalType": "address",
          "name": "from",
          "type": "address"
        },
        {
          "internalType": "address",
          "name": "to",
          "type": "address"
        },
        {
          "internalType": "uint256",
          "name": "tokenId",
          "type": "uint256"
        }
      ],
      "name": "transferFrom",
      "outputs": [],
      "stateMutability": "nonpayable",
      "type": "function"
    },
    {
      "inputs": [
        {
          "internalType": "string",
          "name": "_name",
          "type": "string"
        },
        {
          "internalType": "string",
          "name": "_symbol",
          "type": "string"
        },
        {
          "internalType": "uint256",
          "name": "_issue_num",
          "type": "uint256"
        },
        {
          "internalType": "uint256",
          "name": "_mint_date",
          "type": "uint256"
        }
      ],
      "name": "manifestAngelToken",
      "outputs": [],
      "stateMutability": "nonpayable",
      "type": "function"
    }
  ],
  "bytecode": "0x60806040526010600a55600a54600a0a600b553480156200001f57600080fd5b506040518060400160405280600a81526020017f416e67656c546f6b656e000000000000000000000000000000000000000000008152506040518060400160405280600581526020017f414e47454c000000000000000000000000000000000000000000000000000000815250620000a46301ffc9a760e01b6200012660201b60201c565b8160069080519060200190620000bc9291906200022f565b508060079080519060200190620000d59291906200022f565b50620000ee6380ac58cd60e01b6200012660201b60201c565b62000106635b5e139f60e01b6200012660201b60201c565b6200011e63780e9d6360e01b6200012660201b60201c565b5050620002d5565b63ffffffff60e01b817bffffffffffffffffffffffffffffffffffffffffffffffffffffffff19161415620001c3576040517f08c379a000000000000000000000000000000000000000000000000000000000815260040180806020018281038252601c8152602001807f4552433136353a20696e76616c696420696e746572666163652069640000000081525060200191505060405180910390fd5b6001600080837bffffffffffffffffffffffffffffffffffffffffffffffffffffffff19167bffffffffffffffffffffffffffffffffffffffffffffffffffffffff1916815260200190815260200160002060006101000a81548160ff02191690831515021790555050565b828054600181600116156101000203166002900490600052602060002090601f016020900481019282601f106200027257805160ff1916838001178555620002a3565b82800160010185558215620002a3579182015b82811115620002a257825182559160200191906001019062000285565b5b509050620002b29190620002b6565b5090565b5b80821115620002d1576000816000905550600101620002b7565b5090565b612bce80620002e56000396000f3fe608060405234801561001057600080fd5b50600436106101165760003560e01c80634f6ccce7116100a257806395d89b411161007157806395d89b41146106de578063a22cb46514610761578063b88d4fde146107b1578063c87b56dd146108b6578063e985e9c51461095d57610116565b80634f6ccce7146105695780636352211e146105ab5780636c0360eb1461060357806370a082311461068657610116565b806318160ddd116100e957806318160ddd146102a75780632347739c146102c557806323b872dd1461042b5780632f745c591461049957806342842e0e146104fb57610116565b806301ffc9a71461011b57806306fdde031461017e578063081812fc14610201578063095ea7b314610259575b600080fd5b6101666004803603602081101561013157600080fd5b8101908080357bffffffffffffffffffffffffffffffffffffffffffffffffffffffff191690602001909291905050506109d7565b60405180821515815260200191505060405180910390f35b610186610a3e565b6040518080602001828103825283818151815260200191508051906020019080838360005b838110156101c65780820151818401526020810190506101ab565b50505050905090810190601f1680156101f35780820380516001836020036101000a031916815260200191505b509250505060405180910390f35b61022d6004803603602081101561021757600080fd5b8101908080359060200190929190505050610ae0565b604051808273ffffffffffffffffffffffffffffffffffffffff16815260200191505060405180910390f35b6102a56004803603604081101561026f57600080fd5b81019080803573ffffffffffffffffffffffffffffffffffffffff16906020019092919080359060200190929190505050610b7b565b005b6102af610cbf565b6040518082815260200191505060405180910390f35b610429600480360360808110156102db57600080fd5b81019080803590602001906401000000008111156102f857600080fd5b82018360208201111561030a57600080fd5b8035906020019184600183028401116401000000008311171561032c57600080fd5b91908080601f016020809104026020016040519081016040528093929190818152602001838380828437600081840152601f19601f8201169050808301925050505050505091929192908035906020019064010000000081111561038f57600080fd5b8201836020820111156103a157600080fd5b803590602001918460018302840111640100000000831117156103c357600080fd5b91908080601f016020809104026020016040519081016040528093929190818152602001838380828437600081840152601f19601f8201169050808301925050505050505091929192908035906020019092919080359060200190929190505050610cd0565b005b6104976004803603606081101561044157600080fd5b81019080803573ffffffffffffffffffffffffffffffffffffffff169060200190929190803573ffffffffffffffffffffffffffffffffffffffff16906020019092919080359060200190929190505050610cf1565b005b6104e5600480360360408110156104af57600080fd5b81019080803573ffffffffffffffffffffffffffffffffffffffff16906020019092919080359060200190929190505050610d67565b6040518082815260200191505060405180910390f35b6105676004803603606081101561051157600080fd5b81019080803573ffffffffffffffffffffffffffffffffffffffff169060200190929190803573ffffffffffffffffffffffffffffffffffffffff16906020019092919080359060200190929190505050610dc2565b005b6105956004803603602081101561057f57600080fd5b8101908080359060200190929190505050610de2565b6040518082815260200191505060405180910390f35b6105d7600480360360208110156105c157600080fd5b8101908080359060200190929190505050610e05565b604051808273ffffffffffffffffffffffffffffffffffffffff16815260200191505060405180910390f35b61060b610e3c565b6040518080602001828103825283818151815260200191508051906020019080838360005b8381101561064b578082015181840152602081019050610630565b50505050905090810190601f1680156106785780820380516001836020036101000a031916815260200191505b509250505060405180910390f35b6106c86004803603602081101561069c57600080fd5b81019080803573ffffffffffffffffffffffffffffffffffffffff169060200190929190505050610ede565b6040518082815260200191505060405180910390f35b6106e6610fb3565b6040518080602001828103825283818151815260200191508051906020019080838360005b8381101561072657808201518184015260208101905061070b565b50505050905090810190601f1680156107535780820380516001836020036101000a031916815260200191505b509250505060405180910390f35b6107af6004803603604081101561077757600080fd5b81019080803573ffffffffffffffffffffffffffffffffffffffff169060200190929190803515159060200190929190505050611055565b005b6108b4600480360360808110156107c757600080fd5b81019080803573ffffffffffffffffffffffffffffffffffffffff169060200190929190803573ffffffffffffffffffffffffffffffffffffffff169060200190929190803590602001909291908035906020019064010000000081111561082e57600080fd5b82018360208201111561084057600080fd5b8035906020019184600183028401116401000000008311171561086257600080fd5b91908080601f016020809104026020016040519081016040528093929190818152602001838380828437600081840152601f19601f82011690508083019250505050505050919291929050505061120b565b005b6108e2600480360360208110156108cc57600080fd5b8101908080359060200190929190505050611283565b6040518080602001828103825283818151815260200191508051906020019080838360005b83811015610922578082015181840152602081019050610907565b50505050905090810190601f16801561094f5780820380516001836020036101000a031916815260200191505b509250505060405180910390f35b6109bf6004803603604081101561097357600080fd5b81019080803573ffffffffffffffffffffffffffffffffffffffff169060200190929190803573ffffffffffffffffffffffffffffffffffffffff16906020019092919050505061156c565b60405180821515815260200191505060405180910390f35b6000806000837bffffffffffffffffffffffffffffffffffffffffffffffffffffffff19167bffffffffffffffffffffffffffffffffffffffffffffffffffffffff1916815260200190815260200160002060009054906101000a900460ff169050919050565b606060068054600181600116156101000203166002900480601f016020809104026020016040519081016040528092919081815260200182805460018160011615610100020316600290048015610ad65780601f10610aab57610100808354040283529160200191610ad6565b820191906000526020600020905b815481529060010190602001808311610ab957829003601f168201915b5050505050905090565b6000610aeb82611600565b610b40576040517f08c379a000000000000000000000000000000000000000000000000000000000815260040180806020018281038252602c815260200180612ac3602c913960400191505060405180910390fd5b6004600083815260200190815260200160002060009054906101000a900473ffffffffffffffffffffffffffffffffffffffff169050919050565b6000610b8682610e05565b90508073ffffffffffffffffffffffffffffffffffffffff168373ffffffffffffffffffffffffffffffffffffffff161415610c0d576040517f08c379a0000000000000000000000000000000000000000000000000000000008152600401808060200182810382526021815260200180612b476021913960400191505060405180910390fd5b8073ffffffffffffffffffffffffffffffffffffffff16610c2c61161d565b73ffffffffffffffffffffffffffffffffffffffff161480610c5b5750610c5a81610c5561161d565b61156c565b5b610cb0576040517f08c379a0000000000000000000000000000000000000000000000000000000008152600401808060200182810382526038815260200180612a166038913960400191505060405180910390fd5b610cba8383611625565b505050565b6000610ccb60026116de565b905090565b6000610cdb856116f3565b9050610cea8585838686611781565b5050505050565b610d02610cfc61161d565b82611955565b610d57576040517f08c379a0000000000000000000000000000000000000000000000000000000008152600401808060200182810382526031815260200180612b686031913960400191505060405180910390fd5b610d62838383611a49565b505050565b6000610dba82600160008673ffffffffffffffffffffffffffffffffffffffff1673ffffffffffffffffffffffffffffffffffffffff168152602001908152602001600020611c8c90919063ffffffff16565b905092915050565b610ddd8383836040518060200160405280600081525061120b565b505050565b600080610df9836002611ca690919063ffffffff16565b50905080915050919050565b6000610e3582604051806060016040528060298152602001612a78602991396002611cd29092919063ffffffff16565b9050919050565b606060098054600181600116156101000203166002900480601f016020809104026020016040519081016040528092919081815260200182805460018160011615610100020316600290048015610ed45780601f10610ea957610100808354040283529160200191610ed4565b820191906000526020600020905b815481529060010190602001808311610eb757829003601f168201915b5050505050905090565b60008073ffffffffffffffffffffffffffffffffffffffff168273ffffffffffffffffffffffffffffffffffffffff161415610f65576040517f08c379a000000000000000000000000000000000000000000000000000000000815260040180806020018281038252602a815260200180612a4e602a913960400191505060405180910390fd5b610fac600160008473ffffffffffffffffffffffffffffffffffffffff1673ffffffffffffffffffffffffffffffffffffffff168152602001908152602001600020611cf1565b9050919050565b606060078054600181600116156101000203166002900480601f01602080910402602001604051908101604052809291908181526020018280546001816001161561010002031660029004801561104b5780601f106110205761010080835404028352916020019161104b565b820191906000526020600020905b81548152906001019060200180831161102e57829003601f168201915b5050505050905090565b61105d61161d565b73ffffffffffffffffffffffffffffffffffffffff168273ffffffffffffffffffffffffffffffffffffffff1614156110fe576040517f08c379a00000000000000000000000000000000000000000000000000000000081526004018080602001828103825260198152602001807f4552433732313a20617070726f766520746f2063616c6c65720000000000000081525060200191505060405180910390fd5b806005600061110b61161d565b73ffffffffffffffffffffffffffffffffffffffff1673ffffffffffffffffffffffffffffffffffffffff16815260200190815260200160002060008473ffffffffffffffffffffffffffffffffffffffff1673ffffffffffffffffffffffffffffffffffffffff16815260200190815260200160002060006101000a81548160ff0219169083151502179055508173ffffffffffffffffffffffffffffffffffffffff166111b861161d565b73ffffffffffffffffffffffffffffffffffffffff167f17307eab39ab6107e8899845ad3d59bd9653f200f220920489ca2b5937696c318360405180821515815260200191505060405180910390a35050565b61121c61121661161d565b83611955565b611271576040517f08c379a0000000000000000000000000000000000000000000000000000000008152600401808060200182810382526031815260200180612b686031913960400191505060405180910390fd5b61127d84848484611d06565b50505050565b606061128e82611600565b6112e3576040517f08c379a000000000000000000000000000000000000000000000000000000000815260040180806020018281038252602f815260200180612b18602f913960400191505060405180910390fd5b6060600860008481526020019081526020016000208054600181600116156101000203166002900480601f01602080910402602001604051908101604052809291908181526020018280546001816001161561010002031660029004801561138c5780601f106113615761010080835404028352916020019161138c565b820191906000526020600020905b81548152906001019060200180831161136f57829003601f168201915b505050505090506000600980546001816001161561010002031660029004905014156113bb5780915050611567565b6000815111156114945760098160405160200180838054600181600116156101000203166002900480156114265780601f10611404576101008083540402835291820191611426565b820191906000526020600020905b815481529060010190602001808311611412575b505082805190602001908083835b602083106114575780518252602082019150602081019050602083039250611434565b6001836020036101000a03801982511681845116808217855250505050505090500192505050604051602081830303815290604052915050611567565b600961149f84611d78565b60405160200180838054600181600116156101000203166002900480156114fd5780601f106114db5761010080835404028352918201916114fd565b820191906000526020600020905b8154815290600101906020018083116114e9575b505082805190602001908083835b6020831061152e578051825260208201915060208101905060208303925061150b565b6001836020036101000a038019825116818451168082178552505050505050905001925050506040516020818303038152906040529150505b919050565b6000600560008473ffffffffffffffffffffffffffffffffffffffff1673ffffffffffffffffffffffffffffffffffffffff16815260200190815260200160002060008373ffffffffffffffffffffffffffffffffffffffff1673ffffffffffffffffffffffffffffffffffffffff16815260200190815260200160002060009054906101000a900460ff16905092915050565b6000611616826002611ebf90919063ffffffff16565b9050919050565b600033905090565b816004600083815260200190815260200160002060006101000a81548173ffffffffffffffffffffffffffffffffffffffff021916908373ffffffffffffffffffffffffffffffffffffffff160217905550808273ffffffffffffffffffffffffffffffffffffffff1661169883610e05565b73ffffffffffffffffffffffffffffffffffffffff167f8c5be1e5ebec7d5bd14f71427d1e84f3dd0314c0f7b2291e5b200ac8c7c3b92560405160405180910390a45050565b60006116ec82600001611ed9565b9050919050565b600080826040516020018082805190602001908083835b6020831061172d578051825260208201915060208101905060208303925061170a565b6001836020036101000a0380198251168184511680821785525050505050509050019150506040516020818303038152906040528051906020012060001c9050600b54818161177857fe5b06915050919050565b600c6040518060a0016040528087815260200186815260200185815260200184815260200183815250908060018154018082558091505060019003906000526020600020906005020160009091909190915060008201518160000190805190602001906117ef9291906128ae565b50602082015181600101908051906020019061180c9291906128ae565b5060408201518160020155606082015181600301556080820151816004015550507f79336daac126b894ebb6661d37675794b63c30955395c9176d0cffb0105f522a8585858585604051808060200180602001868152602001858152602001848152602001838103835288818151815260200191508051906020019080838360005b838110156118a957808201518184015260208101905061188e565b50505050905090810190601f1680156118d65780820380516001836020036101000a031916815260200191505b50838103825287818151815260200191508051906020019080838360005b8381101561190f5780820151818401526020810190506118f4565b50505050905090810190601f16801561193c5780820380516001836020036101000a031916815260200191505b5097505050505050505060405180910390a15050505050565b600061196082611600565b6119b5576040517f08c379a000000000000000000000000000000000000000000000000000000000815260040180806020018281038252602c8152602001806129ea602c913960400191505060405180910390fd5b60006119c083610e05565b90508073ffffffffffffffffffffffffffffffffffffffff168473ffffffffffffffffffffffffffffffffffffffff161480611a2f57508373ffffffffffffffffffffffffffffffffffffffff16611a1784610ae0565b73ffffffffffffffffffffffffffffffffffffffff16145b80611a405750611a3f818561156c565b5b91505092915050565b8273ffffffffffffffffffffffffffffffffffffffff16611a6982610e05565b73ffffffffffffffffffffffffffffffffffffffff1614611ad5576040517f08c379a0000000000000000000000000000000000000000000000000000000008152600401808060200182810382526029815260200180612aef6029913960400191505060405180910390fd5b600073ffffffffffffffffffffffffffffffffffffffff168273ffffffffffffffffffffffffffffffffffffffff161415611b5b576040517f08c379a00000000000000000000000000000000000000000000000000000000081526004018080602001828103825260248152602001806129a06024913960400191505060405180910390fd5b611b66838383611eea565b611b71600082611625565b611bc281600160008673ffffffffffffffffffffffffffffffffffffffff1673ffffffffffffffffffffffffffffffffffffffff168152602001908152602001600020611eef90919063ffffffff16565b50611c1481600160008573ffffffffffffffffffffffffffffffffffffffff1673ffffffffffffffffffffffffffffffffffffffff168152602001908152602001600020611f0990919063ffffffff16565b50611c2b81836002611f239092919063ffffffff16565b50808273ffffffffffffffffffffffffffffffffffffffff168473ffffffffffffffffffffffffffffffffffffffff167fddf252ad1be2c89b69c2b068fc378daa952ba7f163c4a11628f55a4df523b3ef60405160405180910390a4505050565b6000611c9b8360000183611f58565b60001c905092915050565b600080600080611cb98660000186611fdb565b915091508160001c8160001c9350935050509250929050565b6000611ce5846000018460001b84612074565b60001c90509392505050565b6000611cff8260000161216a565b9050919050565b611d11848484611a49565b611d1d8484848461217b565b611d72576040517f08c379a000000000000000000000000000000000000000000000000000000000815260040180806020018281038252603281526020018061296e6032913960400191505060405180910390fd5b50505050565b60606000821415611dc0576040518060400160405280600181526020017f30000000000000000000000000000000000000000000000000000000000000008152509050611eba565b600082905060005b60008214611dea578080600101915050600a8281611de257fe5b049150611dc8565b60608167ffffffffffffffff81118015611e0357600080fd5b506040519080825280601f01601f191660200182016040528015611e365781602001600182028036833780820191505090505b50905060006001830390508593505b60008414611eb257600a8481611e5757fe5b0660300160f81b82828060019003935081518110611e7157fe5b60200101907effffffffffffffffffffffffffffffffffffffffffffffffffffffffffffff1916908160001a905350600a8481611eaa57fe5b049350611e45565b819450505050505b919050565b6000611ed1836000018360001b612394565b905092915050565b600081600001805490509050919050565b505050565b6000611f01836000018360001b6123b7565b905092915050565b6000611f1b836000018360001b61249f565b905092915050565b6000611f4f846000018460001b8473ffffffffffffffffffffffffffffffffffffffff1660001b61250f565b90509392505050565b600081836000018054905011611fb9576040517f08c379a000000000000000000000000000000000000000000000000000000000815260040180806020018281038252602281526020018061294c6022913960400191505060405180910390fd5b826000018281548110611fc857fe5b9060005260206000200154905092915050565b6000808284600001805490501161203d576040517f08c379a0000000000000000000000000000000000000000000000000000000008152600401808060200182810382526022815260200180612aa16022913960400191505060405180910390fd5b600084600001848154811061204e57fe5b906000526020600020906002020190508060000154816001015492509250509250929050565b6000808460010160008581526020019081526020016000205490506000811415839061213b576040517f08c379a00000000000000000000000000000000000000000000000000000000081526004018080602001828103825283818151815260200191508051906020019080838360005b838110156121005780820151818401526020810190506120e5565b50505050905090810190601f16801561212d5780820380516001836020036101000a031916815260200191505b509250505060405180910390fd5b5084600001600182038154811061214e57fe5b9060005260206000209060020201600101549150509392505050565b600081600001805490509050919050565b600061219c8473ffffffffffffffffffffffffffffffffffffffff166125eb565b6121a9576001905061238c565b606061231363150b7a0260e01b6121be61161d565b888787604051602401808573ffffffffffffffffffffffffffffffffffffffff1681526020018473ffffffffffffffffffffffffffffffffffffffff16815260200183815260200180602001828103825283818151815260200191508051906020019080838360005b83811015612242578082015181840152602081019050612227565b50505050905090810190601f16801561226f5780820380516001836020036101000a031916815260200191505b5095505050505050604051602081830303815290604052907bffffffffffffffffffffffffffffffffffffffffffffffffffffffff19166020820180517bffffffffffffffffffffffffffffffffffffffffffffffffffffffff838183161783525050505060405180606001604052806032815260200161296e603291398773ffffffffffffffffffffffffffffffffffffffff166125fe9092919063ffffffff16565b9050600081806020019051602081101561232c57600080fd5b8101908080519060200190929190505050905063150b7a0260e01b7bffffffffffffffffffffffffffffffffffffffffffffffffffffffff1916817bffffffffffffffffffffffffffffffffffffffffffffffffffffffff191614925050505b949350505050565b600080836001016000848152602001908152602001600020541415905092915050565b60008083600101600084815260200190815260200160002054905060008114612493576000600182039050600060018660000180549050039050600086600001828154811061240257fe5b906000526020600020015490508087600001848154811061241f57fe5b906000526020600020018190555060018301876001016000838152602001908152602001600020819055508660000180548061245757fe5b60019003818190600052602060002001600090559055866001016000878152602001908152602001600020600090556001945050505050612499565b60009150505b92915050565b60006124ab8383612616565b612504578260000182908060018154018082558091505060019003906000526020600020016000909190919091505582600001805490508360010160008481526020019081526020016000208190555060019050612509565b600090505b92915050565b60008084600101600085815260200190815260200160002054905060008114156125b6578460000160405180604001604052808681526020018581525090806001815401808255809150506001900390600052602060002090600202016000909190919091506000820151816000015560208201518160010155505084600001805490508560010160008681526020019081526020016000208190555060019150506125e4565b828560000160018303815481106125c957fe5b90600052602060002090600202016001018190555060009150505b9392505050565b600080823b905060008111915050919050565b606061260d8484600085612639565b90509392505050565b600080836001016000848152602001908152602001600020541415905092915050565b606082471015612694576040517f08c379a00000000000000000000000000000000000000000000000000000000081526004018080602001828103825260268152602001806129c46026913960400191505060405180910390fd5b61269d856125eb565b61270f576040517f08c379a000000000000000000000000000000000000000000000000000000000815260040180806020018281038252601d8152602001807f416464726573733a2063616c6c20746f206e6f6e2d636f6e747261637400000081525060200191505060405180910390fd5b600060608673ffffffffffffffffffffffffffffffffffffffff1685876040518082805190602001908083835b6020831061275f578051825260208201915060208101905060208303925061273c565b6001836020036101000a03801982511681845116808217855250505050505090500191505060006040518083038185875af1925050503d80600081146127c1576040519150601f19603f3d011682016040523d82523d6000602084013e6127c6565b606091505b50915091506127d68282866127e2565b92505050949350505050565b606083156127f2578290506128a7565b6000835111156128055782518084602001fd5b816040517f08c379a00000000000000000000000000000000000000000000000000000000081526004018080602001828103825283818151815260200191508051906020019080838360005b8381101561286c578082015181840152602081019050612851565b50505050905090810190601f1680156128995780820380516001836020036101000a031916815260200191505b509250505060405180910390fd5b9392505050565b828054600181600116156101000203166002900490600052602060002090601f016020900481019282601f106128ef57805160ff191683800117855561291d565b8280016001018555821561291d579182015b8281111561291c578251825591602001919060010190612901565b5b50905061292a919061292e565b5090565b5b8082111561294757600081600090555060010161292f565b509056fe456e756d657261626c655365743a20696e646578206f7574206f6620626f756e64734552433732313a207472616e7366657220746f206e6f6e20455243373231526563656976657220696d706c656d656e7465724552433732313a207472616e7366657220746f20746865207a65726f2061646472657373416464726573733a20696e73756666696369656e742062616c616e636520666f722063616c6c4552433732313a206f70657261746f7220717565727920666f72206e6f6e6578697374656e7420746f6b656e4552433732313a20617070726f76652063616c6c6572206973206e6f74206f776e6572206e6f7220617070726f76656420666f7220616c6c4552433732313a2062616c616e636520717565727920666f7220746865207a65726f20616464726573734552433732313a206f776e657220717565727920666f72206e6f6e6578697374656e7420746f6b656e456e756d657261626c654d61703a20696e646578206f7574206f6620626f756e64734552433732313a20617070726f76656420717565727920666f72206e6f6e6578697374656e7420746f6b656e4552433732313a207472616e73666572206f6620746f6b656e2074686174206973206e6f74206f776e4552433732314d657461646174613a2055524920717565727920666f72206e6f6e6578697374656e7420746f6b656e4552433732313a20617070726f76616c20746f2063757272656e74206f776e65724552433732313a207472616e736665722063616c6c6572206973206e6f74206f776e6572206e6f7220617070726f766564a26469706673582212207040f42ffebd31e52806741da5ba4029e214f7714e8c9a8f07a9c0a21d6cb0d064736f6c634300060c0033",
  "immutableReferences": {},
  "source": "pragma solidity >=0.4.21 <0.7.0;\n\nimport \"@openzeppelin/contracts/token/ERC721/ERC721.sol\";\nimport \"@openzeppelin/contracts/token/ERC721/ERC721.sol\";\nimport \"@openzeppelin/contracts/utils/Counters.sol\";\n//mad props to the crypto zombies tutorial!  Thanks!\ncontract AngelTokenManifestation is ERC721{\n  using SafeMath for uint256;\n  using Address for address;\n  using Counters for Counters.Counter;\n  // event emitted when AngelTokens are made. - anyone in the world can see that an Angel is on an Endeavor!\n  /* Counters.Counter private _tokenIds; */\n  /* State variables are stored in the blockchain */\n  uint256 iddig = 16;\n  uint256 idmod = 10 ** iddig;\n  struct AngelToken {\n    string name;  // name of the Angels endeavor\n     string symbol;\n      uint256 id;     //token identifier\n       uint256 issue_num; // the token number out of the total supply expressed as a fraction\n        uint256 _mint_date; // the date the Angel minted the particular issuance\n    /* string status;  // the status of the contract\n        string product; // the unit product being produced in the endeavor - a lb of coffee, a chocalate bar, a bar of soap, a board, solar panel, or your grandmas comfy undies\n         string cost; // the Unit Retail Cost of your product\n          string angel_coefficient; // coefficient of next round's profits\n     */\n  }\n  AngelToken[] angel_tokens;\n  event ManifestedAngelToken(\n       string _name,\n        string _symbol,\n         uint256 _id,\n          uint256 issue_num,\n           uint256 _mint_date\n         );\n  constructor()\n   ERC721(\"AngelToken\", \"ANGEL\") public {  //setup <-- run once like an init <-- pass in name and symbol as per ERC721 Standard\n  }\n  //create new Angel Token\n  function _tokenGenesis (\n    string memory _name,\n     string memory _symbol,\n      uint256 _id,\n       uint256 _issue_num,\n         uint256 _mint_date\n       /* string memory _status,\n        string memory _product,\n         string memory _cost,\n          string memory _angel_coefficient,\n            */\n            ) private {\n    angel_tokens.push( AngelToken(\n        _name,\n         _symbol,\n          _id,\n           _issue_num,\n            _mint_date\n           /* _status,\n            _product,\n             _cost,\n              _angel_coefficient\n               */\n                )\n      );\n    emit ManifestedAngelToken(\n           _name,\n            _symbol,\n             _id,\n              _issue_num,\n               _mint_date\n               );\n  }\n  // generate random id\n  function _idGenesis(string memory _str) private view returns (uint256) {\n    uint256 id = uint256(keccak256(abi.encodePacked(_str)));\n    return id % idmod;\n  }\n  // use id and passed in information to manifest an AngelToken\n  function manifestAngelToken(\n    string memory _name,\n     string memory _symbol,\n      uint256 _issue_num,\n       uint256 _mint_date\n      /* string memory _status,\n       string memory _product,\n        string memory _cost,\n         string memory _angel_coefficient,\n            */\n    ) public {\n      uint256 _id = _idGenesis(_name);\n      _tokenGenesis(\n        _name,\n         _symbol,\n          _id,\n           _issue_num,\n            _mint_date\n           /* _status,\n            _product,\n             _cost,\n              _angel_coefficient,\n               _mint_date,\n               */\n                );\n  }\n}\n",
  "sourcePath": "/Volumes/ETH/webApp4/contracts/AngelToken.sol",
  "compiler": {
    "name": "solc",
    "version": "0.6.12+commit.27d51765.Emscripten.clang"
  },
  "schemaVersion": "3.3.2",
  "updatedAt": "2020-12-09T21:16:11.051Z",
  "devdoc": {
    "kind": "dev",
    "methods": {
      "approve(address,uint256)": {
        "details": "See {IERC721-approve}."
      },
      "balanceOf(address)": {
        "details": "See {IERC721-balanceOf}."
      },
      "baseURI()": {
        "details": "Returns the base URI set via {_setBaseURI}. This will be automatically added as a prefix in {tokenURI} to each token's URI, or to the token ID if no specific URI is set for that token ID."
      },
      "getApproved(uint256)": {
        "details": "See {IERC721-getApproved}."
      },
      "isApprovedForAll(address,address)": {
        "details": "See {IERC721-isApprovedForAll}."
      },
      "name()": {
        "details": "See {IERC721Metadata-name}."
      },
      "ownerOf(uint256)": {
        "details": "See {IERC721-ownerOf}."
      },
      "safeTransferFrom(address,address,uint256)": {
        "details": "See {IERC721-safeTransferFrom}."
      },
      "safeTransferFrom(address,address,uint256,bytes)": {
        "details": "See {IERC721-safeTransferFrom}."
      },
      "setApprovalForAll(address,bool)": {
        "details": "See {IERC721-setApprovalForAll}."
      },
      "supportsInterface(bytes4)": {
        "details": "See {IERC165-supportsInterface}. Time complexity O(1), guaranteed to always use less than 30 000 gas."
      },
      "symbol()": {
        "details": "See {IERC721Metadata-symbol}."
      },
      "tokenByIndex(uint256)": {
        "details": "See {IERC721Enumerable-tokenByIndex}."
      },
      "tokenOfOwnerByIndex(address,uint256)": {
        "details": "See {IERC721Enumerable-tokenOfOwnerByIndex}."
      },
      "tokenURI(uint256)": {
        "details": "See {IERC721Metadata-tokenURI}."
      },
      "totalSupply()": {
        "details": "See {IERC721Enumerable-totalSupply}."
      },
      "transferFrom(address,address,uint256)": {
        "details": "See {IERC721-transferFrom}."
      }
    },
    "version": 1
  },
  "userdoc": {
    "kind": "user",
    "methods": {},
    "version": 1
  }
}