{
  "contractName": "AngelToken",
  "abi": [
    {
      "inputs": [],
      "stateMutability": "nonpayable",
      "type": "constructor"
    },
    {
      "anonymous": false,
      "inputs": [
        {
          "indexed": true,
          "internalType": "address",
          "name": "account",
          "type": "address"
        },
        {
          "indexed": true,
          "internalType": "address",
          "name": "operator",
          "type": "address"
        },
        {
          "indexed": false,
          "internalType": "bool",
          "name": "approved",
          "type": "bool"
        }
      ],
      "name": "ApprovalForAll",
      "type": "event"
    },
    {
      "anonymous": false,
      "inputs": [
        {
          "indexed": false,
          "internalType": "uint256",
          "name": "_id",
          "type": "uint256"
        },
        {
          "indexed": false,
          "internalType": "bool",
          "name": "progress",
          "type": "bool"
        }
      ],
      "name": "CrowdFundComplete",
      "type": "event"
    },
    {
      "anonymous": false,
      "inputs": [
        {
          "indexed": false,
          "internalType": "address",
          "name": "owner",
          "type": "address"
        },
        {
          "indexed": false,
          "internalType": "bytes",
          "name": "_uri",
          "type": "bytes"
        },
        {
          "indexed": false,
          "internalType": "string",
          "name": "_ename",
          "type": "string"
        },
        {
          "indexed": false,
          "internalType": "string",
          "name": "_esym",
          "type": "string"
        },
        {
          "indexed": false,
          "internalType": "uint256",
          "name": "_id",
          "type": "uint256"
        },
        {
          "indexed": false,
          "internalType": "bytes",
          "name": "mint_data",
          "type": "bytes"
        }
      ],
      "name": "ManifestedAngelToken",
      "type": "event"
    },
    {
      "anonymous": false,
      "inputs": [
        {
          "indexed": true,
          "internalType": "address",
          "name": "operator",
          "type": "address"
        },
        {
          "indexed": true,
          "internalType": "address",
          "name": "from",
          "type": "address"
        },
        {
          "indexed": true,
          "internalType": "address",
          "name": "to",
          "type": "address"
        },
        {
          "indexed": false,
          "internalType": "uint256[]",
          "name": "ids",
          "type": "uint256[]"
        },
        {
          "indexed": false,
          "internalType": "uint256[]",
          "name": "values",
          "type": "uint256[]"
        }
      ],
      "name": "TransferBatch",
      "type": "event"
    },
    {
      "anonymous": false,
      "inputs": [
        {
          "indexed": true,
          "internalType": "address",
          "name": "operator",
          "type": "address"
        },
        {
          "indexed": true,
          "internalType": "address",
          "name": "from",
          "type": "address"
        },
        {
          "indexed": true,
          "internalType": "address",
          "name": "to",
          "type": "address"
        },
        {
          "indexed": false,
          "internalType": "uint256",
          "name": "id",
          "type": "uint256"
        },
        {
          "indexed": false,
          "internalType": "uint256",
          "name": "value",
          "type": "uint256"
        }
      ],
      "name": "TransferSingle",
      "type": "event"
    },
    {
      "anonymous": false,
      "inputs": [
        {
          "indexed": false,
          "internalType": "string",
          "name": "value",
          "type": "string"
        },
        {
          "indexed": true,
          "internalType": "uint256",
          "name": "id",
          "type": "uint256"
        }
      ],
      "name": "URI",
      "type": "event"
    },
    {
      "anonymous": false,
      "inputs": [
        {
          "indexed": false,
          "internalType": "bytes",
          "name": "data_update",
          "type": "bytes"
        }
      ],
      "name": "update",
      "type": "event"
    },
    {
      "inputs": [],
      "name": "CafLaMAccount",
      "outputs": [
        {
          "internalType": "address payable",
          "name": "",
          "type": "address"
        }
      ],
      "stateMutability": "view",
      "type": "function",
      "constant": true
    },
    {
      "inputs": [
        {
          "internalType": "uint256",
          "name": "",
          "type": "uint256"
        }
      ],
      "name": "CafLaM_angels_list",
      "outputs": [
        {
          "internalType": "address",
          "name": "",
          "type": "address"
        }
      ],
      "stateMutability": "view",
      "type": "function",
      "constant": true
    },
    {
      "inputs": [
        {
          "internalType": "uint256",
          "name": "",
          "type": "uint256"
        },
        {
          "internalType": "address",
          "name": "",
          "type": "address"
        }
      ],
      "name": "CafLaM_angels_map",
      "outputs": [
        {
          "internalType": "uint256",
          "name": "",
          "type": "uint256"
        }
      ],
      "stateMutability": "view",
      "type": "function",
      "constant": true
    },
    {
      "inputs": [],
      "name": "OA",
      "outputs": [
        {
          "internalType": "address payable",
          "name": "",
          "type": "address"
        }
      ],
      "stateMutability": "view",
      "type": "function",
      "constant": true
    },
    {
      "inputs": [
        {
          "internalType": "uint256",
          "name": "",
          "type": "uint256"
        }
      ],
      "name": "alms",
      "outputs": [
        {
          "internalType": "address",
          "name": "owner",
          "type": "address"
        },
        {
          "internalType": "bytes",
          "name": "uri",
          "type": "bytes"
        },
        {
          "internalType": "string",
          "name": "name",
          "type": "string"
        },
        {
          "internalType": "string",
          "name": "sym",
          "type": "string"
        },
        {
          "internalType": "uint256",
          "name": "id",
          "type": "uint256"
        },
        {
          "internalType": "bytes",
          "name": "mint_data",
          "type": "bytes"
        }
      ],
      "stateMutability": "view",
      "type": "function",
      "constant": true
    },
    {
      "inputs": [
        {
          "internalType": "address",
          "name": "account",
          "type": "address"
        },
        {
          "internalType": "uint256",
          "name": "id",
          "type": "uint256"
        }
      ],
      "name": "balanceOf",
      "outputs": [
        {
          "internalType": "uint256",
          "name": "",
          "type": "uint256"
        }
      ],
      "stateMutability": "view",
      "type": "function",
      "constant": true
    },
    {
      "inputs": [
        {
          "internalType": "address[]",
          "name": "accounts",
          "type": "address[]"
        },
        {
          "internalType": "uint256[]",
          "name": "ids",
          "type": "uint256[]"
        }
      ],
      "name": "balanceOfBatch",
      "outputs": [
        {
          "internalType": "uint256[]",
          "name": "",
          "type": "uint256[]"
        }
      ],
      "stateMutability": "view",
      "type": "function",
      "constant": true
    },
    {
      "inputs": [
        {
          "internalType": "address",
          "name": "account",
          "type": "address"
        },
        {
          "internalType": "address",
          "name": "operator",
          "type": "address"
        }
      ],
      "name": "isApprovedForAll",
      "outputs": [
        {
          "internalType": "bool",
          "name": "",
          "type": "bool"
        }
      ],
      "stateMutability": "view",
      "type": "function",
      "constant": true
    },
    {
      "inputs": [
        {
          "internalType": "uint256",
          "name": "",
          "type": "uint256"
        }
      ],
      "name": "is_on_manifest",
      "outputs": [
        {
          "internalType": "bool",
          "name": "",
          "type": "bool"
        }
      ],
      "stateMutability": "view",
      "type": "function",
      "constant": true
    },
    {
      "inputs": [
        {
          "internalType": "uint256",
          "name": "",
          "type": "uint256"
        }
      ],
      "name": "map_id_to_Alm",
      "outputs": [
        {
          "internalType": "address",
          "name": "owner",
          "type": "address"
        },
        {
          "internalType": "bytes",
          "name": "uri",
          "type": "bytes"
        },
        {
          "internalType": "string",
          "name": "name",
          "type": "string"
        },
        {
          "internalType": "string",
          "name": "sym",
          "type": "string"
        },
        {
          "internalType": "uint256",
          "name": "id",
          "type": "uint256"
        },
        {
          "internalType": "bytes",
          "name": "mint_data",
          "type": "bytes"
        }
      ],
      "stateMutability": "view",
      "type": "function",
      "constant": true
    },
    {
      "inputs": [
        {
          "internalType": "address",
          "name": "",
          "type": "address"
        }
      ],
      "name": "map_owner_to_id",
      "outputs": [
        {
          "internalType": "uint256",
          "name": "",
          "type": "uint256"
        }
      ],
      "stateMutability": "view",
      "type": "function",
      "constant": true
    },
    {
      "inputs": [
        {
          "internalType": "string",
          "name": "",
          "type": "string"
        }
      ],
      "name": "map_uri_to_Alm",
      "outputs": [
        {
          "internalType": "address",
          "name": "owner",
          "type": "address"
        },
        {
          "internalType": "bytes",
          "name": "uri",
          "type": "bytes"
        },
        {
          "internalType": "string",
          "name": "name",
          "type": "string"
        },
        {
          "internalType": "string",
          "name": "sym",
          "type": "string"
        },
        {
          "internalType": "uint256",
          "name": "id",
          "type": "uint256"
        },
        {
          "internalType": "bytes",
          "name": "mint_data",
          "type": "bytes"
        }
      ],
      "stateMutability": "view",
      "type": "function",
      "constant": true
    },
    {
      "inputs": [
        {
          "internalType": "address",
          "name": "from",
          "type": "address"
        },
        {
          "internalType": "address",
          "name": "to",
          "type": "address"
        },
        {
          "internalType": "uint256[]",
          "name": "ids",
          "type": "uint256[]"
        },
        {
          "internalType": "uint256[]",
          "name": "amounts",
          "type": "uint256[]"
        },
        {
          "internalType": "bytes",
          "name": "data",
          "type": "bytes"
        }
      ],
      "name": "safeBatchTransferFrom",
      "outputs": [],
      "stateMutability": "nonpayable",
      "type": "function"
    },
    {
      "inputs": [
        {
          "internalType": "address",
          "name": "from",
          "type": "address"
        },
        {
          "internalType": "address",
          "name": "to",
          "type": "address"
        },
        {
          "internalType": "uint256",
          "name": "id",
          "type": "uint256"
        },
        {
          "internalType": "uint256",
          "name": "amount",
          "type": "uint256"
        },
        {
          "internalType": "bytes",
          "name": "data",
          "type": "bytes"
        }
      ],
      "name": "safeTransferFrom",
      "outputs": [],
      "stateMutability": "nonpayable",
      "type": "function"
    },
    {
      "inputs": [
        {
          "internalType": "address",
          "name": "operator",
          "type": "address"
        },
        {
          "internalType": "bool",
          "name": "approved",
          "type": "bool"
        }
      ],
      "name": "setApprovalForAll",
      "outputs": [],
      "stateMutability": "nonpayable",
      "type": "function"
    },
    {
      "inputs": [
        {
          "internalType": "bytes4",
          "name": "interfaceId",
          "type": "bytes4"
        }
      ],
      "name": "supportsInterface",
      "outputs": [
        {
          "internalType": "bool",
          "name": "",
          "type": "bool"
        }
      ],
      "stateMutability": "view",
      "type": "function",
      "constant": true
    },
    {
      "inputs": [
        {
          "internalType": "uint256",
          "name": "",
          "type": "uint256"
        }
      ],
      "name": "uri",
      "outputs": [
        {
          "internalType": "string",
          "name": "",
          "type": "string"
        }
      ],
      "stateMutability": "view",
      "type": "function",
      "constant": true
    },
    {
      "inputs": [
        {
          "internalType": "string",
          "name": "_ename",
          "type": "string"
        },
        {
          "internalType": "string",
          "name": "_esym",
          "type": "string"
        },
        {
          "internalType": "uint256",
          "name": "_num_to_issue",
          "type": "uint256"
        },
        {
          "internalType": "string",
          "name": "_mint_date",
          "type": "string"
        },
        {
          "internalType": "uint256",
          "name": "_cost",
          "type": "uint256"
        },
        {
          "internalType": "uint256",
          "name": "_angel_coefficient",
          "type": "uint256"
        },
        {
          "internalType": "string",
          "name": "_product",
          "type": "string"
        }
      ],
      "name": "tokenGenesis",
      "outputs": [],
      "stateMutability": "nonpayable",
      "type": "function"
    },
    {
      "inputs": [],
      "name": "getAlmsLength",
      "outputs": [
        {
          "internalType": "uint256",
          "name": "",
          "type": "uint256"
        }
      ],
      "stateMutability": "view",
      "type": "function",
      "constant": true
    },
    {
      "inputs": [
        {
          "internalType": "address payable",
          "name": "_owner",
          "type": "address"
        },
        {
          "internalType": "address",
          "name": "_buyer",
          "type": "address"
        },
        {
          "internalType": "uint256",
          "name": "_id",
          "type": "uint256"
        },
        {
          "internalType": "uint256",
          "name": "_amount",
          "type": "uint256"
        },
        {
          "internalType": "bytes",
          "name": "_data",
          "type": "bytes"
        },
        {
          "internalType": "uint256",
          "name": "cost",
          "type": "uint256"
        }
      ],
      "name": "buyAlms",
      "outputs": [],
      "stateMutability": "payable",
      "type": "function",
      "payable": true
    },
    {
      "inputs": [],
      "name": "seed_round",
      "outputs": [],
      "stateMutability": "payable",
      "type": "function",
      "payable": true
    },
    {
      "inputs": [
        {
          "internalType": "uint256",
          "name": "_last_rnd_id",
          "type": "uint256"
        }
      ],
      "name": "payout_last",
      "outputs": [],
      "stateMutability": "payable",
      "type": "function",
      "payable": true
    },
    {
      "inputs": [
        {
          "internalType": "uint256",
          "name": "_id",
          "type": "uint256"
        },
        {
          "internalType": "bool",
          "name": "is_shipping",
          "type": "bool"
        }
      ],
      "name": "change_status_s",
      "outputs": [],
      "stateMutability": "payable",
      "type": "function",
      "payable": true
    }
  ],
  "bytecode": "0x608060405233600860006101000a81548173ffffffffffffffffffffffffffffffffffffffff021916908373ffffffffffffffffffffffffffffffffffffffff160217905550736c22c362dfca710aa757e26c4b4961bb1db00a0e600960006101000a81548173ffffffffffffffffffffffffffffffffffffffff021916908373ffffffffffffffffffffffffffffffffffffffff1602179055506000600c55348015620000ac57600080fd5b506040518060600160405280603881526020016200622460389139620000df6301ffc9a760e01b6200012760201b60201c565b620000f0816200023060201b60201c565b6200010863d9b67a2660e01b6200012760201b60201c565b62000120630e89341c60e01b6200012760201b60201c565b50620002f2565b63ffffffff60e01b817bffffffffffffffffffffffffffffffffffffffffffffffffffffffff19161415620001c4576040517f08c379a000000000000000000000000000000000000000000000000000000000815260040180806020018281038252601c8152602001807f4552433136353a20696e76616c696420696e746572666163652069640000000081525060200191505060405180910390fd5b6001600080837bffffffffffffffffffffffffffffffffffffffffffffffffffffffff19167bffffffffffffffffffffffffffffffffffffffffffffffffffffffff1916815260200190815260200160002060006101000a81548160ff02191690831515021790555050565b8060039080519060200190620002489291906200024c565b5050565b828054600181600116156101000203166002900490600052602060002090601f016020900481019282601f106200028f57805160ff1916838001178555620002c0565b82800160010185558215620002c0579182015b82811115620002bf578251825591602001919060010190620002a2565b5b509050620002cf9190620002d3565b5090565b5b80821115620002ee576000816000905550600101620002d4565b5090565b615f2280620003026000396000f3fe60806040526004361061013e5760003560e01c80635d91889a116100b6578063caae5f941161006f578063caae5f9414611193578063cf719ca0146111d4578063d2a55e33146111de578063e40c0332146113fa578063e985e9c51461145f578063f242432a146114e65761013e565b80635d91889a14610af157806376cdf22414610b1c578063a22cb46514610dc7578063a2fe5f6f14610e24578063a32212d814611040578063bb0c15cf1461107a5761013e565b80632ba5d427116101085780632ba5d427146103455780632eb2c2d6146105ee578063306e81cb1461081e5780634b8ae8cd1461088d5780634e1273f4146108de578063590743e514610a8c5761013e565b8062f2f94c14610143578062fdd58e1461017157806301ffc9a7146101e057806303a9c3d7146102505780630e89341c14610291575b600080fd5b61016f6004803603602081101561015957600080fd5b8101908080359060200190929190505050611602565b005b34801561017d57600080fd5b506101ca6004803603604081101561019457600080fd5b81019080803573ffffffffffffffffffffffffffffffffffffffff16906020019092919080359060200190929190505050611e22565b6040518082815260200191505060405180910390f35b3480156101ec57600080fd5b506102386004803603602081101561020357600080fd5b8101908080357bffffffffffffffffffffffffffffffffffffffffffffffffffffffff19169060200190929190505050611f02565b60405180821515815260200191505060405180910390f35b34801561025c57600080fd5b50610265611f69565b604051808273ffffffffffffffffffffffffffffffffffffffff16815260200191505060405180910390f35b34801561029d57600080fd5b506102ca600480360360208110156102b457600080fd5b8101908080359060200190929190505050611f8f565b6040518080602001828103825283818151815260200191508051906020019080838360005b8381101561030a5780820151818401526020810190506102ef565b50505050905090810190601f1680156103375780820380516001836020036101000a031916815260200191505b509250505060405180910390f35b34801561035157600080fd5b5061040b6004803603602081101561036857600080fd5b810190808035906020019064010000000081111561038557600080fd5b82018360208201111561039757600080fd5b803590602001918460018302840111640100000000831117156103b957600080fd5b91908080601f016020809104026020016040519081016040528093929190818152602001838380828437600081840152601f19601f820116905080830192505050505050509192919290505050612033565b604051808773ffffffffffffffffffffffffffffffffffffffff1681526020018060200180602001806020018681526020018060200185810385528a818151815260200191508051906020019080838360005b8381101561047957808201518184015260208101905061045e565b50505050905090810190601f1680156104a65780820380516001836020036101000a031916815260200191505b50858103845289818151815260200191508051906020019080838360005b838110156104df5780820151818401526020810190506104c4565b50505050905090810190601f16801561050c5780820380516001836020036101000a031916815260200191505b50858103835288818151815260200191508051906020019080838360005b8381101561054557808201518184015260208101905061052a565b50505050905090810190601f1680156105725780820380516001836020036101000a031916815260200191505b50858103825286818151815260200191508051906020019080838360005b838110156105ab578082015181840152602081019050610590565b50505050905090810190601f1680156105d85780820380516001836020036101000a031916815260200191505b509a505050505050505050505060405180910390f35b3480156105fa57600080fd5b5061081c600480360360a081101561061157600080fd5b81019080803573ffffffffffffffffffffffffffffffffffffffff169060200190929190803573ffffffffffffffffffffffffffffffffffffffff1690602001909291908035906020019064010000000081111561066e57600080fd5b82018360208201111561068057600080fd5b803590602001918460208302840111640100000000831117156106a257600080fd5b919080806020026020016040519081016040528093929190818152602001838360200280828437600081840152601f19601f8201169050808301925050505050505091929192908035906020019064010000000081111561070257600080fd5b82018360208201111561071457600080fd5b8035906020019184602083028401116401000000008311171561073657600080fd5b919080806020026020016040519081016040528093929190818152602001838360200280828437600081840152601f19601f8201169050808301925050505050505091929192908035906020019064010000000081111561079657600080fd5b8201836020820111156107a857600080fd5b803590602001918460018302840111640100000000831117156107ca57600080fd5b91908080601f016020809104026020016040519081016040528093929190818152602001838380828437600081840152601f19601f820116905080830192505050505050509192919290505050612305565b005b34801561082a57600080fd5b506108776004803603604081101561084157600080fd5b8101908080359060200190929190803573ffffffffffffffffffffffffffffffffffffffff169060200190929190505050612790565b6040518082815260200191505060405180910390f35b34801561089957600080fd5b506108c6600480360360208110156108b057600080fd5b81019080803590602001909291905050506127b5565b60405180821515815260200191505060405180910390f35b3480156108ea57600080fd5b50610a356004803603604081101561090157600080fd5b810190808035906020019064010000000081111561091e57600080fd5b82018360208201111561093057600080fd5b8035906020019184602083028401116401000000008311171561095257600080fd5b919080806020026020016040519081016040528093929190818152602001838360200280828437600081840152601f19601f820116905080830192505050505050509192919290803590602001906401000000008111156109b257600080fd5b8201836020820111156109c457600080fd5b803590602001918460208302840111640100000000831117156109e657600080fd5b919080806020026020016040519081016040528093929190818152602001838360200280828437600081840152601f19601f8201169050808301925050505050505091929192905050506127d5565b6040518080602001828103825283818151815260200191508051906020019060200280838360005b83811015610a78578082015181840152602081019050610a5d565b505050509050019250505060405180910390f35b348015610a9857600080fd5b50610adb60048036036020811015610aaf57600080fd5b81019080803573ffffffffffffffffffffffffffffffffffffffff1690602001909291905050506129c7565b6040518082815260200191505060405180910390f35b348015610afd57600080fd5b50610b066129df565b6040518082815260200191505060405180910390f35b348015610b2857600080fd5b50610dc5600480360360e0811015610b3f57600080fd5b8101908080359060200190640100000000811115610b5c57600080fd5b820183602082011115610b6e57600080fd5b80359060200191846001830284011164010000000083111715610b9057600080fd5b91908080601f016020809104026020016040519081016040528093929190818152602001838380828437600081840152601f19601f82011690508083019250505050505050919291929080359060200190640100000000811115610bf357600080fd5b820183602082011115610c0557600080fd5b80359060200191846001830284011164010000000083111715610c2757600080fd5b91908080601f016020809104026020016040519081016040528093929190818152602001838380828437600081840152601f19601f8201169050808301925050505050505091929192908035906020019092919080359060200190640100000000811115610c9457600080fd5b820183602082011115610ca657600080fd5b80359060200191846001830284011164010000000083111715610cc857600080fd5b91908080601f016020809104026020016040519081016040528093929190818152602001838380828437600081840152601f19601f820116905080830192505050505050509192919290803590602001909291908035906020019092919080359060200190640100000000811115610d3f57600080fd5b820183602082011115610d5157600080fd5b80359060200191846001830284011164010000000083111715610d7357600080fd5b91908080601f016020809104026020016040519081016040528093929190818152602001838380828437600081840152601f19601f8201169050808301925050505050505091929192905050506129ec565b005b348015610dd357600080fd5b50610e2260048036036040811015610dea57600080fd5b81019080803573ffffffffffffffffffffffffffffffffffffffff1690602001909291908035151590602001909291905050506130ec565b005b348015610e3057600080fd5b50610e5d60048036036020811015610e4757600080fd5b8101908080359060200190929190505050613285565b604051808773ffffffffffffffffffffffffffffffffffffffff1681526020018060200180602001806020018681526020018060200185810385528a818151815260200191508051906020019080838360005b83811015610ecb578082015181840152602081019050610eb0565b50505050905090810190601f168015610ef85780820380516001836020036101000a031916815260200191505b50858103845289818151815260200191508051906020019080838360005b83811015610f31578082015181840152602081019050610f16565b50505050905090810190601f168015610f5e5780820380516001836020036101000a031916815260200191505b50858103835288818151815260200191508051906020019080838360005b83811015610f97578082015181840152602081019050610f7c565b50505050905090810190601f168015610fc45780820380516001836020036101000a031916815260200191505b50858103825286818151815260200191508051906020019080838360005b83811015610ffd578082015181840152602081019050610fe2565b50505050905090810190601f16801561102a5780820380516001836020036101000a031916815260200191505b509a505050505050505050505060405180910390f35b6110786004803603604081101561105657600080fd5b8101908080359060200190929190803515159060200190929190505050613541565b005b611191600480360360c081101561109057600080fd5b81019080803573ffffffffffffffffffffffffffffffffffffffff169060200190929190803573ffffffffffffffffffffffffffffffffffffffff16906020019092919080359060200190929190803590602001909291908035906020019064010000000081111561110157600080fd5b82018360208201111561111357600080fd5b8035906020019184600183028401116401000000008311171561113557600080fd5b91908080601f016020809104026020016040519081016040528093929190818152602001838380828437600081840152601f19601f82011690508083019250505050505050919291929080359060200190929190505050613d54565b005b34801561119f57600080fd5b506111a8614026565b604051808273ffffffffffffffffffffffffffffffffffffffff16815260200191505060405180910390f35b6111dc61404c565b005b3480156111ea57600080fd5b506112176004803603602081101561120157600080fd5b81019080803590602001909291905050506140ce565b604051808773ffffffffffffffffffffffffffffffffffffffff1681526020018060200180602001806020018681526020018060200185810385528a818151815260200191508051906020019080838360005b8381101561128557808201518184015260208101905061126a565b50505050905090810190601f1680156112b25780820380516001836020036101000a031916815260200191505b50858103845289818151815260200191508051906020019080838360005b838110156112eb5780820151818401526020810190506112d0565b50505050905090810190601f1680156113185780820380516001836020036101000a031916815260200191505b50858103835288818151815260200191508051906020019080838360005b83811015611351578082015181840152602081019050611336565b50505050905090810190601f16801561137e5780820380516001836020036101000a031916815260200191505b50858103825286818151815260200191508051906020019080838360005b838110156113b757808201518184015260208101905061139c565b50505050905090810190601f1680156113e45780820380516001836020036101000a031916815260200191505b509a505050505050505050505060405180910390f35b34801561140657600080fd5b506114336004803603602081101561141d57600080fd5b8101908080359060200190929190505050614397565b604051808273ffffffffffffffffffffffffffffffffffffffff16815260200191505060405180910390f35b34801561146b57600080fd5b506114ce6004803603604081101561148257600080fd5b81019080803573ffffffffffffffffffffffffffffffffffffffff169060200190929190803573ffffffffffffffffffffffffffffffffffffffff1690602001909291905050506143d3565b60405180821515815260200191505060405180910390f35b3480156114f257600080fd5b50611600600480360360a081101561150957600080fd5b81019080803573ffffffffffffffffffffffffffffffffffffffff169060200190929190803573ffffffffffffffffffffffffffffffffffffffff16906020019092919080359060200190929190803590602001909291908035906020019064010000000081111561157a57600080fd5b82018360208201111561158c57600080fd5b803590602001918460018302840111640100000000831117156115ae57600080fd5b91908080601f016020809104026020016040519081016040528093929190818152602001838380828437600081840152601f19601f820116905080830192505050505050509192919290505050614467565b005b61160a615ab7565b600660008381526020019081526020016000206040518060c00160405290816000820160009054906101000a900473ffffffffffffffffffffffffffffffffffffffff1673ffffffffffffffffffffffffffffffffffffffff1673ffffffffffffffffffffffffffffffffffffffff168152602001600182018054600181600116156101000203166002900480601f0160208091040260200160405190810160405280929190818152602001828054600181600116156101000203166002900480156117175780601f106116ec57610100808354040283529160200191611717565b820191906000526020600020905b8154815290600101906020018083116116fa57829003601f168201915b50505050508152602001600282018054600181600116156101000203166002900480601f0160208091040260200160405190810160405280929190818152602001828054600181600116156101000203166002900480156117b95780601f1061178e576101008083540402835291602001916117b9565b820191906000526020600020905b81548152906001019060200180831161179c57829003601f168201915b50505050508152602001600382018054600181600116156101000203166002900480601f01602080910402602001604051908101604052809291908181526020018280546001816001161561010002031660029004801561185b5780601f106118305761010080835404028352916020019161185b565b820191906000526020600020905b81548152906001019060200180831161183e57829003601f168201915b5050505050815260200160048201548152602001600582018054600181600116156101000203166002900480601f0160208091040260200160405190810160405280929190818152602001828054600181600116156101000203166002900480156119075780601f106118dc57610100808354040283529160200191611907565b820191906000526020600020905b8154815290600101906020018083116118ea57829003601f168201915b505050505081525050905060006060600080600060608660a0015180602001905160c081101561193657600080fd5b81019080805190602001909291908051604051939291908464010000000082111561196057600080fd5b8382019150602082018581111561197657600080fd5b825186600182028301116401000000008211171561199357600080fd5b8083526020830192505050908051906020019080838360005b838110156119c75780820151818401526020810190506119ac565b50505050905090810190601f1680156119f45780820380516001836020036101000a031916815260200191505b5060405260200180519060200190929190805190602001909291908051906020019092919080516040519392919084640100000000821115611a3557600080fd5b83820191506020820185811115611a4b57600080fd5b8251866001820283011164010000000082111715611a6857600080fd5b8083526020830192505050908051906020019080838360005b83811015611a9c578082015181840152602081019050611a81565b50505050905090810190601f168015611ac95780820380516001836020036101000a031916815260200191505b50604052505050809650819750829850839950849a50859b5050505050505060008685029050600061157c9050600081830390506000600190505b600b805490508111611b7a576000600b8281548110611b1f57fe5b9060005260206000200160009054906101000a900473ffffffffffffffffffffffffffffffffffffffff1690506000611b58828f611e22565b905060008982028581611b6757fe5b0490505050508080600101915050611b04565b5060049450888888888888604051602001808781526020018060200186815260200185815260200184815260200180602001838103835288818151815260200191508051906020019080838360005b83811015611be4578082015181840152602081019050611bc9565b50505050905090810190601f168015611c115780820380516001836020036101000a031916815260200191505b50838103825284818151815260200191508051906020019080838360005b83811015611c4a578082015181840152602081019050611c2f565b50505050905090810190601f168015611c775780820380516001836020036101000a031916815260200191505b50985050505050505050506040516020818303038152906040528a60a001819052507fc43ed2c8264cc70dc90c0d430a1c2d57143226c3dfff2c62631940e04ef205368a60a001516040518080602001828103825283818151815260200191508051906020019080838360005b83811015611cff578082015181840152602081019050611ce4565b50505050905090810190601f168015611d2c5780820380516001836020036101000a031916815260200191505b509250505060405180910390a189600660008d815260200190815260200160002060008201518160000160006101000a81548173ffffffffffffffffffffffffffffffffffffffff021916908373ffffffffffffffffffffffffffffffffffffffff1602179055506020820151816001019080519060200190611db0929190615b03565b506040820151816002019080519060200190611dcd929190615b83565b506060820151816003019080519060200190611dea929190615b83565b506080820151816004015560a0820151816005019080519060200190611e11929190615b03565b509050505050505050505050505050565b60008073ffffffffffffffffffffffffffffffffffffffff168373ffffffffffffffffffffffffffffffffffffffff161415611ea9576040517f08c379a000000000000000000000000000000000000000000000000000000000815260040180806020018281038252602b815260200180615d51602b913960400191505060405180910390fd5b6001600083815260200190815260200160002060008473ffffffffffffffffffffffffffffffffffffffff1673ffffffffffffffffffffffffffffffffffffffff16815260200190815260200160002054905092915050565b6000806000837bffffffffffffffffffffffffffffffffffffffffffffffffffffffff19167bffffffffffffffffffffffffffffffffffffffffffffffffffffffff1916815260200190815260200160002060009054906101000a900460ff169050919050565b600860009054906101000a900473ffffffffffffffffffffffffffffffffffffffff1681565b606060038054600181600116156101000203166002900480601f0160208091040260200160405190810160405280929190818152602001828054600181600116156101000203166002900480156120275780601f10611ffc57610100808354040283529160200191612027565b820191906000526020600020905b81548152906001019060200180831161200a57829003601f168201915b50505050509050919050565b6007818051602081018201805184825260208301602085012081835280955050505050506000915090508060000160009054906101000a900473ffffffffffffffffffffffffffffffffffffffff1690806001018054600181600116156101000203166002900480601f01602080910402602001604051908101604052809291908181526020018280546001816001161561010002031660029004801561211b5780601f106120f05761010080835404028352916020019161211b565b820191906000526020600020905b8154815290600101906020018083116120fe57829003601f168201915b505050505090806002018054600181600116156101000203166002900480601f0160208091040260200160405190810160405280929190818152602001828054600181600116156101000203166002900480156121b95780601f1061218e576101008083540402835291602001916121b9565b820191906000526020600020905b81548152906001019060200180831161219c57829003601f168201915b505050505090806003018054600181600116156101000203166002900480601f0160208091040260200160405190810160405280929190818152602001828054600181600116156101000203166002900480156122575780601f1061222c57610100808354040283529160200191612257565b820191906000526020600020905b81548152906001019060200180831161223a57829003601f168201915b505050505090806004015490806005018054600181600116156101000203166002900480601f0160208091040260200160405190810160405280929190818152602001828054600181600116156101000203166002900480156122fb5780601f106122d0576101008083540402835291602001916122fb565b820191906000526020600020905b8154815290600101906020018083116122de57829003601f168201915b5050505050905086565b815183511461235f576040517f08c379a0000000000000000000000000000000000000000000000000000000008152600401808060200182810382526028815260200180615ea46028913960400191505060405180910390fd5b600073ffffffffffffffffffffffffffffffffffffffff168473ffffffffffffffffffffffffffffffffffffffff1614156123e5576040517f08c379a0000000000000000000000000000000000000000000000000000000008152600401808060200182810382526025815260200180615dd16025913960400191505060405180910390fd5b6123ed6147db565b73ffffffffffffffffffffffffffffffffffffffff168573ffffffffffffffffffffffffffffffffffffffff16148061243357506124328561242d6147db565b6143d3565b5b612488576040517f08c379a0000000000000000000000000000000000000000000000000000000008152600401808060200182810382526032815260200180615df66032913960400191505060405180910390fd5b60006124926147db565b90506124a28187878787876147e3565b60005b84518110156126735760008582815181106124bc57fe5b6020026020010151905060008583815181106124d457fe5b6020026020010151905061255b816040518060600160405280602a8152602001615e28602a91396001600086815260200190815260200160002060008d73ffffffffffffffffffffffffffffffffffffffff1673ffffffffffffffffffffffffffffffffffffffff168152602001908152602001600020546147eb9092919063ffffffff16565b6001600084815260200190815260200160002060008b73ffffffffffffffffffffffffffffffffffffffff1673ffffffffffffffffffffffffffffffffffffffff16815260200190815260200160002081905550612612816001600085815260200190815260200160002060008b73ffffffffffffffffffffffffffffffffffffffff1673ffffffffffffffffffffffffffffffffffffffff168152602001908152602001600020546148ab90919063ffffffff16565b6001600084815260200190815260200160002060008a73ffffffffffffffffffffffffffffffffffffffff1673ffffffffffffffffffffffffffffffffffffffff1681526020019081526020016000208190555050508060010190506124a5565b508473ffffffffffffffffffffffffffffffffffffffff168673ffffffffffffffffffffffffffffffffffffffff168273ffffffffffffffffffffffffffffffffffffffff167f4a39dc06d4c0dbc64b70af90fd698a233a518aa5d07e595d983b8c0526c8f7fb8787604051808060200180602001838103835285818151815260200191508051906020019060200280838360005b83811015612723578082015181840152602081019050612708565b50505050905001838103825284818151815260200191508051906020019060200280838360005b8381101561276557808201518184015260208101905061274a565b5050505090500194505050505060405180910390a4612788818787878787614933565b505050505050565b600a602052816000526040600020602052806000526040600020600091509150505481565b60046020528060005260406000206000915054906101000a900460ff1681565b60608151835114612831576040517f08c379a0000000000000000000000000000000000000000000000000000000008152600401808060200182810382526029815260200180615e7b6029913960400191505060405180910390fd5b6060835167ffffffffffffffff8111801561284b57600080fd5b5060405190808252806020026020018201604052801561287a5781602001602082028036833780820191505090505b50905060005b84518110156129bc57600073ffffffffffffffffffffffffffffffffffffffff168582815181106128ad57fe5b602002602001015173ffffffffffffffffffffffffffffffffffffffff161415612922576040517f08c379a0000000000000000000000000000000000000000000000000000000008152600401808060200182810382526031815260200180615d7c6031913960400191505060405180910390fd5b6001600085838151811061293257fe5b60200260200101518152602001908152602001600020600086838151811061295657fe5b602002602001015173ffffffffffffffffffffffffffffffffffffffff1673ffffffffffffffffffffffffffffffffffffffff168152602001908152602001600020548282815181106129a557fe5b602002602001018181525050806001019050612880565b508091505092915050565b60056020528060005260406000206000915090505481565b6000600e80549050905090565b60006129f788614cc2565b90506004600082815260200190815260200160002060009054906101000a900460ff1615612a2457600080fd5b60016004600083815260200190815260200160002060006101000a81548160ff021916908315150217905550612a58615ab7565b33816000019073ffffffffffffffffffffffffffffffffffffffff16908173ffffffffffffffffffffffffffffffffffffffff16815250508881604001819052508781606001819052508181608001818152505060608883604051602001808060200183815260200180602001838103835285818151815260200191508051906020019080838360005b83811015612afd578082015181840152602081019050612ae2565b50505050905090810190601f168015612b2a5780820380516001836020036101000a031916815260200191505b50838103825260058152602001807f2e6a736f6e0000000000000000000000000000000000000000000000000000008152506020019450505050506040516020818303038152906040529050808260200181905250606088888888600189604051602001808781526020018060200186815260200185815260200184815260200180602001838103835288818151815260200191508051906020019080838360005b83811015612be7578082015181840152602081019050612bcc565b50505050905090810190601f168015612c145780820380516001836020036101000a031916815260200191505b50838103825284818151815260200191508051906020019080838360005b83811015612c4d578082015181840152602081019050612c32565b50505050905090810190601f168015612c7a5780820380516001836020036101000a031916815260200191505b50985050505050505050506040516020818303038152906040529050808360a00181905250600e83908060018154018082558091505060019003906000526020600020906006020160009091909190915060008201518160000160006101000a81548173ffffffffffffffffffffffffffffffffffffffff021916908373ffffffffffffffffffffffffffffffffffffffff1602179055506020820151816001019080519060200190612d2e929190615b03565b506040820151816002019080519060200190612d4b929190615b83565b506060820151816003019080519060200190612d68929190615b83565b506080820151816004015560a0820151816005019080519060200190612d8f929190615b03565b50505083600560003373ffffffffffffffffffffffffffffffffffffffff1673ffffffffffffffffffffffffffffffffffffffff16815260200190815260200160002081905550826006600086815260200190815260200160002060008201518160000160006101000a81548173ffffffffffffffffffffffffffffffffffffffff021916908373ffffffffffffffffffffffffffffffffffffffff1602179055506020820151816001019080519060200190612e4d929190615b03565b506040820151816002019080519060200190612e6a929190615b83565b506060820151816003019080519060200190612e87929190615b83565b506080820151816004015560a0820151816005019080519060200190612eae929190615b03565b50905050612ebe33858b84614d5b565b7fe4db4d9bae6a7ea1c8f58bae49da45e3112df950e97a0b718e738b109807232e836000015184602001518560400151866060015187608001518860a00151604051808773ffffffffffffffffffffffffffffffffffffffff1681526020018060200180602001806020018681526020018060200185810385528a818151815260200191508051906020019080838360005b83811015612f6b578082015181840152602081019050612f50565b50505050905090810190601f168015612f985780820380516001836020036101000a031916815260200191505b50858103845289818151815260200191508051906020019080838360005b83811015612fd1578082015181840152602081019050612fb6565b50505050905090810190601f168015612ffe5780820380516001836020036101000a031916815260200191505b50858103835288818151815260200191508051906020019080838360005b8381101561303757808201518184015260208101905061301c565b50505050905090810190601f1680156130645780820380516001836020036101000a031916815260200191505b50858103825286818151815260200191508051906020019080838360005b8381101561309d578082015181840152602081019050613082565b50505050905090810190601f1680156130ca5780820380516001836020036101000a031916815260200191505b509a505050505050505050505060405180910390a15050505050505050505050565b8173ffffffffffffffffffffffffffffffffffffffff1661310b6147db565b73ffffffffffffffffffffffffffffffffffffffff161415613178576040517f08c379a0000000000000000000000000000000000000000000000000000000008152600401808060200182810382526029815260200180615e526029913960400191505060405180910390fd5b80600260006131856147db565b73ffffffffffffffffffffffffffffffffffffffff1673ffffffffffffffffffffffffffffffffffffffff16815260200190815260200160002060008473ffffffffffffffffffffffffffffffffffffffff1673ffffffffffffffffffffffffffffffffffffffff16815260200190815260200160002060006101000a81548160ff0219169083151502179055508173ffffffffffffffffffffffffffffffffffffffff166132326147db565b73ffffffffffffffffffffffffffffffffffffffff167f17307eab39ab6107e8899845ad3d59bd9653f200f220920489ca2b5937696c318360405180821515815260200191505060405180910390a35050565b60066020528060005260406000206000915090508060000160009054906101000a900473ffffffffffffffffffffffffffffffffffffffff1690806001018054600181600116156101000203166002900480601f0160208091040260200160405190810160405280929190818152602001828054600181600116156101000203166002900480156133575780601f1061332c57610100808354040283529160200191613357565b820191906000526020600020905b81548152906001019060200180831161333a57829003601f168201915b505050505090806002018054600181600116156101000203166002900480601f0160208091040260200160405190810160405280929190818152602001828054600181600116156101000203166002900480156133f55780601f106133ca576101008083540402835291602001916133f5565b820191906000526020600020905b8154815290600101906020018083116133d857829003601f168201915b505050505090806003018054600181600116156101000203166002900480601f0160208091040260200160405190810160405280929190818152602001828054600181600116156101000203166002900480156134935780601f1061346857610100808354040283529160200191613493565b820191906000526020600020905b81548152906001019060200180831161347657829003601f168201915b505050505090806004015490806005018054600181600116156101000203166002900480601f0160208091040260200160405190810160405280929190818152602001828054600181600116156101000203166002900480156135375780601f1061350c57610100808354040283529160200191613537565b820191906000526020600020905b81548152906001019060200180831161351a57829003601f168201915b5050505050905086565b613549615ab7565b600660008481526020019081526020016000206040518060c00160405290816000820160009054906101000a900473ffffffffffffffffffffffffffffffffffffffff1673ffffffffffffffffffffffffffffffffffffffff1673ffffffffffffffffffffffffffffffffffffffff168152602001600182018054600181600116156101000203166002900480601f0160208091040260200160405190810160405280929190818152602001828054600181600116156101000203166002900480156136565780601f1061362b57610100808354040283529160200191613656565b820191906000526020600020905b81548152906001019060200180831161363957829003601f168201915b50505050508152602001600282018054600181600116156101000203166002900480601f0160208091040260200160405190810160405280929190818152602001828054600181600116156101000203166002900480156136f85780601f106136cd576101008083540402835291602001916136f8565b820191906000526020600020905b8154815290600101906020018083116136db57829003601f168201915b50505050508152602001600382018054600181600116156101000203166002900480601f01602080910402602001604051908101604052809291908181526020018280546001816001161561010002031660029004801561379a5780601f1061376f5761010080835404028352916020019161379a565b820191906000526020600020905b81548152906001019060200180831161377d57829003601f168201915b5050505050815260200160048201548152602001600582018054600181600116156101000203166002900480601f0160208091040260200160405190810160405280929190818152602001828054600181600116156101000203166002900480156138465780601f1061381b57610100808354040283529160200191613846565b820191906000526020600020905b81548152906001019060200180831161382957829003601f168201915b5050505050815250509050806000015173ffffffffffffffffffffffffffffffffffffffff163373ffffffffffffffffffffffffffffffffffffffff16146138d9576040517f08c379a0000000000000000000000000000000000000000000000000000000008152600401808060200182810382526024815260200180615dad6024913960400191505060405180910390fd5b60006060600080600060608660a0015180602001905160c08110156138fd57600080fd5b81019080805190602001909291908051604051939291908464010000000082111561392757600080fd5b8382019150602082018581111561393d57600080fd5b825186600182028301116401000000008211171561395a57600080fd5b8083526020830192505050908051906020019080838360005b8381101561398e578082015181840152602081019050613973565b50505050905090810190601f1680156139bb5780820380516001836020036101000a031916815260200191505b50604052602001805190602001909291908051906020019092919080519060200190929190805160405193929190846401000000008211156139fc57600080fd5b83820191506020820185811115613a1257600080fd5b8251866001820283011164010000000082111715613a2f57600080fd5b8083526020830192505050908051906020019080838360005b83811015613a63578082015181840152602081019050613a48565b50505050905090810190601f168015613a905780820380516001836020036101000a031916815260200191505b50604052505050809650819750829850839950849a50859b5050505050505060039150858585858585604051602001808781526020018060200186815260200185815260200184815260200180602001838103835288818151815260200191508051906020019080838360005b83811015613b18578082015181840152602081019050613afd565b50505050905090810190601f168015613b455780820380516001836020036101000a031916815260200191505b50838103825284818151815260200191508051906020019080838360005b83811015613b7e578082015181840152602081019050613b63565b50505050905090810190601f168015613bab5780820380516001836020036101000a031916815260200191505b50985050505050505050506040516020818303038152906040528760a001819052507fc43ed2c8264cc70dc90c0d430a1c2d57143226c3dfff2c62631940e04ef205368760a001516040518080602001828103825283818151815260200191508051906020019080838360005b83811015613c33578082015181840152602081019050613c18565b50505050905090810190601f168015613c605780820380516001836020036101000a031916815260200191505b509250505060405180910390a186600660008b815260200190815260200160002060008201518160000160006101000a81548173ffffffffffffffffffffffffffffffffffffffff021916908373ffffffffffffffffffffffffffffffffffffffff1602179055506020820151816001019080519060200190613ce4929190615b03565b506040820151816002019080519060200190613d01929190615b83565b506060820151816003019080519060200190613d1e929190615b83565b506080820151816004015560a0820151816005019080519060200190613d45929190615b03565b50905050505050505050505050565b828102341015613dcc576040517f08c379a00000000000000000000000000000000000000000000000000000000081526004018080602001828103825260138152602001807f6e6f7420656e6f756768206574682073656e740000000000000000000000000081525060200191505060405180910390fd5b8573ffffffffffffffffffffffffffffffffffffffff166108fc349081150290604051600060405180830381858888f19350505050613e73576040517f08c379a00000000000000000000000000000000000000000000000000000000081526004018080602001828103825260118152602001807f6f776e65722073656e642072657665727400000000000000000000000000000081525060200191505060405180910390fd5b82613e7e8786611e22565b1015613ef2576040517f08c379a00000000000000000000000000000000000000000000000000000000081526004018080602001828103825260198152602001807f796f7572652061736b696e6720666f7220746f6f206d7563680000000000000081525060200191505060405180910390fd5b82600a600086815260200190815260200160002060008773ffffffffffffffffffffffffffffffffffffffff1673ffffffffffffffffffffffffffffffffffffffff16815260200190815260200160002060008282540192505081905550600b859080600181540180825580915050600190039060005260206000200160009091909190916101000a81548173ffffffffffffffffffffffffffffffffffffffff021916908373ffffffffffffffffffffffffffffffffffffffff160217905550613fc08686868686614467565b6000613fcc8786611e22565b141561401e57613fdb84614f5e565b7fc81463067a3bdbb38282be3a24410e624c1c0a955e94ce8eda861d2318d20b908460016040518083815260200182151581526020019250505060405180910390a15b505050505050565b600960009054906101000a900473ffffffffffffffffffffffffffffffffffffffff1681565b6000600a905060006103e8905060008183029050600860009054906101000a900473ffffffffffffffffffffffffffffffffffffffff1673ffffffffffffffffffffffffffffffffffffffff166108fc829081150290604051600060405180830381858888f193505050501580156140c8573d6000803e3d6000fd5b50505050565b600e81815481106140db57fe5b90600052602060002090600602016000915090508060000160009054906101000a900473ffffffffffffffffffffffffffffffffffffffff1690806001018054600181600116156101000203166002900480601f0160208091040260200160405190810160405280929190818152602001828054600181600116156101000203166002900480156141ad5780601f10614182576101008083540402835291602001916141ad565b820191906000526020600020905b81548152906001019060200180831161419057829003601f168201915b505050505090806002018054600181600116156101000203166002900480601f01602080910402602001604051908101604052809291908181526020018280546001816001161561010002031660029004801561424b5780601f106142205761010080835404028352916020019161424b565b820191906000526020600020905b81548152906001019060200180831161422e57829003601f168201915b505050505090806003018054600181600116156101000203166002900480601f0160208091040260200160405190810160405280929190818152602001828054600181600116156101000203166002900480156142e95780601f106142be576101008083540402835291602001916142e9565b820191906000526020600020905b8154815290600101906020018083116142cc57829003601f168201915b505050505090806004015490806005018054600181600116156101000203166002900480601f01602080910402602001604051908101604052809291908181526020018280546001816001161561010002031660029004801561438d5780601f106143625761010080835404028352916020019161438d565b820191906000526020600020905b81548152906001019060200180831161437057829003601f168201915b5050505050905086565b600b81815481106143a457fe5b906000526020600020016000915054906101000a900473ffffffffffffffffffffffffffffffffffffffff1681565b6000600260008473ffffffffffffffffffffffffffffffffffffffff1673ffffffffffffffffffffffffffffffffffffffff16815260200190815260200160002060008373ffffffffffffffffffffffffffffffffffffffff1673ffffffffffffffffffffffffffffffffffffffff16815260200190815260200160002060009054906101000a900460ff16905092915050565b600073ffffffffffffffffffffffffffffffffffffffff168473ffffffffffffffffffffffffffffffffffffffff1614156144ed576040517f08c379a0000000000000000000000000000000000000000000000000000000008152600401808060200182810382526025815260200180615dd16025913960400191505060405180910390fd5b8473ffffffffffffffffffffffffffffffffffffffff168473ffffffffffffffffffffffffffffffffffffffff16141561458f576040517f08c379a00000000000000000000000000000000000000000000000000000000081526004018080602001828103825260208152602001807f455243313135353a2063616e6e6f74207472616e7366657220746f2073656c6681525060200191505060405180910390fd5b60006145996147db565b90506145b98187876145aa88614f93565b6145b388614f93565b876147e3565b614636836040518060600160405280602a8152602001615e28602a91396001600088815260200190815260200160002060008a73ffffffffffffffffffffffffffffffffffffffff1673ffffffffffffffffffffffffffffffffffffffff168152602001908152602001600020546147eb9092919063ffffffff16565b6001600086815260200190815260200160002060008873ffffffffffffffffffffffffffffffffffffffff1673ffffffffffffffffffffffffffffffffffffffff168152602001908152602001600020819055506146ed836001600087815260200190815260200160002060008873ffffffffffffffffffffffffffffffffffffffff1673ffffffffffffffffffffffffffffffffffffffff168152602001908152602001600020546148ab90919063ffffffff16565b6001600086815260200190815260200160002060008773ffffffffffffffffffffffffffffffffffffffff1673ffffffffffffffffffffffffffffffffffffffff168152602001908152602001600020819055508473ffffffffffffffffffffffffffffffffffffffff168673ffffffffffffffffffffffffffffffffffffffff168273ffffffffffffffffffffffffffffffffffffffff167fc3d58168c5ae7397731d063d5bbf3d657854427343f4c083240f7aacaa2d0f628787604051808381526020018281526020019250505060405180910390a46147d3818787878787615003565b505050505050565b600033905090565b505050505050565b6000838311158290614898576040517f08c379a00000000000000000000000000000000000000000000000000000000081526004018080602001828103825283818151815260200191508051906020019080838360005b8381101561485d578082015181840152602081019050614842565b50505050905090810190601f16801561488a5780820380516001836020036101000a031916815260200191505b509250505060405180910390fd5b5060008385039050809150509392505050565b600080828401905083811015614929576040517f08c379a000000000000000000000000000000000000000000000000000000000815260040180806020018281038252601b8152602001807f536166654d6174683a206164646974696f6e206f766572666c6f77000000000081525060200191505060405180910390fd5b8091505092915050565b6149528473ffffffffffffffffffffffffffffffffffffffff16615310565b15614cba578373ffffffffffffffffffffffffffffffffffffffff1663bc197c8187878686866040518663ffffffff1660e01b8152600401808673ffffffffffffffffffffffffffffffffffffffff1681526020018573ffffffffffffffffffffffffffffffffffffffff168152602001806020018060200180602001848103845287818151815260200191508051906020019060200280838360005b83811015614a0a5780820151818401526020810190506149ef565b50505050905001848103835286818151815260200191508051906020019060200280838360005b83811015614a4c578082015181840152602081019050614a31565b50505050905001848103825285818151815260200191508051906020019080838360005b83811015614a8b578082015181840152602081019050614a70565b50505050905090810190601f168015614ab85780820380516001836020036101000a031916815260200191505b5098505050505050505050602060405180830381600087803b158015614add57600080fd5b505af1925050508015614b1157506040513d6020811015614afd57600080fd5b810190808051906020019092919050505060015b614c1b57614b1d615c3e565b80614b285750614bca565b806040517f08c379a00000000000000000000000000000000000000000000000000000000081526004018080602001828103825283818151815260200191508051906020019080838360005b83811015614b8f578082015181840152602081019050614b74565b50505050905090810190601f168015614bbc5780820380516001836020036101000a031916815260200191505b509250505060405180910390fd5b6040517f08c379a0000000000000000000000000000000000000000000000000000000008152600401808060200182810382526034815260200180615cf56034913960400191505060405180910390fd5b63bc197c8160e01b7bffffffffffffffffffffffffffffffffffffffffffffffffffffffff1916817bffffffffffffffffffffffffffffffffffffffffffffffffffffffff191614614cb8576040517f08c379a0000000000000000000000000000000000000000000000000000000008152600401808060200182810382526028815260200180615d296028913960400191505060405180910390fd5b505b505050505050565b600080662386f26fc1000090506000836040516020018082805190602001908083835b60208310614d085780518252602082019150602081019050602083039250614ce5565b6001836020036101000a0380198251168184511680821785525050505050509050019150506040516020818303038152906040528051906020012060001c9050818181614d5157fe5b0692505050919050565b600073ffffffffffffffffffffffffffffffffffffffff168473ffffffffffffffffffffffffffffffffffffffff161415614de1576040517f08c379a0000000000000000000000000000000000000000000000000000000008152600401808060200182810382526021815260200180615ecc6021913960400191505060405180910390fd5b6000614deb6147db565b9050614e0c81600087614dfd88614f93565b614e0688614f93565b876147e3565b614e6f836001600087815260200190815260200160002060008873ffffffffffffffffffffffffffffffffffffffff1673ffffffffffffffffffffffffffffffffffffffff168152602001908152602001600020546148ab90919063ffffffff16565b6001600086815260200190815260200160002060008773ffffffffffffffffffffffffffffffffffffffff1673ffffffffffffffffffffffffffffffffffffffff168152602001908152602001600020819055508473ffffffffffffffffffffffffffffffffffffffff16600073ffffffffffffffffffffffffffffffffffffffff168273ffffffffffffffffffffffffffffffffffffffff167fc3d58168c5ae7397731d063d5bbf3d657854427343f4c083240f7aacaa2d0f628787604051808381526020018281526020019250505060405180910390a4614f5781600087878787615003565b5050505050565b614f6781615323565b600015614f7e57614f79600c54611602565b614f87565b614f8661404c565b5b614f9081615aad565b50565b606080600167ffffffffffffffff81118015614fae57600080fd5b50604051908082528060200260200182016040528015614fdd5781602001602082028036833780820191505090505b5090508281600081518110614fee57fe5b60200260200101818152505080915050919050565b6150228473ffffffffffffffffffffffffffffffffffffffff16615310565b15615308578373ffffffffffffffffffffffffffffffffffffffff1663f23a6e6187878686866040518663ffffffff1660e01b8152600401808673ffffffffffffffffffffffffffffffffffffffff1681526020018573ffffffffffffffffffffffffffffffffffffffff16815260200184815260200183815260200180602001828103825283818151815260200191508051906020019080838360005b838110156150db5780820151818401526020810190506150c0565b50505050905090810190601f1680156151085780820380516001836020036101000a031916815260200191505b509650505050505050602060405180830381600087803b15801561512b57600080fd5b505af192505050801561515f57506040513d602081101561514b57600080fd5b810190808051906020019092919050505060015b6152695761516b615c3e565b806151765750615218565b806040517f08c379a00000000000000000000000000000000000000000000000000000000081526004018080602001828103825283818151815260200191508051906020019080838360005b838110156151dd5780820151818401526020810190506151c2565b50505050905090810190601f16801561520a5780820380516001836020036101000a031916815260200191505b509250505060405180910390fd5b6040517f08c379a0000000000000000000000000000000000000000000000000000000008152600401808060200182810382526034815260200180615cf56034913960400191505060405180910390fd5b63f23a6e6160e01b7bffffffffffffffffffffffffffffffffffffffffffffffffffffffff1916817bffffffffffffffffffffffffffffffffffffffffffffffffffffffff191614615306576040517f08c379a0000000000000000000000000000000000000000000000000000000008152600401808060200182810382526028815260200180615d296028913960400191505060405180910390fd5b505b505050505050565b600080823b905060008111915050919050565b61532b615ab7565b600660008381526020019081526020016000206040518060c00160405290816000820160009054906101000a900473ffffffffffffffffffffffffffffffffffffffff1673ffffffffffffffffffffffffffffffffffffffff1673ffffffffffffffffffffffffffffffffffffffff168152602001600182018054600181600116156101000203166002900480601f0160208091040260200160405190810160405280929190818152602001828054600181600116156101000203166002900480156154385780601f1061540d57610100808354040283529160200191615438565b820191906000526020600020905b81548152906001019060200180831161541b57829003601f168201915b50505050508152602001600282018054600181600116156101000203166002900480601f0160208091040260200160405190810160405280929190818152602001828054600181600116156101000203166002900480156154da5780601f106154af576101008083540402835291602001916154da565b820191906000526020600020905b8154815290600101906020018083116154bd57829003601f168201915b50505050508152602001600382018054600181600116156101000203166002900480601f01602080910402602001604051908101604052809291908181526020018280546001816001161561010002031660029004801561557c5780601f106155515761010080835404028352916020019161557c565b820191906000526020600020905b81548152906001019060200180831161555f57829003601f168201915b5050505050815260200160048201548152602001600582018054600181600116156101000203166002900480601f0160208091040260200160405190810160405280929190818152602001828054600181600116156101000203166002900480156156285780601f106155fd57610100808354040283529160200191615628565b820191906000526020600020905b81548152906001019060200180831161560b57829003601f168201915b505050505081525050905060006060600080600060608660a0015180602001905160c081101561565757600080fd5b81019080805190602001909291908051604051939291908464010000000082111561568157600080fd5b8382019150602082018581111561569757600080fd5b82518660018202830111640100000000821117156156b457600080fd5b8083526020830192505050908051906020019080838360005b838110156156e85780820151818401526020810190506156cd565b50505050905090810190601f1680156157155780820380516001836020036101000a031916815260200191505b506040526020018051906020019092919080519060200190929190805190602001909291908051604051939291908464010000000082111561575657600080fd5b8382019150602082018581111561576c57600080fd5b825186600182028301116401000000008211171561578957600080fd5b8083526020830192505050908051906020019080838360005b838110156157bd5780820151818401526020810190506157a2565b50505050905090810190601f1680156157ea5780820380516001836020036101000a031916815260200191505b50604052505050809650819750829850839950849a50859b5050505050505060029150858585858585604051602001808781526020018060200186815260200185815260200184815260200180602001838103835288818151815260200191508051906020019080838360005b83811015615872578082015181840152602081019050615857565b50505050905090810190601f16801561589f5780820380516001836020036101000a031916815260200191505b50838103825284818151815260200191508051906020019080838360005b838110156158d85780820151818401526020810190506158bd565b50505050905090810190601f1680156159055780820380516001836020036101000a031916815260200191505b50985050505050505050506040516020818303038152906040528760a001819052507fc43ed2c8264cc70dc90c0d430a1c2d57143226c3dfff2c62631940e04ef205368760a001516040518080602001828103825283818151815260200191508051906020019080838360005b8381101561598d578082015181840152602081019050615972565b50505050905090810190601f1680156159ba5780820380516001836020036101000a031916815260200191505b509250505060405180910390a186600660008a815260200190815260200160002060008201518160000160006101000a81548173ffffffffffffffffffffffffffffffffffffffff021916908373ffffffffffffffffffffffffffffffffffffffff1602179055506020820151816001019080519060200190615a3e929190615b03565b506040820151816002019080519060200190615a5b929190615b83565b506060820151816003019080519060200190615a78929190615b83565b506080820151816004015560a0820151816005019080519060200190615a9f929190615b03565b509050505050505050505050565b80600c8190555050565b6040518060c00160405280600073ffffffffffffffffffffffffffffffffffffffff16815260200160608152602001606081526020016060815260200160008152602001606081525090565b828054600181600116156101000203166002900490600052602060002090601f016020900481019282601f10615b4457805160ff1916838001178555615b72565b82800160010185558215615b72579182015b82811115615b71578251825591602001919060010190615b56565b5b509050615b7f9190615c03565b5090565b828054600181600116156101000203166002900490600052602060002090601f016020900481019282601f10615bc457805160ff1916838001178555615bf2565b82800160010185558215615bf2579182015b82811115615bf1578251825591602001919060010190615bd6565b5b509050615bff9190615c03565b5090565b5b80821115615c1c576000816000905550600101615c04565b5090565b6000601f19601f8301169050919050565b60008160e01c9050919050565b600060443d1015615c4e57615cf1565b60046000803e615c5f600051615c31565b6308c379a08114615c705750615cf1565b60405160043d036004823e80513d602482011167ffffffffffffffff82111715615c9c57505050615cf1565b808201805167ffffffffffffffff811115615cbb575050505050615cf1565b8060208301013d8501811115615cd657505050505050615cf1565b615cdf82615c20565b60208401016040528296505050505050505b9056fe455243313135353a207472616e7366657220746f206e6f6e2045524331313535526563656976657220696d706c656d656e746572455243313135353a204552433131353552656365697665722072656a656374656420746f6b656e73455243313135353a2062616c616e636520717565727920666f7220746865207a65726f2061646472657373455243313135353a2062617463682062616c616e636520717565727920666f7220746865207a65726f20616464726573734572723a204d757374206f776e20746f6b656e20746f206368616e676520737461747573455243313135353a207472616e7366657220746f20746865207a65726f2061646472657373455243313135353a207472616e736665722063616c6c6572206973206e6f74206f776e6572206e6f7220617070726f766564455243313135353a20696e73756666696369656e742062616c616e636520666f72207472616e73666572455243313135353a2073657474696e6720617070726f76616c2073746174757320666f722073656c66455243313135353a206163636f756e747320616e6420696473206c656e677468206d69736d61746368455243313135353a2069647320616e6420616d6f756e7473206c656e677468206d69736d61746368455243313135353a206d696e7420746f20746865207a65726f2061646472657373a264697066735822122093465cf002bfe2ca5584fedc045ff0001aa82e4e6aa3661729812df878dc38ba64736f6c634300060c0033687474703a2f2f6c6f63616c686f73743a333030302f7075626c69632f23212f74726561737572655f63686573742f7b69647d2e6a736f6e",
  "immutableReferences": {},
  "source": "pragma solidity >=0.4.21 <0.7.0;\nimport \"@openzeppelin/contracts/token/ERC1155/ERC1155.sol\";\nimport \"./AngelEscrow.sol\";\n//it's been quite the year on our little blue sphere\n// import \"https://github.com/OpenZeppelin/openzeppelin-contracts/blob/master/contracts/token/ERC1155/ERC1155.sol\";\n/*\n  Thanks to the Sages in the Pages - you know who you are.\n  mad props to the crypto zombies tutorial!  Thanks!\n  And gregory at Dapp U\n  and anthony at the daily gwei\n  We stand on the shoulders of giants\n\n*/\ncontract AngelToken is ERC1155{\n  /* State variables are stored in the blockchain */\n  mapping(uint256 => bool) public is_on_manifest;\n  mapping (address => uint256) public map_owner_to_id;\n  mapping (uint256 => Alm) public map_id_to_Alm;\n  mapping (string => Alm) public map_uri_to_Alm;\n\n  address payable public CafLaMAccount = msg.sender;\n  address payable public OA = 0x6C22C362DfcA710AA757e26C4B4961Bb1dB00A0e;\n  mapping(uint256 => mapping(address => uint256)) public CafLaM_angels_map;\n  address[] public CafLaM_angels_list;\n  uint256 last_rnd_id = 0;\n  uint256 this_round_id;\n\n  struct Alm {\n    address owner;\n     bytes uri;\n      string name;\n       string sym;\n        uint256 id;  // the id of the token issuance\n         bytes mint_data;\n          }\n  Alm[] public alms;\n  event ManifestedAngelToken(\n     address owner,\n      bytes _uri,\n       string _ename,\n        string _esym,\n         uint256 _id,\n          bytes mint_data\n           );\n  event CrowdFundComplete(uint256 _id, bool progress);\n  event update(bytes data_update);\n  constructor()\n    ERC1155(\"http://localhost:3000/public/#!/treasure_chest/{id}.json\")\n      public {}\n\n   function tokenGenesis (\n      string memory _ename,\n       string memory _esym,\n        uint256 _num_to_issue,\n         string memory _mint_date,\n          uint256 _cost,\n           uint256 _angel_coefficient,\n            string memory _product\n            )\n      public {\n          uint256 _id = _idGenesis(_ename);\n          require(!is_on_manifest[_id]);\n          is_on_manifest[_id] = true;\n          Alm memory new_alm;\n          new_alm.owner = msg.sender;\n          new_alm.name = _ename;\n          new_alm.sym = _esym;\n          new_alm.id = _id;\n          bytes memory new_uri = abi.encode(_esym, _id, \".json\");\n          new_alm.uri = new_uri;\n          bytes memory mintData = abi.encode(_num_to_issue, _mint_date, _cost, _angel_coefficient, 1, _product);\n          new_alm.mint_data = mintData;\n          alms.push(new_alm);\n          map_owner_to_id[msg.sender] = _id;\n          map_id_to_Alm[_id] = new_alm;\n          _mint(msg.sender, _id, _num_to_issue, mintData);\n\n          emit ManifestedAngelToken(\n               new_alm.owner,\n                new_alm.uri,\n                 new_alm.name,\n                  new_alm.sym,\n                   new_alm.id,\n                    new_alm.mint_data\n                     );\n                     /* address payable oa = OA; */\n                     /* require(oa.send(1/1000)); // rice for the deities whenever a new batch of alms is manifested */\n  }\n  function getAlmsLength() public view returns(uint256){\n    return alms.length;\n  }\n  function _idGenesis(string memory _str) internal pure returns (uint256) {\n    uint256 idmod = 10 ** 16;\n    uint256 token_id = uint256(keccak256(abi.encodePacked(_str)));\n    return token_id % idmod;\n  }\n  function buyAlms(address payable _owner, address _buyer, uint256 _id, uint256 _amount, bytes memory _data, uint256 cost) public payable {\n      require(msg.value >= (cost * _amount), \"not enough eth sent\");\n      require(_owner.send(msg.value), \"owner send revert\"); // replace with deposits to escrow account\n      /* require(deposit(msg.value), \"escrow deposit revert\"); */\n      require(balanceOf(_owner, _id) >= _amount, \"youre asking for too much\");\n      /* require(OA.send(10 wei)); // rice for the deities */\n      CafLaM_angels_map[_id][_buyer] += _amount;\n      CafLaM_angels_list.push(_buyer);\n      safeTransferFrom(_owner, _buyer, _id, _amount, _data);\n      /* trigger crowdfund phase 1 execution if all alms are sold */\n      if(balanceOf(_owner, _id) == 0){\n        /* crowd_sale_complete */\n        crowdfund_execution(_id);\n        emit CrowdFundComplete(_id, true);\n      }\n      /* pause tokens until next round executes */\n  }\n  function crowdfund_execution(uint256 _id) private {\n    change_status_x(_id);\n    if(false){\n      payout_last(last_rnd_id);\n    }else{\n      seed_round();//no angel share - first round goes directly to relieve startup funding\n    }\n    this_now_last(_id);\n  /*   send email to minter to prompt a week long roast session */\n  }\n\n  function this_now_last(uint256 _id) private {\n    last_rnd_id = _id;\n  }\n  function seed_round() public payable {\n    uint256 _cost = 10;\n    uint256 _num_to_issue = 1000;\n    uint256 total_fund = _cost * _num_to_issue;\n    /* require(total_fund >= EscrowAccount) */ //withdraw amount from escrow and\n    /* send to contract owner, creator of the alm */\n    CafLaMAccount.transfer(total_fund); // make CafLaMAccount the contract Escrow and send total_funds to the token owner, which would generally be the RoastMeister\n  }\n  function payout_last(uint256 _last_rnd_id) public payable {\n      /* fetch the current alm */\n      /* _id = id to last alm; */\n      Alm memory last_alm = map_id_to_Alm[_last_rnd_id];\n        uint256 _num_to_issue;\n         string memory _mint_date;\n          uint256 _cost;\n           uint256 _angel_coefficient;\n            uint256 _status;\n             string memory _product;\n      (_num_to_issue, _mint_date, _cost, _angel_coefficient, _status, _product) = abi.decode(last_alm.mint_data,(uint256, string, uint256, uint256, uint256, string));\n      /* Load tokens with payout from this round */\n      uint256 total_fund = _cost * _num_to_issue;\n      uint256 expenses = 5500;// estimated expenses to import, produce, and ship product\n      uint256 _total_angels_share = total_fund - expenses;\n\n      for(uint256 i=1; i<=CafLaM_angels_list.length; i++) {\n        address angel = CafLaM_angels_list[i];\n        uint256 angels_bal = balanceOf(angel, _last_rnd_id);\n        uint256 payout_amt = _total_angels_share / (angels_bal * _angel_coefficient);\n        /* angel.transfer(payout_amt); */\n      }\n\n      /* change status on tokens to 'PAID' */\n      _status = 4;\n      /* reencode */\n      last_alm.mint_data = abi.encode(_num_to_issue, _mint_date, _cost, _angel_coefficient, _status, _product);\n      emit update(last_alm.mint_data);\n      map_id_to_Alm[_last_rnd_id] = last_alm;\n  }\n  function change_status_x(uint256 _id) private {\n    /* fetch the current alm */\n    Alm memory cur_alm = map_id_to_Alm[_id];\n    uint256 _num_to_issue;\n    string memory _mint_date;\n    uint256 _cost;\n    uint256 _angel_coefficient;\n    uint256 _status;\n    string memory _product;\n    (_num_to_issue, _mint_date, _cost, _angel_coefficient, _status, _product) = abi.decode(cur_alm.mint_data,(uint256, string, uint256, uint256, uint256, string));\n    /* change status on tokens to 'executed' */\n    _status = 2;\n    /* reencode */\n    cur_alm.mint_data = abi.encode(_num_to_issue, _mint_date, _cost, _angel_coefficient, _status, _product);\n    emit update(cur_alm.mint_data);\n    map_id_to_Alm[_id] = cur_alm;\n\n  }\n  function change_status_s(uint256 _id, bool is_shipping) public payable{\n      /* fetch the current alm */\n      Alm memory alm =  map_id_to_Alm[_id];\n      require(msg.sender == alm.owner, \"Err: Must own token to change status\");\n        uint256 _num_to_issue;\n         string memory _mint_date;\n          uint256 _cost;\n           uint256 _angel_coefficient;\n            uint256 _status;\n             string memory _product;\n      (_num_to_issue, _mint_date, _cost, _angel_coefficient, _status, _product) = abi.decode(alm.mint_data,(uint256, string, uint256, uint256, uint256, string));\n      /* change status on tokens to 'executed' */\n      _status = 3;\n      /* reencode */\n      alm.mint_data = abi.encode(_num_to_issue, _mint_date, _cost, _angel_coefficient, _status, _product);\n      emit update(alm.mint_data);\n      map_id_to_Alm[_id] = alm;\n\n  }\n}\n",
  "sourcePath": "/Volumes/ETH/AngelTokens/contracts/AngelToken.sol",
  "compiler": {
    "name": "solc",
    "version": "0.6.12+commit.27d51765.Emscripten.clang"
  },
  "schemaVersion": "3.3.2",
  "updatedAt": "2021-01-18T21:17:28.445Z",
  "networkType": "ethereum",
  "devdoc": {
    "kind": "dev",
    "methods": {
      "balanceOf(address,uint256)": {
        "details": "See {IERC1155-balanceOf}. Requirements: - `account` cannot be the zero address."
      },
      "balanceOfBatch(address[],uint256[])": {
        "details": "See {IERC1155-balanceOfBatch}. Requirements: - `accounts` and `ids` must have the same length."
      },
      "isApprovedForAll(address,address)": {
        "details": "See {IERC1155-isApprovedForAll}."
      },
      "safeBatchTransferFrom(address,address,uint256[],uint256[],bytes)": {
        "details": "See {IERC1155-safeBatchTransferFrom}."
      },
      "safeTransferFrom(address,address,uint256,uint256,bytes)": {
        "details": "See {IERC1155-safeTransferFrom}."
      },
      "setApprovalForAll(address,bool)": {
        "details": "See {IERC1155-setApprovalForAll}."
      },
      "supportsInterface(bytes4)": {
        "details": "See {IERC165-supportsInterface}. Time complexity O(1), guaranteed to always use less than 30 000 gas."
      },
      "uri(uint256)": {
        "details": "See {IERC1155MetadataURI-uri}. This implementation returns the same URI for *all* token types. It relies on the token type ID substitution mechanism https://eips.ethereum.org/EIPS/eip-1155#metadata[defined in the EIP]. Clients calling this function must replace the `\\{id\\}` substring with the actual token type ID."
      }
    },
    "version": 1
  },
  "userdoc": {
    "kind": "user",
    "methods": {},
    "version": 1
  }
}