{
  "contractName": "AngelToken",
  "abi": [
    {
      "inputs": [
        {
          "internalType": "string",
          "name": "_ename",
          "type": "string"
        },
        {
          "internalType": "string",
          "name": "_esym",
          "type": "string"
        },
        {
          "internalType": "uint256",
          "name": "_issue_num",
          "type": "uint256"
        },
        {
          "internalType": "uint256",
          "name": "_mint_date",
          "type": "uint256"
        },
        {
          "internalType": "uint256",
          "name": "_cost",
          "type": "uint256"
        },
        {
          "internalType": "uint256",
          "name": "_angel_coefficient",
          "type": "uint256"
        },
        {
          "internalType": "uint256",
          "name": "_status",
          "type": "uint256"
        },
        {
          "internalType": "string",
          "name": "_product",
          "type": "string"
        }
      ],
      "stateMutability": "nonpayable",
      "type": "constructor"
    },
    {
      "anonymous": false,
      "inputs": [
        {
          "indexed": true,
          "internalType": "address",
          "name": "owner",
          "type": "address"
        },
        {
          "indexed": true,
          "internalType": "address",
          "name": "approved",
          "type": "address"
        },
        {
          "indexed": true,
          "internalType": "uint256",
          "name": "tokenId",
          "type": "uint256"
        }
      ],
      "name": "Approval",
      "type": "event"
    },
    {
      "anonymous": false,
      "inputs": [
        {
          "indexed": true,
          "internalType": "address",
          "name": "owner",
          "type": "address"
        },
        {
          "indexed": true,
          "internalType": "address",
          "name": "operator",
          "type": "address"
        },
        {
          "indexed": false,
          "internalType": "bool",
          "name": "approved",
          "type": "bool"
        }
      ],
      "name": "ApprovalForAll",
      "type": "event"
    },
    {
      "anonymous": false,
      "inputs": [
        {
          "indexed": false,
          "internalType": "string",
          "name": "_uri",
          "type": "string"
        },
        {
          "indexed": false,
          "internalType": "string",
          "name": "_ename",
          "type": "string"
        },
        {
          "indexed": false,
          "internalType": "string",
          "name": "_esym",
          "type": "string"
        },
        {
          "indexed": false,
          "internalType": "uint256",
          "name": "_id",
          "type": "uint256"
        },
        {
          "indexed": false,
          "internalType": "uint256",
          "name": "_issue_num",
          "type": "uint256"
        },
        {
          "indexed": false,
          "internalType": "uint256",
          "name": "_mint_date",
          "type": "uint256"
        },
        {
          "indexed": false,
          "internalType": "uint256",
          "name": "_cost",
          "type": "uint256"
        },
        {
          "indexed": false,
          "internalType": "uint256",
          "name": "_angel_coefficient",
          "type": "uint256"
        },
        {
          "indexed": false,
          "internalType": "uint256",
          "name": "_status",
          "type": "uint256"
        },
        {
          "indexed": false,
          "internalType": "string",
          "name": "_product",
          "type": "string"
        }
      ],
      "name": "ManifestedAngelToken",
      "type": "event"
    },
    {
      "anonymous": false,
      "inputs": [
        {
          "indexed": true,
          "internalType": "address",
          "name": "from",
          "type": "address"
        },
        {
          "indexed": true,
          "internalType": "address",
          "name": "to",
          "type": "address"
        },
        {
          "indexed": true,
          "internalType": "uint256",
          "name": "tokenId",
          "type": "uint256"
        }
      ],
      "name": "Transfer",
      "type": "event"
    },
    {
      "inputs": [
        {
          "internalType": "uint256",
          "name": "",
          "type": "uint256"
        }
      ],
      "name": "alms",
      "outputs": [
        {
          "internalType": "string",
          "name": "uri",
          "type": "string"
        },
        {
          "internalType": "string",
          "name": "name",
          "type": "string"
        },
        {
          "internalType": "string",
          "name": "sym",
          "type": "string"
        },
        {
          "internalType": "uint256",
          "name": "id",
          "type": "uint256"
        },
        {
          "internalType": "uint256",
          "name": "issue_num",
          "type": "uint256"
        },
        {
          "internalType": "uint256",
          "name": "mint_date",
          "type": "uint256"
        },
        {
          "internalType": "uint256",
          "name": "cost",
          "type": "uint256"
        },
        {
          "internalType": "uint256",
          "name": "angel_coefficient",
          "type": "uint256"
        },
        {
          "internalType": "uint256",
          "name": "status",
          "type": "uint256"
        },
        {
          "internalType": "string",
          "name": "product",
          "type": "string"
        }
      ],
      "stateMutability": "view",
      "type": "function",
      "constant": true
    },
    {
      "inputs": [
        {
          "internalType": "address",
          "name": "to",
          "type": "address"
        },
        {
          "internalType": "uint256",
          "name": "tokenId",
          "type": "uint256"
        }
      ],
      "name": "approve",
      "outputs": [],
      "stateMutability": "nonpayable",
      "type": "function"
    },
    {
      "inputs": [
        {
          "internalType": "address",
          "name": "owner",
          "type": "address"
        }
      ],
      "name": "balanceOf",
      "outputs": [
        {
          "internalType": "uint256",
          "name": "",
          "type": "uint256"
        }
      ],
      "stateMutability": "view",
      "type": "function",
      "constant": true
    },
    {
      "inputs": [],
      "name": "baseURI",
      "outputs": [
        {
          "internalType": "string",
          "name": "",
          "type": "string"
        }
      ],
      "stateMutability": "view",
      "type": "function",
      "constant": true
    },
    {
      "inputs": [
        {
          "internalType": "uint256",
          "name": "tokenId",
          "type": "uint256"
        }
      ],
      "name": "getApproved",
      "outputs": [
        {
          "internalType": "address",
          "name": "",
          "type": "address"
        }
      ],
      "stateMutability": "view",
      "type": "function",
      "constant": true
    },
    {
      "inputs": [
        {
          "internalType": "address",
          "name": "owner",
          "type": "address"
        },
        {
          "internalType": "address",
          "name": "operator",
          "type": "address"
        }
      ],
      "name": "isApprovedForAll",
      "outputs": [
        {
          "internalType": "bool",
          "name": "",
          "type": "bool"
        }
      ],
      "stateMutability": "view",
      "type": "function",
      "constant": true
    },
    {
      "inputs": [
        {
          "internalType": "uint256",
          "name": "",
          "type": "uint256"
        }
      ],
      "name": "is_on_manifest",
      "outputs": [
        {
          "internalType": "bool",
          "name": "",
          "type": "bool"
        }
      ],
      "stateMutability": "view",
      "type": "function",
      "constant": true
    },
    {
      "inputs": [
        {
          "internalType": "address",
          "name": "",
          "type": "address"
        }
      ],
      "name": "map_address_to_id",
      "outputs": [
        {
          "internalType": "uint256",
          "name": "",
          "type": "uint256"
        }
      ],
      "stateMutability": "view",
      "type": "function",
      "constant": true
    },
    {
      "inputs": [
        {
          "internalType": "uint256",
          "name": "",
          "type": "uint256"
        }
      ],
      "name": "map_id_to_Alm",
      "outputs": [
        {
          "internalType": "string",
          "name": "uri",
          "type": "string"
        },
        {
          "internalType": "string",
          "name": "name",
          "type": "string"
        },
        {
          "internalType": "string",
          "name": "sym",
          "type": "string"
        },
        {
          "internalType": "uint256",
          "name": "id",
          "type": "uint256"
        },
        {
          "internalType": "uint256",
          "name": "issue_num",
          "type": "uint256"
        },
        {
          "internalType": "uint256",
          "name": "mint_date",
          "type": "uint256"
        },
        {
          "internalType": "uint256",
          "name": "cost",
          "type": "uint256"
        },
        {
          "internalType": "uint256",
          "name": "angel_coefficient",
          "type": "uint256"
        },
        {
          "internalType": "uint256",
          "name": "status",
          "type": "uint256"
        },
        {
          "internalType": "string",
          "name": "product",
          "type": "string"
        }
      ],
      "stateMutability": "view",
      "type": "function",
      "constant": true
    },
    {
      "inputs": [],
      "name": "mintData",
      "outputs": [
        {
          "internalType": "bytes",
          "name": "",
          "type": "bytes"
        }
      ],
      "stateMutability": "view",
      "type": "function",
      "constant": true
    },
    {
      "inputs": [],
      "name": "name",
      "outputs": [
        {
          "internalType": "string",
          "name": "",
          "type": "string"
        }
      ],
      "stateMutability": "view",
      "type": "function",
      "constant": true
    },
    {
      "inputs": [
        {
          "internalType": "uint256",
          "name": "tokenId",
          "type": "uint256"
        }
      ],
      "name": "ownerOf",
      "outputs": [
        {
          "internalType": "address",
          "name": "",
          "type": "address"
        }
      ],
      "stateMutability": "view",
      "type": "function",
      "constant": true
    },
    {
      "inputs": [
        {
          "internalType": "address",
          "name": "from",
          "type": "address"
        },
        {
          "internalType": "address",
          "name": "to",
          "type": "address"
        },
        {
          "internalType": "uint256",
          "name": "tokenId",
          "type": "uint256"
        }
      ],
      "name": "safeTransferFrom",
      "outputs": [],
      "stateMutability": "nonpayable",
      "type": "function"
    },
    {
      "inputs": [
        {
          "internalType": "address",
          "name": "from",
          "type": "address"
        },
        {
          "internalType": "address",
          "name": "to",
          "type": "address"
        },
        {
          "internalType": "uint256",
          "name": "tokenId",
          "type": "uint256"
        },
        {
          "internalType": "bytes",
          "name": "_data",
          "type": "bytes"
        }
      ],
      "name": "safeTransferFrom",
      "outputs": [],
      "stateMutability": "nonpayable",
      "type": "function"
    },
    {
      "inputs": [
        {
          "internalType": "address",
          "name": "operator",
          "type": "address"
        },
        {
          "internalType": "bool",
          "name": "approved",
          "type": "bool"
        }
      ],
      "name": "setApprovalForAll",
      "outputs": [],
      "stateMutability": "nonpayable",
      "type": "function"
    },
    {
      "inputs": [
        {
          "internalType": "bytes4",
          "name": "interfaceId",
          "type": "bytes4"
        }
      ],
      "name": "supportsInterface",
      "outputs": [
        {
          "internalType": "bool",
          "name": "",
          "type": "bool"
        }
      ],
      "stateMutability": "view",
      "type": "function",
      "constant": true
    },
    {
      "inputs": [],
      "name": "symbol",
      "outputs": [
        {
          "internalType": "string",
          "name": "",
          "type": "string"
        }
      ],
      "stateMutability": "view",
      "type": "function",
      "constant": true
    },
    {
      "inputs": [
        {
          "internalType": "uint256",
          "name": "index",
          "type": "uint256"
        }
      ],
      "name": "tokenByIndex",
      "outputs": [
        {
          "internalType": "uint256",
          "name": "",
          "type": "uint256"
        }
      ],
      "stateMutability": "view",
      "type": "function",
      "constant": true
    },
    {
      "inputs": [
        {
          "internalType": "address",
          "name": "owner",
          "type": "address"
        },
        {
          "internalType": "uint256",
          "name": "index",
          "type": "uint256"
        }
      ],
      "name": "tokenOfOwnerByIndex",
      "outputs": [
        {
          "internalType": "uint256",
          "name": "",
          "type": "uint256"
        }
      ],
      "stateMutability": "view",
      "type": "function",
      "constant": true
    },
    {
      "inputs": [
        {
          "internalType": "uint256",
          "name": "tokenId",
          "type": "uint256"
        }
      ],
      "name": "tokenURI",
      "outputs": [
        {
          "internalType": "string",
          "name": "",
          "type": "string"
        }
      ],
      "stateMutability": "view",
      "type": "function",
      "constant": true
    },
    {
      "inputs": [],
      "name": "totalSupply",
      "outputs": [
        {
          "internalType": "uint256",
          "name": "",
          "type": "uint256"
        }
      ],
      "stateMutability": "view",
      "type": "function",
      "constant": true
    },
    {
      "inputs": [
        {
          "internalType": "address",
          "name": "from",
          "type": "address"
        },
        {
          "internalType": "address",
          "name": "to",
          "type": "address"
        },
        {
          "internalType": "uint256",
          "name": "tokenId",
          "type": "uint256"
        }
      ],
      "name": "transferFrom",
      "outputs": [],
      "stateMutability": "nonpayable",
      "type": "function"
    },
    {
      "inputs": [
        {
          "internalType": "string",
          "name": "_ename",
          "type": "string"
        },
        {
          "internalType": "string",
          "name": "_esym",
          "type": "string"
        },
        {
          "internalType": "uint256",
          "name": "_issue_num",
          "type": "uint256"
        },
        {
          "internalType": "uint256",
          "name": "_mint_date",
          "type": "uint256"
        },
        {
          "internalType": "uint256",
          "name": "_cost",
          "type": "uint256"
        },
        {
          "internalType": "uint256",
          "name": "_angel_coefficient",
          "type": "uint256"
        },
        {
          "internalType": "uint256",
          "name": "_status",
          "type": "uint256"
        },
        {
          "internalType": "string",
          "name": "_product",
          "type": "string"
        }
      ],
      "name": "manifestAngelToken",
      "outputs": [],
      "stateMutability": "nonpayable",
      "type": "function"
    },
    {
      "inputs": [
        {
          "internalType": "string",
          "name": "source",
          "type": "string"
        }
      ],
      "name": "stringToBytes32",
      "outputs": [
        {
          "internalType": "bytes32",
          "name": "result",
          "type": "bytes32"
        }
      ],
      "stateMutability": "pure",
      "type": "function",
      "constant": true
    }
  ],
  "bytecode": "0x60806040523480156200001157600080fd5b50604051620054373803806200543783398181016040526101008110156200003857600080fd5b81019080805160405193929190846401000000008211156200005957600080fd5b838201915060208201858111156200007057600080fd5b82518660018202830111640100000000821117156200008e57600080fd5b8083526020830192505050908051906020019080838360005b83811015620000c4578082015181840152602081019050620000a7565b50505050905090810190601f168015620000f25780820380516001836020036101000a031916815260200191505b50604052602001805160405193929190846401000000008211156200011657600080fd5b838201915060208201858111156200012d57600080fd5b82518660018202830111640100000000821117156200014b57600080fd5b8083526020830192505050908051906020019080838360005b838110156200018157808201518184015260208101905062000164565b50505050905090810190601f168015620001af5780820380516001836020036101000a031916815260200191505b506040526020018051906020019092919080519060200190929190805190602001909291908051906020019092919080519060200190929190805160405193929190846401000000008211156200020557600080fd5b838201915060208201858111156200021c57600080fd5b82518660018202830111640100000000821117156200023a57600080fd5b8083526020830192505050908051906020019080838360005b838110156200027057808201518184015260208101905062000253565b50505050905090810190601f1680156200029e5780820380516001836020036101000a031916815260200191505b506040525050506040518060400160405280600a81526020017f416e67656c546f6b656e000000000000000000000000000000000000000000008152506040518060400160405280600581526020017f414e47454c000000000000000000000000000000000000000000000000000000815250620003296301ffc9a760e01b620003cb60201b60201c565b816006908051906020019062000341929190620011f2565b5080600790805190602001906200035a929190620011f2565b50620003736380ac58cd60e01b620003cb60201b60201c565b6200038b635b5e139f60e01b620003cb60201b60201c565b620003a363780e9d6360e01b620003cb60201b60201c565b5050620003bd8888888888888888620004d460201b60201c565b505050505050505062001372565b63ffffffff60e01b817bffffffffffffffffffffffffffffffffffffffffffffffffffffffff1916141562000468576040517f08c379a000000000000000000000000000000000000000000000000000000000815260040180806020018281038252601c8152602001807f4552433136353a20696e76616c696420696e746572666163652069640000000081525060200191505060405180910390fd5b6001600080837bffffffffffffffffffffffffffffffffffffffffffffffffffffffff19167bffffffffffffffffffffffffffffffffffffffffffffffffffffffff1916815260200190815260200160002060006101000a81548160ff02191690831515021790555050565b6000620004e7896200050e60201b60201c565b9050620005028989838a8a8a8a8a8a620005aa60201b60201c565b50505050505050505050565b600080662386f26fc1000090506000836040516020018082805190602001908083835b6020831062000556578051825260208201915060208101905060208303925062000531565b6001836020036101000a0380198251168184511680821785525050505050509050019150506040516020818303038152906040528051906020012060001c9050818181620005a057fe5b0692505050919050565b6000600c600089815260200190815260200160002060009054906101000a900460ff1615620005d857600080fd5b88620005ef8962000c4260201b6200238f1760201c565b6040516020018083805190602001908083835b6020831062000627578051825260208201915060208101905060208303925062000602565b6001836020036101000a03801982511681845116808217855250505050505090500182805190602001908083835b602083106200067a578051825260208201915060208101905060208303925062000655565b6001836020036101000a03801982511681845116808217855250505050505090500192505050604051602081830303815290604052600a9080519060200190620006c692919062001279565b506060600a8054600181600116156101000203166002900480601f016020809104026020016040519081016040528092919081815260200182805460018160011615610100020316600290048015620007635780601f10620007375761010080835404028352916020019162000763565b820191906000526020600020905b8154815290600101906020018083116200074557829003601f168201915b505050505090506200077462001300565b8181600001819052508b81602001819052508a81604001819052508981606001818152505088816080018181525050878160a0018181525050868160c0018181525050858160e0018181525050848161010001818152505083816101200181905250600e8190806001815401808255809150506001900390600052602060002090600a0201600090919091909150600082015181600001908051906020019062000820929190620011f2565b5060208201518160010190805190602001906200083f929190620011f2565b5060408201518160020190805190602001906200085e929190620011f2565b50606082015181600301556080820151816004015560a0820151816005015560c0820151816006015560e082015181600701556101008201518160080155610120820151816009019080519060200190620008bb929190620011f2565b5050506001600c60008c815260200190815260200160002060006101000a81548160ff02191690831515021790555080600d60008c815260200190815260200160002060008201518160000190805190602001906200091c929190620011f2565b5060208201518160010190805190602001906200093b929190620011f2565b5060408201518160020190805190602001906200095a929190620011f2565b50606082015181600301556080820151816004015560a0820151816005015560c0820151816006015560e082015181600701556101008201518160080155610120820151816009019080519060200190620009b7929190620011f2565b5090505089600b60003373ffffffffffffffffffffffffffffffffffffffff1673ffffffffffffffffffffffffffffffffffffffff1681526020019081526020016000208190555062000a11338b62000d9560201b60201c565b7f6a04168520174b5a6c4c6756da84236dd5310ed0345d6f627a3f85d295762c15828d8d8d8d8d8d8d8d8d604051808060200180602001806020018b81526020018a81526020018981526020018881526020018781526020018681526020018060200185810385528f818151815260200191508051906020019080838360005b8381101562000aae57808201518184015260208101905062000a91565b50505050905090810190601f16801562000adc5780820380516001836020036101000a031916815260200191505b5085810384528e818151815260200191508051906020019080838360005b8381101562000b1757808201518184015260208101905062000afa565b50505050905090810190601f16801562000b455780820380516001836020036101000a031916815260200191505b5085810383528d818151815260200191508051906020019080838360005b8381101562000b8057808201518184015260208101905062000b63565b50505050905090810190601f16801562000bae5780820380516001836020036101000a031916815260200191505b50858103825286818151815260200191508051906020019080838360005b8381101562000be957808201518184015260208101905062000bcc565b50505050905090810190601f16801562000c175780820380516001836020036101000a031916815260200191505b509e50505050505050505050505050505060405180910390a189925050509998505050505050505050565b6060600082141562000c8c576040518060400160405280600181526020017f3000000000000000000000000000000000000000000000000000000000000000815250905062000d90565b600082905060005b6000821462000cb9578080600101915050600a828162000cb057fe5b04915062000c94565b60608167ffffffffffffffff8111801562000cd357600080fd5b506040519080825280601f01601f19166020018201604052801562000d075781602001600182028036833780820191505090505b50905060006001830390508593505b6000841462000d8857600a848162000d2a57fe5b0660300160f81b8282806001900393508151811062000d4557fe5b60200101907effffffffffffffffffffffffffffffffffffffffffffffffffffffffffffff1916908160001a905350600a848162000d7f57fe5b04935062000d16565b819450505050505b919050565b600073ffffffffffffffffffffffffffffffffffffffff168273ffffffffffffffffffffffffffffffffffffffff16141562000e39576040517f08c379a00000000000000000000000000000000000000000000000000000000081526004018080602001828103825260208152602001807f4552433732313a206d696e7420746f20746865207a65726f206164647265737381525060200191505060405180910390fd5b62000e4a8162000fa960201b60201c565b1562000ebe576040517f08c379a000000000000000000000000000000000000000000000000000000000815260040180806020018281038252601c8152602001807f4552433732313a20746f6b656e20616c7265616479206d696e7465640000000081525060200191505060405180910390fd5b62000ed26000838362000fcd60201b60201c565b62000f2a81600160008573ffffffffffffffffffffffffffffffffffffffff1673ffffffffffffffffffffffffffffffffffffffff16815260200190815260200160002062000fd260201b620024d61790919060201c565b5062000f488183600262000ff460201b620024f0179092919060201c565b50808273ffffffffffffffffffffffffffffffffffffffff16600073ffffffffffffffffffffffffffffffffffffffff167fddf252ad1be2c89b69c2b068fc378daa952ba7f163c4a11628f55a4df523b3ef60405160405180910390a45050565b600062000fc68260026200103160201b620025251790919060201c565b9050919050565b505050565b600062000fec836000018360001b6200105360201b60201c565b905092915050565b600062001028846000018460001b8473ffffffffffffffffffffffffffffffffffffffff1660001b620010cd60201b60201c565b90509392505050565b60006200104b836000018360001b620011ac60201b60201c565b905092915050565b6000620010678383620011cf60201b60201c565b620010c2578260000182908060018154018082558091505060019003906000526020600020016000909190919091505582600001805490508360010160008481526020019081526020016000208190555060019050620010c7565b600090505b92915050565b60008084600101600085815260200190815260200160002054905060008114156200117657846000016040518060400160405280868152602001858152509080600181540180825580915050600190039060005260206000209060020201600090919091909150600082015181600001556020820151816001015550508460000180549050856001016000868152602001908152602001600020819055506001915050620011a5565b828560000160018303815481106200118a57fe5b90600052602060002090600202016001018190555060009150505b9392505050565b600080836001016000848152602001908152602001600020541415905092915050565b600080836001016000848152602001908152602001600020541415905092915050565b828054600181600116156101000203166002900490600052602060002090601f016020900481019282601f106200123557805160ff191683800117855562001266565b8280016001018555821562001266579182015b828111156200126557825182559160200191906001019062001248565b5b50905062001275919062001353565b5090565b828054600181600116156101000203166002900490600052602060002090601f016020900481019282601f10620012bc57805160ff1916838001178555620012ed565b82800160010185558215620012ed579182015b82811115620012ec578251825591602001919060010190620012cf565b5b509050620012fc919062001353565b5090565b604051806101400160405280606081526020016060815260200160608152602001600081526020016000815260200160008152602001600081526020016000815260200160008152602001606081525090565b5b808211156200136e57600081600090555060010162001354565b5090565b6140b580620013826000396000f3fe608060405234801561001057600080fd5b50600436106101585760003560e01c80636352211e116100c3578063a2fe5f6f1161007c578063a2fe5f6f146109c8578063b88d4fde14610bdd578063c87b56dd14610ce2578063cfb5192814610d89578063d2a55e3314610e58578063e985e9c51461106d57610158565b80636352211e146105a65780636c0360eb146105fe57806370a08231146106815780638c60a24b146106d957806395d89b41146108f5578063a22cb4651461097857610158565b80632f745c59116101155780632f745c591461037557806342842e0e146103d75780634b8ae8cd146104455780634f6ccce7146104895780635195e8c5146104cb5780635e2f31e71461054e57610158565b806301ffc9a71461015d57806306fdde03146101c0578063081812fc14610243578063095ea7b31461029b57806318160ddd146102e957806323b872dd14610307575b600080fd5b6101a86004803603602081101561017357600080fd5b8101908080357bffffffffffffffffffffffffffffffffffffffffffffffffffffffff191690602001909291905050506110e7565b60405180821515815260200191505060405180910390f35b6101c861114e565b6040518080602001828103825283818151815260200191508051906020019080838360005b838110156102085780820151818401526020810190506101ed565b50505050905090810190601f1680156102355780820380516001836020036101000a031916815260200191505b509250505060405180910390f35b61026f6004803603602081101561025957600080fd5b81019080803590602001909291905050506111f0565b604051808273ffffffffffffffffffffffffffffffffffffffff16815260200191505060405180910390f35b6102e7600480360360408110156102b157600080fd5b81019080803573ffffffffffffffffffffffffffffffffffffffff1690602001909291908035906020019092919050505061128b565b005b6102f16113cf565b6040518082815260200191505060405180910390f35b6103736004803603606081101561031d57600080fd5b81019080803573ffffffffffffffffffffffffffffffffffffffff169060200190929190803573ffffffffffffffffffffffffffffffffffffffff169060200190929190803590602001909291905050506113e0565b005b6103c16004803603604081101561038b57600080fd5b81019080803573ffffffffffffffffffffffffffffffffffffffff16906020019092919080359060200190929190505050611456565b6040518082815260200191505060405180910390f35b610443600480360360608110156103ed57600080fd5b81019080803573ffffffffffffffffffffffffffffffffffffffff169060200190929190803573ffffffffffffffffffffffffffffffffffffffff169060200190929190803590602001909291905050506114b1565b005b6104716004803603602081101561045b57600080fd5b81019080803590602001909291905050506114d1565b60405180821515815260200191505060405180910390f35b6104b56004803603602081101561049f57600080fd5b81019080803590602001909291905050506114f1565b6040518082815260200191505060405180910390f35b6104d3611514565b6040518080602001828103825283818151815260200191508051906020019080838360005b838110156105135780820151818401526020810190506104f8565b50505050905090810190601f1680156105405780820380516001836020036101000a031916815260200191505b509250505060405180910390f35b6105906004803603602081101561056457600080fd5b81019080803573ffffffffffffffffffffffffffffffffffffffff1690602001909291905050506115b2565b6040518082815260200191505060405180910390f35b6105d2600480360360208110156105bc57600080fd5b81019080803590602001909291905050506115ca565b604051808273ffffffffffffffffffffffffffffffffffffffff16815260200191505060405180910390f35b610606611601565b6040518080602001828103825283818151815260200191508051906020019080838360005b8381101561064657808201518184015260208101905061062b565b50505050905090810190601f1680156106735780820380516001836020036101000a031916815260200191505b509250505060405180910390f35b6106c36004803603602081101561069757600080fd5b81019080803573ffffffffffffffffffffffffffffffffffffffff1690602001909291905050506116a3565b6040518082815260200191505060405180910390f35b6108f360048036036101008110156106f057600080fd5b810190808035906020019064010000000081111561070d57600080fd5b82018360208201111561071f57600080fd5b8035906020019184600183028401116401000000008311171561074157600080fd5b91908080601f016020809104026020016040519081016040528093929190818152602001838380828437600081840152601f19601f820116905080830192505050505050509192919290803590602001906401000000008111156107a457600080fd5b8201836020820111156107b657600080fd5b803590602001918460018302840111640100000000831117156107d857600080fd5b91908080601f016020809104026020016040519081016040528093929190818152602001838380828437600081840152601f19601f82011690508083019250505050505050919291929080359060200190929190803590602001909291908035906020019092919080359060200190929190803590602001909291908035906020019064010000000081111561086d57600080fd5b82018360208201111561087f57600080fd5b803590602001918460018302840111640100000000831117156108a157600080fd5b91908080601f016020809104026020016040519081016040528093929190818152602001838380828437600081840152601f19601f820116905080830192505050505050509192919290505050611778565b005b6108fd6117a2565b6040518080602001828103825283818151815260200191508051906020019080838360005b8381101561093d578082015181840152602081019050610922565b50505050905090810190601f16801561096a5780820380516001836020036101000a031916815260200191505b509250505060405180910390f35b6109c66004803603604081101561098e57600080fd5b81019080803573ffffffffffffffffffffffffffffffffffffffff169060200190929190803515159060200190929190505050611844565b005b6109f4600480360360208110156109de57600080fd5b81019080803590602001909291905050506119fa565b604051808060200180602001806020018b81526020018a81526020018981526020018881526020018781526020018681526020018060200185810385528f818151815260200191508051906020019080838360005b83811015610a64578082015181840152602081019050610a49565b50505050905090810190601f168015610a915780820380516001836020036101000a031916815260200191505b5085810384528e818151815260200191508051906020019080838360005b83811015610aca578082015181840152602081019050610aaf565b50505050905090810190601f168015610af75780820380516001836020036101000a031916815260200191505b5085810383528d818151815260200191508051906020019080838360005b83811015610b30578082015181840152602081019050610b15565b50505050905090810190601f168015610b5d5780820380516001836020036101000a031916815260200191505b50858103825286818151815260200191508051906020019080838360005b83811015610b96578082015181840152602081019050610b7b565b50505050905090810190601f168015610bc35780820380516001836020036101000a031916815260200191505b509e50505050505050505050505050505060405180910390f35b610ce060048036036080811015610bf357600080fd5b81019080803573ffffffffffffffffffffffffffffffffffffffff169060200190929190803573ffffffffffffffffffffffffffffffffffffffff1690602001909291908035906020019092919080359060200190640100000000811115610c5a57600080fd5b820183602082011115610c6c57600080fd5b80359060200191846001830284011164010000000083111715610c8e57600080fd5b91908080601f016020809104026020016040519081016040528093929190818152602001838380828437600081840152601f19601f820116905080830192505050505050509192919290505050611cae565b005b610d0e60048036036020811015610cf857600080fd5b8101908080359060200190929190505050611d26565b6040518080602001828103825283818151815260200191508051906020019080838360005b83811015610d4e578082015181840152602081019050610d33565b50505050905090810190601f168015610d7b5780820380516001836020036101000a031916815260200191505b509250505060405180910390f35b610e4260048036036020811015610d9f57600080fd5b8101908080359060200190640100000000811115610dbc57600080fd5b820183602082011115610dce57600080fd5b80359060200191846001830284011164010000000083111715610df057600080fd5b91908080601f016020809104026020016040519081016040528093929190818152602001838380828437600081840152601f19601f82011690508083019250505050505050919291929050505061200f565b6040518082815260200191505060405180910390f35b610e8460048036036020811015610e6e57600080fd5b810190808035906020019092919050505061203a565b604051808060200180602001806020018b81526020018a81526020018981526020018881526020018781526020018681526020018060200185810385528f818151815260200191508051906020019080838360005b83811015610ef4578082015181840152602081019050610ed9565b50505050905090810190601f168015610f215780820380516001836020036101000a031916815260200191505b5085810384528e818151815260200191508051906020019080838360005b83811015610f5a578082015181840152602081019050610f3f565b50505050905090810190601f168015610f875780820380516001836020036101000a031916815260200191505b5085810383528d818151815260200191508051906020019080838360005b83811015610fc0578082015181840152602081019050610fa5565b50505050905090810190601f168015610fed5780820380516001836020036101000a031916815260200191505b50858103825286818151815260200191508051906020019080838360005b8381101561102657808201518184015260208101905061100b565b50505050905090810190601f1680156110535780820380516001836020036101000a031916815260200191505b509e50505050505050505050505050505060405180910390f35b6110cf6004803603604081101561108357600080fd5b81019080803573ffffffffffffffffffffffffffffffffffffffff169060200190929190803573ffffffffffffffffffffffffffffffffffffffff1690602001909291905050506122fb565b60405180821515815260200191505060405180910390f35b6000806000837bffffffffffffffffffffffffffffffffffffffffffffffffffffffff19167bffffffffffffffffffffffffffffffffffffffffffffffffffffffff1916815260200190815260200160002060009054906101000a900460ff169050919050565b606060068054600181600116156101000203166002900480601f0160208091040260200160405190810160405280929190818152602001828054600181600116156101000203166002900480156111e65780601f106111bb576101008083540402835291602001916111e6565b820191906000526020600020905b8154815290600101906020018083116111c957829003601f168201915b5050505050905090565b60006111fb8261253f565b611250576040517f08c379a000000000000000000000000000000000000000000000000000000000815260040180806020018281038252602c815260200180613faa602c913960400191505060405180910390fd5b6004600083815260200190815260200160002060009054906101000a900473ffffffffffffffffffffffffffffffffffffffff169050919050565b6000611296826115ca565b90508073ffffffffffffffffffffffffffffffffffffffff168373ffffffffffffffffffffffffffffffffffffffff16141561131d576040517f08c379a000000000000000000000000000000000000000000000000000000000815260040180806020018281038252602181526020018061402e6021913960400191505060405180910390fd5b8073ffffffffffffffffffffffffffffffffffffffff1661133c61255c565b73ffffffffffffffffffffffffffffffffffffffff16148061136b575061136a8161136561255c565b6122fb565b5b6113c0576040517f08c379a0000000000000000000000000000000000000000000000000000000008152600401808060200182810382526038815260200180613efd6038913960400191505060405180910390fd5b6113ca8383612564565b505050565b60006113db600261261d565b905090565b6113f16113eb61255c565b82612632565b611446576040517f08c379a000000000000000000000000000000000000000000000000000000000815260040180806020018281038252603181526020018061404f6031913960400191505060405180910390fd5b611451838383612726565b505050565b60006114a982600160008673ffffffffffffffffffffffffffffffffffffffff1673ffffffffffffffffffffffffffffffffffffffff16815260200190815260200160002061296990919063ffffffff16565b905092915050565b6114cc83838360405180602001604052806000815250611cae565b505050565b600c6020528060005260406000206000915054906101000a900460ff1681565b60008061150883600261298390919063ffffffff16565b50905080915050919050565b600a8054600181600116156101000203166002900480601f0160208091040260200160405190810160405280929190818152602001828054600181600116156101000203166002900480156115aa5780601f1061157f576101008083540402835291602001916115aa565b820191906000526020600020905b81548152906001019060200180831161158d57829003601f168201915b505050505081565b600b6020528060005260406000206000915090505481565b60006115fa82604051806060016040528060298152602001613f5f6029913960026129af9092919063ffffffff16565b9050919050565b606060098054600181600116156101000203166002900480601f0160208091040260200160405190810160405280929190818152602001828054600181600116156101000203166002900480156116995780601f1061166e57610100808354040283529160200191611699565b820191906000526020600020905b81548152906001019060200180831161167c57829003601f168201915b5050505050905090565b60008073ffffffffffffffffffffffffffffffffffffffff168273ffffffffffffffffffffffffffffffffffffffff16141561172a576040517f08c379a000000000000000000000000000000000000000000000000000000000815260040180806020018281038252602a815260200180613f35602a913960400191505060405180910390fd5b611771600160008473ffffffffffffffffffffffffffffffffffffffff1673ffffffffffffffffffffffffffffffffffffffff1681526020019081526020016000206129ce565b9050919050565b6000611783896129e3565b90506117968989838a8a8a8a8a8a612a7c565b50505050505050505050565b606060078054600181600116156101000203166002900480601f01602080910402602001604051908101604052809291908181526020018280546001816001161561010002031660029004801561183a5780601f1061180f5761010080835404028352916020019161183a565b820191906000526020600020905b81548152906001019060200180831161181d57829003601f168201915b5050505050905090565b61184c61255c565b73ffffffffffffffffffffffffffffffffffffffff168273ffffffffffffffffffffffffffffffffffffffff1614156118ed576040517f08c379a00000000000000000000000000000000000000000000000000000000081526004018080602001828103825260198152602001807f4552433732313a20617070726f766520746f2063616c6c65720000000000000081525060200191505060405180910390fd5b80600560006118fa61255c565b73ffffffffffffffffffffffffffffffffffffffff1673ffffffffffffffffffffffffffffffffffffffff16815260200190815260200160002060008473ffffffffffffffffffffffffffffffffffffffff1673ffffffffffffffffffffffffffffffffffffffff16815260200190815260200160002060006101000a81548160ff0219169083151502179055508173ffffffffffffffffffffffffffffffffffffffff166119a761255c565b73ffffffffffffffffffffffffffffffffffffffff167f17307eab39ab6107e8899845ad3d59bd9653f200f220920489ca2b5937696c318360405180821515815260200191505060405180910390a35050565b600d602052806000526040600020600091509050806000018054600181600116156101000203166002900480601f016020809104026020016040519081016040528092919081815260200182805460018160011615610100020316600290048015611aa65780601f10611a7b57610100808354040283529160200191611aa6565b820191906000526020600020905b815481529060010190602001808311611a8957829003601f168201915b505050505090806001018054600181600116156101000203166002900480601f016020809104026020016040519081016040528092919081815260200182805460018160011615610100020316600290048015611b445780601f10611b1957610100808354040283529160200191611b44565b820191906000526020600020905b815481529060010190602001808311611b2757829003601f168201915b505050505090806002018054600181600116156101000203166002900480601f016020809104026020016040519081016040528092919081815260200182805460018160011615610100020316600290048015611be25780601f10611bb757610100808354040283529160200191611be2565b820191906000526020600020905b815481529060010190602001808311611bc557829003601f168201915b505050505090806003015490806004015490806005015490806006015490806007015490806008015490806009018054600181600116156101000203166002900480601f016020809104026020016040519081016040528092919081815260200182805460018160011615610100020316600290048015611ca45780601f10611c7957610100808354040283529160200191611ca4565b820191906000526020600020905b815481529060010190602001808311611c8757829003601f168201915b505050505090508a565b611cbf611cb961255c565b83612632565b611d14576040517f08c379a000000000000000000000000000000000000000000000000000000000815260040180806020018281038252603181526020018061404f6031913960400191505060405180910390fd5b611d20848484846130d6565b50505050565b6060611d318261253f565b611d86576040517f08c379a000000000000000000000000000000000000000000000000000000000815260040180806020018281038252602f815260200180613fff602f913960400191505060405180910390fd5b6060600860008481526020019081526020016000208054600181600116156101000203166002900480601f016020809104026020016040519081016040528092919081815260200182805460018160011615610100020316600290048015611e2f5780601f10611e0457610100808354040283529160200191611e2f565b820191906000526020600020905b815481529060010190602001808311611e1257829003601f168201915b50505050509050600060098054600181600116156101000203166002900490501415611e5e578091505061200a565b600081511115611f37576009816040516020018083805460018160011615610100020316600290048015611ec95780601f10611ea7576101008083540402835291820191611ec9565b820191906000526020600020905b815481529060010190602001808311611eb5575b505082805190602001908083835b60208310611efa5780518252602082019150602081019050602083039250611ed7565b6001836020036101000a0380198251168184511680821785525050505050509050019250505060405160208183030381529060405291505061200a565b6009611f428461238f565b6040516020018083805460018160011615610100020316600290048015611fa05780601f10611f7e576101008083540402835291820191611fa0565b820191906000526020600020905b815481529060010190602001808311611f8c575b505082805190602001908083835b60208310611fd15780518252602082019150602081019050602083039250611fae565b6001836020036101000a038019825116818451168082178552505050505050905001925050506040516020818303038152906040529150505b919050565b6000606082905060008151141561202c576000801b915050612035565b60208301519150505b919050565b600e818154811061204757fe5b90600052602060002090600a0201600091509050806000018054600181600116156101000203166002900480601f0160208091040260200160405190810160405280929190818152602001828054600181600116156101000203166002900480156120f35780601f106120c8576101008083540402835291602001916120f3565b820191906000526020600020905b8154815290600101906020018083116120d657829003601f168201915b505050505090806001018054600181600116156101000203166002900480601f0160208091040260200160405190810160405280929190818152602001828054600181600116156101000203166002900480156121915780601f1061216657610100808354040283529160200191612191565b820191906000526020600020905b81548152906001019060200180831161217457829003601f168201915b505050505090806002018054600181600116156101000203166002900480601f01602080910402602001604051908101604052809291908181526020018280546001816001161561010002031660029004801561222f5780601f106122045761010080835404028352916020019161222f565b820191906000526020600020905b81548152906001019060200180831161221257829003601f168201915b505050505090806003015490806004015490806005015490806006015490806007015490806008015490806009018054600181600116156101000203166002900480601f0160208091040260200160405190810160405280929190818152602001828054600181600116156101000203166002900480156122f15780601f106122c6576101008083540402835291602001916122f1565b820191906000526020600020905b8154815290600101906020018083116122d457829003601f168201915b505050505090508a565b6000600560008473ffffffffffffffffffffffffffffffffffffffff1673ffffffffffffffffffffffffffffffffffffffff16815260200190815260200160002060008373ffffffffffffffffffffffffffffffffffffffff1673ffffffffffffffffffffffffffffffffffffffff16815260200190815260200160002060009054906101000a900460ff16905092915050565b606060008214156123d7576040518060400160405280600181526020017f300000000000000000000000000000000000000000000000000000000000000081525090506124d1565b600082905060005b60008214612401578080600101915050600a82816123f957fe5b0491506123df565b60608167ffffffffffffffff8111801561241a57600080fd5b506040519080825280601f01601f19166020018201604052801561244d5781602001600182028036833780820191505090505b50905060006001830390508593505b600084146124c957600a848161246e57fe5b0660300160f81b8282806001900393508151811061248857fe5b60200101907effffffffffffffffffffffffffffffffffffffffffffffffffffffffffffff1916908160001a905350600a84816124c157fe5b04935061245c565b819450505050505b919050565b60006124e8836000018360001b613148565b905092915050565b600061251c846000018460001b8473ffffffffffffffffffffffffffffffffffffffff1660001b6131b8565b90509392505050565b6000612537836000018360001b613294565b905092915050565b600061255582600261252590919063ffffffff16565b9050919050565b600033905090565b816004600083815260200190815260200160002060006101000a81548173ffffffffffffffffffffffffffffffffffffffff021916908373ffffffffffffffffffffffffffffffffffffffff160217905550808273ffffffffffffffffffffffffffffffffffffffff166125d7836115ca565b73ffffffffffffffffffffffffffffffffffffffff167f8c5be1e5ebec7d5bd14f71427d1e84f3dd0314c0f7b2291e5b200ac8c7c3b92560405160405180910390a45050565b600061262b826000016132b7565b9050919050565b600061263d8261253f565b612692576040517f08c379a000000000000000000000000000000000000000000000000000000000815260040180806020018281038252602c815260200180613ed1602c913960400191505060405180910390fd5b600061269d836115ca565b90508073ffffffffffffffffffffffffffffffffffffffff168473ffffffffffffffffffffffffffffffffffffffff16148061270c57508373ffffffffffffffffffffffffffffffffffffffff166126f4846111f0565b73ffffffffffffffffffffffffffffffffffffffff16145b8061271d575061271c81856122fb565b5b91505092915050565b8273ffffffffffffffffffffffffffffffffffffffff16612746826115ca565b73ffffffffffffffffffffffffffffffffffffffff16146127b2576040517f08c379a0000000000000000000000000000000000000000000000000000000008152600401808060200182810382526029815260200180613fd66029913960400191505060405180910390fd5b600073ffffffffffffffffffffffffffffffffffffffff168273ffffffffffffffffffffffffffffffffffffffff161415612838576040517f08c379a0000000000000000000000000000000000000000000000000000000008152600401808060200182810382526024815260200180613e876024913960400191505060405180910390fd5b6128438383836132c8565b61284e600082612564565b61289f81600160008673ffffffffffffffffffffffffffffffffffffffff1673ffffffffffffffffffffffffffffffffffffffff1681526020019081526020016000206132cd90919063ffffffff16565b506128f181600160008573ffffffffffffffffffffffffffffffffffffffff1673ffffffffffffffffffffffffffffffffffffffff1681526020019081526020016000206124d690919063ffffffff16565b50612908818360026124f09092919063ffffffff16565b50808273ffffffffffffffffffffffffffffffffffffffff168473ffffffffffffffffffffffffffffffffffffffff167fddf252ad1be2c89b69c2b068fc378daa952ba7f163c4a11628f55a4df523b3ef60405160405180910390a4505050565b600061297883600001836132e7565b60001c905092915050565b600080600080612996866000018661336a565b915091508160001c8160001c9350935050509250929050565b60006129c2846000018460001b84613403565b60001c90509392505050565b60006129dc826000016134f9565b9050919050565b600080662386f26fc1000090506000836040516020018082805190602001908083835b60208310612a295780518252602082019150602081019050602083039250612a06565b6001836020036101000a0380198251168184511680821785525050505050509050019150506040516020818303038152906040528051906020012060001c9050818181612a7257fe5b0692505050919050565b6000600c600089815260200190815260200160002060009054906101000a900460ff1615612aa957600080fd5b88612ab38961238f565b6040516020018083805190602001908083835b60208310612ae95780518252602082019150602081019050602083039250612ac6565b6001836020036101000a03801982511681845116808217855250505050505090500182805190602001908083835b60208310612b3a5780518252602082019150602081019050602083039250612b17565b6001836020036101000a03801982511681845116808217855250505050505090500192505050604051602081830303815290604052600a9080519060200190612b84929190613cc2565b506060600a8054600181600116156101000203166002900480601f016020809104026020016040519081016040528092919081815260200182805460018160011615610100020316600290048015612c1d5780601f10612bf257610100808354040283529160200191612c1d565b820191906000526020600020905b815481529060010190602001808311612c0057829003601f168201915b50505050509050612c2c613d42565b8181600001819052508b81602001819052508a81604001819052508981606001818152505088816080018181525050878160a0018181525050868160c0018181525050858160e0018181525050848161010001818152505083816101200181905250600e8190806001815401808255809150506001900390600052602060002090600a02016000909190919091506000820151816000019080519060200190612cd6929190613d95565b506020820151816001019080519060200190612cf3929190613d95565b506040820151816002019080519060200190612d10929190613d95565b50606082015181600301556080820151816004015560a0820151816005015560c0820151816006015560e082015181600701556101008201518160080155610120820151816009019080519060200190612d6b929190613d95565b5050506001600c60008c815260200190815260200160002060006101000a81548160ff02191690831515021790555080600d60008c81526020019081526020016000206000820151816000019080519060200190612dca929190613d95565b506020820151816001019080519060200190612de7929190613d95565b506040820151816002019080519060200190612e04929190613d95565b50606082015181600301556080820151816004015560a0820151816005015560c0820151816006015560e082015181600701556101008201518160080155610120820151816009019080519060200190612e5f929190613d95565b5090505089600b60003373ffffffffffffffffffffffffffffffffffffffff1673ffffffffffffffffffffffffffffffffffffffff16815260200190815260200160002081905550612eb1338b61350a565b7f6a04168520174b5a6c4c6756da84236dd5310ed0345d6f627a3f85d295762c15828d8d8d8d8d8d8d8d8d604051808060200180602001806020018b81526020018a81526020018981526020018881526020018781526020018681526020018060200185810385528f818151815260200191508051906020019080838360005b83811015612f4c578082015181840152602081019050612f31565b50505050905090810190601f168015612f795780820380516001836020036101000a031916815260200191505b5085810384528e818151815260200191508051906020019080838360005b83811015612fb2578082015181840152602081019050612f97565b50505050905090810190601f168015612fdf5780820380516001836020036101000a031916815260200191505b5085810383528d818151815260200191508051906020019080838360005b83811015613018578082015181840152602081019050612ffd565b50505050905090810190601f1680156130455780820380516001836020036101000a031916815260200191505b50858103825286818151815260200191508051906020019080838360005b8381101561307e578082015181840152602081019050613063565b50505050905090810190601f1680156130ab5780820380516001836020036101000a031916815260200191505b509e50505050505050505050505050505060405180910390a189925050509998505050505050505050565b6130e1848484612726565b6130ed848484846136fe565b613142576040517f08c379a0000000000000000000000000000000000000000000000000000000008152600401808060200182810382526032815260200180613e556032913960400191505060405180910390fd5b50505050565b60006131548383613917565b6131ad5782600001829080600181540180825580915050600190039060005260206000200160009091909190915055826000018054905083600101600084815260200190815260200160002081905550600190506131b2565b600090505b92915050565b600080846001016000858152602001908152602001600020549050600081141561325f5784600001604051806040016040528086815260200185815250908060018154018082558091505060019003906000526020600020906002020160009091909190915060008201518160000155602082015181600101555050846000018054905085600101600086815260200190815260200160002081905550600191505061328d565b8285600001600183038154811061327257fe5b90600052602060002090600202016001018190555060009150505b9392505050565b600080836001016000848152602001908152602001600020541415905092915050565b600081600001805490509050919050565b505050565b60006132df836000018360001b61393a565b905092915050565b600081836000018054905011613348576040517f08c379a0000000000000000000000000000000000000000000000000000000008152600401808060200182810382526022815260200180613e336022913960400191505060405180910390fd5b82600001828154811061335757fe5b9060005260206000200154905092915050565b600080828460000180549050116133cc576040517f08c379a0000000000000000000000000000000000000000000000000000000008152600401808060200182810382526022815260200180613f886022913960400191505060405180910390fd5b60008460000184815481106133dd57fe5b906000526020600020906002020190508060000154816001015492509250509250929050565b600080846001016000858152602001908152602001600020549050600081141583906134ca576040517f08c379a00000000000000000000000000000000000000000000000000000000081526004018080602001828103825283818151815260200191508051906020019080838360005b8381101561348f578082015181840152602081019050613474565b50505050905090810190601f1680156134bc5780820380516001836020036101000a031916815260200191505b509250505060405180910390fd5b508460000160018203815481106134dd57fe5b9060005260206000209060020201600101549150509392505050565b600081600001805490509050919050565b600073ffffffffffffffffffffffffffffffffffffffff168273ffffffffffffffffffffffffffffffffffffffff1614156135ad576040517f08c379a00000000000000000000000000000000000000000000000000000000081526004018080602001828103825260208152602001807f4552433732313a206d696e7420746f20746865207a65726f206164647265737381525060200191505060405180910390fd5b6135b68161253f565b15613629576040517f08c379a000000000000000000000000000000000000000000000000000000000815260040180806020018281038252601c8152602001807f4552433732313a20746f6b656e20616c7265616479206d696e7465640000000081525060200191505060405180910390fd5b613635600083836132c8565b61368681600160008573ffffffffffffffffffffffffffffffffffffffff1673ffffffffffffffffffffffffffffffffffffffff1681526020019081526020016000206124d690919063ffffffff16565b5061369d818360026124f09092919063ffffffff16565b50808273ffffffffffffffffffffffffffffffffffffffff16600073ffffffffffffffffffffffffffffffffffffffff167fddf252ad1be2c89b69c2b068fc378daa952ba7f163c4a11628f55a4df523b3ef60405160405180910390a45050565b600061371f8473ffffffffffffffffffffffffffffffffffffffff16613a22565b61372c576001905061390f565b606061389663150b7a0260e01b61374161255c565b888787604051602401808573ffffffffffffffffffffffffffffffffffffffff1681526020018473ffffffffffffffffffffffffffffffffffffffff16815260200183815260200180602001828103825283818151815260200191508051906020019080838360005b838110156137c55780820151818401526020810190506137aa565b50505050905090810190601f1680156137f25780820380516001836020036101000a031916815260200191505b5095505050505050604051602081830303815290604052907bffffffffffffffffffffffffffffffffffffffffffffffffffffffff19166020820180517bffffffffffffffffffffffffffffffffffffffffffffffffffffffff8381831617835250505050604051806060016040528060328152602001613e55603291398773ffffffffffffffffffffffffffffffffffffffff16613a359092919063ffffffff16565b905060008180602001905160208110156138af57600080fd5b8101908080519060200190929190505050905063150b7a0260e01b7bffffffffffffffffffffffffffffffffffffffffffffffffffffffff1916817bffffffffffffffffffffffffffffffffffffffffffffffffffffffff191614925050505b949350505050565b600080836001016000848152602001908152602001600020541415905092915050565b60008083600101600084815260200190815260200160002054905060008114613a16576000600182039050600060018660000180549050039050600086600001828154811061398557fe5b90600052602060002001549050808760000184815481106139a257fe5b90600052602060002001819055506001830187600101600083815260200190815260200160002081905550866000018054806139da57fe5b60019003818190600052602060002001600090559055866001016000878152602001908152602001600020600090556001945050505050613a1c565b60009150505b92915050565b600080823b905060008111915050919050565b6060613a448484600085613a4d565b90509392505050565b606082471015613aa8576040517f08c379a0000000000000000000000000000000000000000000000000000000008152600401808060200182810382526026815260200180613eab6026913960400191505060405180910390fd5b613ab185613a22565b613b23576040517f08c379a000000000000000000000000000000000000000000000000000000000815260040180806020018281038252601d8152602001807f416464726573733a2063616c6c20746f206e6f6e2d636f6e747261637400000081525060200191505060405180910390fd5b600060608673ffffffffffffffffffffffffffffffffffffffff1685876040518082805190602001908083835b60208310613b735780518252602082019150602081019050602083039250613b50565b6001836020036101000a03801982511681845116808217855250505050505090500191505060006040518083038185875af1925050503d8060008114613bd5576040519150601f19603f3d011682016040523d82523d6000602084013e613bda565b606091505b5091509150613bea828286613bf6565b92505050949350505050565b60608315613c0657829050613cbb565b600083511115613c195782518084602001fd5b816040517f08c379a00000000000000000000000000000000000000000000000000000000081526004018080602001828103825283818151815260200191508051906020019080838360005b83811015613c80578082015181840152602081019050613c65565b50505050905090810190601f168015613cad5780820380516001836020036101000a031916815260200191505b509250505060405180910390fd5b9392505050565b828054600181600116156101000203166002900490600052602060002090601f016020900481019282601f10613d0357805160ff1916838001178555613d31565b82800160010185558215613d31579182015b82811115613d30578251825591602001919060010190613d15565b5b509050613d3e9190613e15565b5090565b604051806101400160405280606081526020016060815260200160608152602001600081526020016000815260200160008152602001600081526020016000815260200160008152602001606081525090565b828054600181600116156101000203166002900490600052602060002090601f016020900481019282601f10613dd657805160ff1916838001178555613e04565b82800160010185558215613e04579182015b82811115613e03578251825591602001919060010190613de8565b5b509050613e119190613e15565b5090565b5b80821115613e2e576000816000905550600101613e16565b509056fe456e756d657261626c655365743a20696e646578206f7574206f6620626f756e64734552433732313a207472616e7366657220746f206e6f6e20455243373231526563656976657220696d706c656d656e7465724552433732313a207472616e7366657220746f20746865207a65726f2061646472657373416464726573733a20696e73756666696369656e742062616c616e636520666f722063616c6c4552433732313a206f70657261746f7220717565727920666f72206e6f6e6578697374656e7420746f6b656e4552433732313a20617070726f76652063616c6c6572206973206e6f74206f776e6572206e6f7220617070726f76656420666f7220616c6c4552433732313a2062616c616e636520717565727920666f7220746865207a65726f20616464726573734552433732313a206f776e657220717565727920666f72206e6f6e6578697374656e7420746f6b656e456e756d657261626c654d61703a20696e646578206f7574206f6620626f756e64734552433732313a20617070726f76656420717565727920666f72206e6f6e6578697374656e7420746f6b656e4552433732313a207472616e73666572206f6620746f6b656e2074686174206973206e6f74206f776e4552433732314d657461646174613a2055524920717565727920666f72206e6f6e6578697374656e7420746f6b656e4552433732313a20617070726f76616c20746f2063757272656e74206f776e65724552433732313a207472616e736665722063616c6c6572206973206e6f74206f776e6572206e6f7220617070726f766564a26469706673582212202698238fd96071630f1c8f93f20f82903ed931bcb258484142845b7e2e7d5bae64736f6c634300060c0033",
  "immutableReferences": {},
  "source": "pragma solidity >=0.4.21 <0.7.0;\n//V5\nimport \"@openzeppelin/contracts/token/ERC721/ERC721.sol\";\nimport \"@openzeppelin/contracts/utils/Strings.sol\";\n//mad props to the crypto zombies tutorial!  Thanks!\ncontract AngelToken is ERC721{\n  /* State variables are stored in the blockchain */\n  bytes public mintData;\n  mapping (address => uint256) public map_address_to_id;\n  mapping(uint256 => bool) public is_on_manifest;\n  mapping (uint256 => Alm) public map_id_to_Alm;\n\n  struct Alm {\n   string uri;\n    string name;\n     string sym;  // <10 alpha num\n      uint256 id;  // the id of the token issuance\n       uint256 issue_num;\n        uint256 mint_date;\n         uint256 cost; // the Unit Retail Cost of your product in wei\n          uint256 angel_coefficient; // coefficient of next round's profits\n           uint256 status;  // the status of the contract\n            string product; // the unit product being produced in the endeavor - a lb of coffee, a chocalate bar, a bar of soap, a board, solar panel, or your grandmas comfy undies\n             }\n   Alm[] public alms;\n\n   event ManifestedAngelToken(\n      string _uri,\n       string _ename, // endeavor name\n        string _esym,  // endeavor symbol\n         uint256 _id,\n          uint256 _issue_num,\n           uint256 _mint_date,\n            uint256 _cost,\n             uint256 _angel_coefficient,\n              uint256 _status,\n               string _product\n          );\n\n  constructor(\n    string memory _ename, // endeavor name\n     string memory _esym,  // endeavor symbol\n       uint256 _issue_num,\n        uint256 _mint_date,\n         uint256 _cost,\n          uint256 _angel_coefficient,\n           uint256 _status, // 1: waiting 2: executed 3: shipped 4: fullfilled\n            string memory _product\n            )\n\n    ERC721(\"AngelToken\", \"ANGEL\")\n      public {  //setup <-- run once like an init <-- pass in name and symbol as per ERC721 Standard\n        /*uncomment below to run through mocha tests */\n        manifestAngelToken(_ename, _esym, _issue_num, _mint_date, _cost, _angel_coefficient, _status, _product);\n\n  }\n\n\n  function manifestAngelToken(\n    string memory _ename,\n     string memory _esym,\n      uint256 _issue_num,\n       uint256 _mint_date,\n        uint256 _cost,\n         uint256 _angel_coefficient,\n          uint256 _status,\n           string memory _product\n    ) public {\n      uint256 _id = _idGenesis(_ename); //the id is made of the name and has the symbol attached to the front\n      _tokenGenesis(_ename, _esym, _id, _issue_num, _mint_date, _cost, _angel_coefficient, _status, _product);\n  }\n\n   function _tokenGenesis (\n    string memory _ename,\n     string memory _esym,\n      uint256 _id,\n       uint256 _issue_num,\n        uint256 _mint_date,\n         uint256 _cost,\n          uint256 _angel_coefficient,\n           uint256 _status,\n            string memory _product\n            )\n\n      internal returns(uint256){\n        require(!is_on_manifest[_id]);\n        mintData = abi.encodePacked(_esym, _id.toString());\n        string memory new_uri = string(mintData); //Hare Krsna to the String library\n        Alm memory new_alm;// = Alm(new_uri, _ename, _esym, _id, _issue_num, _mint_date, _cost, _angel_coefficient, _status, _product);\n        new_alm.uri = new_uri;\n        new_alm.name = _ename;\n        new_alm.sym = _esym;\n        new_alm.id = _id;\n        new_alm.issue_num = _issue_num;\n        new_alm.mint_date = _mint_date;\n        new_alm.cost = _cost;\n        new_alm.angel_coefficient = _angel_coefficient;\n        new_alm.status = _status;\n        new_alm.product = _product;\n        alms.push(new_alm);\n        is_on_manifest[_id] = true;\n        map_id_to_Alm[_id] = new_alm;\n        map_address_to_id[msg.sender] = _id;\n    /*  convert new_alm to bytes so _mint will accept it */\n\n        /* _safeMint(_ename, _id, new_alm); */\n        _mint(msg.sender, _id);\n    /*  send data to file at uri on unstoppable domains or some other decentralized servicer */\n        emit ManifestedAngelToken(\n              new_uri,\n               _ename,\n                _esym,\n                 _id,\n                  _issue_num,\n                   _mint_date,\n                    _cost,\n                     _angel_coefficient,\n                      _status,\n                       _product\n                       );\n        return _id;\n  }\n  // generate random id\n  function _idGenesis(string memory _str) internal pure returns (uint256) {\n    uint256 idmod = 10 ** 16;\n    uint256 token_id = uint256(keccak256(abi.encodePacked(_str)));\n    return token_id % idmod;\n  }\n  function stringToBytes32(string memory source) public pure returns (bytes32 result) {\n      bytes memory tempEmptyStringTest = bytes(source);\n      if (tempEmptyStringTest.length == 0) {\n          return 0x0;\n      }\n      assembly {\n          result := mload(add(source, 32))\n      }\n   }\n}\n",
  "sourcePath": "/Volumes/ETH/webApp5/contracts/AngelToken.sol",
  "compiler": {
    "name": "solc",
    "version": "0.6.12+commit.27d51765.Emscripten.clang"
  },
  "schemaVersion": "3.3.2",
  "updatedAt": "2020-12-13T03:20:16.786Z",
  "networkType": "ethereum",
  "devdoc": {
    "kind": "dev",
    "methods": {
      "approve(address,uint256)": {
        "details": "See {IERC721-approve}."
      },
      "balanceOf(address)": {
        "details": "See {IERC721-balanceOf}."
      },
      "baseURI()": {
        "details": "Returns the base URI set via {_setBaseURI}. This will be automatically added as a prefix in {tokenURI} to each token's URI, or to the token ID if no specific URI is set for that token ID."
      },
      "getApproved(uint256)": {
        "details": "See {IERC721-getApproved}."
      },
      "isApprovedForAll(address,address)": {
        "details": "See {IERC721-isApprovedForAll}."
      },
      "name()": {
        "details": "See {IERC721Metadata-name}."
      },
      "ownerOf(uint256)": {
        "details": "See {IERC721-ownerOf}."
      },
      "safeTransferFrom(address,address,uint256)": {
        "details": "See {IERC721-safeTransferFrom}."
      },
      "safeTransferFrom(address,address,uint256,bytes)": {
        "details": "See {IERC721-safeTransferFrom}."
      },
      "setApprovalForAll(address,bool)": {
        "details": "See {IERC721-setApprovalForAll}."
      },
      "supportsInterface(bytes4)": {
        "details": "See {IERC165-supportsInterface}. Time complexity O(1), guaranteed to always use less than 30 000 gas."
      },
      "symbol()": {
        "details": "See {IERC721Metadata-symbol}."
      },
      "tokenByIndex(uint256)": {
        "details": "See {IERC721Enumerable-tokenByIndex}."
      },
      "tokenOfOwnerByIndex(address,uint256)": {
        "details": "See {IERC721Enumerable-tokenOfOwnerByIndex}."
      },
      "tokenURI(uint256)": {
        "details": "See {IERC721Metadata-tokenURI}."
      },
      "totalSupply()": {
        "details": "See {IERC721Enumerable-totalSupply}."
      },
      "transferFrom(address,address,uint256)": {
        "details": "See {IERC721-transferFrom}."
      }
    },
    "version": 1
  },
  "userdoc": {
    "kind": "user",
    "methods": {},
    "version": 1
  }
}