{
  "contractName": "AngelTokenCrowdfund",
  "abi": [
    {
      "inputs": [
        {
          "internalType": "string",
          "name": "_ename",
          "type": "string"
        },
        {
          "internalType": "string",
          "name": "_esym",
          "type": "string"
        },
        {
          "internalType": "uint256",
          "name": "_num_to_issue",
          "type": "uint256"
        },
        {
          "internalType": "string",
          "name": "_mint_date",
          "type": "string"
        },
        {
          "internalType": "uint256",
          "name": "_cost",
          "type": "uint256"
        },
        {
          "internalType": "uint256",
          "name": "_angel_coefficient",
          "type": "uint256"
        },
        {
          "internalType": "string",
          "name": "_product",
          "type": "string"
        }
      ],
      "stateMutability": "nonpayable",
      "type": "constructor"
    },
    {
      "anonymous": false,
      "inputs": [
        {
          "indexed": true,
          "internalType": "address",
          "name": "account",
          "type": "address"
        },
        {
          "indexed": true,
          "internalType": "address",
          "name": "operator",
          "type": "address"
        },
        {
          "indexed": false,
          "internalType": "bool",
          "name": "approved",
          "type": "bool"
        }
      ],
      "name": "ApprovalForAll",
      "type": "event"
    },
    {
      "anonymous": false,
      "inputs": [
        {
          "indexed": false,
          "internalType": "address",
          "name": "owner",
          "type": "address"
        },
        {
          "indexed": false,
          "internalType": "bytes",
          "name": "_uri",
          "type": "bytes"
        },
        {
          "indexed": false,
          "internalType": "string",
          "name": "_ename",
          "type": "string"
        },
        {
          "indexed": false,
          "internalType": "string",
          "name": "_esym",
          "type": "string"
        },
        {
          "indexed": false,
          "internalType": "uint256",
          "name": "_id",
          "type": "uint256"
        },
        {
          "indexed": false,
          "internalType": "bytes",
          "name": "mint_data",
          "type": "bytes"
        }
      ],
      "name": "ManifestedAngelToken",
      "type": "event"
    },
    {
      "anonymous": false,
      "inputs": [
        {
          "indexed": true,
          "internalType": "address",
          "name": "operator",
          "type": "address"
        },
        {
          "indexed": true,
          "internalType": "address",
          "name": "from",
          "type": "address"
        },
        {
          "indexed": true,
          "internalType": "address",
          "name": "to",
          "type": "address"
        },
        {
          "indexed": false,
          "internalType": "uint256[]",
          "name": "ids",
          "type": "uint256[]"
        },
        {
          "indexed": false,
          "internalType": "uint256[]",
          "name": "values",
          "type": "uint256[]"
        }
      ],
      "name": "TransferBatch",
      "type": "event"
    },
    {
      "anonymous": false,
      "inputs": [
        {
          "indexed": true,
          "internalType": "address",
          "name": "operator",
          "type": "address"
        },
        {
          "indexed": true,
          "internalType": "address",
          "name": "from",
          "type": "address"
        },
        {
          "indexed": true,
          "internalType": "address",
          "name": "to",
          "type": "address"
        },
        {
          "indexed": false,
          "internalType": "uint256",
          "name": "id",
          "type": "uint256"
        },
        {
          "indexed": false,
          "internalType": "uint256",
          "name": "value",
          "type": "uint256"
        }
      ],
      "name": "TransferSingle",
      "type": "event"
    },
    {
      "anonymous": false,
      "inputs": [
        {
          "indexed": false,
          "internalType": "string",
          "name": "value",
          "type": "string"
        },
        {
          "indexed": true,
          "internalType": "uint256",
          "name": "id",
          "type": "uint256"
        }
      ],
      "name": "URI",
      "type": "event"
    },
    {
      "inputs": [],
      "name": "CafLaMAccount",
      "outputs": [
        {
          "internalType": "address payable",
          "name": "",
          "type": "address"
        }
      ],
      "stateMutability": "view",
      "type": "function",
      "constant": true
    },
    {
      "inputs": [
        {
          "internalType": "uint256",
          "name": "",
          "type": "uint256"
        }
      ],
      "name": "CafLaM_angels_list",
      "outputs": [
        {
          "internalType": "address payable",
          "name": "",
          "type": "address"
        }
      ],
      "stateMutability": "view",
      "type": "function",
      "constant": true
    },
    {
      "inputs": [
        {
          "internalType": "uint256",
          "name": "",
          "type": "uint256"
        },
        {
          "internalType": "address",
          "name": "",
          "type": "address"
        }
      ],
      "name": "CafLaM_angels_map",
      "outputs": [
        {
          "internalType": "uint256",
          "name": "",
          "type": "uint256"
        }
      ],
      "stateMutability": "view",
      "type": "function",
      "constant": true
    },
    {
      "inputs": [],
      "name": "OA",
      "outputs": [
        {
          "internalType": "address",
          "name": "",
          "type": "address"
        }
      ],
      "stateMutability": "view",
      "type": "function",
      "constant": true
    },
    {
      "inputs": [
        {
          "internalType": "uint256",
          "name": "",
          "type": "uint256"
        }
      ],
      "name": "alms",
      "outputs": [
        {
          "internalType": "address",
          "name": "owner",
          "type": "address"
        },
        {
          "internalType": "bytes",
          "name": "uri",
          "type": "bytes"
        },
        {
          "internalType": "string",
          "name": "name",
          "type": "string"
        },
        {
          "internalType": "string",
          "name": "sym",
          "type": "string"
        },
        {
          "internalType": "uint256",
          "name": "id",
          "type": "uint256"
        },
        {
          "internalType": "bytes",
          "name": "mint_data",
          "type": "bytes"
        }
      ],
      "stateMutability": "view",
      "type": "function",
      "constant": true
    },
    {
      "inputs": [
        {
          "internalType": "address",
          "name": "account",
          "type": "address"
        },
        {
          "internalType": "uint256",
          "name": "id",
          "type": "uint256"
        }
      ],
      "name": "balanceOf",
      "outputs": [
        {
          "internalType": "uint256",
          "name": "",
          "type": "uint256"
        }
      ],
      "stateMutability": "view",
      "type": "function",
      "constant": true
    },
    {
      "inputs": [
        {
          "internalType": "address[]",
          "name": "accounts",
          "type": "address[]"
        },
        {
          "internalType": "uint256[]",
          "name": "ids",
          "type": "uint256[]"
        }
      ],
      "name": "balanceOfBatch",
      "outputs": [
        {
          "internalType": "uint256[]",
          "name": "",
          "type": "uint256[]"
        }
      ],
      "stateMutability": "view",
      "type": "function",
      "constant": true
    },
    {
      "inputs": [
        {
          "internalType": "address payable",
          "name": "_owner",
          "type": "address"
        },
        {
          "internalType": "address",
          "name": "_buyer",
          "type": "address"
        },
        {
          "internalType": "uint256",
          "name": "_id",
          "type": "uint256"
        },
        {
          "internalType": "uint256",
          "name": "_amount",
          "type": "uint256"
        },
        {
          "internalType": "bytes",
          "name": "_data",
          "type": "bytes"
        },
        {
          "internalType": "uint256",
          "name": "cost",
          "type": "uint256"
        }
      ],
      "name": "buyOriginalAlms",
      "outputs": [],
      "stateMutability": "payable",
      "type": "function",
      "payable": true
    },
    {
      "inputs": [],
      "name": "getAlmsLength",
      "outputs": [
        {
          "internalType": "uint256",
          "name": "",
          "type": "uint256"
        }
      ],
      "stateMutability": "view",
      "type": "function",
      "constant": true
    },
    {
      "inputs": [
        {
          "internalType": "address",
          "name": "account",
          "type": "address"
        },
        {
          "internalType": "address",
          "name": "operator",
          "type": "address"
        }
      ],
      "name": "isApprovedForAll",
      "outputs": [
        {
          "internalType": "bool",
          "name": "",
          "type": "bool"
        }
      ],
      "stateMutability": "view",
      "type": "function",
      "constant": true
    },
    {
      "inputs": [
        {
          "internalType": "uint256",
          "name": "",
          "type": "uint256"
        }
      ],
      "name": "is_on_manifest",
      "outputs": [
        {
          "internalType": "bool",
          "name": "",
          "type": "bool"
        }
      ],
      "stateMutability": "view",
      "type": "function",
      "constant": true
    },
    {
      "inputs": [
        {
          "internalType": "uint256",
          "name": "",
          "type": "uint256"
        }
      ],
      "name": "map_id_to_Alm",
      "outputs": [
        {
          "internalType": "address",
          "name": "owner",
          "type": "address"
        },
        {
          "internalType": "bytes",
          "name": "uri",
          "type": "bytes"
        },
        {
          "internalType": "string",
          "name": "name",
          "type": "string"
        },
        {
          "internalType": "string",
          "name": "sym",
          "type": "string"
        },
        {
          "internalType": "uint256",
          "name": "id",
          "type": "uint256"
        },
        {
          "internalType": "bytes",
          "name": "mint_data",
          "type": "bytes"
        }
      ],
      "stateMutability": "view",
      "type": "function",
      "constant": true
    },
    {
      "inputs": [
        {
          "internalType": "address",
          "name": "",
          "type": "address"
        }
      ],
      "name": "map_owner_to_id",
      "outputs": [
        {
          "internalType": "uint256",
          "name": "",
          "type": "uint256"
        }
      ],
      "stateMutability": "view",
      "type": "function",
      "constant": true
    },
    {
      "inputs": [
        {
          "internalType": "string",
          "name": "",
          "type": "string"
        }
      ],
      "name": "map_uri_to_Alm",
      "outputs": [
        {
          "internalType": "address",
          "name": "owner",
          "type": "address"
        },
        {
          "internalType": "bytes",
          "name": "uri",
          "type": "bytes"
        },
        {
          "internalType": "string",
          "name": "name",
          "type": "string"
        },
        {
          "internalType": "string",
          "name": "sym",
          "type": "string"
        },
        {
          "internalType": "uint256",
          "name": "id",
          "type": "uint256"
        },
        {
          "internalType": "bytes",
          "name": "mint_data",
          "type": "bytes"
        }
      ],
      "stateMutability": "view",
      "type": "function",
      "constant": true
    },
    {
      "inputs": [
        {
          "internalType": "address",
          "name": "from",
          "type": "address"
        },
        {
          "internalType": "address",
          "name": "to",
          "type": "address"
        },
        {
          "internalType": "uint256[]",
          "name": "ids",
          "type": "uint256[]"
        },
        {
          "internalType": "uint256[]",
          "name": "amounts",
          "type": "uint256[]"
        },
        {
          "internalType": "bytes",
          "name": "data",
          "type": "bytes"
        }
      ],
      "name": "safeBatchTransferFrom",
      "outputs": [],
      "stateMutability": "nonpayable",
      "type": "function"
    },
    {
      "inputs": [
        {
          "internalType": "address",
          "name": "from",
          "type": "address"
        },
        {
          "internalType": "address",
          "name": "to",
          "type": "address"
        },
        {
          "internalType": "uint256",
          "name": "id",
          "type": "uint256"
        },
        {
          "internalType": "uint256",
          "name": "amount",
          "type": "uint256"
        },
        {
          "internalType": "bytes",
          "name": "data",
          "type": "bytes"
        }
      ],
      "name": "safeTransferFrom",
      "outputs": [],
      "stateMutability": "nonpayable",
      "type": "function"
    },
    {
      "inputs": [
        {
          "internalType": "address",
          "name": "operator",
          "type": "address"
        },
        {
          "internalType": "bool",
          "name": "approved",
          "type": "bool"
        }
      ],
      "name": "setApprovalForAll",
      "outputs": [],
      "stateMutability": "nonpayable",
      "type": "function"
    },
    {
      "inputs": [
        {
          "internalType": "bytes4",
          "name": "interfaceId",
          "type": "bytes4"
        }
      ],
      "name": "supportsInterface",
      "outputs": [
        {
          "internalType": "bool",
          "name": "",
          "type": "bool"
        }
      ],
      "stateMutability": "view",
      "type": "function",
      "constant": true
    },
    {
      "inputs": [
        {
          "internalType": "string",
          "name": "_ename",
          "type": "string"
        },
        {
          "internalType": "string",
          "name": "_esym",
          "type": "string"
        },
        {
          "internalType": "uint256",
          "name": "_num_to_issue",
          "type": "uint256"
        },
        {
          "internalType": "string",
          "name": "_mint_date",
          "type": "string"
        },
        {
          "internalType": "uint256",
          "name": "_cost",
          "type": "uint256"
        },
        {
          "internalType": "uint256",
          "name": "_angel_coefficient",
          "type": "uint256"
        },
        {
          "internalType": "string",
          "name": "_product",
          "type": "string"
        }
      ],
      "name": "tokenGenesis",
      "outputs": [],
      "stateMutability": "nonpayable",
      "type": "function"
    },
    {
      "inputs": [
        {
          "internalType": "uint256",
          "name": "",
          "type": "uint256"
        }
      ],
      "name": "uri",
      "outputs": [
        {
          "internalType": "string",
          "name": "",
          "type": "string"
        }
      ],
      "stateMutability": "view",
      "type": "function",
      "constant": true
    },
    {
      "inputs": [
        {
          "internalType": "address payable",
          "name": "_owner",
          "type": "address"
        },
        {
          "internalType": "address payable",
          "name": "_buyer",
          "type": "address"
        },
        {
          "internalType": "uint256",
          "name": "_id",
          "type": "uint256"
        },
        {
          "internalType": "uint256",
          "name": "_amount",
          "type": "uint256"
        },
        {
          "internalType": "bytes",
          "name": "_data",
          "type": "bytes"
        },
        {
          "internalType": "uint256",
          "name": "cost",
          "type": "uint256"
        }
      ],
      "name": "buyAlms",
      "outputs": [
        {
          "internalType": "bool",
          "name": "progress",
          "type": "bool"
        }
      ],
      "stateMutability": "payable",
      "type": "function",
      "payable": true
    },
    {
      "inputs": [],
      "name": "seed_round",
      "outputs": [],
      "stateMutability": "payable",
      "type": "function",
      "payable": true
    },
    {
      "inputs": [
        {
          "internalType": "uint256",
          "name": "_last_rnd_id",
          "type": "uint256"
        }
      ],
      "name": "payout_last",
      "outputs": [],
      "stateMutability": "payable",
      "type": "function",
      "payable": true
    },
    {
      "inputs": [
        {
          "internalType": "uint256",
          "name": "_id",
          "type": "uint256"
        },
        {
          "internalType": "bool",
          "name": "is_shipping",
          "type": "bool"
        }
      ],
      "name": "change_status_s",
      "outputs": [],
      "stateMutability": "nonpayable",
      "type": "function"
    }
  ],
  "bytecode": "0x608060405233600460006101000a81548173ffffffffffffffffffffffffffffffffffffffff021916908373ffffffffffffffffffffffffffffffffffffffff16021790555033600a60006101000a81548173ffffffffffffffffffffffffffffffffffffffff021916908373ffffffffffffffffffffffffffffffffffffffff1602179055506000600d553480156200009857600080fd5b506040516200718938038062007189833981810160405260e0811015620000be57600080fd5b8101908080516040519392919084640100000000821115620000df57600080fd5b83820191506020820185811115620000f657600080fd5b82518660018202830111640100000000821117156200011457600080fd5b8083526020830192505050908051906020019080838360005b838110156200014a5780820151818401526020810190506200012d565b50505050905090810190601f168015620001785780820380516001836020036101000a031916815260200191505b50604052602001805160405193929190846401000000008211156200019c57600080fd5b83820191506020820185811115620001b357600080fd5b8251866001820283011164010000000082111715620001d157600080fd5b8083526020830192505050908051906020019080838360005b8381101562000207578082015181840152602081019050620001ea565b50505050905090810190601f168015620002355780820380516001836020036101000a031916815260200191505b5060405260200180519060200190929190805160405193929190846401000000008211156200026357600080fd5b838201915060208201858111156200027a57600080fd5b82518660018202830111640100000000821117156200029857600080fd5b8083526020830192505050908051906020019080838360005b83811015620002ce578082015181840152602081019050620002b1565b50505050905090810190601f168015620002fc5780820380516001836020036101000a031916815260200191505b506040526020018051906020019092919080519060200190929190805160405193929190846401000000008211156200033457600080fd5b838201915060208201858111156200034b57600080fd5b82518660018202830111640100000000821117156200036957600080fd5b8083526020830192505050908051906020019080838360005b838110156200039f57808201518184015260208101905062000382565b50505050905090810190601f168015620003cd5780820380516001836020036101000a031916815260200191505b50604052505050868686868686866040518060400160405280601681526020017f687474703a2f2f6c6f63616c686f73743a333030302f00000000000000000000815250620004296301ffc9a760e01b6200049660201b60201c565b6200043a816200059f60201b60201c565b6200045263d9b67a2660e01b6200049660201b60201c565b6200046a630e89341c60e01b6200049660201b60201c565b506200048287878787878787620005bb60201b60201c565b505050505050505050505050505062001669565b63ffffffff60e01b817bffffffffffffffffffffffffffffffffffffffffffffffffffffffff1916141562000533576040517f08c379a000000000000000000000000000000000000000000000000000000000815260040180806020018281038252601c8152602001807f4552433136353a20696e76616c696420696e746572666163652069640000000081525060200191505060405180910390fd5b6001600080837bffffffffffffffffffffffffffffffffffffffffffffffffffffffff19167bffffffffffffffffffffffffffffffffffffffffffffffffffffffff1916815260200190815260200160002060006101000a81548160ff02191690831515021790555050565b8060039080519060200190620005b79291906200140e565b5050565b6000620005ce8862000cf360201b60201c565b90506005600082815260200190815260200160002060009054906101000a900460ff1615620005fc57600080fd5b60016005600083815260200190815260200160002060006101000a81548160ff0219169083151502179055506200063262001495565b33816000019073ffffffffffffffffffffffffffffffffffffffff16908173ffffffffffffffffffffffffffffffffffffffff16815250508881604001819052508781606001819052508181608001818152505060608883604051602001808060200183815260200180602001838103835285818151815260200191508051906020019080838360005b83811015620006d9578082015181840152602081019050620006bc565b50505050905090810190601f168015620007075780820380516001836020036101000a031916815260200191505b50838103825260058152602001807f2e6a736f6e0000000000000000000000000000000000000000000000000000008152506020019450505050506040516020818303038152906040529050808260200181905250606088888888600189604051602001808781526020018060200186815260200185815260200184815260200180602001838103835288818151815260200191508051906020019080838360005b83811015620007c6578082015181840152602081019050620007a9565b50505050905090810190601f168015620007f45780820380516001836020036101000a031916815260200191505b50838103825284818151815260200191508051906020019080838360005b838110156200082f57808201518184015260208101905062000812565b50505050905090810190601f1680156200085d5780820380516001836020036101000a031916815260200191505b50985050505050505050506040516020818303038152906040529050808360a00181905250600983908060018154018082558091505060019003906000526020600020906006020160009091909190915060008201518160000160006101000a81548173ffffffffffffffffffffffffffffffffffffffff021916908373ffffffffffffffffffffffffffffffffffffffff160217905550602082015181600101908051906020019062000913929190620014e1565b506040820151816002019080519060200190620009329291906200140e565b506060820151816003019080519060200190620009519291906200140e565b506080820151816004015560a08201518160050190805190602001906200097a929190620014e1565b50505083600660003373ffffffffffffffffffffffffffffffffffffffff1673ffffffffffffffffffffffffffffffffffffffff16815260200190815260200160002081905550826007600086815260200190815260200160002060008201518160000160006101000a81548173ffffffffffffffffffffffffffffffffffffffff021916908373ffffffffffffffffffffffffffffffffffffffff160217905550602082015181600101908051906020019062000a3a929190620014e1565b50604082015181600201908051906020019062000a599291906200140e565b50606082015181600301908051906020019062000a789291906200140e565b506080820151816004015560a082015181600501908051906020019062000aa1929190620014e1565b5090505062000ab933858b8462000d8f60201b60201c565b7fe4db4d9bae6a7ea1c8f58bae49da45e3112df950e97a0b718e738b109807232e836000015184602001518560400151866060015187608001518860a00151604051808773ffffffffffffffffffffffffffffffffffffffff1681526020018060200180602001806020018681526020018060200185810385528a818151815260200191508051906020019080838360005b8381101562000b6857808201518184015260208101905062000b4b565b50505050905090810190601f16801562000b965780820380516001836020036101000a031916815260200191505b50858103845289818151815260200191508051906020019080838360005b8381101562000bd157808201518184015260208101905062000bb4565b50505050905090810190601f16801562000bff5780820380516001836020036101000a031916815260200191505b50858103835288818151815260200191508051906020019080838360005b8381101562000c3a57808201518184015260208101905062000c1d565b50505050905090810190601f16801562000c685780820380516001836020036101000a031916815260200191505b50858103825286818151815260200191508051906020019080838360005b8381101562000ca357808201518184015260208101905062000c86565b50505050905090810190601f16801562000cd15780820380516001836020036101000a031916815260200191505b509a505050505050505050505060405180910390a15050505050505050505050565b600080662386f26fc1000090506000836040516020018082805190602001908083835b6020831062000d3b578051825260208201915060208101905060208303925062000d16565b6001836020036101000a0380198251168184511680821785525050505050509050019150506040516020818303038152906040528051906020012060001c905081818162000d8557fe5b0692505050919050565b600073ffffffffffffffffffffffffffffffffffffffff168473ffffffffffffffffffffffffffffffffffffffff16141562000e17576040517f08c379a0000000000000000000000000000000000000000000000000000000008152600401808060200182810382526028815260200180620071616028913960400191505060405180910390fd5b600062000e2962000fc360201b60201c565b905062000e628160008762000e448862000fcb60201b60201c565b62000e558862000fcb60201b60201c565b876200103e60201b60201c565b62000ecc836001600087815260200190815260200160002060008873ffffffffffffffffffffffffffffffffffffffff1673ffffffffffffffffffffffffffffffffffffffff168152602001908152602001600020546200104660201b620044811790919060201c565b6001600086815260200190815260200160002060008773ffffffffffffffffffffffffffffffffffffffff1673ffffffffffffffffffffffffffffffffffffffff168152602001908152602001600020819055508473ffffffffffffffffffffffffffffffffffffffff16600073ffffffffffffffffffffffffffffffffffffffff168273ffffffffffffffffffffffffffffffffffffffff167fc3d58168c5ae7397731d063d5bbf3d657854427343f4c083240f7aacaa2d0f628787604051808381526020018281526020019250505060405180910390a462000fbc81600087878787620010cf60201b60201c565b5050505050565b600033905090565b606080600167ffffffffffffffff8111801562000fe757600080fd5b50604051908082528060200260200182016040528015620010175781602001602082028036833780820191505090505b50905082816000815181106200102957fe5b60200260200101818152505080915050919050565b505050505050565b600080828401905083811015620010c5576040517f08c379a000000000000000000000000000000000000000000000000000000000815260040180806020018281038252601b8152602001807f536166654d6174683a206164646974696f6e206f766572666c6f77000000000081525060200191505060405180910390fd5b8091505092915050565b620010fb8473ffffffffffffffffffffffffffffffffffffffff16620013fb60201b620045091760201c565b15620013f3578373ffffffffffffffffffffffffffffffffffffffff1663f23a6e6187878686866040518663ffffffff1660e01b8152600401808673ffffffffffffffffffffffffffffffffffffffff1681526020018573ffffffffffffffffffffffffffffffffffffffff16815260200184815260200183815260200180602001828103825283818151815260200191508051906020019080838360005b83811015620011b75780820151818401526020810190506200119a565b50505050905090810190601f168015620011e55780820380516001836020036101000a031916815260200191505b509650505050505050602060405180830381600087803b1580156200120957600080fd5b505af19250505080156200123f57506040513d60208110156200122b57600080fd5b810190808051906020019092919050505060015b62001352576200124e620015a5565b806200125b575062001300565b806040517f08c379a00000000000000000000000000000000000000000000000000000000081526004018080602001828103825283818151815260200191508051906020019080838360005b83811015620012c4578082015181840152602081019050620012a7565b50505050905090810190601f168015620012f25780820380516001836020036101000a031916815260200191505b509250505060405180910390fd5b6040517f08c379a0000000000000000000000000000000000000000000000000000000008152600401808060200182810382526034815260200180620071056034913960400191505060405180910390fd5b63f23a6e6160e01b7bffffffffffffffffffffffffffffffffffffffffffffffffffffffff1916817bffffffffffffffffffffffffffffffffffffffffffffffffffffffff191614620013f1576040517f08c379a0000000000000000000000000000000000000000000000000000000008152600401808060200182810382526028815260200180620071396028913960400191505060405180910390fd5b505b505050505050565b600080823b905060008111915050919050565b828054600181600116156101000203166002900490600052602060002090601f016020900481019282601f106200145157805160ff191683800117855562001482565b8280016001018555821562001482579182015b828111156200148157825182559160200191906001019062001464565b5b50905062001491919062001568565b5090565b6040518060c00160405280600073ffffffffffffffffffffffffffffffffffffffff16815260200160608152602001606081526020016060815260200160008152602001606081525090565b828054600181600116156101000203166002900490600052602060002090601f016020900481019282601f106200152457805160ff191683800117855562001555565b8280016001018555821562001555579182015b828111156200155457825182559160200191906001019062001537565b5b50905062001564919062001568565b5090565b5b808211156200158357600081600090555060010162001569565b5090565b6000601f19601f8301169050919050565b60008160e01c9050919050565b600060443d1015620015b75762001666565b60046000803e620015ca60005162001598565b6308c379a08114620015dd575062001666565b60405160043d036004823e80513d602482011167ffffffffffffffff821117156200160b5750505062001666565b808201805167ffffffffffffffff8111156200162c57505050505062001666565b8060208301013d8501811115620016495750505050505062001666565b620016548262001587565b60208401016040528296505050505050505b90565b615a8c80620016796000396000f3fe6080604052600436106101495760003560e01c806376cdf224116100b6578063caae5f941161006f578063caae5f94146112da578063cf719ca01461131b578063d2a55e3314611325578063e40c033214611541578063e985e9c5146115a6578063f242432a1461162d57610149565b806376cdf22414610b27578063a22cb46514610dd2578063a2fe5f6f14610e2f578063a32212d81461104b578063bb0c15cf14611092578063c6e80107146111c157610149565b80632eb2c2d6116101085780632eb2c2d6146105f9578063306e81cb146108295780634b8ae8cd146108985780634e1273f4146108e9578063590743e514610a975780635d91889a14610afc57610149565b8062f2f94c1461014e578062fdd58e1461017c57806301ffc9a7146101eb57806303a9c3d71461025b5780630e89341c1461029c5780632ba5d42714610350575b600080fd5b61017a6004803603602081101561016457600080fd5b8101908080359060200190929190505050611749565b005b34801561018857600080fd5b506101d56004803603604081101561019f57600080fd5b81019080803573ffffffffffffffffffffffffffffffffffffffff16906020019092919080359060200190929190505050611e34565b6040518082815260200191505060405180910390f35b3480156101f757600080fd5b506102436004803603602081101561020e57600080fd5b8101908080357bffffffffffffffffffffffffffffffffffffffffffffffffffffffff19169060200190929190505050611f14565b60405180821515815260200191505060405180910390f35b34801561026757600080fd5b50610270611f7b565b604051808273ffffffffffffffffffffffffffffffffffffffff16815260200191505060405180910390f35b3480156102a857600080fd5b506102d5600480360360208110156102bf57600080fd5b8101908080359060200190929190505050611fa1565b6040518080602001828103825283818151815260200191508051906020019080838360005b838110156103155780820151818401526020810190506102fa565b50505050905090810190601f1680156103425780820380516001836020036101000a031916815260200191505b509250505060405180910390f35b34801561035c57600080fd5b506104166004803603602081101561037357600080fd5b810190808035906020019064010000000081111561039057600080fd5b8201836020820111156103a257600080fd5b803590602001918460018302840111640100000000831117156103c457600080fd5b91908080601f016020809104026020016040519081016040528093929190818152602001838380828437600081840152601f19601f820116905080830192505050505050509192919290505050612045565b604051808773ffffffffffffffffffffffffffffffffffffffff1681526020018060200180602001806020018681526020018060200185810385528a818151815260200191508051906020019080838360005b83811015610484578082015181840152602081019050610469565b50505050905090810190601f1680156104b15780820380516001836020036101000a031916815260200191505b50858103845289818151815260200191508051906020019080838360005b838110156104ea5780820151818401526020810190506104cf565b50505050905090810190601f1680156105175780820380516001836020036101000a031916815260200191505b50858103835288818151815260200191508051906020019080838360005b83811015610550578082015181840152602081019050610535565b50505050905090810190601f16801561057d5780820380516001836020036101000a031916815260200191505b50858103825286818151815260200191508051906020019080838360005b838110156105b657808201518184015260208101905061059b565b50505050905090810190601f1680156105e35780820380516001836020036101000a031916815260200191505b509a505050505050505050505060405180910390f35b34801561060557600080fd5b50610827600480360360a081101561061c57600080fd5b81019080803573ffffffffffffffffffffffffffffffffffffffff169060200190929190803573ffffffffffffffffffffffffffffffffffffffff1690602001909291908035906020019064010000000081111561067957600080fd5b82018360208201111561068b57600080fd5b803590602001918460208302840111640100000000831117156106ad57600080fd5b919080806020026020016040519081016040528093929190818152602001838360200280828437600081840152601f19601f8201169050808301925050505050505091929192908035906020019064010000000081111561070d57600080fd5b82018360208201111561071f57600080fd5b8035906020019184602083028401116401000000008311171561074157600080fd5b919080806020026020016040519081016040528093929190818152602001838360200280828437600081840152601f19601f820116905080830192505050505050509192919290803590602001906401000000008111156107a157600080fd5b8201836020820111156107b357600080fd5b803590602001918460018302840111640100000000831117156107d557600080fd5b91908080601f016020809104026020016040519081016040528093929190818152602001838380828437600081840152601f19601f820116905080830192505050505050509192919290505050612317565b005b34801561083557600080fd5b506108826004803603604081101561084c57600080fd5b8101908080359060200190929190803573ffffffffffffffffffffffffffffffffffffffff1690602001909291905050506127a2565b6040518082815260200191505060405180910390f35b3480156108a457600080fd5b506108d1600480360360208110156108bb57600080fd5b81019080803590602001909291905050506127c7565b60405180821515815260200191505060405180910390f35b3480156108f557600080fd5b50610a406004803603604081101561090c57600080fd5b810190808035906020019064010000000081111561092957600080fd5b82018360208201111561093b57600080fd5b8035906020019184602083028401116401000000008311171561095d57600080fd5b919080806020026020016040519081016040528093929190818152602001838360200280828437600081840152601f19601f820116905080830192505050505050509192919290803590602001906401000000008111156109bd57600080fd5b8201836020820111156109cf57600080fd5b803590602001918460208302840111640100000000831117156109f157600080fd5b919080806020026020016040519081016040528093929190818152602001838360200280828437600081840152601f19601f8201169050808301925050505050505091929192905050506127e7565b6040518080602001828103825283818151815260200191508051906020019060200280838360005b83811015610a83578082015181840152602081019050610a68565b505050509050019250505060405180910390f35b348015610aa357600080fd5b50610ae660048036036020811015610aba57600080fd5b81019080803573ffffffffffffffffffffffffffffffffffffffff1690602001909291905050506129d9565b6040518082815260200191505060405180910390f35b348015610b0857600080fd5b50610b116129f1565b6040518082815260200191505060405180910390f35b348015610b3357600080fd5b50610dd0600480360360e0811015610b4a57600080fd5b8101908080359060200190640100000000811115610b6757600080fd5b820183602082011115610b7957600080fd5b80359060200191846001830284011164010000000083111715610b9b57600080fd5b91908080601f016020809104026020016040519081016040528093929190818152602001838380828437600081840152601f19601f82011690508083019250505050505050919291929080359060200190640100000000811115610bfe57600080fd5b820183602082011115610c1057600080fd5b80359060200191846001830284011164010000000083111715610c3257600080fd5b91908080601f016020809104026020016040519081016040528093929190818152602001838380828437600081840152601f19601f8201169050808301925050505050505091929192908035906020019092919080359060200190640100000000811115610c9f57600080fd5b820183602082011115610cb157600080fd5b80359060200191846001830284011164010000000083111715610cd357600080fd5b91908080601f016020809104026020016040519081016040528093929190818152602001838380828437600081840152601f19601f820116905080830192505050505050509192919290803590602001909291908035906020019092919080359060200190640100000000811115610d4a57600080fd5b820183602082011115610d5c57600080fd5b80359060200191846001830284011164010000000083111715610d7e57600080fd5b91908080601f016020809104026020016040519081016040528093929190818152602001838380828437600081840152601f19601f8201169050808301925050505050505091929192905050506129fe565b005b348015610dde57600080fd5b50610e2d60048036036040811015610df557600080fd5b81019080803573ffffffffffffffffffffffffffffffffffffffff1690602001909291908035151590602001909291905050506130fe565b005b348015610e3b57600080fd5b50610e6860048036036020811015610e5257600080fd5b8101908080359060200190929190505050613297565b604051808773ffffffffffffffffffffffffffffffffffffffff1681526020018060200180602001806020018681526020018060200185810385528a818151815260200191508051906020019080838360005b83811015610ed6578082015181840152602081019050610ebb565b50505050905090810190601f168015610f035780820380516001836020036101000a031916815260200191505b50858103845289818151815260200191508051906020019080838360005b83811015610f3c578082015181840152602081019050610f21565b50505050905090810190601f168015610f695780820380516001836020036101000a031916815260200191505b50858103835288818151815260200191508051906020019080838360005b83811015610fa2578082015181840152602081019050610f87565b50505050905090810190601f168015610fcf5780820380516001836020036101000a031916815260200191505b50858103825286818151815260200191508051906020019080838360005b83811015611008578082015181840152602081019050610fed565b50505050905090810190601f1680156110355780820380516001836020036101000a031916815260200191505b509a505050505050505050505060405180910390f35b34801561105757600080fd5b506110906004803603604081101561106e57600080fd5b8101908080359060200190929190803515159060200190929190505050613553565b005b6111a9600480360360c08110156110a857600080fd5b81019080803573ffffffffffffffffffffffffffffffffffffffff169060200190929190803573ffffffffffffffffffffffffffffffffffffffff16906020019092919080359060200190929190803590602001909291908035906020019064010000000081111561111957600080fd5b82018360208201111561112b57600080fd5b8035906020019184600183028401116401000000008311171561114d57600080fd5b91908080601f016020809104026020016040519081016040528093929190818152602001838380828437600081840152601f19601f82011690508083019250505050505050919291929080359060200190929190505050613b69565b60405180821515815260200191505060405180910390f35b6112d8600480360360c08110156111d757600080fd5b81019080803573ffffffffffffffffffffffffffffffffffffffff169060200190929190803573ffffffffffffffffffffffffffffffffffffffff16906020019092919080359060200190929190803590602001909291908035906020019064010000000081111561124857600080fd5b82018360208201111561125a57600080fd5b8035906020019184600183028401116401000000008311171561127c57600080fd5b91908080601f016020809104026020016040519081016040528093929190818152602001838380828437600081840152601f19601f82011690508083019250505050505050919291929080359060200190929190505050613ca9565b005b3480156112e657600080fd5b506112ef613d6e565b604051808273ffffffffffffffffffffffffffffffffffffffff16815260200191505060405180910390f35b611323613d94565b005b34801561133157600080fd5b5061135e6004803603602081101561134857600080fd5b8101908080359060200190929190505050613e16565b604051808773ffffffffffffffffffffffffffffffffffffffff1681526020018060200180602001806020018681526020018060200185810385528a818151815260200191508051906020019080838360005b838110156113cc5780820151818401526020810190506113b1565b50505050905090810190601f1680156113f95780820380516001836020036101000a031916815260200191505b50858103845289818151815260200191508051906020019080838360005b83811015611432578082015181840152602081019050611417565b50505050905090810190601f16801561145f5780820380516001836020036101000a031916815260200191505b50858103835288818151815260200191508051906020019080838360005b8381101561149857808201518184015260208101905061147d565b50505050905090810190601f1680156114c55780820380516001836020036101000a031916815260200191505b50858103825286818151815260200191508051906020019080838360005b838110156114fe5780820151818401526020810190506114e3565b50505050905090810190601f16801561152b5780820380516001836020036101000a031916815260200191505b509a505050505050505050505060405180910390f35b34801561154d57600080fd5b5061157a6004803603602081101561156457600080fd5b81019080803590602001909291905050506140df565b604051808273ffffffffffffffffffffffffffffffffffffffff16815260200191505060405180910390f35b3480156115b257600080fd5b50611615600480360360408110156115c957600080fd5b81019080803573ffffffffffffffffffffffffffffffffffffffff169060200190929190803573ffffffffffffffffffffffffffffffffffffffff16906020019092919050505061411b565b60405180821515815260200191505060405180910390f35b34801561163957600080fd5b50611747600480360360a081101561165057600080fd5b81019080803573ffffffffffffffffffffffffffffffffffffffff169060200190929190803573ffffffffffffffffffffffffffffffffffffffff1690602001909291908035906020019092919080359060200190929190803590602001906401000000008111156116c157600080fd5b8201836020820111156116d357600080fd5b803590602001918460018302840111640100000000831117156116f557600080fd5b91908080601f016020809104026020016040519081016040528093929190818152602001838380828437600081840152601f19601f8201169050808301925050505050505091929192905050506141af565b005b611751615608565b600760008381526020019081526020016000206040518060c00160405290816000820160009054906101000a900473ffffffffffffffffffffffffffffffffffffffff1673ffffffffffffffffffffffffffffffffffffffff1673ffffffffffffffffffffffffffffffffffffffff168152602001600182018054600181600116156101000203166002900480601f01602080910402602001604051908101604052809291908181526020018280546001816001161561010002031660029004801561185e5780601f106118335761010080835404028352916020019161185e565b820191906000526020600020905b81548152906001019060200180831161184157829003601f168201915b50505050508152602001600282018054600181600116156101000203166002900480601f0160208091040260200160405190810160405280929190818152602001828054600181600116156101000203166002900480156119005780601f106118d557610100808354040283529160200191611900565b820191906000526020600020905b8154815290600101906020018083116118e357829003601f168201915b50505050508152602001600382018054600181600116156101000203166002900480601f0160208091040260200160405190810160405280929190818152602001828054600181600116156101000203166002900480156119a25780601f10611977576101008083540402835291602001916119a2565b820191906000526020600020905b81548152906001019060200180831161198557829003601f168201915b5050505050815260200160048201548152602001600582018054600181600116156101000203166002900480601f016020809104026020016040519081016040528092919081815260200182805460018160011615610100020316600290048015611a4e5780601f10611a2357610100808354040283529160200191611a4e565b820191906000526020600020905b815481529060010190602001808311611a3157829003601f168201915b505050505081525050905060006060600080600060608660a0015180602001905160c0811015611a7d57600080fd5b810190808051906020019092919080516040519392919084640100000000821115611aa757600080fd5b83820191506020820185811115611abd57600080fd5b8251866001820283011164010000000082111715611ada57600080fd5b8083526020830192505050908051906020019080838360005b83811015611b0e578082015181840152602081019050611af3565b50505050905090810190601f168015611b3b5780820380516001836020036101000a031916815260200191505b5060405260200180519060200190929190805190602001909291908051906020019092919080516040519392919084640100000000821115611b7c57600080fd5b83820191506020820185811115611b9257600080fd5b8251866001820283011164010000000082111715611baf57600080fd5b8083526020830192505050908051906020019080838360005b83811015611be3578082015181840152602081019050611bc8565b50505050905090810190601f168015611c105780820380516001836020036101000a031916815260200191505b50604052505050809650819750829850839950849a50859b5050505050505060008685029050600061157c9050600081830390506000600190505b600c805490508111611d08576000600c8281548110611c6657fe5b9060005260206000200160009054906101000a900473ffffffffffffffffffffffffffffffffffffffff1690506000611c9f828f611e34565b905060008982028581611cae57fe5b0490508273ffffffffffffffffffffffffffffffffffffffff166108fc829081150290604051600060405180830381858888f19350505050158015611cf7573d6000803e3d6000fd5b505050508080600101915050611c4b565b5060049450888888888888604051602001808781526020018060200186815260200185815260200184815260200180602001838103835288818151815260200191508051906020019080838360005b83811015611d72578082015181840152602081019050611d57565b50505050905090810190601f168015611d9f5780820380516001836020036101000a031916815260200191505b50838103825284818151815260200191508051906020019080838360005b83811015611dd8578082015181840152602081019050611dbd565b50505050905090810190601f168015611e055780820380516001836020036101000a031916815260200191505b50985050505050505050506040516020818303038152906040528a60a001819052505050505050505050505050565b60008073ffffffffffffffffffffffffffffffffffffffff168373ffffffffffffffffffffffffffffffffffffffff161415611ebb576040517f08c379a000000000000000000000000000000000000000000000000000000000815260040180806020018281038252602b8152602001806158a2602b913960400191505060405180910390fd5b6001600083815260200190815260200160002060008473ffffffffffffffffffffffffffffffffffffffff1673ffffffffffffffffffffffffffffffffffffffff16815260200190815260200160002054905092915050565b6000806000837bffffffffffffffffffffffffffffffffffffffffffffffffffffffff19167bffffffffffffffffffffffffffffffffffffffffffffffffffffffff1916815260200190815260200160002060009054906101000a900460ff169050919050565b600a60009054906101000a900473ffffffffffffffffffffffffffffffffffffffff1681565b606060038054600181600116156101000203166002900480601f0160208091040260200160405190810160405280929190818152602001828054600181600116156101000203166002900480156120395780601f1061200e57610100808354040283529160200191612039565b820191906000526020600020905b81548152906001019060200180831161201c57829003601f168201915b50505050509050919050565b6008818051602081018201805184825260208301602085012081835280955050505050506000915090508060000160009054906101000a900473ffffffffffffffffffffffffffffffffffffffff1690806001018054600181600116156101000203166002900480601f01602080910402602001604051908101604052809291908181526020018280546001816001161561010002031660029004801561212d5780601f106121025761010080835404028352916020019161212d565b820191906000526020600020905b81548152906001019060200180831161211057829003601f168201915b505050505090806002018054600181600116156101000203166002900480601f0160208091040260200160405190810160405280929190818152602001828054600181600116156101000203166002900480156121cb5780601f106121a0576101008083540402835291602001916121cb565b820191906000526020600020905b8154815290600101906020018083116121ae57829003601f168201915b505050505090806003018054600181600116156101000203166002900480601f0160208091040260200160405190810160405280929190818152602001828054600181600116156101000203166002900480156122695780601f1061223e57610100808354040283529160200191612269565b820191906000526020600020905b81548152906001019060200180831161224c57829003601f168201915b505050505090806004015490806005018054600181600116156101000203166002900480601f01602080910402602001604051908101604052809291908181526020018280546001816001161561010002031660029004801561230d5780601f106122e25761010080835404028352916020019161230d565b820191906000526020600020905b8154815290600101906020018083116122f057829003601f168201915b5050505050905086565b8151835114612371576040517f08c379a0000000000000000000000000000000000000000000000000000000008152600401808060200182810382526028815260200180615a2f6028913960400191505060405180910390fd5b600073ffffffffffffffffffffffffffffffffffffffff168473ffffffffffffffffffffffffffffffffffffffff1614156123f7576040517f08c379a00000000000000000000000000000000000000000000000000000000081526004018080602001828103825260258152602001806158fe6025913960400191505060405180910390fd5b6123ff61451c565b73ffffffffffffffffffffffffffffffffffffffff168573ffffffffffffffffffffffffffffffffffffffff16148061244557506124448561243f61451c565b61411b565b5b61249a576040517f08c379a00000000000000000000000000000000000000000000000000000000081526004018080602001828103825260328152602001806159236032913960400191505060405180910390fd5b60006124a461451c565b90506124b4818787878787614524565b60005b84518110156126855760008582815181106124ce57fe5b6020026020010151905060008583815181106124e657fe5b6020026020010151905061256d816040518060600160405280602a8152602001615955602a91396001600086815260200190815260200160002060008d73ffffffffffffffffffffffffffffffffffffffff1673ffffffffffffffffffffffffffffffffffffffff1681526020019081526020016000205461452c9092919063ffffffff16565b6001600084815260200190815260200160002060008b73ffffffffffffffffffffffffffffffffffffffff1673ffffffffffffffffffffffffffffffffffffffff16815260200190815260200160002081905550612624816001600085815260200190815260200160002060008b73ffffffffffffffffffffffffffffffffffffffff1673ffffffffffffffffffffffffffffffffffffffff1681526020019081526020016000205461448190919063ffffffff16565b6001600084815260200190815260200160002060008a73ffffffffffffffffffffffffffffffffffffffff1673ffffffffffffffffffffffffffffffffffffffff1681526020019081526020016000208190555050508060010190506124b7565b508473ffffffffffffffffffffffffffffffffffffffff168673ffffffffffffffffffffffffffffffffffffffff168273ffffffffffffffffffffffffffffffffffffffff167f4a39dc06d4c0dbc64b70af90fd698a233a518aa5d07e595d983b8c0526c8f7fb8787604051808060200180602001838103835285818151815260200191508051906020019060200280838360005b8381101561273557808201518184015260208101905061271a565b50505050905001838103825284818151815260200191508051906020019060200280838360005b8381101561277757808201518184015260208101905061275c565b5050505090500194505050505060405180910390a461279a8187878787876145ec565b505050505050565b600b602052816000526040600020602052806000526040600020600091509150505481565b60056020528060005260406000206000915054906101000a900460ff1681565b60608151835114612843576040517f08c379a0000000000000000000000000000000000000000000000000000000008152600401808060200182810382526029815260200180615a066029913960400191505060405180910390fd5b6060835167ffffffffffffffff8111801561285d57600080fd5b5060405190808252806020026020018201604052801561288c5781602001602082028036833780820191505090505b50905060005b84518110156129ce57600073ffffffffffffffffffffffffffffffffffffffff168582815181106128bf57fe5b602002602001015173ffffffffffffffffffffffffffffffffffffffff161415612934576040517f08c379a00000000000000000000000000000000000000000000000000000000081526004018080602001828103825260318152602001806158cd6031913960400191505060405180910390fd5b6001600085838151811061294457fe5b60200260200101518152602001908152602001600020600086838151811061296857fe5b602002602001015173ffffffffffffffffffffffffffffffffffffffff1673ffffffffffffffffffffffffffffffffffffffff168152602001908152602001600020548282815181106129b757fe5b602002602001018181525050806001019050612892565b508091505092915050565b60066020528060005260406000206000915090505481565b6000600980549050905090565b6000612a098861497b565b90506005600082815260200190815260200160002060009054906101000a900460ff1615612a3657600080fd5b60016005600083815260200190815260200160002060006101000a81548160ff021916908315150217905550612a6a615608565b33816000019073ffffffffffffffffffffffffffffffffffffffff16908173ffffffffffffffffffffffffffffffffffffffff16815250508881604001819052508781606001819052508181608001818152505060608883604051602001808060200183815260200180602001838103835285818151815260200191508051906020019080838360005b83811015612b0f578082015181840152602081019050612af4565b50505050905090810190601f168015612b3c5780820380516001836020036101000a031916815260200191505b50838103825260058152602001807f2e6a736f6e0000000000000000000000000000000000000000000000000000008152506020019450505050506040516020818303038152906040529050808260200181905250606088888888600189604051602001808781526020018060200186815260200185815260200184815260200180602001838103835288818151815260200191508051906020019080838360005b83811015612bf9578082015181840152602081019050612bde565b50505050905090810190601f168015612c265780820380516001836020036101000a031916815260200191505b50838103825284818151815260200191508051906020019080838360005b83811015612c5f578082015181840152602081019050612c44565b50505050905090810190601f168015612c8c5780820380516001836020036101000a031916815260200191505b50985050505050505050506040516020818303038152906040529050808360a00181905250600983908060018154018082558091505060019003906000526020600020906006020160009091909190915060008201518160000160006101000a81548173ffffffffffffffffffffffffffffffffffffffff021916908373ffffffffffffffffffffffffffffffffffffffff1602179055506020820151816001019080519060200190612d40929190615654565b506040820151816002019080519060200190612d5d9291906156d4565b506060820151816003019080519060200190612d7a9291906156d4565b506080820151816004015560a0820151816005019080519060200190612da1929190615654565b50505083600660003373ffffffffffffffffffffffffffffffffffffffff1673ffffffffffffffffffffffffffffffffffffffff16815260200190815260200160002081905550826007600086815260200190815260200160002060008201518160000160006101000a81548173ffffffffffffffffffffffffffffffffffffffff021916908373ffffffffffffffffffffffffffffffffffffffff1602179055506020820151816001019080519060200190612e5f929190615654565b506040820151816002019080519060200190612e7c9291906156d4565b506060820151816003019080519060200190612e999291906156d4565b506080820151816004015560a0820151816005019080519060200190612ec0929190615654565b50905050612ed033858b84614a14565b7fe4db4d9bae6a7ea1c8f58bae49da45e3112df950e97a0b718e738b109807232e836000015184602001518560400151866060015187608001518860a00151604051808773ffffffffffffffffffffffffffffffffffffffff1681526020018060200180602001806020018681526020018060200185810385528a818151815260200191508051906020019080838360005b83811015612f7d578082015181840152602081019050612f62565b50505050905090810190601f168015612faa5780820380516001836020036101000a031916815260200191505b50858103845289818151815260200191508051906020019080838360005b83811015612fe3578082015181840152602081019050612fc8565b50505050905090810190601f1680156130105780820380516001836020036101000a031916815260200191505b50858103835288818151815260200191508051906020019080838360005b8381101561304957808201518184015260208101905061302e565b50505050905090810190601f1680156130765780820380516001836020036101000a031916815260200191505b50858103825286818151815260200191508051906020019080838360005b838110156130af578082015181840152602081019050613094565b50505050905090810190601f1680156130dc5780820380516001836020036101000a031916815260200191505b509a505050505050505050505060405180910390a15050505050505050505050565b8173ffffffffffffffffffffffffffffffffffffffff1661311d61451c565b73ffffffffffffffffffffffffffffffffffffffff16141561318a576040517f08c379a00000000000000000000000000000000000000000000000000000000081526004018080602001828103825260298152602001806159dd6029913960400191505060405180910390fd5b806002600061319761451c565b73ffffffffffffffffffffffffffffffffffffffff1673ffffffffffffffffffffffffffffffffffffffff16815260200190815260200160002060008473ffffffffffffffffffffffffffffffffffffffff1673ffffffffffffffffffffffffffffffffffffffff16815260200190815260200160002060006101000a81548160ff0219169083151502179055508173ffffffffffffffffffffffffffffffffffffffff1661324461451c565b73ffffffffffffffffffffffffffffffffffffffff167f17307eab39ab6107e8899845ad3d59bd9653f200f220920489ca2b5937696c318360405180821515815260200191505060405180910390a35050565b60076020528060005260406000206000915090508060000160009054906101000a900473ffffffffffffffffffffffffffffffffffffffff1690806001018054600181600116156101000203166002900480601f0160208091040260200160405190810160405280929190818152602001828054600181600116156101000203166002900480156133695780601f1061333e57610100808354040283529160200191613369565b820191906000526020600020905b81548152906001019060200180831161334c57829003601f168201915b505050505090806002018054600181600116156101000203166002900480601f0160208091040260200160405190810160405280929190818152602001828054600181600116156101000203166002900480156134075780601f106133dc57610100808354040283529160200191613407565b820191906000526020600020905b8154815290600101906020018083116133ea57829003601f168201915b505050505090806003018054600181600116156101000203166002900480601f0160208091040260200160405190810160405280929190818152602001828054600181600116156101000203166002900480156134a55780601f1061347a576101008083540402835291602001916134a5565b820191906000526020600020905b81548152906001019060200180831161348857829003601f168201915b505050505090806004015490806005018054600181600116156101000203166002900480601f0160208091040260200160405190810160405280929190818152602001828054600181600116156101000203166002900480156135495780601f1061351e57610100808354040283529160200191613549565b820191906000526020600020905b81548152906001019060200180831161352c57829003601f168201915b5050505050905086565b8015613b6557613561615608565b600760008481526020019081526020016000206040518060c00160405290816000820160009054906101000a900473ffffffffffffffffffffffffffffffffffffffff1673ffffffffffffffffffffffffffffffffffffffff1673ffffffffffffffffffffffffffffffffffffffff168152602001600182018054600181600116156101000203166002900480601f01602080910402602001604051908101604052809291908181526020018280546001816001161561010002031660029004801561366e5780601f106136435761010080835404028352916020019161366e565b820191906000526020600020905b81548152906001019060200180831161365157829003601f168201915b50505050508152602001600282018054600181600116156101000203166002900480601f0160208091040260200160405190810160405280929190818152602001828054600181600116156101000203166002900480156137105780601f106136e557610100808354040283529160200191613710565b820191906000526020600020905b8154815290600101906020018083116136f357829003601f168201915b50505050508152602001600382018054600181600116156101000203166002900480601f0160208091040260200160405190810160405280929190818152602001828054600181600116156101000203166002900480156137b25780601f10613787576101008083540402835291602001916137b2565b820191906000526020600020905b81548152906001019060200180831161379557829003601f168201915b5050505050815260200160048201548152602001600582018054600181600116156101000203166002900480601f01602080910402602001604051908101604052809291908181526020018280546001816001161561010002031660029004801561385e5780601f106138335761010080835404028352916020019161385e565b820191906000526020600020905b81548152906001019060200180831161384157829003601f168201915b505050505081525050905060006060600080600060608660a0015180602001905160c081101561388d57600080fd5b8101908080519060200190929190805160405193929190846401000000008211156138b757600080fd5b838201915060208201858111156138cd57600080fd5b82518660018202830111640100000000821117156138ea57600080fd5b8083526020830192505050908051906020019080838360005b8381101561391e578082015181840152602081019050613903565b50505050905090810190601f16801561394b5780820380516001836020036101000a031916815260200191505b506040526020018051906020019092919080519060200190929190805190602001909291908051604051939291908464010000000082111561398c57600080fd5b838201915060208201858111156139a257600080fd5b82518660018202830111640100000000821117156139bf57600080fd5b8083526020830192505050908051906020019080838360005b838110156139f35780820151818401526020810190506139d8565b50505050905090810190601f168015613a205780820380516001836020036101000a031916815260200191505b50604052505050809650819750829850839950849a50859b5050505050505060039150858585858585604051602001808781526020018060200186815260200185815260200184815260200180602001838103835288818151815260200191508051906020019080838360005b83811015613aa8578082015181840152602081019050613a8d565b50505050905090810190601f168015613ad55780820380516001836020036101000a031916815260200191505b50838103825284818151815260200191508051906020019080838360005b83811015613b0e578082015181840152602081019050613af3565b50505050905090810190601f168015613b3b5780820380516001836020036101000a031916815260200191505b50985050505050505050506040516020818303038152906040528760a00181905250505050505050505b5050565b6000838202341015613b7a57600080fd5b8673ffffffffffffffffffffffffffffffffffffffff166108fc349081150290604051600060405180830381858888f19350505050613bb857600080fd5b83600b600087815260200190815260200160002060008873ffffffffffffffffffffffffffffffffffffffff1673ffffffffffffffffffffffffffffffffffffffff16815260200190815260200160002060008282540192505081905550600c869080600181540180825580915050600190039060005260206000200160009091909190916101000a81548173ffffffffffffffffffffffffffffffffffffffff021916908373ffffffffffffffffffffffffffffffffffffffff160217905550613c8687878787876141af565b613c908786614c17565b15613c9f57613c9e85614c3e565b5b9695505050505050565b6001613cb58686611e34565b1115613d0c576040517f08c379a000000000000000000000000000000000000000000000000000000000815260040180806020018281038252603681526020018061597f6036913960400191505060405180910390fd5b828102341015613d1b57600080fd5b8573ffffffffffffffffffffffffffffffffffffffff166108fc349081150290604051600060405180830381858888f19350505050613d5957600080fd5b613d6686868686866141af565b505050505050565b600460009054906101000a900473ffffffffffffffffffffffffffffffffffffffff1681565b6000600a905060006103e8905060008183029050600a60009054906101000a900473ffffffffffffffffffffffffffffffffffffffff1673ffffffffffffffffffffffffffffffffffffffff166108fc829081150290604051600060405180830381858888f19350505050158015613e10573d6000803e3d6000fd5b50505050565b60098181548110613e2357fe5b90600052602060002090600602016000915090508060000160009054906101000a900473ffffffffffffffffffffffffffffffffffffffff1690806001018054600181600116156101000203166002900480601f016020809104026020016040519081016040528092919081815260200182805460018160011615610100020316600290048015613ef55780601f10613eca57610100808354040283529160200191613ef5565b820191906000526020600020905b815481529060010190602001808311613ed857829003601f168201915b505050505090806002018054600181600116156101000203166002900480601f016020809104026020016040519081016040528092919081815260200182805460018160011615610100020316600290048015613f935780601f10613f6857610100808354040283529160200191613f93565b820191906000526020600020905b815481529060010190602001808311613f7657829003601f168201915b505050505090806003018054600181600116156101000203166002900480601f0160208091040260200160405190810160405280929190818152602001828054600181600116156101000203166002900480156140315780601f1061400657610100808354040283529160200191614031565b820191906000526020600020905b81548152906001019060200180831161401457829003601f168201915b505050505090806004015490806005018054600181600116156101000203166002900480601f0160208091040260200160405190810160405280929190818152602001828054600181600116156101000203166002900480156140d55780601f106140aa576101008083540402835291602001916140d5565b820191906000526020600020905b8154815290600101906020018083116140b857829003601f168201915b5050505050905086565b600c81815481106140ec57fe5b906000526020600020016000915054906101000a900473ffffffffffffffffffffffffffffffffffffffff1681565b6000600260008473ffffffffffffffffffffffffffffffffffffffff1673ffffffffffffffffffffffffffffffffffffffff16815260200190815260200160002060008373ffffffffffffffffffffffffffffffffffffffff1673ffffffffffffffffffffffffffffffffffffffff16815260200190815260200160002060009054906101000a900460ff16905092915050565b600073ffffffffffffffffffffffffffffffffffffffff168473ffffffffffffffffffffffffffffffffffffffff161415614235576040517f08c379a00000000000000000000000000000000000000000000000000000000081526004018080602001828103825260258152602001806158fe6025913960400191505060405180910390fd5b600061423f61451c565b905061425f81878761425088614c73565b61425988614c73565b87614524565b6142dc836040518060600160405280602a8152602001615955602a91396001600088815260200190815260200160002060008a73ffffffffffffffffffffffffffffffffffffffff1673ffffffffffffffffffffffffffffffffffffffff1681526020019081526020016000205461452c9092919063ffffffff16565b6001600086815260200190815260200160002060008873ffffffffffffffffffffffffffffffffffffffff1673ffffffffffffffffffffffffffffffffffffffff16815260200190815260200160002081905550614393836001600087815260200190815260200160002060008873ffffffffffffffffffffffffffffffffffffffff1673ffffffffffffffffffffffffffffffffffffffff1681526020019081526020016000205461448190919063ffffffff16565b6001600086815260200190815260200160002060008773ffffffffffffffffffffffffffffffffffffffff1673ffffffffffffffffffffffffffffffffffffffff168152602001908152602001600020819055508473ffffffffffffffffffffffffffffffffffffffff168673ffffffffffffffffffffffffffffffffffffffff168273ffffffffffffffffffffffffffffffffffffffff167fc3d58168c5ae7397731d063d5bbf3d657854427343f4c083240f7aacaa2d0f628787604051808381526020018281526020019250505060405180910390a4614479818787878787614ce3565b505050505050565b6000808284019050838110156144ff576040517f08c379a000000000000000000000000000000000000000000000000000000000815260040180806020018281038252601b8152602001807f536166654d6174683a206164646974696f6e206f766572666c6f77000000000081525060200191505060405180910390fd5b8091505092915050565b600080823b905060008111915050919050565b600033905090565b505050505050565b60008383111582906145d9576040517f08c379a00000000000000000000000000000000000000000000000000000000081526004018080602001828103825283818151815260200191508051906020019080838360005b8381101561459e578082015181840152602081019050614583565b50505050905090810190601f1680156145cb5780820380516001836020036101000a031916815260200191505b509250505060405180910390fd5b5060008385039050809150509392505050565b61460b8473ffffffffffffffffffffffffffffffffffffffff16614509565b15614973578373ffffffffffffffffffffffffffffffffffffffff1663bc197c8187878686866040518663ffffffff1660e01b8152600401808673ffffffffffffffffffffffffffffffffffffffff1681526020018573ffffffffffffffffffffffffffffffffffffffff168152602001806020018060200180602001848103845287818151815260200191508051906020019060200280838360005b838110156146c35780820151818401526020810190506146a8565b50505050905001848103835286818151815260200191508051906020019060200280838360005b838110156147055780820151818401526020810190506146ea565b50505050905001848103825285818151815260200191508051906020019080838360005b83811015614744578082015181840152602081019050614729565b50505050905090810190601f1680156147715780820380516001836020036101000a031916815260200191505b5098505050505050505050602060405180830381600087803b15801561479657600080fd5b505af19250505080156147ca57506040513d60208110156147b657600080fd5b810190808051906020019092919050505060015b6148d4576147d661578f565b806147e15750614883565b806040517f08c379a00000000000000000000000000000000000000000000000000000000081526004018080602001828103825283818151815260200191508051906020019080838360005b8381101561484857808201518184015260208101905061482d565b50505050905090810190601f1680156148755780820380516001836020036101000a031916815260200191505b509250505060405180910390fd5b6040517f08c379a00000000000000000000000000000000000000000000000000000000081526004018080602001828103825260348152602001806158466034913960400191505060405180910390fd5b63bc197c8160e01b7bffffffffffffffffffffffffffffffffffffffffffffffffffffffff1916817bffffffffffffffffffffffffffffffffffffffffffffffffffffffff191614614971576040517f08c379a000000000000000000000000000000000000000000000000000000000815260040180806020018281038252602881526020018061587a6028913960400191505060405180910390fd5b505b505050505050565b600080662386f26fc1000090506000836040516020018082805190602001908083835b602083106149c1578051825260208201915060208101905060208303925061499e565b6001836020036101000a0380198251168184511680821785525050505050509050019150506040516020818303038152906040528051906020012060001c9050818181614a0a57fe5b0692505050919050565b600073ffffffffffffffffffffffffffffffffffffffff168473ffffffffffffffffffffffffffffffffffffffff161415614a9a576040517f08c379a00000000000000000000000000000000000000000000000000000000081526004018080602001828103825260288152602001806159b56028913960400191505060405180910390fd5b6000614aa461451c565b9050614ac581600087614ab688614c73565b614abf88614c73565b87614524565b614b28836001600087815260200190815260200160002060008873ffffffffffffffffffffffffffffffffffffffff1673ffffffffffffffffffffffffffffffffffffffff1681526020019081526020016000205461448190919063ffffffff16565b6001600086815260200190815260200160002060008773ffffffffffffffffffffffffffffffffffffffff1673ffffffffffffffffffffffffffffffffffffffff168152602001908152602001600020819055508473ffffffffffffffffffffffffffffffffffffffff16600073ffffffffffffffffffffffffffffffffffffffff168273ffffffffffffffffffffffffffffffffffffffff167fc3d58168c5ae7397731d063d5bbf3d657854427343f4c083240f7aacaa2d0f628787604051808381526020018281526020019250505060405180910390a4614c1081600087878787614ce3565b5050505050565b600080614c248484611e34565b1415614c335760019050614c38565b600090505b92915050565b614c4781614ff0565b600015614c5e57614c59600d54611749565b614c67565b614c66613d94565b5b614c70816155fe565b50565b606080600167ffffffffffffffff81118015614c8e57600080fd5b50604051908082528060200260200182016040528015614cbd5781602001602082028036833780820191505090505b5090508281600081518110614cce57fe5b60200260200101818152505080915050919050565b614d028473ffffffffffffffffffffffffffffffffffffffff16614509565b15614fe8578373ffffffffffffffffffffffffffffffffffffffff1663f23a6e6187878686866040518663ffffffff1660e01b8152600401808673ffffffffffffffffffffffffffffffffffffffff1681526020018573ffffffffffffffffffffffffffffffffffffffff16815260200184815260200183815260200180602001828103825283818151815260200191508051906020019080838360005b83811015614dbb578082015181840152602081019050614da0565b50505050905090810190601f168015614de85780820380516001836020036101000a031916815260200191505b509650505050505050602060405180830381600087803b158015614e0b57600080fd5b505af1925050508015614e3f57506040513d6020811015614e2b57600080fd5b810190808051906020019092919050505060015b614f4957614e4b61578f565b80614e565750614ef8565b806040517f08c379a00000000000000000000000000000000000000000000000000000000081526004018080602001828103825283818151815260200191508051906020019080838360005b83811015614ebd578082015181840152602081019050614ea2565b50505050905090810190601f168015614eea5780820380516001836020036101000a031916815260200191505b509250505060405180910390fd5b6040517f08c379a00000000000000000000000000000000000000000000000000000000081526004018080602001828103825260348152602001806158466034913960400191505060405180910390fd5b63f23a6e6160e01b7bffffffffffffffffffffffffffffffffffffffffffffffffffffffff1916817bffffffffffffffffffffffffffffffffffffffffffffffffffffffff191614614fe6576040517f08c379a000000000000000000000000000000000000000000000000000000000815260040180806020018281038252602881526020018061587a6028913960400191505060405180910390fd5b505b505050505050565b614ff8615608565b600760008381526020019081526020016000206040518060c00160405290816000820160009054906101000a900473ffffffffffffffffffffffffffffffffffffffff1673ffffffffffffffffffffffffffffffffffffffff1673ffffffffffffffffffffffffffffffffffffffff168152602001600182018054600181600116156101000203166002900480601f0160208091040260200160405190810160405280929190818152602001828054600181600116156101000203166002900480156151055780601f106150da57610100808354040283529160200191615105565b820191906000526020600020905b8154815290600101906020018083116150e857829003601f168201915b50505050508152602001600282018054600181600116156101000203166002900480601f0160208091040260200160405190810160405280929190818152602001828054600181600116156101000203166002900480156151a75780601f1061517c576101008083540402835291602001916151a7565b820191906000526020600020905b81548152906001019060200180831161518a57829003601f168201915b50505050508152602001600382018054600181600116156101000203166002900480601f0160208091040260200160405190810160405280929190818152602001828054600181600116156101000203166002900480156152495780601f1061521e57610100808354040283529160200191615249565b820191906000526020600020905b81548152906001019060200180831161522c57829003601f168201915b5050505050815260200160048201548152602001600582018054600181600116156101000203166002900480601f0160208091040260200160405190810160405280929190818152602001828054600181600116156101000203166002900480156152f55780601f106152ca576101008083540402835291602001916152f5565b820191906000526020600020905b8154815290600101906020018083116152d857829003601f168201915b505050505081525050905060006060600080600060608660a0015180602001905160c081101561532457600080fd5b81019080805190602001909291908051604051939291908464010000000082111561534e57600080fd5b8382019150602082018581111561536457600080fd5b825186600182028301116401000000008211171561538157600080fd5b8083526020830192505050908051906020019080838360005b838110156153b557808201518184015260208101905061539a565b50505050905090810190601f1680156153e25780820380516001836020036101000a031916815260200191505b506040526020018051906020019092919080519060200190929190805190602001909291908051604051939291908464010000000082111561542357600080fd5b8382019150602082018581111561543957600080fd5b825186600182028301116401000000008211171561545657600080fd5b8083526020830192505050908051906020019080838360005b8381101561548a57808201518184015260208101905061546f565b50505050905090810190601f1680156154b75780820380516001836020036101000a031916815260200191505b50604052505050809650819750829850839950849a50859b5050505050505060029150858585858585604051602001808781526020018060200186815260200185815260200184815260200180602001838103835288818151815260200191508051906020019080838360005b8381101561553f578082015181840152602081019050615524565b50505050905090810190601f16801561556c5780820380516001836020036101000a031916815260200191505b50838103825284818151815260200191508051906020019080838360005b838110156155a557808201518184015260208101905061558a565b50505050905090810190601f1680156155d25780820380516001836020036101000a031916815260200191505b50985050505050505050506040516020818303038152906040528760a001819052505050505050505050565b80600d8190555050565b6040518060c00160405280600073ffffffffffffffffffffffffffffffffffffffff16815260200160608152602001606081526020016060815260200160008152602001606081525090565b828054600181600116156101000203166002900490600052602060002090601f016020900481019282601f1061569557805160ff19168380011785556156c3565b828001600101855582156156c3579182015b828111156156c25782518255916020019190600101906156a7565b5b5090506156d09190615754565b5090565b828054600181600116156101000203166002900490600052602060002090601f016020900481019282601f1061571557805160ff1916838001178555615743565b82800160010185558215615743579182015b82811115615742578251825591602001919060010190615727565b5b5090506157509190615754565b5090565b5b8082111561576d576000816000905550600101615755565b5090565b6000601f19601f8301169050919050565b60008160e01c9050919050565b600060443d101561579f57615842565b60046000803e6157b0600051615782565b6308c379a081146157c15750615842565b60405160043d036004823e80513d602482011167ffffffffffffffff821117156157ed57505050615842565b808201805167ffffffffffffffff81111561580c575050505050615842565b8060208301013d850181111561582757505050505050615842565b61583082615771565b60208401016040528296505050505050505b9056fe455243313135353a207472616e7366657220746f206e6f6e2045524331313535526563656976657220696d706c656d656e746572455243313135353a204552433131353552656365697665722072656a656374656420746f6b656e73455243313135353a2062616c616e636520717565727920666f7220746865207a65726f2061646472657373455243313135353a2062617463682062616c616e636520717565727920666f7220746865207a65726f2061646472657373455243313135353a207472616e7366657220746f20746865207a65726f2061646472657373455243313135353a207472616e736665722063616c6c6572206973206e6f74206f776e6572206e6f7220617070726f766564455243313135353a20696e73756666696369656e742062616c616e636520666f72207472616e73666572416e67656c546f6b656e3a204f6e6c79206f6e65204f726967696e616c20416c6d20616c6c6f77656420706572206163636f756e7421455243313135353a206e6f206d696e74696e6720746f20746865207a65726f206164647265737321455243313135353a2073657474696e6720617070726f76616c2073746174757320666f722073656c66455243313135353a206163636f756e747320616e6420696473206c656e677468206d69736d61746368455243313135353a2069647320616e6420616d6f756e7473206c656e677468206d69736d61746368a26469706673582212205c0c8dae1fa2b192ee338b21228f6be3a943b52542a45e716e53e12ce6698d2d64736f6c634300060c0033455243313135353a207472616e7366657220746f206e6f6e2045524331313535526563656976657220696d706c656d656e746572455243313135353a204552433131353552656365697665722072656a656374656420746f6b656e73455243313135353a206e6f206d696e74696e6720746f20746865207a65726f206164647265737321",
  "immutableReferences": {},
  "source": "pragma solidity >=0.4.21 <0.7.0;\nimport \"@openzeppelin/contracts/utils/Counters.sol\";\nimport \"./AngelToken.sol\";\n\ncontract AngelTokenCrowdfund is AngelToken{\n  /* using SafeMath for uint256; */\n  /* using Address for address; */\n  address payable public CafLaMAccount = msg.sender;\n  mapping(uint256 => mapping(address => uint256)) public CafLaM_angels_map;\n  address payable[] public CafLaM_angels_list;\n  uint256 last_rnd_id = 0;\n  uint256 this_round_id;\n  constructor(\n      string memory _ename, // endeavor name\n       string memory _esym,  // endeavor symbol\n        uint256 _num_to_issue,\n         string memory _mint_date,\n          uint256 _cost,\n           uint256 _angel_coefficient,\n             string memory _product\n             )\n  AngelToken(_ename, _esym, _num_to_issue, _mint_date, _cost, _angel_coefficient, _product) public {\n\n  }\n\n  function buyAlms(address payable _owner, address payable _buyer, uint256 _id, uint256 _amount, bytes memory _data, uint256 cost) public payable returns(bool progress){\n      require(msg.value >= (cost * _amount));\n      //setApprovalForAll(, true);//eventually move to whitelist to tighten the exposure\n      require(_owner.send(msg.value)); // replace with deposits to escrow account\n      /* address payable oa = OA; */\n      /* require(oa.send(1/10000)); // rice for the deities */\n      CafLaM_angels_map[_id][_buyer] += _amount;\n      CafLaM_angels_list.push(_buyer);\n      ERC1155.safeTransferFrom(_owner, _buyer, _id, _amount, _data);\n      /* trigger crowdfund phase 1 execution if all alms are sold */\n      if(checkProgress(_owner, _id)){\n        crowdfund_execution(_id);\n      }\n      /* pause tokens until next round executes*/\n      return progress;\n  }\n  function checkProgress(address _owner, uint256 _id) private returns(bool complete) {\n    if(balanceOf(_owner,_id) == 0){\n      /* crowd_sale_complete */\n      complete = true;\n   } else {\n     complete = false;\n   }\n   return complete;\n  }\n  function crowdfund_execution(uint256 _id) private {\n    change_status_x(_id);\n    if(false){\n      payout_last(last_rnd_id);\n    }else{\n      seed_round();//no angel share - first round goes directly to startup funding\n    }\n    this_now_last(_id);\n  /*   send email to minter to prompt a week long roast session */\n  }\n  function this_now_last(uint256 _id) private {\n    last_rnd_id = _id;\n  }\n  function seed_round() public payable {\n    uint256 _cost = 10;\n    uint256 _num_to_issue = 1000;\n    uint256 total_fund = _cost * _num_to_issue;\n    /* require(total_fund >= EscrowAccount) */ //withdraw amount from escrow and\n    /* send to contract owner, creator of the alm */\n    CafLaMAccount.transfer(total_fund); // make CafLaMAccount the contract Escrow and send total_funds to the token owner, which would generally be the RoastMeister\n  }\n  function payout_last(uint256 _last_rnd_id) public payable {\n      /* fetch the current alm */\n      /* _id = id to last alm; */\n      Alm memory last_alm =  map_id_to_Alm[_last_rnd_id];\n        uint256 _num_to_issue;\n         string memory _mint_date;\n          uint256 _cost;\n           uint256 _angel_coefficient;\n            uint256 _status;\n             string memory _product;\n      (_num_to_issue, _mint_date, _cost, _angel_coefficient, _status, _product) = abi.decode(last_alm.mint_data,(uint256, string, uint256, uint256, uint256, string));\n      /* Load tokens with payout from this round */\n      uint256 total_fund = _cost * _num_to_issue;\n      uint256 expenses = 5500;// estimated expenses to import, produce, and ship product\n      uint256 _total_angels_share = total_fund - expenses;\n\n      for(uint256 i=1; i<=CafLaM_angels_list.length; i++) {\n        address payable angel = CafLaM_angels_list[i];\n        uint256 angels_bal = balanceOf(angel, _last_rnd_id);\n        uint256 payout_amt = _total_angels_share / (angels_bal * _angel_coefficient);\n        angel.transfer(payout_amt);\n      }\n\n      /* change status on tokens to 'PAID' */\n      _status = 4;\n      /* reencode */\n      last_alm.mint_data = abi.encode(_num_to_issue, _mint_date, _cost, _angel_coefficient, _status, _product);\n\n  }\n\n  function change_status_x(uint256 _id) private {\n  /* fetch the current alm */\n  Alm memory cur_alm =  map_id_to_Alm[_id];\n    uint256 _num_to_issue;\n     string memory _mint_date;\n      uint256 _cost;\n       uint256 _angel_coefficient;\n        uint256 _status;\n         string memory _product;\n  (_num_to_issue, _mint_date, _cost, _angel_coefficient, _status, _product) = abi.decode(cur_alm.mint_data,(uint256, string, uint256, uint256, uint256, string));\n  /* change status on tokens to 'executed' */\n  _status = 2;\n  /* reencode */\n  cur_alm.mint_data = abi.encode(_num_to_issue, _mint_date, _cost, _angel_coefficient, _status, _product);\n  }\n  function change_status_s(uint256 _id, bool is_shipping) public {\n    if(is_shipping){\n      /* fetch the current alm */\n      Alm memory cur_alm =  map_id_to_Alm[_id];\n        uint256 _num_to_issue;\n         string memory _mint_date;\n          uint256 _cost;\n           uint256 _angel_coefficient;\n            uint256 _status;\n             string memory _product;\n      (_num_to_issue, _mint_date, _cost, _angel_coefficient, _status, _product) = abi.decode(cur_alm.mint_data,(uint256, string, uint256, uint256, uint256, string));\n      /* change status on tokens to 'executed' */\n      _status = 3;\n      /* reencode */\n      cur_alm.mint_data = abi.encode(_num_to_issue, _mint_date, _cost, _angel_coefficient, _status, _product);\n    }\n  }\n\n}\n",
  "sourcePath": "/Volumes/ETH/AngelTokens/contracts/AngelTokenCrowdFund.sol",
  "compiler": {
    "name": "solc",
    "version": "0.6.12+commit.27d51765.Emscripten.clang"
  },
  "schemaVersion": "3.3.2",
  "updatedAt": "2021-01-08T01:33:47.704Z",
  "networkType": "ethereum",
  "devdoc": {
    "kind": "dev",
    "methods": {
      "balanceOf(address,uint256)": {
        "details": "See {IERC1155-balanceOf}. Requirements: - `account` cannot be the zero address."
      },
      "balanceOfBatch(address[],uint256[])": {
        "details": "See {IERC1155-balanceOfBatch}. Requirements: - `accounts` and `ids` must have the same length."
      },
      "isApprovedForAll(address,address)": {
        "details": "See {IERC1155-isApprovedForAll}."
      },
      "safeBatchTransferFrom(address,address,uint256[],uint256[],bytes)": {
        "details": "See {IERC1155-safeBatchTransferFrom}."
      },
      "safeTransferFrom(address,address,uint256,uint256,bytes)": {
        "details": "See {IERC1155-safeTransferFrom}."
      },
      "setApprovalForAll(address,bool)": {
        "details": "See {IERC1155-setApprovalForAll}."
      },
      "supportsInterface(bytes4)": {
        "details": "See {IERC165-supportsInterface}. Time complexity O(1), guaranteed to always use less than 30 000 gas."
      },
      "uri(uint256)": {
        "details": "See {IERC1155MetadataURI-uri}. This implementation returns the same URI for *all* token types. It relies on the token type ID substitution mechanism https://eips.ethereum.org/EIPS/eip-1155#metadata[defined in the EIP]. Clients calling this function must replace the `\\{id\\}` substring with the actual token type ID."
      }
    },
    "version": 1
  },
  "userdoc": {
    "kind": "user",
    "methods": {},
    "version": 1
  }
}