{
  "contractName": "AngelToken",
  "abi": [
    {
      "inputs": [],
      "stateMutability": "nonpayable",
      "type": "constructor"
    },
    {
      "anonymous": false,
      "inputs": [
        {
          "indexed": true,
          "internalType": "address",
          "name": "account",
          "type": "address"
        },
        {
          "indexed": true,
          "internalType": "address",
          "name": "operator",
          "type": "address"
        },
        {
          "indexed": false,
          "internalType": "bool",
          "name": "approved",
          "type": "bool"
        }
      ],
      "name": "ApprovalForAll",
      "type": "event"
    },
    {
      "anonymous": false,
      "inputs": [
        {
          "indexed": false,
          "internalType": "address",
          "name": "owner",
          "type": "address"
        },
        {
          "indexed": false,
          "internalType": "bytes",
          "name": "_uri",
          "type": "bytes"
        },
        {
          "indexed": false,
          "internalType": "string",
          "name": "_ename",
          "type": "string"
        },
        {
          "indexed": false,
          "internalType": "string",
          "name": "_esym",
          "type": "string"
        },
        {
          "indexed": false,
          "internalType": "uint256",
          "name": "_id",
          "type": "uint256"
        },
        {
          "indexed": false,
          "internalType": "bytes",
          "name": "mint_data",
          "type": "bytes"
        }
      ],
      "name": "ManifestedAngelToken",
      "type": "event"
    },
    {
      "anonymous": false,
      "inputs": [
        {
          "indexed": true,
          "internalType": "address",
          "name": "operator",
          "type": "address"
        },
        {
          "indexed": true,
          "internalType": "address",
          "name": "from",
          "type": "address"
        },
        {
          "indexed": true,
          "internalType": "address",
          "name": "to",
          "type": "address"
        },
        {
          "indexed": false,
          "internalType": "uint256[]",
          "name": "ids",
          "type": "uint256[]"
        },
        {
          "indexed": false,
          "internalType": "uint256[]",
          "name": "values",
          "type": "uint256[]"
        }
      ],
      "name": "TransferBatch",
      "type": "event"
    },
    {
      "anonymous": false,
      "inputs": [
        {
          "indexed": true,
          "internalType": "address",
          "name": "operator",
          "type": "address"
        },
        {
          "indexed": true,
          "internalType": "address",
          "name": "from",
          "type": "address"
        },
        {
          "indexed": true,
          "internalType": "address",
          "name": "to",
          "type": "address"
        },
        {
          "indexed": false,
          "internalType": "uint256",
          "name": "id",
          "type": "uint256"
        },
        {
          "indexed": false,
          "internalType": "uint256",
          "name": "value",
          "type": "uint256"
        }
      ],
      "name": "TransferSingle",
      "type": "event"
    },
    {
      "anonymous": false,
      "inputs": [
        {
          "indexed": false,
          "internalType": "string",
          "name": "value",
          "type": "string"
        },
        {
          "indexed": true,
          "internalType": "uint256",
          "name": "id",
          "type": "uint256"
        }
      ],
      "name": "URI",
      "type": "event"
    },
    {
      "inputs": [],
      "name": "CafLaMAccount",
      "outputs": [
        {
          "internalType": "address payable",
          "name": "",
          "type": "address"
        }
      ],
      "stateMutability": "view",
      "type": "function",
      "constant": true
    },
    {
      "inputs": [
        {
          "internalType": "uint256",
          "name": "",
          "type": "uint256"
        }
      ],
      "name": "CafLaM_angels_list",
      "outputs": [
        {
          "internalType": "address",
          "name": "",
          "type": "address"
        }
      ],
      "stateMutability": "view",
      "type": "function",
      "constant": true
    },
    {
      "inputs": [
        {
          "internalType": "uint256",
          "name": "",
          "type": "uint256"
        },
        {
          "internalType": "address",
          "name": "",
          "type": "address"
        }
      ],
      "name": "CafLaM_angels_map",
      "outputs": [
        {
          "internalType": "uint256",
          "name": "",
          "type": "uint256"
        }
      ],
      "stateMutability": "view",
      "type": "function",
      "constant": true
    },
    {
      "inputs": [
        {
          "internalType": "uint256",
          "name": "",
          "type": "uint256"
        }
      ],
      "name": "alms",
      "outputs": [
        {
          "internalType": "address",
          "name": "owner",
          "type": "address"
        },
        {
          "internalType": "bytes",
          "name": "uri",
          "type": "bytes"
        },
        {
          "internalType": "string",
          "name": "name",
          "type": "string"
        },
        {
          "internalType": "string",
          "name": "sym",
          "type": "string"
        },
        {
          "internalType": "uint256",
          "name": "id",
          "type": "uint256"
        },
        {
          "internalType": "bytes",
          "name": "mint_data",
          "type": "bytes"
        }
      ],
      "stateMutability": "view",
      "type": "function",
      "constant": true
    },
    {
      "inputs": [
        {
          "internalType": "address",
          "name": "account",
          "type": "address"
        },
        {
          "internalType": "uint256",
          "name": "id",
          "type": "uint256"
        }
      ],
      "name": "balanceOf",
      "outputs": [
        {
          "internalType": "uint256",
          "name": "",
          "type": "uint256"
        }
      ],
      "stateMutability": "view",
      "type": "function",
      "constant": true
    },
    {
      "inputs": [
        {
          "internalType": "address[]",
          "name": "accounts",
          "type": "address[]"
        },
        {
          "internalType": "uint256[]",
          "name": "ids",
          "type": "uint256[]"
        }
      ],
      "name": "balanceOfBatch",
      "outputs": [
        {
          "internalType": "uint256[]",
          "name": "",
          "type": "uint256[]"
        }
      ],
      "stateMutability": "view",
      "type": "function",
      "constant": true
    },
    {
      "inputs": [
        {
          "internalType": "address",
          "name": "account",
          "type": "address"
        },
        {
          "internalType": "address",
          "name": "operator",
          "type": "address"
        }
      ],
      "name": "isApprovedForAll",
      "outputs": [
        {
          "internalType": "bool",
          "name": "",
          "type": "bool"
        }
      ],
      "stateMutability": "view",
      "type": "function",
      "constant": true
    },
    {
      "inputs": [
        {
          "internalType": "uint256",
          "name": "",
          "type": "uint256"
        }
      ],
      "name": "is_on_manifest",
      "outputs": [
        {
          "internalType": "bool",
          "name": "",
          "type": "bool"
        }
      ],
      "stateMutability": "view",
      "type": "function",
      "constant": true
    },
    {
      "inputs": [
        {
          "internalType": "uint256",
          "name": "",
          "type": "uint256"
        }
      ],
      "name": "map_id_to_Alm",
      "outputs": [
        {
          "internalType": "address",
          "name": "owner",
          "type": "address"
        },
        {
          "internalType": "bytes",
          "name": "uri",
          "type": "bytes"
        },
        {
          "internalType": "string",
          "name": "name",
          "type": "string"
        },
        {
          "internalType": "string",
          "name": "sym",
          "type": "string"
        },
        {
          "internalType": "uint256",
          "name": "id",
          "type": "uint256"
        },
        {
          "internalType": "bytes",
          "name": "mint_data",
          "type": "bytes"
        }
      ],
      "stateMutability": "view",
      "type": "function",
      "constant": true
    },
    {
      "inputs": [
        {
          "internalType": "address",
          "name": "",
          "type": "address"
        }
      ],
      "name": "map_owner_to_id",
      "outputs": [
        {
          "internalType": "uint256",
          "name": "",
          "type": "uint256"
        }
      ],
      "stateMutability": "view",
      "type": "function",
      "constant": true
    },
    {
      "inputs": [
        {
          "internalType": "string",
          "name": "",
          "type": "string"
        }
      ],
      "name": "map_uri_to_Alm",
      "outputs": [
        {
          "internalType": "address",
          "name": "owner",
          "type": "address"
        },
        {
          "internalType": "bytes",
          "name": "uri",
          "type": "bytes"
        },
        {
          "internalType": "string",
          "name": "name",
          "type": "string"
        },
        {
          "internalType": "string",
          "name": "sym",
          "type": "string"
        },
        {
          "internalType": "uint256",
          "name": "id",
          "type": "uint256"
        },
        {
          "internalType": "bytes",
          "name": "mint_data",
          "type": "bytes"
        }
      ],
      "stateMutability": "view",
      "type": "function",
      "constant": true
    },
    {
      "inputs": [
        {
          "internalType": "address",
          "name": "from",
          "type": "address"
        },
        {
          "internalType": "address",
          "name": "to",
          "type": "address"
        },
        {
          "internalType": "uint256[]",
          "name": "ids",
          "type": "uint256[]"
        },
        {
          "internalType": "uint256[]",
          "name": "amounts",
          "type": "uint256[]"
        },
        {
          "internalType": "bytes",
          "name": "data",
          "type": "bytes"
        }
      ],
      "name": "safeBatchTransferFrom",
      "outputs": [],
      "stateMutability": "nonpayable",
      "type": "function"
    },
    {
      "inputs": [
        {
          "internalType": "address",
          "name": "from",
          "type": "address"
        },
        {
          "internalType": "address",
          "name": "to",
          "type": "address"
        },
        {
          "internalType": "uint256",
          "name": "id",
          "type": "uint256"
        },
        {
          "internalType": "uint256",
          "name": "amount",
          "type": "uint256"
        },
        {
          "internalType": "bytes",
          "name": "data",
          "type": "bytes"
        }
      ],
      "name": "safeTransferFrom",
      "outputs": [],
      "stateMutability": "nonpayable",
      "type": "function"
    },
    {
      "inputs": [
        {
          "internalType": "address",
          "name": "operator",
          "type": "address"
        },
        {
          "internalType": "bool",
          "name": "approved",
          "type": "bool"
        }
      ],
      "name": "setApprovalForAll",
      "outputs": [],
      "stateMutability": "nonpayable",
      "type": "function"
    },
    {
      "inputs": [
        {
          "internalType": "bytes4",
          "name": "interfaceId",
          "type": "bytes4"
        }
      ],
      "name": "supportsInterface",
      "outputs": [
        {
          "internalType": "bool",
          "name": "",
          "type": "bool"
        }
      ],
      "stateMutability": "view",
      "type": "function",
      "constant": true
    },
    {
      "inputs": [
        {
          "internalType": "uint256",
          "name": "",
          "type": "uint256"
        }
      ],
      "name": "uri",
      "outputs": [
        {
          "internalType": "string",
          "name": "",
          "type": "string"
        }
      ],
      "stateMutability": "view",
      "type": "function",
      "constant": true
    },
    {
      "inputs": [
        {
          "internalType": "string",
          "name": "_ename",
          "type": "string"
        },
        {
          "internalType": "string",
          "name": "_esym",
          "type": "string"
        },
        {
          "internalType": "uint256",
          "name": "_num_to_issue",
          "type": "uint256"
        },
        {
          "internalType": "string",
          "name": "_mint_date",
          "type": "string"
        },
        {
          "internalType": "uint256",
          "name": "_cost",
          "type": "uint256"
        },
        {
          "internalType": "uint256",
          "name": "_angel_coefficient",
          "type": "uint256"
        },
        {
          "internalType": "string",
          "name": "_product",
          "type": "string"
        }
      ],
      "name": "tokenGenesis",
      "outputs": [],
      "stateMutability": "nonpayable",
      "type": "function"
    },
    {
      "inputs": [],
      "name": "getAlmsLength",
      "outputs": [
        {
          "internalType": "uint256",
          "name": "",
          "type": "uint256"
        }
      ],
      "stateMutability": "view",
      "type": "function",
      "constant": true
    },
    {
      "inputs": [
        {
          "internalType": "address",
          "name": "_owner",
          "type": "address"
        },
        {
          "internalType": "address",
          "name": "_buyer",
          "type": "address"
        },
        {
          "internalType": "uint256",
          "name": "_id",
          "type": "uint256"
        },
        {
          "internalType": "uint256",
          "name": "_amount",
          "type": "uint256"
        },
        {
          "internalType": "bytes",
          "name": "_data",
          "type": "bytes"
        },
        {
          "internalType": "uint256",
          "name": "cost",
          "type": "uint256"
        }
      ],
      "name": "buyAlms",
      "outputs": [],
      "stateMutability": "payable",
      "type": "function",
      "payable": true
    },
    {
      "inputs": [],
      "name": "seed_round",
      "outputs": [],
      "stateMutability": "payable",
      "type": "function",
      "payable": true
    },
    {
      "inputs": [
        {
          "internalType": "uint256",
          "name": "_last_rnd_id",
          "type": "uint256"
        }
      ],
      "name": "payout_last",
      "outputs": [],
      "stateMutability": "payable",
      "type": "function",
      "payable": true
    },
    {
      "inputs": [
        {
          "internalType": "uint256",
          "name": "_id",
          "type": "uint256"
        }
      ],
      "name": "change_status_x",
      "outputs": [],
      "stateMutability": "view",
      "type": "function",
      "constant": true
    },
    {
      "inputs": [
        {
          "internalType": "uint256",
          "name": "_id",
          "type": "uint256"
        },
        {
          "internalType": "bool",
          "name": "is_shipping",
          "type": "bool"
        }
      ],
      "name": "change_status_s",
      "outputs": [],
      "stateMutability": "view",
      "type": "function",
      "constant": true
    }
  ],
  "bytecode": "0x608060405233600860006101000a81548173ffffffffffffffffffffffffffffffffffffffff021916908373ffffffffffffffffffffffffffffffffffffffff1602179055506000600b553480156200005757600080fd5b506040518060600160405280602f815260200162005b53602f91396200008a6301ffc9a760e01b620000d260201b60201c565b6200009b81620001db60201b60201c565b620000b363d9b67a2660e01b620000d260201b60201c565b620000cb630e89341c60e01b620000d260201b60201c565b506200029d565b63ffffffff60e01b817bffffffffffffffffffffffffffffffffffffffffffffffffffffffff191614156200016f576040517f08c379a000000000000000000000000000000000000000000000000000000000815260040180806020018281038252601c8152602001807f4552433136353a20696e76616c696420696e746572666163652069640000000081525060200191505060405180910390fd5b6001600080837bffffffffffffffffffffffffffffffffffffffffffffffffffffffff19167bffffffffffffffffffffffffffffffffffffffffffffffffffffffff1916815260200190815260200160002060006101000a81548160ff02191690831515021790555050565b8060039080519060200190620001f3929190620001f7565b5050565b828054600181600116156101000203166002900490600052602060002090601f016020900481019282601f106200023a57805160ff19168380011785556200026b565b828001600101855582156200026b579182015b828111156200026a5782518255916020019190600101906200024d565b5b5090506200027a91906200027e565b5090565b5b80821115620002995760008160009055506001016200027f565b5090565b6158a680620002ad6000396000f3fe60806040526004361061013e5760003560e01c80635d91889a116100b6578063cf719ca01161006f578063cf719ca0146111a0578063d110dfa8146111aa578063d2a55e33146111e5578063e40c033214611401578063e985e9c514611466578063f242432a146114ed5761013e565b80635d91889a14610af157806376cdf22414610b1c578063a22cb46514610dc7578063a2fe5f6f14610e24578063a32212d814611040578063bb0c15cf146110875761013e565b80632ba5d427116101085780632ba5d427146103455780632eb2c2d6146105ee578063306e81cb1461081e5780634b8ae8cd1461088d5780634e1273f4146108de578063590743e514610a8c5761013e565b8062f2f94c14610143578062fdd58e1461017157806301ffc9a7146101e057806303a9c3d7146102505780630e89341c14610291575b600080fd5b61016f6004803603602081101561015957600080fd5b8101908080359060200190929190505050611609565b005b34801561017d57600080fd5b506101ca6004803603604081101561019457600080fd5b81019080803573ffffffffffffffffffffffffffffffffffffffff16906020019092919080359060200190929190505050611cad565b6040518082815260200191505060405180910390f35b3480156101ec57600080fd5b506102386004803603602081101561020357600080fd5b8101908080357bffffffffffffffffffffffffffffffffffffffffffffffffffffffff19169060200190929190505050611d8d565b60405180821515815260200191505060405180910390f35b34801561025c57600080fd5b50610265611df4565b604051808273ffffffffffffffffffffffffffffffffffffffff16815260200191505060405180910390f35b34801561029d57600080fd5b506102ca600480360360208110156102b457600080fd5b8101908080359060200190929190505050611e1a565b6040518080602001828103825283818151815260200191508051906020019080838360005b8381101561030a5780820151818401526020810190506102ef565b50505050905090810190601f1680156103375780820380516001836020036101000a031916815260200191505b509250505060405180910390f35b34801561035157600080fd5b5061040b6004803603602081101561036857600080fd5b810190808035906020019064010000000081111561038557600080fd5b82018360208201111561039757600080fd5b803590602001918460018302840111640100000000831117156103b957600080fd5b91908080601f016020809104026020016040519081016040528093929190818152602001838380828437600081840152601f19601f820116905080830192505050505050509192919290505050611ebe565b604051808773ffffffffffffffffffffffffffffffffffffffff1681526020018060200180602001806020018681526020018060200185810385528a818151815260200191508051906020019080838360005b8381101561047957808201518184015260208101905061045e565b50505050905090810190601f1680156104a65780820380516001836020036101000a031916815260200191505b50858103845289818151815260200191508051906020019080838360005b838110156104df5780820151818401526020810190506104c4565b50505050905090810190601f16801561050c5780820380516001836020036101000a031916815260200191505b50858103835288818151815260200191508051906020019080838360005b8381101561054557808201518184015260208101905061052a565b50505050905090810190601f1680156105725780820380516001836020036101000a031916815260200191505b50858103825286818151815260200191508051906020019080838360005b838110156105ab578082015181840152602081019050610590565b50505050905090810190601f1680156105d85780820380516001836020036101000a031916815260200191505b509a505050505050505050505060405180910390f35b3480156105fa57600080fd5b5061081c600480360360a081101561061157600080fd5b81019080803573ffffffffffffffffffffffffffffffffffffffff169060200190929190803573ffffffffffffffffffffffffffffffffffffffff1690602001909291908035906020019064010000000081111561066e57600080fd5b82018360208201111561068057600080fd5b803590602001918460208302840111640100000000831117156106a257600080fd5b919080806020026020016040519081016040528093929190818152602001838360200280828437600081840152601f19601f8201169050808301925050505050505091929192908035906020019064010000000081111561070257600080fd5b82018360208201111561071457600080fd5b8035906020019184602083028401116401000000008311171561073657600080fd5b919080806020026020016040519081016040528093929190818152602001838360200280828437600081840152601f19601f8201169050808301925050505050505091929192908035906020019064010000000081111561079657600080fd5b8201836020820111156107a857600080fd5b803590602001918460018302840111640100000000831117156107ca57600080fd5b91908080601f016020809104026020016040519081016040528093929190818152602001838380828437600081840152601f19601f820116905080830192505050505050509192919290505050612190565b005b34801561082a57600080fd5b506108776004803603604081101561084157600080fd5b8101908080359060200190929190803573ffffffffffffffffffffffffffffffffffffffff16906020019092919050505061261b565b6040518082815260200191505060405180910390f35b34801561089957600080fd5b506108c6600480360360208110156108b057600080fd5b8101908080359060200190929190505050612640565b60405180821515815260200191505060405180910390f35b3480156108ea57600080fd5b50610a356004803603604081101561090157600080fd5b810190808035906020019064010000000081111561091e57600080fd5b82018360208201111561093057600080fd5b8035906020019184602083028401116401000000008311171561095257600080fd5b919080806020026020016040519081016040528093929190818152602001838360200280828437600081840152601f19601f820116905080830192505050505050509192919290803590602001906401000000008111156109b257600080fd5b8201836020820111156109c457600080fd5b803590602001918460208302840111640100000000831117156109e657600080fd5b919080806020026020016040519081016040528093929190818152602001838360200280828437600081840152601f19601f820116905080830192505050505050509192919290505050612660565b6040518080602001828103825283818151815260200191508051906020019060200280838360005b83811015610a78578082015181840152602081019050610a5d565b505050509050019250505060405180910390f35b348015610a9857600080fd5b50610adb60048036036020811015610aaf57600080fd5b81019080803573ffffffffffffffffffffffffffffffffffffffff169060200190929190505050612852565b6040518082815260200191505060405180910390f35b348015610afd57600080fd5b50610b0661286a565b6040518082815260200191505060405180910390f35b348015610b2857600080fd5b50610dc5600480360360e0811015610b3f57600080fd5b8101908080359060200190640100000000811115610b5c57600080fd5b820183602082011115610b6e57600080fd5b80359060200191846001830284011164010000000083111715610b9057600080fd5b91908080601f016020809104026020016040519081016040528093929190818152602001838380828437600081840152601f19601f82011690508083019250505050505050919291929080359060200190640100000000811115610bf357600080fd5b820183602082011115610c0557600080fd5b80359060200191846001830284011164010000000083111715610c2757600080fd5b91908080601f016020809104026020016040519081016040528093929190818152602001838380828437600081840152601f19601f8201169050808301925050505050505091929192908035906020019092919080359060200190640100000000811115610c9457600080fd5b820183602082011115610ca657600080fd5b80359060200191846001830284011164010000000083111715610cc857600080fd5b91908080601f016020809104026020016040519081016040528093929190818152602001838380828437600081840152601f19601f820116905080830192505050505050509192919290803590602001909291908035906020019092919080359060200190640100000000811115610d3f57600080fd5b820183602082011115610d5157600080fd5b80359060200191846001830284011164010000000083111715610d7357600080fd5b91908080601f016020809104026020016040519081016040528093929190818152602001838380828437600081840152601f19601f820116905080830192505050505050509192919290505050612877565b005b348015610dd357600080fd5b50610e2260048036036040811015610dea57600080fd5b81019080803573ffffffffffffffffffffffffffffffffffffffff169060200190929190803515159060200190929190505050612f77565b005b348015610e3057600080fd5b50610e5d60048036036020811015610e4757600080fd5b8101908080359060200190929190505050613110565b604051808773ffffffffffffffffffffffffffffffffffffffff1681526020018060200180602001806020018681526020018060200185810385528a818151815260200191508051906020019080838360005b83811015610ecb578082015181840152602081019050610eb0565b50505050905090810190601f168015610ef85780820380516001836020036101000a031916815260200191505b50858103845289818151815260200191508051906020019080838360005b83811015610f31578082015181840152602081019050610f16565b50505050905090810190601f168015610f5e5780820380516001836020036101000a031916815260200191505b50858103835288818151815260200191508051906020019080838360005b83811015610f97578082015181840152602081019050610f7c565b50505050905090810190601f168015610fc45780820380516001836020036101000a031916815260200191505b50858103825286818151815260200191508051906020019080838360005b83811015610ffd578082015181840152602081019050610fe2565b50505050905090810190601f16801561102a5780820380516001836020036101000a031916815260200191505b509a505050505050505050505060405180910390f35b34801561104c57600080fd5b506110856004803603604081101561106357600080fd5b81019080803590602001909291908035151590602001909291905050506133cc565b005b61119e600480360360c081101561109d57600080fd5b81019080803573ffffffffffffffffffffffffffffffffffffffff169060200190929190803573ffffffffffffffffffffffffffffffffffffffff16906020019092919080359060200190929190803590602001909291908035906020019064010000000081111561110e57600080fd5b82018360208201111561112057600080fd5b8035906020019184600183028401116401000000008311171561114257600080fd5b91908080601f016020809104026020016040519081016040528093929190818152602001838380828437600081840152601f19601f820116905080830192505050505050509192919290803590602001909291905050506139e2565b005b6111a8613b30565b005b3480156111b657600080fd5b506111e3600480360360208110156111cd57600080fd5b8101908080359060200190929190505050613bb2565b005b3480156111f157600080fd5b5061121e6004803603602081101561120857600080fd5b81019080803590602001909291905050506141c0565b604051808773ffffffffffffffffffffffffffffffffffffffff1681526020018060200180602001806020018681526020018060200185810385528a818151815260200191508051906020019080838360005b8381101561128c578082015181840152602081019050611271565b50505050905090810190601f1680156112b95780820380516001836020036101000a031916815260200191505b50858103845289818151815260200191508051906020019080838360005b838110156112f25780820151818401526020810190506112d7565b50505050905090810190601f16801561131f5780820380516001836020036101000a031916815260200191505b50858103835288818151815260200191508051906020019080838360005b8381101561135857808201518184015260208101905061133d565b50505050905090810190601f1680156113855780820380516001836020036101000a031916815260200191505b50858103825286818151815260200191508051906020019080838360005b838110156113be5780820151818401526020810190506113a3565b50505050905090810190601f1680156113eb5780820380516001836020036101000a031916815260200191505b509a505050505050505050505060405180910390f35b34801561140d57600080fd5b5061143a6004803603602081101561142457600080fd5b8101908080359060200190929190505050614489565b604051808273ffffffffffffffffffffffffffffffffffffffff16815260200191505060405180910390f35b34801561147257600080fd5b506114d56004803603604081101561148957600080fd5b81019080803573ffffffffffffffffffffffffffffffffffffffff169060200190929190803573ffffffffffffffffffffffffffffffffffffffff1690602001909291905050506144c5565b60405180821515815260200191505060405180910390f35b3480156114f957600080fd5b50611607600480360360a081101561151057600080fd5b81019080803573ffffffffffffffffffffffffffffffffffffffff169060200190929190803573ffffffffffffffffffffffffffffffffffffffff16906020019092919080359060200190929190803590602001909291908035906020019064010000000081111561158157600080fd5b82018360208201111561159357600080fd5b803590602001918460018302840111640100000000831117156115b557600080fd5b91908080601f016020809104026020016040519081016040528093929190818152602001838380828437600081840152601f19601f820116905080830192505050505050509192919290505050614559565b005b61161161545f565b600660008381526020019081526020016000206040518060c00160405290816000820160009054906101000a900473ffffffffffffffffffffffffffffffffffffffff1673ffffffffffffffffffffffffffffffffffffffff1673ffffffffffffffffffffffffffffffffffffffff168152602001600182018054600181600116156101000203166002900480601f01602080910402602001604051908101604052809291908181526020018280546001816001161561010002031660029004801561171e5780601f106116f35761010080835404028352916020019161171e565b820191906000526020600020905b81548152906001019060200180831161170157829003601f168201915b50505050508152602001600282018054600181600116156101000203166002900480601f0160208091040260200160405190810160405280929190818152602001828054600181600116156101000203166002900480156117c05780601f10611795576101008083540402835291602001916117c0565b820191906000526020600020905b8154815290600101906020018083116117a357829003601f168201915b50505050508152602001600382018054600181600116156101000203166002900480601f0160208091040260200160405190810160405280929190818152602001828054600181600116156101000203166002900480156118625780601f1061183757610100808354040283529160200191611862565b820191906000526020600020905b81548152906001019060200180831161184557829003601f168201915b5050505050815260200160048201548152602001600582018054600181600116156101000203166002900480601f01602080910402602001604051908101604052809291908181526020018280546001816001161561010002031660029004801561190e5780601f106118e35761010080835404028352916020019161190e565b820191906000526020600020905b8154815290600101906020018083116118f157829003601f168201915b505050505081525050905060006060600080600060608660a0015180602001905160c081101561193d57600080fd5b81019080805190602001909291908051604051939291908464010000000082111561196757600080fd5b8382019150602082018581111561197d57600080fd5b825186600182028301116401000000008211171561199a57600080fd5b8083526020830192505050908051906020019080838360005b838110156119ce5780820151818401526020810190506119b3565b50505050905090810190601f1680156119fb5780820380516001836020036101000a031916815260200191505b5060405260200180519060200190929190805190602001909291908051906020019092919080516040519392919084640100000000821115611a3c57600080fd5b83820191506020820185811115611a5257600080fd5b8251866001820283011164010000000082111715611a6f57600080fd5b8083526020830192505050908051906020019080838360005b83811015611aa3578082015181840152602081019050611a88565b50505050905090810190601f168015611ad05780820380516001836020036101000a031916815260200191505b50604052505050809650819750829850839950849a50859b5050505050505060008685029050600061157c9050600081830390506000600190505b600a805490508111611b81576000600a8281548110611b2657fe5b9060005260206000200160009054906101000a900473ffffffffffffffffffffffffffffffffffffffff1690506000611b5f828f611cad565b905060008982028581611b6e57fe5b0490505050508080600101915050611b0b565b5060049450888888888888604051602001808781526020018060200186815260200185815260200184815260200180602001838103835288818151815260200191508051906020019080838360005b83811015611beb578082015181840152602081019050611bd0565b50505050905090810190601f168015611c185780820380516001836020036101000a031916815260200191505b50838103825284818151815260200191508051906020019080838360005b83811015611c51578082015181840152602081019050611c36565b50505050905090810190601f168015611c7e5780820380516001836020036101000a031916815260200191505b50985050505050505050506040516020818303038152906040528a60a001819052505050505050505050505050565b60008073ffffffffffffffffffffffffffffffffffffffff168373ffffffffffffffffffffffffffffffffffffffff161415611d34576040517f08c379a000000000000000000000000000000000000000000000000000000000815260040180806020018281038252602b8152602001806156f9602b913960400191505060405180910390fd5b6001600083815260200190815260200160002060008473ffffffffffffffffffffffffffffffffffffffff1673ffffffffffffffffffffffffffffffffffffffff16815260200190815260200160002054905092915050565b6000806000837bffffffffffffffffffffffffffffffffffffffffffffffffffffffff19167bffffffffffffffffffffffffffffffffffffffffffffffffffffffff1916815260200190815260200160002060009054906101000a900460ff169050919050565b600860009054906101000a900473ffffffffffffffffffffffffffffffffffffffff1681565b606060038054600181600116156101000203166002900480601f016020809104026020016040519081016040528092919081815260200182805460018160011615610100020316600290048015611eb25780601f10611e8757610100808354040283529160200191611eb2565b820191906000526020600020905b815481529060010190602001808311611e9557829003601f168201915b50505050509050919050565b6007818051602081018201805184825260208301602085012081835280955050505050506000915090508060000160009054906101000a900473ffffffffffffffffffffffffffffffffffffffff1690806001018054600181600116156101000203166002900480601f016020809104026020016040519081016040528092919081815260200182805460018160011615610100020316600290048015611fa65780601f10611f7b57610100808354040283529160200191611fa6565b820191906000526020600020905b815481529060010190602001808311611f8957829003601f168201915b505050505090806002018054600181600116156101000203166002900480601f0160208091040260200160405190810160405280929190818152602001828054600181600116156101000203166002900480156120445780601f1061201957610100808354040283529160200191612044565b820191906000526020600020905b81548152906001019060200180831161202757829003601f168201915b505050505090806003018054600181600116156101000203166002900480601f0160208091040260200160405190810160405280929190818152602001828054600181600116156101000203166002900480156120e25780601f106120b7576101008083540402835291602001916120e2565b820191906000526020600020905b8154815290600101906020018083116120c557829003601f168201915b505050505090806004015490806005018054600181600116156101000203166002900480601f0160208091040260200160405190810160405280929190818152602001828054600181600116156101000203166002900480156121865780601f1061215b57610100808354040283529160200191612186565b820191906000526020600020905b81548152906001019060200180831161216957829003601f168201915b5050505050905086565b81518351146121ea576040517f08c379a00000000000000000000000000000000000000000000000000000000081526004018080602001828103825260288152602001806158286028913960400191505060405180910390fd5b600073ffffffffffffffffffffffffffffffffffffffff168473ffffffffffffffffffffffffffffffffffffffff161415612270576040517f08c379a00000000000000000000000000000000000000000000000000000000081526004018080602001828103825260258152602001806157556025913960400191505060405180910390fd5b61227861494c565b73ffffffffffffffffffffffffffffffffffffffff168573ffffffffffffffffffffffffffffffffffffffff1614806122be57506122bd856122b861494c565b6144c5565b5b612313576040517f08c379a000000000000000000000000000000000000000000000000000000000815260040180806020018281038252603281526020018061577a6032913960400191505060405180910390fd5b600061231d61494c565b905061232d818787878787614954565b60005b84518110156124fe57600085828151811061234757fe5b60200260200101519050600085838151811061235f57fe5b602002602001015190506123e6816040518060600160405280602a81526020016157ac602a91396001600086815260200190815260200160002060008d73ffffffffffffffffffffffffffffffffffffffff1673ffffffffffffffffffffffffffffffffffffffff1681526020019081526020016000205461495c9092919063ffffffff16565b6001600084815260200190815260200160002060008b73ffffffffffffffffffffffffffffffffffffffff1673ffffffffffffffffffffffffffffffffffffffff1681526020019081526020016000208190555061249d816001600085815260200190815260200160002060008b73ffffffffffffffffffffffffffffffffffffffff1673ffffffffffffffffffffffffffffffffffffffff16815260200190815260200160002054614a1c90919063ffffffff16565b6001600084815260200190815260200160002060008a73ffffffffffffffffffffffffffffffffffffffff1673ffffffffffffffffffffffffffffffffffffffff168152602001908152602001600020819055505050806001019050612330565b508473ffffffffffffffffffffffffffffffffffffffff168673ffffffffffffffffffffffffffffffffffffffff168273ffffffffffffffffffffffffffffffffffffffff167f4a39dc06d4c0dbc64b70af90fd698a233a518aa5d07e595d983b8c0526c8f7fb8787604051808060200180602001838103835285818151815260200191508051906020019060200280838360005b838110156125ae578082015181840152602081019050612593565b50505050905001838103825284818151815260200191508051906020019060200280838360005b838110156125f05780820151818401526020810190506125d5565b5050505090500194505050505060405180910390a4612613818787878787614aa4565b505050505050565b6009602052816000526040600020602052806000526040600020600091509150505481565b60046020528060005260406000206000915054906101000a900460ff1681565b606081518351146126bc576040517f08c379a00000000000000000000000000000000000000000000000000000000081526004018080602001828103825260298152602001806157ff6029913960400191505060405180910390fd5b6060835167ffffffffffffffff811180156126d657600080fd5b506040519080825280602002602001820160405280156127055781602001602082028036833780820191505090505b50905060005b845181101561284757600073ffffffffffffffffffffffffffffffffffffffff1685828151811061273857fe5b602002602001015173ffffffffffffffffffffffffffffffffffffffff1614156127ad576040517f08c379a00000000000000000000000000000000000000000000000000000000081526004018080602001828103825260318152602001806157246031913960400191505060405180910390fd5b600160008583815181106127bd57fe5b6020026020010151815260200190815260200160002060008683815181106127e157fe5b602002602001015173ffffffffffffffffffffffffffffffffffffffff1673ffffffffffffffffffffffffffffffffffffffff1681526020019081526020016000205482828151811061283057fe5b60200260200101818152505080600101905061270b565b508091505092915050565b60056020528060005260406000206000915090505481565b6000600d80549050905090565b600061288288614e33565b90506004600082815260200190815260200160002060009054906101000a900460ff16156128af57600080fd5b60016004600083815260200190815260200160002060006101000a81548160ff0219169083151502179055506128e361545f565b33816000019073ffffffffffffffffffffffffffffffffffffffff16908173ffffffffffffffffffffffffffffffffffffffff16815250508881604001819052508781606001819052508181608001818152505060608883604051602001808060200183815260200180602001838103835285818151815260200191508051906020019080838360005b8381101561298857808201518184015260208101905061296d565b50505050905090810190601f1680156129b55780820380516001836020036101000a031916815260200191505b50838103825260058152602001807f2e6a736f6e0000000000000000000000000000000000000000000000000000008152506020019450505050506040516020818303038152906040529050808260200181905250606088888888600189604051602001808781526020018060200186815260200185815260200184815260200180602001838103835288818151815260200191508051906020019080838360005b83811015612a72578082015181840152602081019050612a57565b50505050905090810190601f168015612a9f5780820380516001836020036101000a031916815260200191505b50838103825284818151815260200191508051906020019080838360005b83811015612ad8578082015181840152602081019050612abd565b50505050905090810190601f168015612b055780820380516001836020036101000a031916815260200191505b50985050505050505050506040516020818303038152906040529050808360a00181905250600d83908060018154018082558091505060019003906000526020600020906006020160009091909190915060008201518160000160006101000a81548173ffffffffffffffffffffffffffffffffffffffff021916908373ffffffffffffffffffffffffffffffffffffffff1602179055506020820151816001019080519060200190612bb99291906154ab565b506040820151816002019080519060200190612bd692919061552b565b506060820151816003019080519060200190612bf392919061552b565b506080820151816004015560a0820151816005019080519060200190612c1a9291906154ab565b50505083600560003373ffffffffffffffffffffffffffffffffffffffff1673ffffffffffffffffffffffffffffffffffffffff16815260200190815260200160002081905550826006600086815260200190815260200160002060008201518160000160006101000a81548173ffffffffffffffffffffffffffffffffffffffff021916908373ffffffffffffffffffffffffffffffffffffffff1602179055506020820151816001019080519060200190612cd89291906154ab565b506040820151816002019080519060200190612cf592919061552b565b506060820151816003019080519060200190612d1292919061552b565b506080820151816004015560a0820151816005019080519060200190612d399291906154ab565b50905050612d4933858b84614ecc565b7fe4db4d9bae6a7ea1c8f58bae49da45e3112df950e97a0b718e738b109807232e836000015184602001518560400151866060015187608001518860a00151604051808773ffffffffffffffffffffffffffffffffffffffff1681526020018060200180602001806020018681526020018060200185810385528a818151815260200191508051906020019080838360005b83811015612df6578082015181840152602081019050612ddb565b50505050905090810190601f168015612e235780820380516001836020036101000a031916815260200191505b50858103845289818151815260200191508051906020019080838360005b83811015612e5c578082015181840152602081019050612e41565b50505050905090810190601f168015612e895780820380516001836020036101000a031916815260200191505b50858103835288818151815260200191508051906020019080838360005b83811015612ec2578082015181840152602081019050612ea7565b50505050905090810190601f168015612eef5780820380516001836020036101000a031916815260200191505b50858103825286818151815260200191508051906020019080838360005b83811015612f28578082015181840152602081019050612f0d565b50505050905090810190601f168015612f555780820380516001836020036101000a031916815260200191505b509a505050505050505050505060405180910390a15050505050505050505050565b8173ffffffffffffffffffffffffffffffffffffffff16612f9661494c565b73ffffffffffffffffffffffffffffffffffffffff161415613003576040517f08c379a00000000000000000000000000000000000000000000000000000000081526004018080602001828103825260298152602001806157d66029913960400191505060405180910390fd5b806002600061301061494c565b73ffffffffffffffffffffffffffffffffffffffff1673ffffffffffffffffffffffffffffffffffffffff16815260200190815260200160002060008473ffffffffffffffffffffffffffffffffffffffff1673ffffffffffffffffffffffffffffffffffffffff16815260200190815260200160002060006101000a81548160ff0219169083151502179055508173ffffffffffffffffffffffffffffffffffffffff166130bd61494c565b73ffffffffffffffffffffffffffffffffffffffff167f17307eab39ab6107e8899845ad3d59bd9653f200f220920489ca2b5937696c318360405180821515815260200191505060405180910390a35050565b60066020528060005260406000206000915090508060000160009054906101000a900473ffffffffffffffffffffffffffffffffffffffff1690806001018054600181600116156101000203166002900480601f0160208091040260200160405190810160405280929190818152602001828054600181600116156101000203166002900480156131e25780601f106131b7576101008083540402835291602001916131e2565b820191906000526020600020905b8154815290600101906020018083116131c557829003601f168201915b505050505090806002018054600181600116156101000203166002900480601f0160208091040260200160405190810160405280929190818152602001828054600181600116156101000203166002900480156132805780601f1061325557610100808354040283529160200191613280565b820191906000526020600020905b81548152906001019060200180831161326357829003601f168201915b505050505090806003018054600181600116156101000203166002900480601f01602080910402602001604051908101604052809291908181526020018280546001816001161561010002031660029004801561331e5780601f106132f35761010080835404028352916020019161331e565b820191906000526020600020905b81548152906001019060200180831161330157829003601f168201915b505050505090806004015490806005018054600181600116156101000203166002900480601f0160208091040260200160405190810160405280929190818152602001828054600181600116156101000203166002900480156133c25780601f10613397576101008083540402835291602001916133c2565b820191906000526020600020905b8154815290600101906020018083116133a557829003601f168201915b5050505050905086565b80156139de576133da61545f565b600660008481526020019081526020016000206040518060c00160405290816000820160009054906101000a900473ffffffffffffffffffffffffffffffffffffffff1673ffffffffffffffffffffffffffffffffffffffff1673ffffffffffffffffffffffffffffffffffffffff168152602001600182018054600181600116156101000203166002900480601f0160208091040260200160405190810160405280929190818152602001828054600181600116156101000203166002900480156134e75780601f106134bc576101008083540402835291602001916134e7565b820191906000526020600020905b8154815290600101906020018083116134ca57829003601f168201915b50505050508152602001600282018054600181600116156101000203166002900480601f0160208091040260200160405190810160405280929190818152602001828054600181600116156101000203166002900480156135895780601f1061355e57610100808354040283529160200191613589565b820191906000526020600020905b81548152906001019060200180831161356c57829003601f168201915b50505050508152602001600382018054600181600116156101000203166002900480601f01602080910402602001604051908101604052809291908181526020018280546001816001161561010002031660029004801561362b5780601f106136005761010080835404028352916020019161362b565b820191906000526020600020905b81548152906001019060200180831161360e57829003601f168201915b5050505050815260200160048201548152602001600582018054600181600116156101000203166002900480601f0160208091040260200160405190810160405280929190818152602001828054600181600116156101000203166002900480156136d75780601f106136ac576101008083540402835291602001916136d7565b820191906000526020600020905b8154815290600101906020018083116136ba57829003601f168201915b505050505081525050905060006060600080600060608660a0015180602001905160c081101561370657600080fd5b81019080805190602001909291908051604051939291908464010000000082111561373057600080fd5b8382019150602082018581111561374657600080fd5b825186600182028301116401000000008211171561376357600080fd5b8083526020830192505050908051906020019080838360005b8381101561379757808201518184015260208101905061377c565b50505050905090810190601f1680156137c45780820380516001836020036101000a031916815260200191505b506040526020018051906020019092919080519060200190929190805190602001909291908051604051939291908464010000000082111561380557600080fd5b8382019150602082018581111561381b57600080fd5b825186600182028301116401000000008211171561383857600080fd5b8083526020830192505050908051906020019080838360005b8381101561386c578082015181840152602081019050613851565b50505050905090810190601f1680156138995780820380516001836020036101000a031916815260200191505b50604052505050809650819750829850839950849a50859b5050505050505060039150858585858585604051602001808781526020018060200186815260200185815260200184815260200180602001838103835288818151815260200191508051906020019080838360005b83811015613921578082015181840152602081019050613906565b50505050905090810190601f16801561394e5780820380516001836020036101000a031916815260200191505b50838103825284818151815260200191508051906020019080838360005b8381101561398757808201518184015260208101905061396c565b50505050905090810190601f1680156139b45780820380516001836020036101000a031916815260200191505b50985050505050505050506040516020818303038152906040528760a00181905250505050505050505b5050565b828102341015613a5a576040517f08c379a00000000000000000000000000000000000000000000000000000000081526004018080602001828103825260138152602001807f6e6f7420656e6f756768206574682073656e740000000000000000000000000081525060200191505060405180910390fd5b826009600086815260200190815260200160002060008773ffffffffffffffffffffffffffffffffffffffff1673ffffffffffffffffffffffffffffffffffffffff16815260200190815260200160002060008282540192505081905550600a859080600181540180825580915050600190039060005260206000200160009091909190916101000a81548173ffffffffffffffffffffffffffffffffffffffff021916908373ffffffffffffffffffffffffffffffffffffffff160217905550613b288686868686614559565b505050505050565b6000600a905060006103e8905060008183029050600860009054906101000a900473ffffffffffffffffffffffffffffffffffffffff1673ffffffffffffffffffffffffffffffffffffffff166108fc829081150290604051600060405180830381858888f19350505050158015613bac573d6000803e3d6000fd5b50505050565b613bba61545f565b600660008381526020019081526020016000206040518060c00160405290816000820160009054906101000a900473ffffffffffffffffffffffffffffffffffffffff1673ffffffffffffffffffffffffffffffffffffffff1673ffffffffffffffffffffffffffffffffffffffff168152602001600182018054600181600116156101000203166002900480601f016020809104026020016040519081016040528092919081815260200182805460018160011615610100020316600290048015613cc75780601f10613c9c57610100808354040283529160200191613cc7565b820191906000526020600020905b815481529060010190602001808311613caa57829003601f168201915b50505050508152602001600282018054600181600116156101000203166002900480601f016020809104026020016040519081016040528092919081815260200182805460018160011615610100020316600290048015613d695780601f10613d3e57610100808354040283529160200191613d69565b820191906000526020600020905b815481529060010190602001808311613d4c57829003601f168201915b50505050508152602001600382018054600181600116156101000203166002900480601f016020809104026020016040519081016040528092919081815260200182805460018160011615610100020316600290048015613e0b5780601f10613de057610100808354040283529160200191613e0b565b820191906000526020600020905b815481529060010190602001808311613dee57829003601f168201915b5050505050815260200160048201548152602001600582018054600181600116156101000203166002900480601f016020809104026020016040519081016040528092919081815260200182805460018160011615610100020316600290048015613eb75780601f10613e8c57610100808354040283529160200191613eb7565b820191906000526020600020905b815481529060010190602001808311613e9a57829003601f168201915b505050505081525050905060006060600080600060608660a0015180602001905160c0811015613ee657600080fd5b810190808051906020019092919080516040519392919084640100000000821115613f1057600080fd5b83820191506020820185811115613f2657600080fd5b8251866001820283011164010000000082111715613f4357600080fd5b8083526020830192505050908051906020019080838360005b83811015613f77578082015181840152602081019050613f5c565b50505050905090810190601f168015613fa45780820380516001836020036101000a031916815260200191505b5060405260200180519060200190929190805190602001909291908051906020019092919080516040519392919084640100000000821115613fe557600080fd5b83820191506020820185811115613ffb57600080fd5b825186600182028301116401000000008211171561401857600080fd5b8083526020830192505050908051906020019080838360005b8381101561404c578082015181840152602081019050614031565b50505050905090810190601f1680156140795780820380516001836020036101000a031916815260200191505b50604052505050809650819750829850839950849a50859b5050505050505060029150858585858585604051602001808781526020018060200186815260200185815260200184815260200180602001838103835288818151815260200191508051906020019080838360005b838110156141015780820151818401526020810190506140e6565b50505050905090810190601f16801561412e5780820380516001836020036101000a031916815260200191505b50838103825284818151815260200191508051906020019080838360005b8381101561416757808201518184015260208101905061414c565b50505050905090810190601f1680156141945780820380516001836020036101000a031916815260200191505b50985050505050505050506040516020818303038152906040528760a001819052505050505050505050565b600d81815481106141cd57fe5b90600052602060002090600602016000915090508060000160009054906101000a900473ffffffffffffffffffffffffffffffffffffffff1690806001018054600181600116156101000203166002900480601f01602080910402602001604051908101604052809291908181526020018280546001816001161561010002031660029004801561429f5780601f106142745761010080835404028352916020019161429f565b820191906000526020600020905b81548152906001019060200180831161428257829003601f168201915b505050505090806002018054600181600116156101000203166002900480601f01602080910402602001604051908101604052809291908181526020018280546001816001161561010002031660029004801561433d5780601f106143125761010080835404028352916020019161433d565b820191906000526020600020905b81548152906001019060200180831161432057829003601f168201915b505050505090806003018054600181600116156101000203166002900480601f0160208091040260200160405190810160405280929190818152602001828054600181600116156101000203166002900480156143db5780601f106143b0576101008083540402835291602001916143db565b820191906000526020600020905b8154815290600101906020018083116143be57829003601f168201915b505050505090806004015490806005018054600181600116156101000203166002900480601f01602080910402602001604051908101604052809291908181526020018280546001816001161561010002031660029004801561447f5780601f106144545761010080835404028352916020019161447f565b820191906000526020600020905b81548152906001019060200180831161446257829003601f168201915b5050505050905086565b600a818154811061449657fe5b906000526020600020016000915054906101000a900473ffffffffffffffffffffffffffffffffffffffff1681565b6000600260008473ffffffffffffffffffffffffffffffffffffffff1673ffffffffffffffffffffffffffffffffffffffff16815260200190815260200160002060008373ffffffffffffffffffffffffffffffffffffffff1673ffffffffffffffffffffffffffffffffffffffff16815260200190815260200160002060009054906101000a900460ff16905092915050565b600073ffffffffffffffffffffffffffffffffffffffff168473ffffffffffffffffffffffffffffffffffffffff1614156145df576040517f08c379a00000000000000000000000000000000000000000000000000000000081526004018080602001828103825260258152602001806157556025913960400191505060405180910390fd5b8473ffffffffffffffffffffffffffffffffffffffff168473ffffffffffffffffffffffffffffffffffffffff161415614681576040517f08c379a00000000000000000000000000000000000000000000000000000000081526004018080602001828103825260208152602001807f455243313135353a2063616e6e6f74207472616e7366657220746f2073656c6681525060200191505060405180910390fd5b600061468b61494c565b90506146ab81878761469c886150cf565b6146a5886150cf565b87614954565b60006146b78786611cad565b1161472a576040517f08c379a000000000000000000000000000000000000000000000000000000000815260040180806020018281038252600a8152602001807f6e6f2062616c616e63650000000000000000000000000000000000000000000081525060200191505060405180910390fd5b6147a7836040518060600160405280602a81526020016157ac602a91396001600088815260200190815260200160002060008a73ffffffffffffffffffffffffffffffffffffffff1673ffffffffffffffffffffffffffffffffffffffff1681526020019081526020016000205461495c9092919063ffffffff16565b6001600086815260200190815260200160002060008873ffffffffffffffffffffffffffffffffffffffff1673ffffffffffffffffffffffffffffffffffffffff1681526020019081526020016000208190555061485e836001600087815260200190815260200160002060008873ffffffffffffffffffffffffffffffffffffffff1673ffffffffffffffffffffffffffffffffffffffff16815260200190815260200160002054614a1c90919063ffffffff16565b6001600086815260200190815260200160002060008773ffffffffffffffffffffffffffffffffffffffff1673ffffffffffffffffffffffffffffffffffffffff168152602001908152602001600020819055508473ffffffffffffffffffffffffffffffffffffffff168673ffffffffffffffffffffffffffffffffffffffff168273ffffffffffffffffffffffffffffffffffffffff167fc3d58168c5ae7397731d063d5bbf3d657854427343f4c083240f7aacaa2d0f628787604051808381526020018281526020019250505060405180910390a461494481878787878761513f565b505050505050565b600033905090565b505050505050565b6000838311158290614a09576040517f08c379a00000000000000000000000000000000000000000000000000000000081526004018080602001828103825283818151815260200191508051906020019080838360005b838110156149ce5780820151818401526020810190506149b3565b50505050905090810190601f1680156149fb5780820380516001836020036101000a031916815260200191505b509250505060405180910390fd5b5060008385039050809150509392505050565b600080828401905083811015614a9a576040517f08c379a000000000000000000000000000000000000000000000000000000000815260040180806020018281038252601b8152602001807f536166654d6174683a206164646974696f6e206f766572666c6f77000000000081525060200191505060405180910390fd5b8091505092915050565b614ac38473ffffffffffffffffffffffffffffffffffffffff1661544c565b15614e2b578373ffffffffffffffffffffffffffffffffffffffff1663bc197c8187878686866040518663ffffffff1660e01b8152600401808673ffffffffffffffffffffffffffffffffffffffff1681526020018573ffffffffffffffffffffffffffffffffffffffff168152602001806020018060200180602001848103845287818151815260200191508051906020019060200280838360005b83811015614b7b578082015181840152602081019050614b60565b50505050905001848103835286818151815260200191508051906020019060200280838360005b83811015614bbd578082015181840152602081019050614ba2565b50505050905001848103825285818151815260200191508051906020019080838360005b83811015614bfc578082015181840152602081019050614be1565b50505050905090810190601f168015614c295780820380516001836020036101000a031916815260200191505b5098505050505050505050602060405180830381600087803b158015614c4e57600080fd5b505af1925050508015614c8257506040513d6020811015614c6e57600080fd5b810190808051906020019092919050505060015b614d8c57614c8e6155e6565b80614c995750614d3b565b806040517f08c379a00000000000000000000000000000000000000000000000000000000081526004018080602001828103825283818151815260200191508051906020019080838360005b83811015614d00578082015181840152602081019050614ce5565b50505050905090810190601f168015614d2d5780820380516001836020036101000a031916815260200191505b509250505060405180910390fd5b6040517f08c379a000000000000000000000000000000000000000000000000000000000815260040180806020018281038252603481526020018061569d6034913960400191505060405180910390fd5b63bc197c8160e01b7bffffffffffffffffffffffffffffffffffffffffffffffffffffffff1916817bffffffffffffffffffffffffffffffffffffffffffffffffffffffff191614614e29576040517f08c379a00000000000000000000000000000000000000000000000000000000081526004018080602001828103825260288152602001806156d16028913960400191505060405180910390fd5b505b505050505050565b600080662386f26fc1000090506000836040516020018082805190602001908083835b60208310614e795780518252602082019150602081019050602083039250614e56565b6001836020036101000a0380198251168184511680821785525050505050509050019150506040516020818303038152906040528051906020012060001c9050818181614ec257fe5b0692505050919050565b600073ffffffffffffffffffffffffffffffffffffffff168473ffffffffffffffffffffffffffffffffffffffff161415614f52576040517f08c379a00000000000000000000000000000000000000000000000000000000081526004018080602001828103825260218152602001806158506021913960400191505060405180910390fd5b6000614f5c61494c565b9050614f7d81600087614f6e886150cf565b614f77886150cf565b87614954565b614fe0836001600087815260200190815260200160002060008873ffffffffffffffffffffffffffffffffffffffff1673ffffffffffffffffffffffffffffffffffffffff16815260200190815260200160002054614a1c90919063ffffffff16565b6001600086815260200190815260200160002060008773ffffffffffffffffffffffffffffffffffffffff1673ffffffffffffffffffffffffffffffffffffffff168152602001908152602001600020819055508473ffffffffffffffffffffffffffffffffffffffff16600073ffffffffffffffffffffffffffffffffffffffff168273ffffffffffffffffffffffffffffffffffffffff167fc3d58168c5ae7397731d063d5bbf3d657854427343f4c083240f7aacaa2d0f628787604051808381526020018281526020019250505060405180910390a46150c88160008787878761513f565b5050505050565b606080600167ffffffffffffffff811180156150ea57600080fd5b506040519080825280602002602001820160405280156151195781602001602082028036833780820191505090505b509050828160008151811061512a57fe5b60200260200101818152505080915050919050565b61515e8473ffffffffffffffffffffffffffffffffffffffff1661544c565b15615444578373ffffffffffffffffffffffffffffffffffffffff1663f23a6e6187878686866040518663ffffffff1660e01b8152600401808673ffffffffffffffffffffffffffffffffffffffff1681526020018573ffffffffffffffffffffffffffffffffffffffff16815260200184815260200183815260200180602001828103825283818151815260200191508051906020019080838360005b838110156152175780820151818401526020810190506151fc565b50505050905090810190601f1680156152445780820380516001836020036101000a031916815260200191505b509650505050505050602060405180830381600087803b15801561526757600080fd5b505af192505050801561529b57506040513d602081101561528757600080fd5b810190808051906020019092919050505060015b6153a5576152a76155e6565b806152b25750615354565b806040517f08c379a00000000000000000000000000000000000000000000000000000000081526004018080602001828103825283818151815260200191508051906020019080838360005b838110156153195780820151818401526020810190506152fe565b50505050905090810190601f1680156153465780820380516001836020036101000a031916815260200191505b509250505060405180910390fd5b6040517f08c379a000000000000000000000000000000000000000000000000000000000815260040180806020018281038252603481526020018061569d6034913960400191505060405180910390fd5b63f23a6e6160e01b7bffffffffffffffffffffffffffffffffffffffffffffffffffffffff1916817bffffffffffffffffffffffffffffffffffffffffffffffffffffffff191614615442576040517f08c379a00000000000000000000000000000000000000000000000000000000081526004018080602001828103825260288152602001806156d16028913960400191505060405180910390fd5b505b505050505050565b600080823b905060008111915050919050565b6040518060c00160405280600073ffffffffffffffffffffffffffffffffffffffff16815260200160608152602001606081526020016060815260200160008152602001606081525090565b828054600181600116156101000203166002900490600052602060002090601f016020900481019282601f106154ec57805160ff191683800117855561551a565b8280016001018555821561551a579182015b828111156155195782518255916020019190600101906154fe565b5b50905061552791906155ab565b5090565b828054600181600116156101000203166002900490600052602060002090601f016020900481019282601f1061556c57805160ff191683800117855561559a565b8280016001018555821561559a579182015b8281111561559957825182559160200191906001019061557e565b5b5090506155a791906155ab565b5090565b5b808211156155c45760008160009055506001016155ac565b5090565b6000601f19601f8301169050919050565b60008160e01c9050919050565b600060443d10156155f657615699565b60046000803e6156076000516155d9565b6308c379a081146156185750615699565b60405160043d036004823e80513d602482011167ffffffffffffffff8211171561564457505050615699565b808201805167ffffffffffffffff811115615663575050505050615699565b8060208301013d850181111561567e57505050505050615699565b615687826155c8565b60208401016040528296505050505050505b9056fe455243313135353a207472616e7366657220746f206e6f6e2045524331313535526563656976657220696d706c656d656e746572455243313135353a204552433131353552656365697665722072656a656374656420746f6b656e73455243313135353a2062616c616e636520717565727920666f7220746865207a65726f2061646472657373455243313135353a2062617463682062616c616e636520717565727920666f7220746865207a65726f2061646472657373455243313135353a207472616e7366657220746f20746865207a65726f2061646472657373455243313135353a207472616e736665722063616c6c6572206973206e6f74206f776e6572206e6f7220617070726f766564455243313135353a20696e73756666696369656e742062616c616e636520666f72207472616e73666572455243313135353a2073657474696e6720617070726f76616c2073746174757320666f722073656c66455243313135353a206163636f756e747320616e6420696473206c656e677468206d69736d61746368455243313135353a2069647320616e6420616d6f756e7473206c656e677468206d69736d61746368455243313135353a206d696e7420746f20746865207a65726f2061646472657373a2646970667358221220ddc6f24ee673af9aae15e93d4b82b10d696c9197575d6f0afa7f5ff544eb63c864736f6c634300060c0033687474703a2f2f6c6f63616c686f73743a333030302f7075626c69632f23212f74726561737572655f63686573742f",
  "immutableReferences": {},
  "source": "pragma solidity >=0.4.21 <0.7.0;\n//it's been quite the year on our little blue sphere\nimport \"@openzeppelin/contracts/token/ERC1155/ERC1155.sol\";\n/*\n  mad props to the crypto zombies tutorial!  Thanks!\n  And gregory at Dapp U\n  and anthony at the daily gwei\n  stand on the shoulders of giants\n*/\ncontract AngelToken is ERC1155{\n  /* State variables are stored in the blockchain */\n  mapping(uint256 => bool) public is_on_manifest;\n  mapping (address => uint256) public map_owner_to_id;\n  mapping (uint256 => Alm) public map_id_to_Alm;\n  mapping (string => Alm) public map_uri_to_Alm;\n\n  address payable public CafLaMAccount = msg.sender;\n  mapping(uint256 => mapping(address => uint256)) public CafLaM_angels_map;\n  address[] public CafLaM_angels_list;\n  uint256 last_rnd_id = 0;\n  uint256 this_round_id;\n\n  struct Alm {\n    address owner;\n     bytes uri;\n      string name;\n       string sym;\n        uint256 id;  // the id of the token issuance\n         bytes mint_data;\n          }\n  Alm[] public alms;\n  event ManifestedAngelToken(\n     address owner,\n      bytes _uri,\n       string _ename,\n        string _esym,\n         uint256 _id,\n          bytes mint_data\n           );\n  constructor()\n    ERC1155(\"http://localhost:3000/public/#!/treasure_chest/\")\n      public {}\n\n   function tokenGenesis (\n      string memory _ename,\n       string memory _esym,\n        uint256 _num_to_issue,\n         string memory _mint_date,\n          uint256 _cost,\n           uint256 _angel_coefficient,\n            string memory _product\n            )\n      public {\n          uint256 _id = _idGenesis(_ename);\n          require(!is_on_manifest[_id]);\n          is_on_manifest[_id] = true;\n          Alm memory new_alm;\n          new_alm.owner = msg.sender;\n          new_alm.name = _ename;\n          new_alm.sym = _esym;\n          new_alm.id = _id;\n          bytes memory new_uri = abi.encode(_esym, _id, \".json\");\n          new_alm.uri = new_uri;\n          bytes memory mintData = abi.encode(_num_to_issue, _mint_date, _cost, _angel_coefficient, 1, _product);\n          new_alm.mint_data = mintData;\n          alms.push(new_alm);\n          map_owner_to_id[msg.sender] = _id;\n          map_id_to_Alm[_id] = new_alm;\n          _mint(msg.sender, _id, _num_to_issue, mintData);\n          emit ManifestedAngelToken(\n               new_alm.owner,\n                new_alm.uri,\n                 new_alm.name,\n                  new_alm.sym,\n                   new_alm.id,\n                    new_alm.mint_data\n                     );\n                     /* address payable oa = OA; */\n                     /* require(oa.send(1/1000)); // rice for the deities whenever a new batch of alms is manifested */\n  }\n  function getAlmsLength() public view returns(uint256){\n    return alms.length;\n  }\n  function _idGenesis(string memory _str) internal pure returns (uint256) {\n    uint256 idmod = 10 ** 16;\n    uint256 token_id = uint256(keccak256(abi.encodePacked(_str)));\n    return token_id % idmod;\n  }\n  function buyAlms(address _owner, address _buyer, uint256 _id, uint256 _amount, bytes memory _data, uint256 cost) public payable {\n      require(msg.value >= (cost * _amount), \"not enough eth sent\");\n      /* require(_owner.send(msg.value)); // replace with deposits to escrow account */\n\n      /* address payable oa = OA; */\n      /* require(oa.send(1/10000)); // rice for the deities */\n      CafLaM_angels_map[_id][_buyer] += _amount;\n      CafLaM_angels_list.push(_buyer);\n\n      safeTransferFrom(_owner, _buyer, _id, _amount, _data);\n\n\n      /* trigger crowdfund phase 1 execution if all alms are sold */\n      /* if(checkProgress(_owner, _id)){\n        crowdfund_execution(_id);\n        emit CrowdFundComplete(_id,true);\n      } */\n      /* pause tokens until next round executes*/\n\n  }\n  function checkProgress(address _owner, uint256 _id) private view returns(bool complete) {\n    if(balanceOf(_owner,_id) == 0){\n      /* crowd_sale_complete */\n      complete = true;\n   } else {\n     complete = false;\n   }\n   return complete;\n  }\n  function crowdfund_execution(uint256 _id) private {\n    change_status_x(_id);\n    if(false){\n      payout_last(last_rnd_id);\n    }else{\n      seed_round();//no angel share - first round goes directly to startup funding\n    }\n    this_now_last(_id);\n  /*   send email to minter to prompt a week long roast session */\n  }\n  function this_now_last(uint256 _id) private {\n    last_rnd_id = _id;\n  }\n  function seed_round() public payable {\n    uint256 _cost = 10;\n    uint256 _num_to_issue = 1000;\n    uint256 total_fund = _cost * _num_to_issue;\n    /* require(total_fund >= EscrowAccount) */ //withdraw amount from escrow and\n    /* send to contract owner, creator of the alm */\n    CafLaMAccount.transfer(total_fund); // make CafLaMAccount the contract Escrow and send total_funds to the token owner, which would generally be the RoastMeister\n  }\n  function payout_last(uint256 _last_rnd_id) public payable {\n      /* fetch the current alm */\n      /* _id = id to last alm; */\n      AngelToken.Alm memory last_alm = map_id_to_Alm[_last_rnd_id];\n        uint256 _num_to_issue;\n         string memory _mint_date;\n          uint256 _cost;\n           uint256 _angel_coefficient;\n            uint256 _status;\n             string memory _product;\n      (_num_to_issue, _mint_date, _cost, _angel_coefficient, _status, _product) = abi.decode(last_alm.mint_data,(uint256, string, uint256, uint256, uint256, string));\n      /* Load tokens with payout from this round */\n      uint256 total_fund = _cost * _num_to_issue;\n      uint256 expenses = 5500;// estimated expenses to import, produce, and ship product\n      uint256 _total_angels_share = total_fund - expenses;\n\n      for(uint256 i=1; i<=CafLaM_angels_list.length; i++) {\n        address angel = CafLaM_angels_list[i];\n        uint256 angels_bal = ERC1155.balanceOf(angel, _last_rnd_id);\n        uint256 payout_amt = _total_angels_share / (angels_bal * _angel_coefficient);\n        /* angel.transfer(payout_amt); */\n      }\n\n      /* change status on tokens to 'PAID' */\n      _status = 4;\n      /* reencode */\n      last_alm.mint_data = abi.encode(_num_to_issue, _mint_date, _cost, _angel_coefficient, _status, _product);\n\n  }\n\n  function change_status_x(uint256 _id) public view {\n  /* fetch the current alm */\n  AngelToken.Alm memory cur_alm =  AngelToken.map_id_to_Alm[_id];\n    uint256 _num_to_issue;\n     string memory _mint_date;\n      uint256 _cost;\n       uint256 _angel_coefficient;\n        uint256 _status;\n         string memory _product;\n  (_num_to_issue, _mint_date, _cost, _angel_coefficient, _status, _product) = abi.decode(cur_alm.mint_data,(uint256, string, uint256, uint256, uint256, string));\n  /* change status on tokens to 'executed' */\n  _status = 2;\n  /* reencode */\n  cur_alm.mint_data = abi.encode(_num_to_issue, _mint_date, _cost, _angel_coefficient, _status, _product);\n  }\n  function change_status_s(uint256 _id, bool is_shipping) public view{\n    if(is_shipping){\n      /* fetch the current alm */\n      AngelToken.Alm memory cur_alm =  AngelToken.map_id_to_Alm[_id];\n        uint256 _num_to_issue;\n         string memory _mint_date;\n          uint256 _cost;\n           uint256 _angel_coefficient;\n            uint256 _status;\n             string memory _product;\n      (_num_to_issue, _mint_date, _cost, _angel_coefficient, _status, _product) = abi.decode(cur_alm.mint_data,(uint256, string, uint256, uint256, uint256, string));\n      /* change status on tokens to 'executed' */\n      _status = 3;\n      /* reencode */\n      cur_alm.mint_data = abi.encode(_num_to_issue, _mint_date, _cost, _angel_coefficient, _status, _product);\n    }\n  }\n}\n",
  "sourcePath": "/Volumes/ETH/AngelTokens/contracts/AngelToken.sol",
  "compiler": {
    "name": "solc",
    "version": "0.6.12+commit.27d51765.Emscripten.clang"
  },
  "schemaVersion": "3.3.2",
  "updatedAt": "2021-01-16T22:31:40.917Z",
  "networkType": "ethereum",
  "devdoc": {
    "kind": "dev",
    "methods": {
      "balanceOf(address,uint256)": {
        "details": "See {IERC1155-balanceOf}. Requirements: - `account` cannot be the zero address."
      },
      "balanceOfBatch(address[],uint256[])": {
        "details": "See {IERC1155-balanceOfBatch}. Requirements: - `accounts` and `ids` must have the same length."
      },
      "isApprovedForAll(address,address)": {
        "details": "See {IERC1155-isApprovedForAll}."
      },
      "safeBatchTransferFrom(address,address,uint256[],uint256[],bytes)": {
        "details": "See {IERC1155-safeBatchTransferFrom}."
      },
      "safeTransferFrom(address,address,uint256,uint256,bytes)": {
        "details": "See {IERC1155-safeTransferFrom}."
      },
      "setApprovalForAll(address,bool)": {
        "details": "See {IERC1155-setApprovalForAll}."
      },
      "supportsInterface(bytes4)": {
        "details": "See {IERC165-supportsInterface}. Time complexity O(1), guaranteed to always use less than 30 000 gas."
      },
      "uri(uint256)": {
        "details": "See {IERC1155MetadataURI-uri}. This implementation returns the same URI for *all* token types. It relies on the token type ID substitution mechanism https://eips.ethereum.org/EIPS/eip-1155#metadata[defined in the EIP]. Clients calling this function must replace the `\\{id\\}` substring with the actual token type ID."
      }
    },
    "version": 1
  },
  "userdoc": {
    "kind": "user",
    "methods": {},
    "version": 1
  }
}