{
  "contractName": "AngelToken",
  "abi": [
    {
      "inputs": [],
      "stateMutability": "nonpayable",
      "type": "constructor"
    },
    {
      "anonymous": false,
      "inputs": [
        {
          "indexed": true,
          "internalType": "address",
          "name": "owner",
          "type": "address"
        },
        {
          "indexed": true,
          "internalType": "address",
          "name": "approved",
          "type": "address"
        },
        {
          "indexed": true,
          "internalType": "uint256",
          "name": "tokenId",
          "type": "uint256"
        }
      ],
      "name": "Approval",
      "type": "event"
    },
    {
      "anonymous": false,
      "inputs": [
        {
          "indexed": true,
          "internalType": "address",
          "name": "owner",
          "type": "address"
        },
        {
          "indexed": true,
          "internalType": "address",
          "name": "operator",
          "type": "address"
        },
        {
          "indexed": false,
          "internalType": "bool",
          "name": "approved",
          "type": "bool"
        }
      ],
      "name": "ApprovalForAll",
      "type": "event"
    },
    {
      "anonymous": false,
      "inputs": [
        {
          "indexed": true,
          "internalType": "address",
          "name": "from",
          "type": "address"
        },
        {
          "indexed": true,
          "internalType": "address",
          "name": "to",
          "type": "address"
        },
        {
          "indexed": true,
          "internalType": "uint256",
          "name": "tokenId",
          "type": "uint256"
        }
      ],
      "name": "Transfer",
      "type": "event"
    },
    {
      "inputs": [
        {
          "internalType": "string",
          "name": "",
          "type": "string"
        }
      ],
      "name": "angel_token_id_to_uri_map",
      "outputs": [
        {
          "internalType": "string",
          "name": "",
          "type": "string"
        }
      ],
      "stateMutability": "view",
      "type": "function",
      "constant": true
    },
    {
      "inputs": [
        {
          "internalType": "uint256",
          "name": "",
          "type": "uint256"
        }
      ],
      "name": "angel_tokens",
      "outputs": [
        {
          "internalType": "string",
          "name": "",
          "type": "string"
        }
      ],
      "stateMutability": "view",
      "type": "function",
      "constant": true
    },
    {
      "inputs": [
        {
          "internalType": "address",
          "name": "to",
          "type": "address"
        },
        {
          "internalType": "uint256",
          "name": "tokenId",
          "type": "uint256"
        }
      ],
      "name": "approve",
      "outputs": [],
      "stateMutability": "nonpayable",
      "type": "function"
    },
    {
      "inputs": [
        {
          "internalType": "address",
          "name": "owner",
          "type": "address"
        }
      ],
      "name": "balanceOf",
      "outputs": [
        {
          "internalType": "uint256",
          "name": "",
          "type": "uint256"
        }
      ],
      "stateMutability": "view",
      "type": "function",
      "constant": true
    },
    {
      "inputs": [],
      "name": "baseURI",
      "outputs": [
        {
          "internalType": "string",
          "name": "",
          "type": "string"
        }
      ],
      "stateMutability": "view",
      "type": "function",
      "constant": true
    },
    {
      "inputs": [
        {
          "internalType": "uint256",
          "name": "tokenId",
          "type": "uint256"
        }
      ],
      "name": "getApproved",
      "outputs": [
        {
          "internalType": "address",
          "name": "",
          "type": "address"
        }
      ],
      "stateMutability": "view",
      "type": "function",
      "constant": true
    },
    {
      "inputs": [
        {
          "internalType": "address",
          "name": "owner",
          "type": "address"
        },
        {
          "internalType": "address",
          "name": "operator",
          "type": "address"
        }
      ],
      "name": "isApprovedForAll",
      "outputs": [
        {
          "internalType": "bool",
          "name": "",
          "type": "bool"
        }
      ],
      "stateMutability": "view",
      "type": "function",
      "constant": true
    },
    {
      "inputs": [],
      "name": "name",
      "outputs": [
        {
          "internalType": "string",
          "name": "",
          "type": "string"
        }
      ],
      "stateMutability": "view",
      "type": "function",
      "constant": true
    },
    {
      "inputs": [
        {
          "internalType": "uint256",
          "name": "tokenId",
          "type": "uint256"
        }
      ],
      "name": "ownerOf",
      "outputs": [
        {
          "internalType": "address",
          "name": "",
          "type": "address"
        }
      ],
      "stateMutability": "view",
      "type": "function",
      "constant": true
    },
    {
      "inputs": [
        {
          "internalType": "address",
          "name": "from",
          "type": "address"
        },
        {
          "internalType": "address",
          "name": "to",
          "type": "address"
        },
        {
          "internalType": "uint256",
          "name": "tokenId",
          "type": "uint256"
        }
      ],
      "name": "safeTransferFrom",
      "outputs": [],
      "stateMutability": "nonpayable",
      "type": "function"
    },
    {
      "inputs": [
        {
          "internalType": "address",
          "name": "from",
          "type": "address"
        },
        {
          "internalType": "address",
          "name": "to",
          "type": "address"
        },
        {
          "internalType": "uint256",
          "name": "tokenId",
          "type": "uint256"
        },
        {
          "internalType": "bytes",
          "name": "_data",
          "type": "bytes"
        }
      ],
      "name": "safeTransferFrom",
      "outputs": [],
      "stateMutability": "nonpayable",
      "type": "function"
    },
    {
      "inputs": [
        {
          "internalType": "address",
          "name": "operator",
          "type": "address"
        },
        {
          "internalType": "bool",
          "name": "approved",
          "type": "bool"
        }
      ],
      "name": "setApprovalForAll",
      "outputs": [],
      "stateMutability": "nonpayable",
      "type": "function"
    },
    {
      "inputs": [
        {
          "internalType": "bytes4",
          "name": "interfaceId",
          "type": "bytes4"
        }
      ],
      "name": "supportsInterface",
      "outputs": [
        {
          "internalType": "bool",
          "name": "",
          "type": "bool"
        }
      ],
      "stateMutability": "view",
      "type": "function",
      "constant": true
    },
    {
      "inputs": [],
      "name": "symbol",
      "outputs": [
        {
          "internalType": "string",
          "name": "",
          "type": "string"
        }
      ],
      "stateMutability": "view",
      "type": "function",
      "constant": true
    },
    {
      "inputs": [
        {
          "internalType": "uint256",
          "name": "index",
          "type": "uint256"
        }
      ],
      "name": "tokenByIndex",
      "outputs": [
        {
          "internalType": "uint256",
          "name": "",
          "type": "uint256"
        }
      ],
      "stateMutability": "view",
      "type": "function",
      "constant": true
    },
    {
      "inputs": [
        {
          "internalType": "address",
          "name": "owner",
          "type": "address"
        },
        {
          "internalType": "uint256",
          "name": "index",
          "type": "uint256"
        }
      ],
      "name": "tokenOfOwnerByIndex",
      "outputs": [
        {
          "internalType": "uint256",
          "name": "",
          "type": "uint256"
        }
      ],
      "stateMutability": "view",
      "type": "function",
      "constant": true
    },
    {
      "inputs": [
        {
          "internalType": "uint256",
          "name": "tokenId",
          "type": "uint256"
        }
      ],
      "name": "tokenURI",
      "outputs": [
        {
          "internalType": "string",
          "name": "",
          "type": "string"
        }
      ],
      "stateMutability": "view",
      "type": "function",
      "constant": true
    },
    {
      "inputs": [],
      "name": "totalSupply",
      "outputs": [
        {
          "internalType": "uint256",
          "name": "",
          "type": "uint256"
        }
      ],
      "stateMutability": "view",
      "type": "function",
      "constant": true
    },
    {
      "inputs": [
        {
          "internalType": "address",
          "name": "from",
          "type": "address"
        },
        {
          "internalType": "address",
          "name": "to",
          "type": "address"
        },
        {
          "internalType": "uint256",
          "name": "tokenId",
          "type": "uint256"
        }
      ],
      "name": "transferFrom",
      "outputs": [],
      "stateMutability": "nonpayable",
      "type": "function"
    },
    {
      "inputs": [
        {
          "internalType": "uint256",
          "name": "",
          "type": "uint256"
        }
      ],
      "name": "uris",
      "outputs": [
        {
          "internalType": "string",
          "name": "",
          "type": "string"
        }
      ],
      "stateMutability": "view",
      "type": "function",
      "constant": true
    },
    {
      "inputs": [
        {
          "internalType": "string",
          "name": "angel_token",
          "type": "string"
        }
      ],
      "name": "mint",
      "outputs": [],
      "stateMutability": "nonpayable",
      "type": "function"
    }
  ],
  "bytecode": "0x6080604052650746a5288000600d556040518060400160405280601681526020017f687474703a2f2f6c6f63616c686f73743a333030312f00000000000000000000815250600e90805190602001906200005b92919062000279565b503480156200006957600080fd5b506040518060400160405280600a81526020017f416e67656c546f6b656e000000000000000000000000000000000000000000008152506040518060400160405280600581526020017f414e47454c000000000000000000000000000000000000000000000000000000815250620000ee6301ffc9a760e01b6200017060201b60201c565b81600690805190602001906200010692919062000300565b5080600790805190602001906200011f92919062000300565b50620001386380ac58cd60e01b6200017060201b60201c565b62000150635b5e139f60e01b6200017060201b60201c565b6200016863780e9d6360e01b6200017060201b60201c565b5050620003a6565b63ffffffff60e01b817bffffffffffffffffffffffffffffffffffffffffffffffffffffffff191614156200020d576040517f08c379a000000000000000000000000000000000000000000000000000000000815260040180806020018281038252601c8152602001807f4552433136353a20696e76616c696420696e746572666163652069640000000081525060200191505060405180910390fd5b6001600080837bffffffffffffffffffffffffffffffffffffffffffffffffffffffff19167bffffffffffffffffffffffffffffffffffffffffffffffffffffffff1916815260200190815260200160002060006101000a81548160ff02191690831515021790555050565b828054600181600116156101000203166002900490600052602060002090601f016020900481019282601f10620002bc57805160ff1916838001178555620002ed565b82800160010185558215620002ed579182015b82811115620002ec578251825591602001919060010190620002cf565b5b509050620002fc919062000387565b5090565b828054600181600116156101000203166002900490600052602060002090601f016020900481019282601f106200034357805160ff191683800117855562000374565b8280016001018555821562000374579182015b828111156200037357825182559160200191906001019062000356565b5b50905062000383919062000387565b5090565b5b80821115620003a257600081600090555060010162000388565b5090565b61366180620003b66000396000f3fe608060405234801561001057600080fd5b50600436106101375760003560e01c80634f6ccce7116100b857806395d89b411161007c57806395d89b411461081b578063a22cb4651461089e578063b88d4fde146108ee578063c87b56dd146109f3578063d85d3d2714610a9a578063e985e9c514610b5557610137565b80634f6ccce7146105ff5780636352211e146106415780636c0360eb1461069957806370a082311461071c5780638c3b7a6e1461077457610137565b806318160ddd116100ff57806318160ddd1461036f57806323b872dd1461038d5780632a9ee666146103fb5780632f745c591461052f57806342842e0e1461059157610137565b806301ffc9a71461013c57806306fdde031461019f578063081812fc14610222578063095ea7b31461027a5780631253c546146102c8575b600080fd5b6101876004803603602081101561015257600080fd5b8101908080357bffffffffffffffffffffffffffffffffffffffffffffffffffffffff19169060200190929190505050610bcf565b60405180821515815260200191505060405180910390f35b6101a7610c36565b6040518080602001828103825283818151815260200191508051906020019080838360005b838110156101e75780820151818401526020810190506101cc565b50505050905090810190601f1680156102145780820380516001836020036101000a031916815260200191505b509250505060405180910390f35b61024e6004803603602081101561023857600080fd5b8101908080359060200190929190505050610cd8565b604051808273ffffffffffffffffffffffffffffffffffffffff16815260200191505060405180910390f35b6102c66004803603604081101561029057600080fd5b81019080803573ffffffffffffffffffffffffffffffffffffffff16906020019092919080359060200190929190505050610d73565b005b6102f4600480360360208110156102de57600080fd5b8101908080359060200190929190505050610eb7565b6040518080602001828103825283818151815260200191508051906020019080838360005b83811015610334578082015181840152602081019050610319565b50505050905090810190601f1680156103615780820380516001836020036101000a031916815260200191505b509250505060405180910390f35b610377610f70565b6040518082815260200191505060405180910390f35b6103f9600480360360608110156103a357600080fd5b81019080803573ffffffffffffffffffffffffffffffffffffffff169060200190929190803573ffffffffffffffffffffffffffffffffffffffff16906020019092919080359060200190929190505050610f81565b005b6104b46004803603602081101561041157600080fd5b810190808035906020019064010000000081111561042e57600080fd5b82018360208201111561044057600080fd5b8035906020019184600183028401116401000000008311171561046257600080fd5b91908080601f016020809104026020016040519081016040528093929190818152602001838380828437600081840152601f19601f820116905080830192505050505050509192919290505050610ff7565b6040518080602001828103825283818151815260200191508051906020019080838360005b838110156104f45780820151818401526020810190506104d9565b50505050905090810190601f1680156105215780820380516001836020036101000a031916815260200191505b509250505060405180910390f35b61057b6004803603604081101561054557600080fd5b81019080803573ffffffffffffffffffffffffffffffffffffffff169060200190929190803590602001909291905050506110bd565b6040518082815260200191505060405180910390f35b6105fd600480360360608110156105a757600080fd5b81019080803573ffffffffffffffffffffffffffffffffffffffff169060200190929190803573ffffffffffffffffffffffffffffffffffffffff16906020019092919080359060200190929190505050611118565b005b61062b6004803603602081101561061557600080fd5b8101908080359060200190929190505050611138565b6040518082815260200191505060405180910390f35b61066d6004803603602081101561065757600080fd5b810190808035906020019092919050505061115b565b604051808273ffffffffffffffffffffffffffffffffffffffff16815260200191505060405180910390f35b6106a1611192565b6040518080602001828103825283818151815260200191508051906020019080838360005b838110156106e15780820151818401526020810190506106c6565b50505050905090810190601f16801561070e5780820380516001836020036101000a031916815260200191505b509250505060405180910390f35b61075e6004803603602081101561073257600080fd5b81019080803573ffffffffffffffffffffffffffffffffffffffff169060200190929190505050611234565b6040518082815260200191505060405180910390f35b6107a06004803603602081101561078a57600080fd5b8101908080359060200190929190505050611309565b6040518080602001828103825283818151815260200191508051906020019080838360005b838110156107e05780820151818401526020810190506107c5565b50505050905090810190601f16801561080d5780820380516001836020036101000a031916815260200191505b509250505060405180910390f35b6108236113c2565b6040518080602001828103825283818151815260200191508051906020019080838360005b83811015610863578082015181840152602081019050610848565b50505050905090810190601f1680156108905780820380516001836020036101000a031916815260200191505b509250505060405180910390f35b6108ec600480360360408110156108b457600080fd5b81019080803573ffffffffffffffffffffffffffffffffffffffff169060200190929190803515159060200190929190505050611464565b005b6109f16004803603608081101561090457600080fd5b81019080803573ffffffffffffffffffffffffffffffffffffffff169060200190929190803573ffffffffffffffffffffffffffffffffffffffff169060200190929190803590602001909291908035906020019064010000000081111561096b57600080fd5b82018360208201111561097d57600080fd5b8035906020019184600183028401116401000000008311171561099f57600080fd5b91908080601f016020809104026020016040519081016040528093929190818152602001838380828437600081840152601f19601f82011690508083019250505050505050919291929050505061161a565b005b610a1f60048036036020811015610a0957600080fd5b8101908080359060200190929190505050611692565b6040518080602001828103825283818151815260200191508051906020019080838360005b83811015610a5f578082015181840152602081019050610a44565b50505050905090810190601f168015610a8c5780820380516001836020036101000a031916815260200191505b509250505060405180910390f35b610b5360048036036020811015610ab057600080fd5b8101908080359060200190640100000000811115610acd57600080fd5b820183602082011115610adf57600080fd5b80359060200191846001830284011164010000000083111715610b0157600080fd5b91908080601f016020809104026020016040519081016040528093929190818152602001838380828437600081840152601f19601f82011690508083019250505050505050919291929050505061197b565b005b610bb760048036036040811015610b6b57600080fd5b81019080803573ffffffffffffffffffffffffffffffffffffffff169060200190929190803573ffffffffffffffffffffffffffffffffffffffff169060200190929190505050611d6e565b60405180821515815260200191505060405180910390f35b6000806000837bffffffffffffffffffffffffffffffffffffffffffffffffffffffff19167bffffffffffffffffffffffffffffffffffffffffffffffffffffffff1916815260200190815260200160002060009054906101000a900460ff169050919050565b606060068054600181600116156101000203166002900480601f016020809104026020016040519081016040528092919081815260200182805460018160011615610100020316600290048015610cce5780601f10610ca357610100808354040283529160200191610cce565b820191906000526020600020905b815481529060010190602001808311610cb157829003601f168201915b5050505050905090565b6000610ce382611e02565b610d38576040517f08c379a000000000000000000000000000000000000000000000000000000000815260040180806020018281038252602c81526020018061352a602c913960400191505060405180910390fd5b6004600083815260200190815260200160002060009054906101000a900473ffffffffffffffffffffffffffffffffffffffff169050919050565b6000610d7e8261115b565b90508073ffffffffffffffffffffffffffffffffffffffff168373ffffffffffffffffffffffffffffffffffffffff161415610e05576040517f08c379a00000000000000000000000000000000000000000000000000000000081526004018080602001828103825260218152602001806135da6021913960400191505060405180910390fd5b8073ffffffffffffffffffffffffffffffffffffffff16610e24611e1f565b73ffffffffffffffffffffffffffffffffffffffff161480610e535750610e5281610e4d611e1f565b611d6e565b5b610ea8576040517f08c379a000000000000000000000000000000000000000000000000000000000815260040180806020018281038252603881526020018061347d6038913960400191505060405180910390fd5b610eb28383611e27565b505050565b600c8181548110610ec457fe5b906000526020600020016000915090508054600181600116156101000203166002900480601f016020809104026020016040519081016040528092919081815260200182805460018160011615610100020316600290048015610f685780601f10610f3d57610100808354040283529160200191610f68565b820191906000526020600020905b815481529060010190602001808311610f4b57829003601f168201915b505050505081565b6000610f7c6002611ee0565b905090565b610f92610f8c611e1f565b82611ef5565b610fe7576040517f08c379a00000000000000000000000000000000000000000000000000000000081526004018080602001828103825260318152602001806135fb6031913960400191505060405180910390fd5b610ff2838383611fe9565b505050565b6012818051602081018201805184825260208301602085012081835280955050505050506000915090508054600181600116156101000203166002900480601f0160208091040260200160405190810160405280929190818152602001828054600181600116156101000203166002900480156110b55780601f1061108a576101008083540402835291602001916110b5565b820191906000526020600020905b81548152906001019060200180831161109857829003601f168201915b505050505081565b600061111082600160008673ffffffffffffffffffffffffffffffffffffffff1673ffffffffffffffffffffffffffffffffffffffff16815260200190815260200160002061222c90919063ffffffff16565b905092915050565b6111338383836040518060200160405280600081525061161a565b505050565b60008061114f83600261224690919063ffffffff16565b50905080915050919050565b600061118b826040518060600160405280602981526020016134df6029913960026122729092919063ffffffff16565b9050919050565b606060098054600181600116156101000203166002900480601f01602080910402602001604051908101604052809291908181526020018280546001816001161561010002031660029004801561122a5780601f106111ff5761010080835404028352916020019161122a565b820191906000526020600020905b81548152906001019060200180831161120d57829003601f168201915b5050505050905090565b60008073ffffffffffffffffffffffffffffffffffffffff168273ffffffffffffffffffffffffffffffffffffffff1614156112bb576040517f08c379a000000000000000000000000000000000000000000000000000000000815260040180806020018281038252602a8152602001806134b5602a913960400191505060405180910390fd5b611302600160008473ffffffffffffffffffffffffffffffffffffffff1673ffffffffffffffffffffffffffffffffffffffff168152602001908152602001600020612291565b9050919050565b600b818154811061131657fe5b906000526020600020016000915090508054600181600116156101000203166002900480601f0160208091040260200160405190810160405280929190818152602001828054600181600116156101000203166002900480156113ba5780601f1061138f576101008083540402835291602001916113ba565b820191906000526020600020905b81548152906001019060200180831161139d57829003601f168201915b505050505081565b606060078054600181600116156101000203166002900480601f01602080910402602001604051908101604052809291908181526020018280546001816001161561010002031660029004801561145a5780601f1061142f5761010080835404028352916020019161145a565b820191906000526020600020905b81548152906001019060200180831161143d57829003601f168201915b5050505050905090565b61146c611e1f565b73ffffffffffffffffffffffffffffffffffffffff168273ffffffffffffffffffffffffffffffffffffffff16141561150d576040517f08c379a00000000000000000000000000000000000000000000000000000000081526004018080602001828103825260198152602001807f4552433732313a20617070726f766520746f2063616c6c65720000000000000081525060200191505060405180910390fd5b806005600061151a611e1f565b73ffffffffffffffffffffffffffffffffffffffff1673ffffffffffffffffffffffffffffffffffffffff16815260200190815260200160002060008473ffffffffffffffffffffffffffffffffffffffff1673ffffffffffffffffffffffffffffffffffffffff16815260200190815260200160002060006101000a81548160ff0219169083151502179055508173ffffffffffffffffffffffffffffffffffffffff166115c7611e1f565b73ffffffffffffffffffffffffffffffffffffffff167f17307eab39ab6107e8899845ad3d59bd9653f200f220920489ca2b5937696c318360405180821515815260200191505060405180910390a35050565b61162b611625611e1f565b83611ef5565b611680576040517f08c379a00000000000000000000000000000000000000000000000000000000081526004018080602001828103825260318152602001806135fb6031913960400191505060405180910390fd5b61168c848484846122a6565b50505050565b606061169d82611e02565b6116f2576040517f08c379a000000000000000000000000000000000000000000000000000000000815260040180806020018281038252602f8152602001806135ab602f913960400191505060405180910390fd5b6060600860008481526020019081526020016000208054600181600116156101000203166002900480601f01602080910402602001604051908101604052809291908181526020018280546001816001161561010002031660029004801561179b5780601f106117705761010080835404028352916020019161179b565b820191906000526020600020905b81548152906001019060200180831161177e57829003601f168201915b505050505090506000600980546001816001161561010002031660029004905014156117ca5780915050611976565b6000815111156118a35760098160405160200180838054600181600116156101000203166002900480156118355780601f10611813576101008083540402835291820191611835565b820191906000526020600020905b815481529060010190602001808311611821575b505082805190602001908083835b602083106118665780518252602082019150602081019050602083039250611843565b6001836020036101000a03801982511681845116808217855250505050505090500192505050604051602081830303815290604052915050611976565b60096118ae84612318565b604051602001808380546001816001161561010002031660029004801561190c5780601f106118ea57610100808354040283529182019161190c565b820191906000526020600020905b8154815290600101906020018083116118f8575b505082805190602001908083835b6020831061193d578051825260208201915060208101905060208303925061191a565b6001836020036101000a038019825116818451168082178552505050505050905001925050506040516020818303038152906040529150505b919050565b611985600a61245f565b6000611991600a612475565b905060608261199f83612483565b6040516020018083805190602001908083835b602083106119d557805182526020820191506020810190506020830392506119b2565b6001836020036101000a03801982511681845116808217855250505050505090500182805190602001908083835b60208310611a265780518252602082019150602081019050602083039250611a03565b6001836020036101000a038019825116818451168082178552505050505050905001925050506040516020818303038152906040529050600f600083815260200190815260200160002060009054906101000a900460ff1615611a8857600080fd5b6010816040518082805190602001908083835b60208310611abe5780518252602082019150602081019050602083039250611a9b565b6001836020036101000a038019825116818451168082178552505050505050905001915050908152602001604051809103902060009054906101000a900460ff1615611b0957600080fd5b600b83908060018154018082558091505060019003906000526020600020016000909190919091509080519060200190611b44929190613315565b50600c81908060018154018082558091505060019003906000526020600020016000909190919091509080519060200190611b80929190613315565b50611b8b3383612619565b611b958282612637565b336011846040518082805190602001908083835b60208310611bcc5780518252602082019150602081019050602083039250611ba9565b6001836020036101000a038019825116818451168082178552505050505050905001915050908152602001604051809103902060006101000a81548173ffffffffffffffffffffffffffffffffffffffff021916908373ffffffffffffffffffffffffffffffffffffffff1602179055506001600f600084815260200190815260200160002060006101000a81548160ff02191690831515021790555060016010826040518082805190602001908083835b60208310611ca15780518252602082019150602081019050602083039250611c7e565b6001836020036101000a038019825116818451168082178552505050505050905001915050908152602001604051809103902060006101000a81548160ff021916908315150217905550806012846040518082805190602001908083835b60208310611d225780518252602082019150602081019050602083039250611cff565b6001836020036101000a03801982511681845116808217855250505050505090500191505090815260200160405180910390209080519060200190611d68929190613315565b50505050565b6000600560008473ffffffffffffffffffffffffffffffffffffffff1673ffffffffffffffffffffffffffffffffffffffff16815260200190815260200160002060008373ffffffffffffffffffffffffffffffffffffffff1673ffffffffffffffffffffffffffffffffffffffff16815260200190815260200160002060009054906101000a900460ff16905092915050565b6000611e188260026126c190919063ffffffff16565b9050919050565b600033905090565b816004600083815260200190815260200160002060006101000a81548173ffffffffffffffffffffffffffffffffffffffff021916908373ffffffffffffffffffffffffffffffffffffffff160217905550808273ffffffffffffffffffffffffffffffffffffffff16611e9a8361115b565b73ffffffffffffffffffffffffffffffffffffffff167f8c5be1e5ebec7d5bd14f71427d1e84f3dd0314c0f7b2291e5b200ac8c7c3b92560405160405180910390a45050565b6000611eee826000016126db565b9050919050565b6000611f0082611e02565b611f55576040517f08c379a000000000000000000000000000000000000000000000000000000000815260040180806020018281038252602c815260200180613451602c913960400191505060405180910390fd5b6000611f608361115b565b90508073ffffffffffffffffffffffffffffffffffffffff168473ffffffffffffffffffffffffffffffffffffffff161480611fcf57508373ffffffffffffffffffffffffffffffffffffffff16611fb784610cd8565b73ffffffffffffffffffffffffffffffffffffffff16145b80611fe05750611fdf8185611d6e565b5b91505092915050565b8273ffffffffffffffffffffffffffffffffffffffff166120098261115b565b73ffffffffffffffffffffffffffffffffffffffff1614612075576040517f08c379a00000000000000000000000000000000000000000000000000000000081526004018080602001828103825260298152602001806135826029913960400191505060405180910390fd5b600073ffffffffffffffffffffffffffffffffffffffff168273ffffffffffffffffffffffffffffffffffffffff1614156120fb576040517f08c379a00000000000000000000000000000000000000000000000000000000081526004018080602001828103825260248152602001806134076024913960400191505060405180910390fd5b6121068383836126ec565b612111600082611e27565b61216281600160008673ffffffffffffffffffffffffffffffffffffffff1673ffffffffffffffffffffffffffffffffffffffff1681526020019081526020016000206126f190919063ffffffff16565b506121b481600160008573ffffffffffffffffffffffffffffffffffffffff1673ffffffffffffffffffffffffffffffffffffffff16815260200190815260200160002061270b90919063ffffffff16565b506121cb818360026127259092919063ffffffff16565b50808273ffffffffffffffffffffffffffffffffffffffff168473ffffffffffffffffffffffffffffffffffffffff167fddf252ad1be2c89b69c2b068fc378daa952ba7f163c4a11628f55a4df523b3ef60405160405180910390a4505050565b600061223b836000018361275a565b60001c905092915050565b60008060008061225986600001866127dd565b915091508160001c8160001c9350935050509250929050565b6000612285846000018460001b84612876565b60001c90509392505050565b600061229f8260000161296c565b9050919050565b6122b1848484611fe9565b6122bd8484848461297d565b612312576040517f08c379a00000000000000000000000000000000000000000000000000000000081526004018080602001828103825260328152602001806133d56032913960400191505060405180910390fd5b50505050565b60606000821415612360576040518060400160405280600181526020017f3000000000000000000000000000000000000000000000000000000000000000815250905061245a565b600082905060005b6000821461238a578080600101915050600a828161238257fe5b049150612368565b60608167ffffffffffffffff811180156123a357600080fd5b506040519080825280601f01601f1916602001820160405280156123d65781602001600182028036833780820191505090505b50905060006001830390508593505b6000841461245257600a84816123f757fe5b0660300160f81b8282806001900393508151811061241157fe5b60200101907effffffffffffffffffffffffffffffffffffffffffffffffffffffffffffff1916908160001a905350600a848161244a57fe5b0493506123e5565b819450505050505b919050565b6001816000016000828254019250508190555050565b600081600001549050919050565b606060006064905060608167ffffffffffffffff811180156124a457600080fd5b506040519080825280601f01601f1916602001820160405280156124d75781602001600182028036833780820191505090505b50905060005b6000851461254f576000600a86816124f157fe5b069050600a86816124fe57fe5b0495508060300160f81b83838060010194508151811061251a57fe5b60200101907effffffffffffffffffffffffffffffffffffffffffffffffffffffffffffff1916908160001a905350506124dd565b60606001820167ffffffffffffffff8111801561256b57600080fd5b506040519080825280601f01601f19166020018201604052801561259e5781602001600182028036833780820191505090505b50905060005b82811161260c5783818403815181106125b957fe5b602001015160f81c60f81b8282815181106125d057fe5b60200101907effffffffffffffffffffffffffffffffffffffffffffffffffffffffffffff1916908160001a90535080806001019150506125a4565b5080945050505050919050565b612633828260405180602001604052806000815250612b96565b5050565b61264082611e02565b612695576040517f08c379a000000000000000000000000000000000000000000000000000000000815260040180806020018281038252602c815260200180613556602c913960400191505060405180910390fd5b806008600084815260200190815260200160002090805190602001906126bc929190613315565b505050565b60006126d3836000018360001b612c07565b905092915050565b600081600001805490509050919050565b505050565b6000612703836000018360001b612c2a565b905092915050565b600061271d836000018360001b612d12565b905092915050565b6000612751846000018460001b8473ffffffffffffffffffffffffffffffffffffffff1660001b612d82565b90509392505050565b6000818360000180549050116127bb576040517f08c379a00000000000000000000000000000000000000000000000000000000081526004018080602001828103825260228152602001806133b36022913960400191505060405180910390fd5b8260000182815481106127ca57fe5b9060005260206000200154905092915050565b6000808284600001805490501161283f576040517f08c379a00000000000000000000000000000000000000000000000000000000081526004018080602001828103825260228152602001806135086022913960400191505060405180910390fd5b600084600001848154811061285057fe5b906000526020600020906002020190508060000154816001015492509250509250929050565b6000808460010160008581526020019081526020016000205490506000811415839061293d576040517f08c379a00000000000000000000000000000000000000000000000000000000081526004018080602001828103825283818151815260200191508051906020019080838360005b838110156129025780820151818401526020810190506128e7565b50505050905090810190601f16801561292f5780820380516001836020036101000a031916815260200191505b509250505060405180910390fd5b5084600001600182038154811061295057fe5b9060005260206000209060020201600101549150509392505050565b600081600001805490509050919050565b600061299e8473ffffffffffffffffffffffffffffffffffffffff16612e5e565b6129ab5760019050612b8e565b6060612b1563150b7a0260e01b6129c0611e1f565b888787604051602401808573ffffffffffffffffffffffffffffffffffffffff1681526020018473ffffffffffffffffffffffffffffffffffffffff16815260200183815260200180602001828103825283818151815260200191508051906020019080838360005b83811015612a44578082015181840152602081019050612a29565b50505050905090810190601f168015612a715780820380516001836020036101000a031916815260200191505b5095505050505050604051602081830303815290604052907bffffffffffffffffffffffffffffffffffffffffffffffffffffffff19166020820180517bffffffffffffffffffffffffffffffffffffffffffffffffffffffff83818316178352505050506040518060600160405280603281526020016133d5603291398773ffffffffffffffffffffffffffffffffffffffff16612e719092919063ffffffff16565b90506000818060200190516020811015612b2e57600080fd5b8101908080519060200190929190505050905063150b7a0260e01b7bffffffffffffffffffffffffffffffffffffffffffffffffffffffff1916817bffffffffffffffffffffffffffffffffffffffffffffffffffffffff191614925050505b949350505050565b612ba08383612e89565b612bad600084848461297d565b612c02576040517f08c379a00000000000000000000000000000000000000000000000000000000081526004018080602001828103825260328152602001806133d56032913960400191505060405180910390fd5b505050565b600080836001016000848152602001908152602001600020541415905092915050565b60008083600101600084815260200190815260200160002054905060008114612d065760006001820390506000600186600001805490500390506000866000018281548110612c7557fe5b9060005260206000200154905080876000018481548110612c9257fe5b9060005260206000200181905550600183018760010160008381526020019081526020016000208190555086600001805480612cca57fe5b60019003818190600052602060002001600090559055866001016000878152602001908152602001600020600090556001945050505050612d0c565b60009150505b92915050565b6000612d1e838361307d565b612d77578260000182908060018154018082558091505060019003906000526020600020016000909190919091505582600001805490508360010160008481526020019081526020016000208190555060019050612d7c565b600090505b92915050565b6000808460010160008581526020019081526020016000205490506000811415612e2957846000016040518060400160405280868152602001858152509080600181540180825580915050600190039060005260206000209060020201600090919091909150600082015181600001556020820151816001015550508460000180549050856001016000868152602001908152602001600020819055506001915050612e57565b82856000016001830381548110612e3c57fe5b90600052602060002090600202016001018190555060009150505b9392505050565b600080823b905060008111915050919050565b6060612e8084846000856130a0565b90509392505050565b600073ffffffffffffffffffffffffffffffffffffffff168273ffffffffffffffffffffffffffffffffffffffff161415612f2c576040517f08c379a00000000000000000000000000000000000000000000000000000000081526004018080602001828103825260208152602001807f4552433732313a206d696e7420746f20746865207a65726f206164647265737381525060200191505060405180910390fd5b612f3581611e02565b15612fa8576040517f08c379a000000000000000000000000000000000000000000000000000000000815260040180806020018281038252601c8152602001807f4552433732313a20746f6b656e20616c7265616479206d696e7465640000000081525060200191505060405180910390fd5b612fb4600083836126ec565b61300581600160008573ffffffffffffffffffffffffffffffffffffffff1673ffffffffffffffffffffffffffffffffffffffff16815260200190815260200160002061270b90919063ffffffff16565b5061301c818360026127259092919063ffffffff16565b50808273ffffffffffffffffffffffffffffffffffffffff16600073ffffffffffffffffffffffffffffffffffffffff167fddf252ad1be2c89b69c2b068fc378daa952ba7f163c4a11628f55a4df523b3ef60405160405180910390a45050565b600080836001016000848152602001908152602001600020541415905092915050565b6060824710156130fb576040517f08c379a000000000000000000000000000000000000000000000000000000000815260040180806020018281038252602681526020018061342b6026913960400191505060405180910390fd5b61310485612e5e565b613176576040517f08c379a000000000000000000000000000000000000000000000000000000000815260040180806020018281038252601d8152602001807f416464726573733a2063616c6c20746f206e6f6e2d636f6e747261637400000081525060200191505060405180910390fd5b600060608673ffffffffffffffffffffffffffffffffffffffff1685876040518082805190602001908083835b602083106131c657805182526020820191506020810190506020830392506131a3565b6001836020036101000a03801982511681845116808217855250505050505090500191505060006040518083038185875af1925050503d8060008114613228576040519150601f19603f3d011682016040523d82523d6000602084013e61322d565b606091505b509150915061323d828286613249565b92505050949350505050565b606083156132595782905061330e565b60008351111561326c5782518084602001fd5b816040517f08c379a00000000000000000000000000000000000000000000000000000000081526004018080602001828103825283818151815260200191508051906020019080838360005b838110156132d35780820151818401526020810190506132b8565b50505050905090810190601f1680156133005780820380516001836020036101000a031916815260200191505b509250505060405180910390fd5b9392505050565b828054600181600116156101000203166002900490600052602060002090601f016020900481019282601f1061335657805160ff1916838001178555613384565b82800160010185558215613384579182015b82811115613383578251825591602001919060010190613368565b5b5090506133919190613395565b5090565b5b808211156133ae576000816000905550600101613396565b509056fe456e756d657261626c655365743a20696e646578206f7574206f6620626f756e64734552433732313a207472616e7366657220746f206e6f6e20455243373231526563656976657220696d706c656d656e7465724552433732313a207472616e7366657220746f20746865207a65726f2061646472657373416464726573733a20696e73756666696369656e742062616c616e636520666f722063616c6c4552433732313a206f70657261746f7220717565727920666f72206e6f6e6578697374656e7420746f6b656e4552433732313a20617070726f76652063616c6c6572206973206e6f74206f776e6572206e6f7220617070726f76656420666f7220616c6c4552433732313a2062616c616e636520717565727920666f7220746865207a65726f20616464726573734552433732313a206f776e657220717565727920666f72206e6f6e6578697374656e7420746f6b656e456e756d657261626c654d61703a20696e646578206f7574206f6620626f756e64734552433732313a20617070726f76656420717565727920666f72206e6f6e6578697374656e7420746f6b656e4552433732314d657461646174613a2055524920736574206f66206e6f6e6578697374656e7420746f6b656e4552433732313a207472616e73666572206f6620746f6b656e2074686174206973206e6f74206f776e4552433732314d657461646174613a2055524920717565727920666f72206e6f6e6578697374656e7420746f6b656e4552433732313a20617070726f76616c20746f2063757272656e74206f776e65724552433732313a207472616e736665722063616c6c6572206973206e6f74206f776e6572206e6f7220617070726f766564a26469706673582212201aaae71e0723fdc11afe90124e3df6100cd6aab522999d8902efdce4ac0d958564736f6c634300060c0033",
  "immutableReferences": {},
  "source": "pragma solidity >=0.4.21 <0.7.0;\n\nimport \"@openzeppelin/contracts/token/ERC721/ERC721.sol\";\nimport \"@openzeppelin/contracts/token/ERC721/ERC721.sol\";\nimport \"@openzeppelin/contracts/utils/Counters.sol\";\n\ncontract AngelToken is ERC721{\n  /* using SafeMath for uint256;\n  using Address for address; */\n  using Counters for Counters.Counter;\n  Counters.Counter private _tokenIds;\n  string[] public angel_tokens;\n  string[] public uris;\n  uint256 __totalSupply = 8000000000000;\n  bytes private __uriBase = \"http://localhost:3001/\"; // maybe a good use for an \"unstoppable domain\"\n\n  mapping(uint256 => bool) angel_token_exists;\n  mapping(string => bool) uri_exists;\n  mapping(string => address) angel_token_owners;\n  mapping(string => string) public angel_token_id_to_uri_map;\n\n  constructor()\n   ERC721(\"AngelToken\", \"ANGEL\") public {  //setup <-- run once like an init <-- pass in name and symbol as per ERC721 Standard\n  }\n\n  function mint(string memory angel_token) public { // restrict to owner and restrict inputs to only color values\n      _tokenIds.increment();\n      uint256 newTokenId = _tokenIds.current();\n      string memory tokenURI = string(abi.encodePacked(angel_token, uintToString(newTokenId)));\n      require(!angel_token_exists[newTokenId]);\n      require(!uri_exists[tokenURI]);\n      angel_tokens.push(angel_token);\n      uris.push(tokenURI);\n      _safeMint(msg.sender, newTokenId);\n      _setTokenURI(newTokenId, tokenURI);\n\n      angel_token_owners[angel_token] = msg.sender;\n      angel_token_exists[newTokenId] = true;\n      uri_exists[tokenURI] = true;\n      angel_token_id_to_uri_map[angel_token] = tokenURI;\n  }\n  function uintToString(uint v) internal returns (string memory str) {\n        uint maxlength = 100;\n        bytes memory reversed = new bytes(maxlength);\n        uint i = 0;\n        while (v != 0) {\n            uint remainder = v % 10;\n            v = v / 10;\n            reversed[i++] = byte(uint8(48 + remainder));\n        }\n        bytes memory s = new bytes(i + 1);\n        for (uint j = 0; j <= i; j++) {\n            s[j] = reversed[i - j];\n        }\n        str = string(s);\n    }\n\n  /* interface with another erc721 contract */\n  /* input address of contract to ineract with */\n  /* can call all the contracts functions through Interface */\n  /* IERC721(0xafr490q3t5uteigsjdflkjbsoitg).transfer() */\n\n}\n",
  "sourcePath": "/Volumes/ETH/webApp2/contracts/AngelToken.sol",
  "compiler": {
    "name": "solc",
    "version": "0.6.12+commit.27d51765.Emscripten.clang"
  },
  "schemaVersion": "3.3.2",
  "updatedAt": "2020-12-07T20:37:11.346Z",
  "networkType": "ethereum",
  "devdoc": {
    "kind": "dev",
    "methods": {
      "approve(address,uint256)": {
        "details": "See {IERC721-approve}."
      },
      "balanceOf(address)": {
        "details": "See {IERC721-balanceOf}."
      },
      "baseURI()": {
        "details": "Returns the base URI set via {_setBaseURI}. This will be automatically added as a prefix in {tokenURI} to each token's URI, or to the token ID if no specific URI is set for that token ID."
      },
      "getApproved(uint256)": {
        "details": "See {IERC721-getApproved}."
      },
      "isApprovedForAll(address,address)": {
        "details": "See {IERC721-isApprovedForAll}."
      },
      "name()": {
        "details": "See {IERC721Metadata-name}."
      },
      "ownerOf(uint256)": {
        "details": "See {IERC721-ownerOf}."
      },
      "safeTransferFrom(address,address,uint256)": {
        "details": "See {IERC721-safeTransferFrom}."
      },
      "safeTransferFrom(address,address,uint256,bytes)": {
        "details": "See {IERC721-safeTransferFrom}."
      },
      "setApprovalForAll(address,bool)": {
        "details": "See {IERC721-setApprovalForAll}."
      },
      "supportsInterface(bytes4)": {
        "details": "See {IERC165-supportsInterface}. Time complexity O(1), guaranteed to always use less than 30 000 gas."
      },
      "symbol()": {
        "details": "See {IERC721Metadata-symbol}."
      },
      "tokenByIndex(uint256)": {
        "details": "See {IERC721Enumerable-tokenByIndex}."
      },
      "tokenOfOwnerByIndex(address,uint256)": {
        "details": "See {IERC721Enumerable-tokenOfOwnerByIndex}."
      },
      "tokenURI(uint256)": {
        "details": "See {IERC721Metadata-tokenURI}."
      },
      "totalSupply()": {
        "details": "See {IERC721Enumerable-totalSupply}."
      },
      "transferFrom(address,address,uint256)": {
        "details": "See {IERC721-transferFrom}."
      }
    },
    "version": 1
  },
  "userdoc": {
    "kind": "user",
    "methods": {},
    "version": 1
  }
}