{
  "contractName": "AT_X",
  "abi": [
    {
      "inputs": [],
      "stateMutability": "nonpayable",
      "type": "constructor"
    },
    {
      "anonymous": false,
      "inputs": [
        {
          "indexed": true,
          "internalType": "address",
          "name": "account",
          "type": "address"
        },
        {
          "indexed": true,
          "internalType": "address",
          "name": "operator",
          "type": "address"
        },
        {
          "indexed": false,
          "internalType": "bool",
          "name": "approved",
          "type": "bool"
        }
      ],
      "name": "ApprovalForAll",
      "type": "event"
    },
    {
      "anonymous": false,
      "inputs": [
        {
          "indexed": false,
          "internalType": "address",
          "name": "owner",
          "type": "address"
        },
        {
          "indexed": false,
          "internalType": "bytes",
          "name": "_uri",
          "type": "bytes"
        },
        {
          "indexed": false,
          "internalType": "string",
          "name": "_ename",
          "type": "string"
        },
        {
          "indexed": false,
          "internalType": "string",
          "name": "_esym",
          "type": "string"
        },
        {
          "indexed": false,
          "internalType": "uint256",
          "name": "_id",
          "type": "uint256"
        },
        {
          "indexed": false,
          "internalType": "bytes",
          "name": "mint_data",
          "type": "bytes"
        }
      ],
      "name": "ManifestedAngelToken",
      "type": "event"
    },
    {
      "anonymous": false,
      "inputs": [
        {
          "indexed": true,
          "internalType": "address",
          "name": "previousOwner",
          "type": "address"
        },
        {
          "indexed": true,
          "internalType": "address",
          "name": "newOwner",
          "type": "address"
        }
      ],
      "name": "OwnershipTransferred",
      "type": "event"
    },
    {
      "anonymous": false,
      "inputs": [
        {
          "indexed": true,
          "internalType": "address",
          "name": "operator",
          "type": "address"
        },
        {
          "indexed": true,
          "internalType": "address",
          "name": "from",
          "type": "address"
        },
        {
          "indexed": true,
          "internalType": "address",
          "name": "to",
          "type": "address"
        },
        {
          "indexed": false,
          "internalType": "uint256[]",
          "name": "ids",
          "type": "uint256[]"
        },
        {
          "indexed": false,
          "internalType": "uint256[]",
          "name": "values",
          "type": "uint256[]"
        }
      ],
      "name": "TransferBatch",
      "type": "event"
    },
    {
      "anonymous": false,
      "inputs": [
        {
          "indexed": true,
          "internalType": "address",
          "name": "operator",
          "type": "address"
        },
        {
          "indexed": true,
          "internalType": "address",
          "name": "from",
          "type": "address"
        },
        {
          "indexed": true,
          "internalType": "address",
          "name": "to",
          "type": "address"
        },
        {
          "indexed": false,
          "internalType": "uint256",
          "name": "id",
          "type": "uint256"
        },
        {
          "indexed": false,
          "internalType": "uint256",
          "name": "value",
          "type": "uint256"
        }
      ],
      "name": "TransferSingle",
      "type": "event"
    },
    {
      "anonymous": false,
      "inputs": [
        {
          "indexed": false,
          "internalType": "string",
          "name": "value",
          "type": "string"
        },
        {
          "indexed": true,
          "internalType": "uint256",
          "name": "id",
          "type": "uint256"
        }
      ],
      "name": "URI",
      "type": "event"
    },
    {
      "inputs": [
        {
          "internalType": "uint256",
          "name": "",
          "type": "uint256"
        }
      ],
      "name": "CafLaM_angels_list",
      "outputs": [
        {
          "internalType": "address payable",
          "name": "",
          "type": "address"
        }
      ],
      "stateMutability": "view",
      "type": "function",
      "constant": true
    },
    {
      "inputs": [
        {
          "internalType": "uint256",
          "name": "",
          "type": "uint256"
        },
        {
          "internalType": "address",
          "name": "",
          "type": "address"
        }
      ],
      "name": "CafLaM_angels_map",
      "outputs": [
        {
          "internalType": "uint256",
          "name": "",
          "type": "uint256"
        }
      ],
      "stateMutability": "view",
      "type": "function",
      "constant": true
    },
    {
      "inputs": [],
      "name": "OA",
      "outputs": [
        {
          "internalType": "address payable",
          "name": "",
          "type": "address"
        }
      ],
      "stateMutability": "view",
      "type": "function",
      "constant": true
    },
    {
      "inputs": [
        {
          "internalType": "address",
          "name": "dest",
          "type": "address"
        },
        {
          "internalType": "uint256",
          "name": "amount",
          "type": "uint256"
        }
      ],
      "name": "_asyncTransfer",
      "outputs": [],
      "stateMutability": "nonpayable",
      "type": "function"
    },
    {
      "inputs": [
        {
          "internalType": "uint256",
          "name": "",
          "type": "uint256"
        }
      ],
      "name": "alms",
      "outputs": [
        {
          "internalType": "address payable",
          "name": "owner",
          "type": "address"
        },
        {
          "internalType": "bytes",
          "name": "uri",
          "type": "bytes"
        },
        {
          "internalType": "string",
          "name": "name",
          "type": "string"
        },
        {
          "internalType": "string",
          "name": "sym",
          "type": "string"
        },
        {
          "internalType": "uint256",
          "name": "id",
          "type": "uint256"
        },
        {
          "internalType": "bytes",
          "name": "mint_data",
          "type": "bytes"
        }
      ],
      "stateMutability": "view",
      "type": "function",
      "constant": true
    },
    {
      "inputs": [
        {
          "internalType": "address",
          "name": "account",
          "type": "address"
        },
        {
          "internalType": "uint256",
          "name": "id",
          "type": "uint256"
        }
      ],
      "name": "balanceOf",
      "outputs": [
        {
          "internalType": "uint256",
          "name": "",
          "type": "uint256"
        }
      ],
      "stateMutability": "view",
      "type": "function",
      "constant": true
    },
    {
      "inputs": [
        {
          "internalType": "address[]",
          "name": "accounts",
          "type": "address[]"
        },
        {
          "internalType": "uint256[]",
          "name": "ids",
          "type": "uint256[]"
        }
      ],
      "name": "balanceOfBatch",
      "outputs": [
        {
          "internalType": "uint256[]",
          "name": "",
          "type": "uint256[]"
        }
      ],
      "stateMutability": "view",
      "type": "function",
      "constant": true
    },
    {
      "inputs": [
        {
          "internalType": "address payable",
          "name": "_owner",
          "type": "address"
        },
        {
          "internalType": "address payable",
          "name": "_buyer",
          "type": "address"
        },
        {
          "internalType": "uint256",
          "name": "_id",
          "type": "uint256"
        },
        {
          "internalType": "uint256",
          "name": "_amount",
          "type": "uint256"
        },
        {
          "internalType": "bytes",
          "name": "_data",
          "type": "bytes"
        },
        {
          "internalType": "uint256",
          "name": "cost",
          "type": "uint256"
        }
      ],
      "name": "buyAlms",
      "outputs": [],
      "stateMutability": "payable",
      "type": "function",
      "payable": true
    },
    {
      "inputs": [],
      "name": "getAlmsLength",
      "outputs": [
        {
          "internalType": "uint256",
          "name": "",
          "type": "uint256"
        }
      ],
      "stateMutability": "view",
      "type": "function",
      "constant": true
    },
    {
      "inputs": [
        {
          "internalType": "address",
          "name": "account",
          "type": "address"
        },
        {
          "internalType": "address",
          "name": "operator",
          "type": "address"
        }
      ],
      "name": "isApprovedForAll",
      "outputs": [
        {
          "internalType": "bool",
          "name": "",
          "type": "bool"
        }
      ],
      "stateMutability": "view",
      "type": "function",
      "constant": true
    },
    {
      "inputs": [
        {
          "internalType": "uint256",
          "name": "",
          "type": "uint256"
        }
      ],
      "name": "is_on_manifest",
      "outputs": [
        {
          "internalType": "bool",
          "name": "",
          "type": "bool"
        }
      ],
      "stateMutability": "view",
      "type": "function",
      "constant": true
    },
    {
      "inputs": [
        {
          "internalType": "uint256",
          "name": "",
          "type": "uint256"
        }
      ],
      "name": "map_id_to_Alm",
      "outputs": [
        {
          "internalType": "address payable",
          "name": "owner",
          "type": "address"
        },
        {
          "internalType": "bytes",
          "name": "uri",
          "type": "bytes"
        },
        {
          "internalType": "string",
          "name": "name",
          "type": "string"
        },
        {
          "internalType": "string",
          "name": "sym",
          "type": "string"
        },
        {
          "internalType": "uint256",
          "name": "id",
          "type": "uint256"
        },
        {
          "internalType": "bytes",
          "name": "mint_data",
          "type": "bytes"
        }
      ],
      "stateMutability": "view",
      "type": "function",
      "constant": true
    },
    {
      "inputs": [
        {
          "internalType": "address",
          "name": "",
          "type": "address"
        }
      ],
      "name": "map_owner_to_id",
      "outputs": [
        {
          "internalType": "uint256",
          "name": "",
          "type": "uint256"
        }
      ],
      "stateMutability": "view",
      "type": "function",
      "constant": true
    },
    {
      "inputs": [],
      "name": "owner",
      "outputs": [
        {
          "internalType": "address",
          "name": "",
          "type": "address"
        }
      ],
      "stateMutability": "view",
      "type": "function",
      "constant": true
    },
    {
      "inputs": [
        {
          "internalType": "address",
          "name": "dest",
          "type": "address"
        }
      ],
      "name": "payments",
      "outputs": [
        {
          "internalType": "uint256",
          "name": "",
          "type": "uint256"
        }
      ],
      "stateMutability": "view",
      "type": "function",
      "constant": true
    },
    {
      "inputs": [],
      "name": "renounceOwnership",
      "outputs": [],
      "stateMutability": "nonpayable",
      "type": "function"
    },
    {
      "inputs": [
        {
          "internalType": "address",
          "name": "from",
          "type": "address"
        },
        {
          "internalType": "address",
          "name": "to",
          "type": "address"
        },
        {
          "internalType": "uint256[]",
          "name": "ids",
          "type": "uint256[]"
        },
        {
          "internalType": "uint256[]",
          "name": "amounts",
          "type": "uint256[]"
        },
        {
          "internalType": "bytes",
          "name": "data",
          "type": "bytes"
        }
      ],
      "name": "safeBatchTransferFrom",
      "outputs": [],
      "stateMutability": "nonpayable",
      "type": "function"
    },
    {
      "inputs": [
        {
          "internalType": "address",
          "name": "from",
          "type": "address"
        },
        {
          "internalType": "address",
          "name": "to",
          "type": "address"
        },
        {
          "internalType": "uint256",
          "name": "id",
          "type": "uint256"
        },
        {
          "internalType": "uint256",
          "name": "amount",
          "type": "uint256"
        },
        {
          "internalType": "bytes",
          "name": "data",
          "type": "bytes"
        }
      ],
      "name": "safeTransferFrom",
      "outputs": [],
      "stateMutability": "nonpayable",
      "type": "function"
    },
    {
      "inputs": [
        {
          "internalType": "address",
          "name": "operator",
          "type": "address"
        },
        {
          "internalType": "bool",
          "name": "approved",
          "type": "bool"
        }
      ],
      "name": "setApprovalForAll",
      "outputs": [],
      "stateMutability": "nonpayable",
      "type": "function"
    },
    {
      "inputs": [
        {
          "internalType": "bytes4",
          "name": "interfaceId",
          "type": "bytes4"
        }
      ],
      "name": "supportsInterface",
      "outputs": [
        {
          "internalType": "bool",
          "name": "",
          "type": "bool"
        }
      ],
      "stateMutability": "view",
      "type": "function",
      "constant": true
    },
    {
      "inputs": [
        {
          "internalType": "string",
          "name": "_ename",
          "type": "string"
        },
        {
          "internalType": "string",
          "name": "_esym",
          "type": "string"
        },
        {
          "internalType": "uint256",
          "name": "_num_to_issue",
          "type": "uint256"
        },
        {
          "internalType": "string",
          "name": "_mint_date",
          "type": "string"
        },
        {
          "internalType": "uint256",
          "name": "_cost",
          "type": "uint256"
        },
        {
          "internalType": "uint256",
          "name": "_angel_coefficient",
          "type": "uint256"
        },
        {
          "internalType": "string",
          "name": "_product",
          "type": "string"
        }
      ],
      "name": "tokenGenesis",
      "outputs": [],
      "stateMutability": "nonpayable",
      "type": "function"
    },
    {
      "inputs": [
        {
          "internalType": "address",
          "name": "newOwner",
          "type": "address"
        }
      ],
      "name": "transferOwnership",
      "outputs": [],
      "stateMutability": "nonpayable",
      "type": "function"
    },
    {
      "inputs": [
        {
          "internalType": "uint256",
          "name": "",
          "type": "uint256"
        }
      ],
      "name": "uri",
      "outputs": [
        {
          "internalType": "string",
          "name": "",
          "type": "string"
        }
      ],
      "stateMutability": "view",
      "type": "function",
      "constant": true
    },
    {
      "inputs": [
        {
          "internalType": "address payable",
          "name": "payee",
          "type": "address"
        },
        {
          "internalType": "uint256",
          "name": "amount",
          "type": "uint256"
        }
      ],
      "name": "withdrawPayments",
      "outputs": [],
      "stateMutability": "nonpayable",
      "type": "function"
    },
    {
      "inputs": [
        {
          "internalType": "address",
          "name": "_owner",
          "type": "address"
        },
        {
          "internalType": "uint256",
          "name": "_id",
          "type": "uint256"
        },
        {
          "internalType": "bytes",
          "name": "md",
          "type": "bytes"
        }
      ],
      "name": "crowdfund_execution",
      "outputs": [
        {
          "internalType": "bool",
          "name": "executed",
          "type": "bool"
        }
      ],
      "stateMutability": "nonpayable",
      "type": "function"
    },
    {
      "inputs": [
        {
          "internalType": "uint256",
          "name": "_id",
          "type": "uint256"
        }
      ],
      "name": "change_status_s",
      "outputs": [],
      "stateMutability": "payable",
      "type": "function",
      "payable": true
    }
  ],
  "bytecode": "0x608060405233600960006101000a81548173ffffffffffffffffffffffffffffffffffffffff021916908373ffffffffffffffffffffffffffffffffffffffff1602179055506000600c553480156200005757600080fd5b5060405180606001604052806038815260200162006444603891396200008a6301ffc9a760e01b620001ef60201b60201c565b6200009b81620002f860201b60201c565b620000b363d9b67a2660e01b620001ef60201b60201c565b620000cb630e89341c60e01b620001ef60201b60201c565b506000620000de6200031460201b60201c565b905080600460006101000a81548173ffffffffffffffffffffffffffffffffffffffff021916908373ffffffffffffffffffffffffffffffffffffffff1602179055508073ffffffffffffffffffffffffffffffffffffffff16600073ffffffffffffffffffffffffffffffffffffffff167f8be0079c531659141344cd1fd0a4f28419497f9722a3daafe3b4186f6b6457e060405160405180910390a3506040516200018b906200031c565b604051809103906000f080158015620001a8573d6000803e3d6000fd5b50600560006101000a81548173ffffffffffffffffffffffffffffffffffffffff021916908373ffffffffffffffffffffffffffffffffffffffff160217905550620003d0565b63ffffffff60e01b817bffffffffffffffffffffffffffffffffffffffffffffffffffffffff191614156200028c576040517f08c379a000000000000000000000000000000000000000000000000000000000815260040180806020018281038252601c8152602001807f4552433136353a20696e76616c696420696e746572666163652069640000000081525060200191505060405180910390fd5b6001600080837bffffffffffffffffffffffffffffffffffffffffffffffffffffffff19167bffffffffffffffffffffffffffffffffffffffffffffffffffffffff1916815260200190815260200160002060006101000a81548160ff02191690831515021790555050565b8060039080519060200190620003109291906200032a565b5050565b600033905090565b610c8180620057c383390190565b828054600181600116156101000203166002900490600052602060002090601f016020900481019282601f106200036d57805160ff19168380011785556200039e565b828001600101855582156200039e579182015b828111156200039d57825182559160200191906001019062000380565b5b509050620003ad9190620003b1565b5090565b5b80821115620003cc576000816000905550600101620003b2565b5090565b6153e380620003e06000396000f3fe6080604052600436106101805760003560e01c806376cdf224116100d1578063caae5f941161008a578063e40c033211610064578063e40c033214611389578063e985e9c5146113ee578063f242432a14611475578063f2fde38b1461159157610180565b8063caae5f94146110c7578063d2a55e3314611108578063e2982c211461132457610180565b806376cdf22414610a1b5780638b5f406614610cc65780638da5cb5b14610cf4578063a22cb46514610d35578063a2fe5f6f14610d92578063bb0c15cf14610fae57610180565b8063306e81cb1161013e5780635448e184116101185780635448e1841461086c578063590743e5146109745780635d91889a146109d9578063715018a614610a0457610180565b8063306e81cb146105fe5780634b8ae8cd1461066d5780634e1273f4146106be57610180565b8062fdd58e1461018557806301ffc9a7146101f45780630e7afec5146102645780630e89341c146102bf5780631bddcf48146103735780632eb2c2d6146103ce575b600080fd5b34801561019157600080fd5b506101de600480360360408110156101a857600080fd5b81019080803573ffffffffffffffffffffffffffffffffffffffff169060200190929190803590602001909291905050506115e2565b6040518082815260200191505060405180910390f35b34801561020057600080fd5b5061024c6004803603602081101561021757600080fd5b8101908080357bffffffffffffffffffffffffffffffffffffffffffffffffffffffff191690602001909291905050506116c2565b60405180821515815260200191505060405180910390f35b34801561027057600080fd5b506102bd6004803603604081101561028757600080fd5b81019080803573ffffffffffffffffffffffffffffffffffffffff16906020019092919080359060200190929190505050611729565b005b3480156102cb57600080fd5b506102f8600480360360208110156102e257600080fd5b81019080803590602001909291905050506117d8565b6040518080602001828103825283818151815260200191508051906020019080838360005b8381101561033857808201518184015260208101905061031d565b50505050905090810190601f1680156103655780820380516001836020036101000a031916815260200191505b509250505060405180910390f35b34801561037f57600080fd5b506103cc6004803603604081101561039657600080fd5b81019080803573ffffffffffffffffffffffffffffffffffffffff1690602001909291908035906020019092919050505061187c565b005b3480156103da57600080fd5b506105fc600480360360a08110156103f157600080fd5b81019080803573ffffffffffffffffffffffffffffffffffffffff169060200190929190803573ffffffffffffffffffffffffffffffffffffffff1690602001909291908035906020019064010000000081111561044e57600080fd5b82018360208201111561046057600080fd5b8035906020019184602083028401116401000000008311171561048257600080fd5b919080806020026020016040519081016040528093929190818152602001838360200280828437600081840152601f19601f820116905080830192505050505050509192919290803590602001906401000000008111156104e257600080fd5b8201836020820111156104f457600080fd5b8035906020019184602083028401116401000000008311171561051657600080fd5b919080806020026020016040519081016040528093929190818152602001838360200280828437600081840152601f19601f8201169050808301925050505050505091929192908035906020019064010000000081111561057657600080fd5b82018360208201111561058857600080fd5b803590602001918460018302840111640100000000831117156105aa57600080fd5b91908080601f016020809104026020016040519081016040528093929190818152602001838380828437600081840152601f19601f820116905080830192505050505050509192919290505050611924565b005b34801561060a57600080fd5b506106576004803603604081101561062157600080fd5b8101908080359060200190929190803573ffffffffffffffffffffffffffffffffffffffff169060200190929190505050611daf565b6040518082815260200191505060405180910390f35b34801561067957600080fd5b506106a66004803603602081101561069057600080fd5b8101908080359060200190929190505050611dd4565b60405180821515815260200191505060405180910390f35b3480156106ca57600080fd5b50610815600480360360408110156106e157600080fd5b81019080803590602001906401000000008111156106fe57600080fd5b82018360208201111561071057600080fd5b8035906020019184602083028401116401000000008311171561073257600080fd5b919080806020026020016040519081016040528093929190818152602001838360200280828437600081840152601f19601f8201169050808301925050505050505091929192908035906020019064010000000081111561079257600080fd5b8201836020820111156107a457600080fd5b803590602001918460208302840111640100000000831117156107c657600080fd5b919080806020026020016040519081016040528093929190818152602001838360200280828437600081840152601f19601f820116905080830192505050505050509192919290505050611df4565b6040518080602001828103825283818151815260200191508051906020019060200280838360005b8381101561085857808201518184015260208101905061083d565b505050509050019250505060405180910390f35b34801561087857600080fd5b5061095c6004803603606081101561088f57600080fd5b81019080803573ffffffffffffffffffffffffffffffffffffffff16906020019092919080359060200190929190803590602001906401000000008111156108d657600080fd5b8201836020820111156108e857600080fd5b8035906020019184600183028401116401000000008311171561090a57600080fd5b91908080601f016020809104026020016040519081016040528093929190818152602001838380828437600081840152601f19601f820116905080830192505050505050509192919290505050611fe6565b60405180821515815260200191505060405180910390f35b34801561098057600080fd5b506109c36004803603602081101561099757600080fd5b81019080803573ffffffffffffffffffffffffffffffffffffffff1690602001909291905050506123cb565b6040518082815260200191505060405180910390f35b3480156109e557600080fd5b506109ee6123e3565b6040518082815260200191505060405180910390f35b348015610a1057600080fd5b50610a196123f0565b005b348015610a2757600080fd5b50610cc4600480360360e0811015610a3e57600080fd5b8101908080359060200190640100000000811115610a5b57600080fd5b820183602082011115610a6d57600080fd5b80359060200191846001830284011164010000000083111715610a8f57600080fd5b91908080601f016020809104026020016040519081016040528093929190818152602001838380828437600081840152601f19601f82011690508083019250505050505050919291929080359060200190640100000000811115610af257600080fd5b820183602082011115610b0457600080fd5b80359060200191846001830284011164010000000083111715610b2657600080fd5b91908080601f016020809104026020016040519081016040528093929190818152602001838380828437600081840152601f19601f8201169050808301925050505050505091929192908035906020019092919080359060200190640100000000811115610b9357600080fd5b820183602082011115610ba557600080fd5b80359060200191846001830284011164010000000083111715610bc757600080fd5b91908080601f016020809104026020016040519081016040528093929190818152602001838380828437600081840152601f19601f820116905080830192505050505050509192919290803590602001909291908035906020019092919080359060200190640100000000811115610c3e57600080fd5b820183602082011115610c5057600080fd5b80359060200191846001830284011164010000000083111715610c7257600080fd5b91908080601f016020809104026020016040519081016040528093929190818152602001838380828437600081840152601f19601f82011690508083019250505050505050919291929050505061257b565b005b610cf260048036036020811015610cdc57600080fd5b8101908080359060200190929190505050612d03565b005b348015610d0057600080fd5b50610d09613472565b604051808273ffffffffffffffffffffffffffffffffffffffff16815260200191505060405180910390f35b348015610d4157600080fd5b50610d9060048036036040811015610d5857600080fd5b81019080803573ffffffffffffffffffffffffffffffffffffffff16906020019092919080351515906020019092919050505061349c565b005b348015610d9e57600080fd5b50610dcb60048036036020811015610db557600080fd5b8101908080359060200190929190505050613635565b604051808773ffffffffffffffffffffffffffffffffffffffff1681526020018060200180602001806020018681526020018060200185810385528a818151815260200191508051906020019080838360005b83811015610e39578082015181840152602081019050610e1e565b50505050905090810190601f168015610e665780820380516001836020036101000a031916815260200191505b50858103845289818151815260200191508051906020019080838360005b83811015610e9f578082015181840152602081019050610e84565b50505050905090810190601f168015610ecc5780820380516001836020036101000a031916815260200191505b50858103835288818151815260200191508051906020019080838360005b83811015610f05578082015181840152602081019050610eea565b50505050905090810190601f168015610f325780820380516001836020036101000a031916815260200191505b50858103825286818151815260200191508051906020019080838360005b83811015610f6b578082015181840152602081019050610f50565b50505050905090810190601f168015610f985780820380516001836020036101000a031916815260200191505b509a505050505050505050505060405180910390f35b6110c5600480360360c0811015610fc457600080fd5b81019080803573ffffffffffffffffffffffffffffffffffffffff169060200190929190803573ffffffffffffffffffffffffffffffffffffffff16906020019092919080359060200190929190803590602001909291908035906020019064010000000081111561103557600080fd5b82018360208201111561104757600080fd5b8035906020019184600183028401116401000000008311171561106957600080fd5b91908080601f016020809104026020016040519081016040528093929190818152602001838380828437600081840152601f19601f820116905080830192505050505050509192919290803590602001909291905050506138f1565b005b3480156110d357600080fd5b506110dc613ac8565b604051808273ffffffffffffffffffffffffffffffffffffffff16815260200191505060405180910390f35b34801561111457600080fd5b506111416004803603602081101561112b57600080fd5b8101908080359060200190929190505050613aee565b604051808773ffffffffffffffffffffffffffffffffffffffff1681526020018060200180602001806020018681526020018060200185810385528a818151815260200191508051906020019080838360005b838110156111af578082015181840152602081019050611194565b50505050905090810190601f1680156111dc5780820380516001836020036101000a031916815260200191505b50858103845289818151815260200191508051906020019080838360005b838110156112155780820151818401526020810190506111fa565b50505050905090810190601f1680156112425780820380516001836020036101000a031916815260200191505b50858103835288818151815260200191508051906020019080838360005b8381101561127b578082015181840152602081019050611260565b50505050905090810190601f1680156112a85780820380516001836020036101000a031916815260200191505b50858103825286818151815260200191508051906020019080838360005b838110156112e15780820151818401526020810190506112c6565b50505050905090810190601f16801561130e5780820380516001836020036101000a031916815260200191505b509a505050505050505050505060405180910390f35b34801561133057600080fd5b506113736004803603602081101561134757600080fd5b81019080803573ffffffffffffffffffffffffffffffffffffffff169060200190929190505050613db7565b6040518082815260200191505060405180910390f35b34801561139557600080fd5b506113c2600480360360208110156113ac57600080fd5b8101908080359060200190929190505050613e84565b604051808273ffffffffffffffffffffffffffffffffffffffff16815260200191505060405180910390f35b3480156113fa57600080fd5b5061145d6004803603604081101561141157600080fd5b81019080803573ffffffffffffffffffffffffffffffffffffffff169060200190929190803573ffffffffffffffffffffffffffffffffffffffff169060200190929190505050613ec0565b60405180821515815260200191505060405180910390f35b34801561148157600080fd5b5061158f600480360360a081101561149857600080fd5b81019080803573ffffffffffffffffffffffffffffffffffffffff169060200190929190803573ffffffffffffffffffffffffffffffffffffffff16906020019092919080359060200190929190803590602001909291908035906020019064010000000081111561150957600080fd5b82018360208201111561151b57600080fd5b8035906020019184600183028401116401000000008311171561153d57600080fd5b91908080601f016020809104026020016040519081016040528093929190818152602001838380828437600081840152601f19601f820116905080830192505050505050509192919290505050613f54565b005b34801561159d57600080fd5b506115e0600480360360208110156115b457600080fd5b81019080803573ffffffffffffffffffffffffffffffffffffffff1690602001909291905050506142c8565b005b60008073ffffffffffffffffffffffffffffffffffffffff168373ffffffffffffffffffffffffffffffffffffffff161415611669576040517f08c379a000000000000000000000000000000000000000000000000000000000815260040180806020018281038252602b8152602001806151ec602b913960400191505060405180910390fd5b6001600083815260200190815260200160002060008473ffffffffffffffffffffffffffffffffffffffff1673ffffffffffffffffffffffffffffffffffffffff16815260200190815260200160002054905092915050565b6000806000837bffffffffffffffffffffffffffffffffffffffffffffffffffffffff19167bffffffffffffffffffffffffffffffffffffffffffffffffffffffff1916815260200190815260200160002060009054906101000a900460ff169050919050565b600560009054906101000a900473ffffffffffffffffffffffffffffffffffffffff1673ffffffffffffffffffffffffffffffffffffffff1663f3fef3a383836040518363ffffffff1660e01b8152600401808373ffffffffffffffffffffffffffffffffffffffff16815260200182815260200192505050600060405180830381600087803b1580156117bc57600080fd5b505af11580156117d0573d6000803e3d6000fd5b505050505050565b606060038054600181600116156101000203166002900480601f0160208091040260200160405190810160405280929190818152602001828054600181600116156101000203166002900480156118705780601f1061184557610100808354040283529160200191611870565b820191906000526020600020905b81548152906001019060200180831161185357829003601f168201915b50505050509050919050565b600560009054906101000a900473ffffffffffffffffffffffffffffffffffffffff1673ffffffffffffffffffffffffffffffffffffffff1663f340fa0182846040518363ffffffff1660e01b8152600401808273ffffffffffffffffffffffffffffffffffffffff1681526020019150506000604051808303818588803b15801561190757600080fd5b505af115801561191b573d6000803e3d6000fd5b50505050505050565b815183511461197e576040517f08c379a00000000000000000000000000000000000000000000000000000000081526004018080602001828103825260288152602001806153656028913960400191505060405180910390fd5b600073ffffffffffffffffffffffffffffffffffffffff168473ffffffffffffffffffffffffffffffffffffffff161415611a04576040517f08c379a00000000000000000000000000000000000000000000000000000000081526004018080602001828103825260258152602001806152926025913960400191505060405180910390fd5b611a0c6144d8565b73ffffffffffffffffffffffffffffffffffffffff168573ffffffffffffffffffffffffffffffffffffffff161480611a525750611a5185611a4c6144d8565b613ec0565b5b611aa7576040517f08c379a00000000000000000000000000000000000000000000000000000000081526004018080602001828103825260328152602001806152b76032913960400191505060405180910390fd5b6000611ab16144d8565b9050611ac18187878787876144e0565b60005b8451811015611c92576000858281518110611adb57fe5b602002602001015190506000858381518110611af357fe5b60200260200101519050611b7a816040518060600160405280602a81526020016152e9602a91396001600086815260200190815260200160002060008d73ffffffffffffffffffffffffffffffffffffffff1673ffffffffffffffffffffffffffffffffffffffff168152602001908152602001600020546144e89092919063ffffffff16565b6001600084815260200190815260200160002060008b73ffffffffffffffffffffffffffffffffffffffff1673ffffffffffffffffffffffffffffffffffffffff16815260200190815260200160002081905550611c31816001600085815260200190815260200160002060008b73ffffffffffffffffffffffffffffffffffffffff1673ffffffffffffffffffffffffffffffffffffffff168152602001908152602001600020546145a890919063ffffffff16565b6001600084815260200190815260200160002060008a73ffffffffffffffffffffffffffffffffffffffff1673ffffffffffffffffffffffffffffffffffffffff168152602001908152602001600020819055505050806001019050611ac4565b508473ffffffffffffffffffffffffffffffffffffffff168673ffffffffffffffffffffffffffffffffffffffff168273ffffffffffffffffffffffffffffffffffffffff167f4a39dc06d4c0dbc64b70af90fd698a233a518aa5d07e595d983b8c0526c8f7fb8787604051808060200180602001838103835285818151815260200191508051906020019060200280838360005b83811015611d42578082015181840152602081019050611d27565b50505050905001838103825284818151815260200191508051906020019060200280838360005b83811015611d84578082015181840152602081019050611d69565b5050505090500194505050505060405180910390a4611da7818787878787614630565b505050505050565b600a602052816000526040600020602052806000526040600020600091509150505481565b60066020528060005260406000206000915054906101000a900460ff1681565b60608151835114611e50576040517f08c379a000000000000000000000000000000000000000000000000000000000815260040180806020018281038252602981526020018061533c6029913960400191505060405180910390fd5b6060835167ffffffffffffffff81118015611e6a57600080fd5b50604051908082528060200260200182016040528015611e995781602001602082028036833780820191505090505b50905060005b8451811015611fdb57600073ffffffffffffffffffffffffffffffffffffffff16858281518110611ecc57fe5b602002602001015173ffffffffffffffffffffffffffffffffffffffff161415611f41576040517f08c379a00000000000000000000000000000000000000000000000000000000081526004018080602001828103825260318152602001806152176031913960400191505060405180910390fd5b60016000858381518110611f5157fe5b602002602001015181526020019081526020016000206000868381518110611f7557fe5b602002602001015173ffffffffffffffffffffffffffffffffffffffff1673ffffffffffffffffffffffffffffffffffffffff16815260200190815260200160002054828281518110611fc457fe5b602002602001018181525050806001019050611e9f565b508091505092915050565b6000611ff0614f52565b60006060600080600060608880602001905160c081101561201057600080fd5b81019080805190602001909291908051604051939291908464010000000082111561203a57600080fd5b8382019150602082018581111561205057600080fd5b825186600182028301116401000000008211171561206d57600080fd5b8083526020830192505050908051906020019080838360005b838110156120a1578082015181840152602081019050612086565b50505050905090810190601f1680156120ce5780820380516001836020036101000a031916815260200191505b506040526020018051906020019092919080519060200190929190805190602001909291908051604051939291908464010000000082111561210f57600080fd5b8382019150602082018581111561212557600080fd5b825186600182028301116401000000008211171561214257600080fd5b8083526020830192505050908051906020019080838360005b8381101561217657808201518184015260208101905061215b565b50505050905090810190601f1680156121a35780820380516001836020036101000a031916815260200191505b50604052505050809650819750829850839950849a50859b5050505050505085858585600285604051602001808781526020018060200186815260200185815260200184815260200180602001838103835288818151815260200191508051906020019080838360005b8381101561222857808201518184015260208101905061220d565b50505050905090810190601f1680156122555780820380516001836020036101000a031916815260200191505b50838103825284818151815260200191508051906020019080838360005b8381101561228e578082015181840152602081019050612273565b50505050905090810190601f1680156122bb5780820380516001836020036101000a031916815260200191505b50985050505050505050506040516020818303038152906040528760a0018190525086600860008c815260200190815260200160002060008201518160000160006101000a81548173ffffffffffffffffffffffffffffffffffffffff021916908373ffffffffffffffffffffffffffffffffffffffff1602179055506020820151816001019080519060200190612354929190614f9e565b50604082015181600201908051906020019061237192919061501e565b50606082015181600301908051906020019061238e92919061501e565b506080820151816004015560a08201518160050190805190602001906123b5929190614f9e565b5090505060019750505050505050509392505050565b60076020528060005260406000206000915090505481565b6000600d80549050905090565b6123f86144d8565b73ffffffffffffffffffffffffffffffffffffffff16600460009054906101000a900473ffffffffffffffffffffffffffffffffffffffff1673ffffffffffffffffffffffffffffffffffffffff16146124ba576040517f08c379a00000000000000000000000000000000000000000000000000000000081526004018080602001828103825260208152602001807f4f776e61626c653a2063616c6c6572206973206e6f7420746865206f776e657281525060200191505060405180910390fd5b600073ffffffffffffffffffffffffffffffffffffffff16600460009054906101000a900473ffffffffffffffffffffffffffffffffffffffff1673ffffffffffffffffffffffffffffffffffffffff167f8be0079c531659141344cd1fd0a4f28419497f9722a3daafe3b4186f6b6457e060405160405180910390a36000600460006101000a81548173ffffffffffffffffffffffffffffffffffffffff021916908373ffffffffffffffffffffffffffffffffffffffff160217905550565b6000662386f26fc1000090506000886040516020018082805190602001908083835b602083106125c0578051825260208201915060208101905060208303925061259d565b6001836020036101000a0380198251168184511680821785525050505050509050019150506040516020818303038152906040528051906020012060001c9050600082828161260b57fe5b0690506006600082815260200190815260200160002060009054906101000a900460ff161561263957600080fd5b60016006600083815260200190815260200160002060006101000a81548160ff02191690831515021790555061266d614f52565b33816000019073ffffffffffffffffffffffffffffffffffffffff16908173ffffffffffffffffffffffffffffffffffffffff16815250508a81604001819052508981606001819052508181608001818152505060608a83604051602001808060200183815260200180602001838103835285818151815260200191508051906020019080838360005b838110156127125780820151818401526020810190506126f7565b50505050905090810190601f16801561273f5780820380516001836020036101000a031916815260200191505b50838103825260058152602001807f2e6a736f6e000000000000000000000000000000000000000000000000000000815250602001945050505050604051602081830303815290604052905080826020018190525060608a8a8a8a60018b604051602001808781526020018060200186815260200185815260200184815260200180602001838103835288818151815260200191508051906020019080838360005b838110156127fc5780820151818401526020810190506127e1565b50505050905090810190601f1680156128295780820380516001836020036101000a031916815260200191505b50838103825284818151815260200191508051906020019080838360005b83811015612862578082015181840152602081019050612847565b50505050905090810190601f16801561288f5780820380516001836020036101000a031916815260200191505b50985050505050505050506040516020818303038152906040529050808360a00181905250600d83908060018154018082558091505060019003906000526020600020906006020160009091909190915060008201518160000160006101000a81548173ffffffffffffffffffffffffffffffffffffffff021916908373ffffffffffffffffffffffffffffffffffffffff1602179055506020820151816001019080519060200190612943929190614f9e565b50604082015181600201908051906020019061296092919061501e565b50606082015181600301908051906020019061297d92919061501e565b506080820151816004015560a08201518160050190805190602001906129a4929190614f9e565b50505083600760003373ffffffffffffffffffffffffffffffffffffffff1673ffffffffffffffffffffffffffffffffffffffff16815260200190815260200160002081905550826008600086815260200190815260200160002060008201518160000160006101000a81548173ffffffffffffffffffffffffffffffffffffffff021916908373ffffffffffffffffffffffffffffffffffffffff1602179055506020820151816001019080519060200190612a62929190614f9e565b506040820151816002019080519060200190612a7f92919061501e565b506060820151816003019080519060200190612a9c92919061501e565b506080820151816004015560a0820151816005019080519060200190612ac3929190614f9e565b50905050612ad333858d846149bf565b7fe4db4d9bae6a7ea1c8f58bae49da45e3112df950e97a0b718e738b109807232e836000015184602001518560400151866060015187608001518860a00151604051808773ffffffffffffffffffffffffffffffffffffffff1681526020018060200180602001806020018681526020018060200185810385528a818151815260200191508051906020019080838360005b83811015612b80578082015181840152602081019050612b65565b50505050905090810190601f168015612bad5780820380516001836020036101000a031916815260200191505b50858103845289818151815260200191508051906020019080838360005b83811015612be6578082015181840152602081019050612bcb565b50505050905090810190601f168015612c135780820380516001836020036101000a031916815260200191505b50858103835288818151815260200191508051906020019080838360005b83811015612c4c578082015181840152602081019050612c31565b50505050905090810190601f168015612c795780820380516001836020036101000a031916815260200191505b50858103825286818151815260200191508051906020019080838360005b83811015612cb2578082015181840152602081019050612c97565b50505050905090810190601f168015612cdf5780820380516001836020036101000a031916815260200191505b509a505050505050505050505060405180910390a150505050505050505050505050565b612d0b614f52565b600860008381526020019081526020016000206040518060c00160405290816000820160009054906101000a900473ffffffffffffffffffffffffffffffffffffffff1673ffffffffffffffffffffffffffffffffffffffff1673ffffffffffffffffffffffffffffffffffffffff168152602001600182018054600181600116156101000203166002900480601f016020809104026020016040519081016040528092919081815260200182805460018160011615610100020316600290048015612e185780601f10612ded57610100808354040283529160200191612e18565b820191906000526020600020905b815481529060010190602001808311612dfb57829003601f168201915b50505050508152602001600282018054600181600116156101000203166002900480601f016020809104026020016040519081016040528092919081815260200182805460018160011615610100020316600290048015612eba5780601f10612e8f57610100808354040283529160200191612eba565b820191906000526020600020905b815481529060010190602001808311612e9d57829003601f168201915b50505050508152602001600382018054600181600116156101000203166002900480601f016020809104026020016040519081016040528092919081815260200182805460018160011615610100020316600290048015612f5c5780601f10612f3157610100808354040283529160200191612f5c565b820191906000526020600020905b815481529060010190602001808311612f3f57829003601f168201915b5050505050815260200160048201548152602001600582018054600181600116156101000203166002900480601f0160208091040260200160405190810160405280929190818152602001828054600181600116156101000203166002900480156130085780601f10612fdd57610100808354040283529160200191613008565b820191906000526020600020905b815481529060010190602001808311612feb57829003601f168201915b5050505050815250509050806000015173ffffffffffffffffffffffffffffffffffffffff163373ffffffffffffffffffffffffffffffffffffffff161461309b576040517f08c379a000000000000000000000000000000000000000000000000000000000815260040180806020018281038252602481526020018061526e6024913960400191505060405180910390fd5b60006060600080600060608660a0015180602001905160c08110156130bf57600080fd5b8101908080519060200190929190805160405193929190846401000000008211156130e957600080fd5b838201915060208201858111156130ff57600080fd5b825186600182028301116401000000008211171561311c57600080fd5b8083526020830192505050908051906020019080838360005b83811015613150578082015181840152602081019050613135565b50505050905090810190601f16801561317d5780820380516001836020036101000a031916815260200191505b50604052602001805190602001909291908051906020019092919080519060200190929190805160405193929190846401000000008211156131be57600080fd5b838201915060208201858111156131d457600080fd5b82518660018202830111640100000000821117156131f157600080fd5b8083526020830192505050908051906020019080838360005b8381101561322557808201518184015260208101905061320a565b50505050905090810190601f1680156132525780820380516001836020036101000a031916815260200191505b50604052505050809650819750829850839950849a50859b5050505050505085858585600385604051602001808781526020018060200186815260200185815260200184815260200180602001838103835288818151815260200191508051906020019080838360005b838110156132d75780820151818401526020810190506132bc565b50505050905090810190601f1680156133045780820380516001836020036101000a031916815260200191505b50838103825284818151815260200191508051906020019080838360005b8381101561333d578082015181840152602081019050613322565b50505050905090810190601f16801561336a5780820380516001836020036101000a031916815260200191505b50985050505050505050506040516020818303038152906040528760a0018190525086600860008a815260200190815260200160002060008201518160000160006101000a81548173ffffffffffffffffffffffffffffffffffffffff021916908373ffffffffffffffffffffffffffffffffffffffff1602179055506020820151816001019080519060200190613403929190614f9e565b50604082015181600201908051906020019061342092919061501e565b50606082015181600301908051906020019061343d92919061501e565b506080820151816004015560a0820151816005019080519060200190613464929190614f9e565b509050505050505050505050565b6000600460009054906101000a900473ffffffffffffffffffffffffffffffffffffffff16905090565b8173ffffffffffffffffffffffffffffffffffffffff166134bb6144d8565b73ffffffffffffffffffffffffffffffffffffffff161415613528576040517f08c379a00000000000000000000000000000000000000000000000000000000081526004018080602001828103825260298152602001806153136029913960400191505060405180910390fd5b80600260006135356144d8565b73ffffffffffffffffffffffffffffffffffffffff1673ffffffffffffffffffffffffffffffffffffffff16815260200190815260200160002060008473ffffffffffffffffffffffffffffffffffffffff1673ffffffffffffffffffffffffffffffffffffffff16815260200190815260200160002060006101000a81548160ff0219169083151502179055508173ffffffffffffffffffffffffffffffffffffffff166135e26144d8565b73ffffffffffffffffffffffffffffffffffffffff167f17307eab39ab6107e8899845ad3d59bd9653f200f220920489ca2b5937696c318360405180821515815260200191505060405180910390a35050565b60086020528060005260406000206000915090508060000160009054906101000a900473ffffffffffffffffffffffffffffffffffffffff1690806001018054600181600116156101000203166002900480601f0160208091040260200160405190810160405280929190818152602001828054600181600116156101000203166002900480156137075780601f106136dc57610100808354040283529160200191613707565b820191906000526020600020905b8154815290600101906020018083116136ea57829003601f168201915b505050505090806002018054600181600116156101000203166002900480601f0160208091040260200160405190810160405280929190818152602001828054600181600116156101000203166002900480156137a55780601f1061377a576101008083540402835291602001916137a5565b820191906000526020600020905b81548152906001019060200180831161378857829003601f168201915b505050505090806003018054600181600116156101000203166002900480601f0160208091040260200160405190810160405280929190818152602001828054600181600116156101000203166002900480156138435780601f1061381857610100808354040283529160200191613843565b820191906000526020600020905b81548152906001019060200180831161382657829003601f168201915b505050505090806004015490806005018054600181600116156101000203166002900480601f0160208091040260200160405190810160405280929190818152602001828054600181600116156101000203166002900480156138e75780601f106138bc576101008083540402835291602001916138e7565b820191906000526020600020905b8154815290600101906020018083116138ca57829003601f168201915b5050505050905086565b828102341015613969576040517f08c379a00000000000000000000000000000000000000000000000000000000081526004018080602001828103825260138152602001807f6e6f7420656e6f756768206574682073656e740000000000000000000000000081525060200191505060405180910390fd5b8261397487866115e2565b10156139e8576040517f08c379a00000000000000000000000000000000000000000000000000000000081526004018080602001828103825260198152602001807f796f7572652061736b696e6720666f7220746f6f206d7563680000000000000081525060200191505060405180910390fd5b6139f2868461187c565b6139ff8686868686613f54565b82600a600086815260200190815260200160002060008773ffffffffffffffffffffffffffffffffffffffff1673ffffffffffffffffffffffffffffffffffffffff16815260200190815260200160002060008282540192505081905550600b859080600181540180825580915050600190039060005260206000200160009091909190916101000a81548173ffffffffffffffffffffffffffffffffffffffff021916908373ffffffffffffffffffffffffffffffffffffffff160217905550505050505050565b600960009054906101000a900473ffffffffffffffffffffffffffffffffffffffff1681565b600d8181548110613afb57fe5b90600052602060002090600602016000915090508060000160009054906101000a900473ffffffffffffffffffffffffffffffffffffffff1690806001018054600181600116156101000203166002900480601f016020809104026020016040519081016040528092919081815260200182805460018160011615610100020316600290048015613bcd5780601f10613ba257610100808354040283529160200191613bcd565b820191906000526020600020905b815481529060010190602001808311613bb057829003601f168201915b505050505090806002018054600181600116156101000203166002900480601f016020809104026020016040519081016040528092919081815260200182805460018160011615610100020316600290048015613c6b5780601f10613c4057610100808354040283529160200191613c6b565b820191906000526020600020905b815481529060010190602001808311613c4e57829003601f168201915b505050505090806003018054600181600116156101000203166002900480601f016020809104026020016040519081016040528092919081815260200182805460018160011615610100020316600290048015613d095780601f10613cde57610100808354040283529160200191613d09565b820191906000526020600020905b815481529060010190602001808311613cec57829003601f168201915b505050505090806004015490806005018054600181600116156101000203166002900480601f016020809104026020016040519081016040528092919081815260200182805460018160011615610100020316600290048015613dad5780601f10613d8257610100808354040283529160200191613dad565b820191906000526020600020905b815481529060010190602001808311613d9057829003601f168201915b5050505050905086565b6000600560009054906101000a900473ffffffffffffffffffffffffffffffffffffffff1673ffffffffffffffffffffffffffffffffffffffff1663e3a9db1a836040518263ffffffff1660e01b8152600401808273ffffffffffffffffffffffffffffffffffffffff16815260200191505060206040518083038186803b158015613e4257600080fd5b505afa158015613e56573d6000803e3d6000fd5b505050506040513d6020811015613e6c57600080fd5b81019080805190602001909291905050509050919050565b600b8181548110613e9157fe5b906000526020600020016000915054906101000a900473ffffffffffffffffffffffffffffffffffffffff1681565b6000600260008473ffffffffffffffffffffffffffffffffffffffff1673ffffffffffffffffffffffffffffffffffffffff16815260200190815260200160002060008373ffffffffffffffffffffffffffffffffffffffff1673ffffffffffffffffffffffffffffffffffffffff16815260200190815260200160002060009054906101000a900460ff16905092915050565b600073ffffffffffffffffffffffffffffffffffffffff168473ffffffffffffffffffffffffffffffffffffffff161415613fda576040517f08c379a00000000000000000000000000000000000000000000000000000000081526004018080602001828103825260258152602001806152926025913960400191505060405180910390fd5b8473ffffffffffffffffffffffffffffffffffffffff168473ffffffffffffffffffffffffffffffffffffffff16141561407c576040517f08c379a00000000000000000000000000000000000000000000000000000000081526004018080602001828103825260208152602001807f455243313135353a2063616e6e6f74207472616e7366657220746f2073656c6681525060200191505060405180910390fd5b60006140866144d8565b90506140a681878761409788614bc2565b6140a088614bc2565b876144e0565b614123836040518060600160405280602a81526020016152e9602a91396001600088815260200190815260200160002060008a73ffffffffffffffffffffffffffffffffffffffff1673ffffffffffffffffffffffffffffffffffffffff168152602001908152602001600020546144e89092919063ffffffff16565b6001600086815260200190815260200160002060008873ffffffffffffffffffffffffffffffffffffffff1673ffffffffffffffffffffffffffffffffffffffff168152602001908152602001600020819055506141da836001600087815260200190815260200160002060008873ffffffffffffffffffffffffffffffffffffffff1673ffffffffffffffffffffffffffffffffffffffff168152602001908152602001600020546145a890919063ffffffff16565b6001600086815260200190815260200160002060008773ffffffffffffffffffffffffffffffffffffffff1673ffffffffffffffffffffffffffffffffffffffff168152602001908152602001600020819055508473ffffffffffffffffffffffffffffffffffffffff168673ffffffffffffffffffffffffffffffffffffffff168273ffffffffffffffffffffffffffffffffffffffff167fc3d58168c5ae7397731d063d5bbf3d657854427343f4c083240f7aacaa2d0f628787604051808381526020018281526020019250505060405180910390a46142c0818787878787614c32565b505050505050565b6142d06144d8565b73ffffffffffffffffffffffffffffffffffffffff16600460009054906101000a900473ffffffffffffffffffffffffffffffffffffffff1673ffffffffffffffffffffffffffffffffffffffff1614614392576040517f08c379a00000000000000000000000000000000000000000000000000000000081526004018080602001828103825260208152602001807f4f776e61626c653a2063616c6c6572206973206e6f7420746865206f776e657281525060200191505060405180910390fd5b600073ffffffffffffffffffffffffffffffffffffffff168173ffffffffffffffffffffffffffffffffffffffff161415614418576040517f08c379a00000000000000000000000000000000000000000000000000000000081526004018080602001828103825260268152602001806152486026913960400191505060405180910390fd5b8073ffffffffffffffffffffffffffffffffffffffff16600460009054906101000a900473ffffffffffffffffffffffffffffffffffffffff1673ffffffffffffffffffffffffffffffffffffffff167f8be0079c531659141344cd1fd0a4f28419497f9722a3daafe3b4186f6b6457e060405160405180910390a380600460006101000a81548173ffffffffffffffffffffffffffffffffffffffff021916908373ffffffffffffffffffffffffffffffffffffffff16021790555050565b600033905090565b505050505050565b6000838311158290614595576040517f08c379a00000000000000000000000000000000000000000000000000000000081526004018080602001828103825283818151815260200191508051906020019080838360005b8381101561455a57808201518184015260208101905061453f565b50505050905090810190601f1680156145875780820380516001836020036101000a031916815260200191505b509250505060405180910390fd5b5060008385039050809150509392505050565b600080828401905083811015614626576040517f08c379a000000000000000000000000000000000000000000000000000000000815260040180806020018281038252601b8152602001807f536166654d6174683a206164646974696f6e206f766572666c6f77000000000081525060200191505060405180910390fd5b8091505092915050565b61464f8473ffffffffffffffffffffffffffffffffffffffff16614f3f565b156149b7578373ffffffffffffffffffffffffffffffffffffffff1663bc197c8187878686866040518663ffffffff1660e01b8152600401808673ffffffffffffffffffffffffffffffffffffffff1681526020018573ffffffffffffffffffffffffffffffffffffffff168152602001806020018060200180602001848103845287818151815260200191508051906020019060200280838360005b838110156147075780820151818401526020810190506146ec565b50505050905001848103835286818151815260200191508051906020019060200280838360005b8381101561474957808201518184015260208101905061472e565b50505050905001848103825285818151815260200191508051906020019080838360005b8381101561478857808201518184015260208101905061476d565b50505050905090810190601f1680156147b55780820380516001836020036101000a031916815260200191505b5098505050505050505050602060405180830381600087803b1580156147da57600080fd5b505af192505050801561480e57506040513d60208110156147fa57600080fd5b810190808051906020019092919050505060015b6149185761481a6150d9565b8061482557506148c7565b806040517f08c379a00000000000000000000000000000000000000000000000000000000081526004018080602001828103825283818151815260200191508051906020019080838360005b8381101561488c578082015181840152602081019050614871565b50505050905090810190601f1680156148b95780820380516001836020036101000a031916815260200191505b509250505060405180910390fd5b6040517f08c379a00000000000000000000000000000000000000000000000000000000081526004018080602001828103825260348152602001806151906034913960400191505060405180910390fd5b63bc197c8160e01b7bffffffffffffffffffffffffffffffffffffffffffffffffffffffff1916817bffffffffffffffffffffffffffffffffffffffffffffffffffffffff1916146149b5576040517f08c379a00000000000000000000000000000000000000000000000000000000081526004018080602001828103825260288152602001806151c46028913960400191505060405180910390fd5b505b505050505050565b600073ffffffffffffffffffffffffffffffffffffffff168473ffffffffffffffffffffffffffffffffffffffff161415614a45576040517f08c379a000000000000000000000000000000000000000000000000000000000815260040180806020018281038252602181526020018061538d6021913960400191505060405180910390fd5b6000614a4f6144d8565b9050614a7081600087614a6188614bc2565b614a6a88614bc2565b876144e0565b614ad3836001600087815260200190815260200160002060008873ffffffffffffffffffffffffffffffffffffffff1673ffffffffffffffffffffffffffffffffffffffff168152602001908152602001600020546145a890919063ffffffff16565b6001600086815260200190815260200160002060008773ffffffffffffffffffffffffffffffffffffffff1673ffffffffffffffffffffffffffffffffffffffff168152602001908152602001600020819055508473ffffffffffffffffffffffffffffffffffffffff16600073ffffffffffffffffffffffffffffffffffffffff168273ffffffffffffffffffffffffffffffffffffffff167fc3d58168c5ae7397731d063d5bbf3d657854427343f4c083240f7aacaa2d0f628787604051808381526020018281526020019250505060405180910390a4614bbb81600087878787614c32565b5050505050565b606080600167ffffffffffffffff81118015614bdd57600080fd5b50604051908082528060200260200182016040528015614c0c5781602001602082028036833780820191505090505b5090508281600081518110614c1d57fe5b60200260200101818152505080915050919050565b614c518473ffffffffffffffffffffffffffffffffffffffff16614f3f565b15614f37578373ffffffffffffffffffffffffffffffffffffffff1663f23a6e6187878686866040518663ffffffff1660e01b8152600401808673ffffffffffffffffffffffffffffffffffffffff1681526020018573ffffffffffffffffffffffffffffffffffffffff16815260200184815260200183815260200180602001828103825283818151815260200191508051906020019080838360005b83811015614d0a578082015181840152602081019050614cef565b50505050905090810190601f168015614d375780820380516001836020036101000a031916815260200191505b509650505050505050602060405180830381600087803b158015614d5a57600080fd5b505af1925050508015614d8e57506040513d6020811015614d7a57600080fd5b810190808051906020019092919050505060015b614e9857614d9a6150d9565b80614da55750614e47565b806040517f08c379a00000000000000000000000000000000000000000000000000000000081526004018080602001828103825283818151815260200191508051906020019080838360005b83811015614e0c578082015181840152602081019050614df1565b50505050905090810190601f168015614e395780820380516001836020036101000a031916815260200191505b509250505060405180910390fd5b6040517f08c379a00000000000000000000000000000000000000000000000000000000081526004018080602001828103825260348152602001806151906034913960400191505060405180910390fd5b63f23a6e6160e01b7bffffffffffffffffffffffffffffffffffffffffffffffffffffffff1916817bffffffffffffffffffffffffffffffffffffffffffffffffffffffff191614614f35576040517f08c379a00000000000000000000000000000000000000000000000000000000081526004018080602001828103825260288152602001806151c46028913960400191505060405180910390fd5b505b505050505050565b600080823b905060008111915050919050565b6040518060c00160405280600073ffffffffffffffffffffffffffffffffffffffff16815260200160608152602001606081526020016060815260200160008152602001606081525090565b828054600181600116156101000203166002900490600052602060002090601f016020900481019282601f10614fdf57805160ff191683800117855561500d565b8280016001018555821561500d579182015b8281111561500c578251825591602001919060010190614ff1565b5b50905061501a919061509e565b5090565b828054600181600116156101000203166002900490600052602060002090601f016020900481019282601f1061505f57805160ff191683800117855561508d565b8280016001018555821561508d579182015b8281111561508c578251825591602001919060010190615071565b5b50905061509a919061509e565b5090565b5b808211156150b757600081600090555060010161509f565b5090565b6000601f19601f8301169050919050565b60008160e01c9050919050565b600060443d10156150e95761518c565b60046000803e6150fa6000516150cc565b6308c379a0811461510b575061518c565b60405160043d036004823e80513d602482011167ffffffffffffffff821117156151375750505061518c565b808201805167ffffffffffffffff81111561515657505050505061518c565b8060208301013d85018111156151715750505050505061518c565b61517a826150bb565b60208401016040528296505050505050505b9056fe455243313135353a207472616e7366657220746f206e6f6e2045524331313535526563656976657220696d706c656d656e746572455243313135353a204552433131353552656365697665722072656a656374656420746f6b656e73455243313135353a2062616c616e636520717565727920666f7220746865207a65726f2061646472657373455243313135353a2062617463682062616c616e636520717565727920666f7220746865207a65726f20616464726573734f776e61626c653a206e6577206f776e657220697320746865207a65726f20616464726573734572723a204d757374206f776e20746f6b656e20746f206368616e676520737461747573455243313135353a207472616e7366657220746f20746865207a65726f2061646472657373455243313135353a207472616e736665722063616c6c6572206973206e6f74206f776e6572206e6f7220617070726f766564455243313135353a20696e73756666696369656e742062616c616e636520666f72207472616e73666572455243313135353a2073657474696e6720617070726f76616c2073746174757320666f722073656c66455243313135353a206163636f756e747320616e6420696473206c656e677468206d69736d61746368455243313135353a2069647320616e6420616d6f756e7473206c656e677468206d69736d61746368455243313135353a206d696e7420746f20746865207a65726f2061646472657373a2646970667358221220fb363c4808426b74ead262ff3984e08ff12acef7a3b6efb99c71ff62014eeabf64736f6c634300060c0033608060405234801561001057600080fd5b5060006100216100c460201b60201c565b9050806000806101000a81548173ffffffffffffffffffffffffffffffffffffffff021916908373ffffffffffffffffffffffffffffffffffffffff1602179055508073ffffffffffffffffffffffffffffffffffffffff16600073ffffffffffffffffffffffffffffffffffffffff167f8be0079c531659141344cd1fd0a4f28419497f9722a3daafe3b4186f6b6457e060405160405180910390a3506100cc565b600033905090565b610ba6806100db6000396000f3fe6080604052600436106100555760003560e01c8063715018a61461005a5780638da5cb5b14610071578063e3a9db1a146100b2578063f2fde38b14610117578063f340fa0114610168578063f3fef3a3146101ac575b600080fd5b34801561006657600080fd5b5061006f610207565b005b34801561007d57600080fd5b5061008661038d565b604051808273ffffffffffffffffffffffffffffffffffffffff16815260200191505060405180910390f35b3480156100be57600080fd5b50610101600480360360208110156100d557600080fd5b81019080803573ffffffffffffffffffffffffffffffffffffffff1690602001909291905050506103b6565b6040518082815260200191505060405180910390f35b34801561012357600080fd5b506101666004803603602081101561013a57600080fd5b81019080803573ffffffffffffffffffffffffffffffffffffffff1690602001909291905050506103ff565b005b6101aa6004803603602081101561017e57600080fd5b81019080803573ffffffffffffffffffffffffffffffffffffffff16906020019092919050505061060a565b005b3480156101b857600080fd5b50610205600480360360408110156101cf57600080fd5b81019080803573ffffffffffffffffffffffffffffffffffffffff169060200190929190803590602001909291905050506107be565b005b61020f610946565b73ffffffffffffffffffffffffffffffffffffffff1660008054906101000a900473ffffffffffffffffffffffffffffffffffffffff1673ffffffffffffffffffffffffffffffffffffffff16146102cf576040517f08c379a00000000000000000000000000000000000000000000000000000000081526004018080602001828103825260208152602001807f4f776e61626c653a2063616c6c6572206973206e6f7420746865206f776e657281525060200191505060405180910390fd5b600073ffffffffffffffffffffffffffffffffffffffff1660008054906101000a900473ffffffffffffffffffffffffffffffffffffffff1673ffffffffffffffffffffffffffffffffffffffff167f8be0079c531659141344cd1fd0a4f28419497f9722a3daafe3b4186f6b6457e060405160405180910390a360008060006101000a81548173ffffffffffffffffffffffffffffffffffffffff021916908373ffffffffffffffffffffffffffffffffffffffff160217905550565b60008060009054906101000a900473ffffffffffffffffffffffffffffffffffffffff16905090565b6000600160008373ffffffffffffffffffffffffffffffffffffffff1673ffffffffffffffffffffffffffffffffffffffff168152602001908152602001600020549050919050565b610407610946565b73ffffffffffffffffffffffffffffffffffffffff1660008054906101000a900473ffffffffffffffffffffffffffffffffffffffff1673ffffffffffffffffffffffffffffffffffffffff16146104c7576040517f08c379a00000000000000000000000000000000000000000000000000000000081526004018080602001828103825260208152602001807f4f776e61626c653a2063616c6c6572206973206e6f7420746865206f776e657281525060200191505060405180910390fd5b600073ffffffffffffffffffffffffffffffffffffffff168173ffffffffffffffffffffffffffffffffffffffff16141561054d576040517f08c379a0000000000000000000000000000000000000000000000000000000008152600401808060200182810382526026815260200180610b116026913960400191505060405180910390fd5b8073ffffffffffffffffffffffffffffffffffffffff1660008054906101000a900473ffffffffffffffffffffffffffffffffffffffff1673ffffffffffffffffffffffffffffffffffffffff167f8be0079c531659141344cd1fd0a4f28419497f9722a3daafe3b4186f6b6457e060405160405180910390a3806000806101000a81548173ffffffffffffffffffffffffffffffffffffffff021916908373ffffffffffffffffffffffffffffffffffffffff16021790555050565b610612610946565b73ffffffffffffffffffffffffffffffffffffffff1660008054906101000a900473ffffffffffffffffffffffffffffffffffffffff1673ffffffffffffffffffffffffffffffffffffffff16146106d2576040517f08c379a00000000000000000000000000000000000000000000000000000000081526004018080602001828103825260208152602001807f4f776e61626c653a2063616c6c6572206973206e6f7420746865206f776e657281525060200191505060405180910390fd5b600034905061072981600160008573ffffffffffffffffffffffffffffffffffffffff1673ffffffffffffffffffffffffffffffffffffffff1681526020019081526020016000205461094e90919063ffffffff16565b600160008473ffffffffffffffffffffffffffffffffffffffff1673ffffffffffffffffffffffffffffffffffffffff168152602001908152602001600020819055508173ffffffffffffffffffffffffffffffffffffffff167f2da466a7b24304f47e87fa2e1e5a81b9831ce54fec19055ce277ca2f39ba42c4826040518082815260200191505060405180910390a25050565b6107c6610946565b73ffffffffffffffffffffffffffffffffffffffff1660008054906101000a900473ffffffffffffffffffffffffffffffffffffffff1673ffffffffffffffffffffffffffffffffffffffff1614610886576040517f08c379a00000000000000000000000000000000000000000000000000000000081526004018080602001828103825260208152602001807f4f776e61626c653a2063616c6c6572206973206e6f7420746865206f776e657281525060200191505060405180910390fd5b6000600160008473ffffffffffffffffffffffffffffffffffffffff1673ffffffffffffffffffffffffffffffffffffffff168152602001908152602001600020819055506108f4818373ffffffffffffffffffffffffffffffffffffffff166109d690919063ffffffff16565b8173ffffffffffffffffffffffffffffffffffffffff167f7084f5476618d8e60b11ef0d7d3f06914655adb8793e28ff7f018d4c76d505d5826040518082815260200191505060405180910390a25050565b600033905090565b6000808284019050838110156109cc576040517f08c379a000000000000000000000000000000000000000000000000000000000815260040180806020018281038252601b8152602001807f536166654d6174683a206164646974696f6e206f766572666c6f77000000000081525060200191505060405180910390fd5b8091505092915050565b80471015610a4c576040517f08c379a000000000000000000000000000000000000000000000000000000000815260040180806020018281038252601d8152602001807f416464726573733a20696e73756666696369656e742062616c616e636500000081525060200191505060405180910390fd5b60008273ffffffffffffffffffffffffffffffffffffffff168260405180600001905060006040518083038185875af1925050503d8060008114610aac576040519150601f19603f3d011682016040523d82523d6000602084013e610ab1565b606091505b5050905080610b0b576040517f08c379a000000000000000000000000000000000000000000000000000000000815260040180806020018281038252603a815260200180610b37603a913960400191505060405180910390fd5b50505056fe4f776e61626c653a206e6577206f776e657220697320746865207a65726f2061646472657373416464726573733a20756e61626c6520746f2073656e642076616c75652c20726563697069656e74206d61792068617665207265766572746564a264697066735822122089773bcf60780cad822b494496bf28634cfb63f1203616abaaa69b0e28f43af264736f6c634300060c0033687474703a2f2f6c6f63616c686f73743a333030302f7075626c69632f23212f74726561737572655f63686573742f7b69647d2e6a736f6e",
  "immutableReferences": {},
  "source": "pragma solidity >=0.4.21 <0.7.0;\nimport \"./AngelToken.sol\";\n\ncontract AT_X is AngelToken {\n  constructor()\n   AngelToken()\n    public {}\n\n  function crowdfund_execution(address _owner, uint256 _id, bytes memory md) public returns(bool executed){\n    //fetch the current alm and change its status\n    Alms.Alm memory cur_alm ;//= AngelToken.map_id_to_Alm[_id]; can't get map_id_to_Alm to call\n    uint256 ca_num_to_issue;\n    string memory ca_mint_date;\n    uint256 ca_cost;\n    uint256 ca_angel_coefficient;\n    uint256 ca_status;\n    string memory ca_product;\n    //next line is the last known problem - 27 JAN 2021\n    (ca_num_to_issue, ca_mint_date, ca_cost, ca_angel_coefficient, ca_status, ca_product) = abi.decode(md,(uint256, string, uint256, uint256, uint256, string));\n    //change status on tokens to 'executed' & reencode\n    cur_alm.mint_data = abi.encode(ca_num_to_issue, ca_mint_date, ca_cost, ca_angel_coefficient, 2, ca_product);\n    map_id_to_Alm[_id] = cur_alm;\n    /* if(false){\n      // if last_rn_id != 0\n      Alm memory last_alm = map_id_to_Alm[last_rnd_id];\n        uint256 la_num_to_issue;\n         string memory la_mint_date;\n          uint256 la_cost;\n           uint256 la_angel_coefficient;\n            uint256 la_status;\n             string memory la_product;\n      (la_num_to_issue, la_mint_date, la_cost, la_angel_coefficient, la_status, la_product) = abi.decode(last_alm.mint_data,(uint256, string, uint256, uint256, uint256, string));\n      //Load tokens with payout from this round\n      uint256 total_fund = la_cost * la_num_to_issue;\n      uint256 expenses = 5500;// estimated expenses to import, produce, and ship product\n      uint256 _total_angels_share = total_fund - expenses;\n      for(uint256 i=1; i<=CafLaM_angels_list.length; i++) {\n        address payable angel = CafLaM_angels_list[i];\n        uint256 angels_bal = balanceOf(angel, last_rnd_id);\n        uint256 payout_amt = _total_angels_share / (angels_bal * la_angel_coefficient);\n      //  withdrawPayments(angel, payout_amt);\n      }\n      uint256 RoasterShare = _total_angels_share / (la_num_to_issue * la_angel_coefficient);\n      //withdrawPayments(cur_alm.owner, RoasterShare);\n      //change status on tokens to 'PAID' & reencode\n      last_alm.mint_data = abi.encode(la_num_to_issue, la_mint_date, la_cost, la_angel_coefficient, 4, la_product);\n      map_id_to_Alm[last_rnd_id] = last_alm;\n    }else{\n      //seed round\n      uint256 RoasterShare = ca_cost * ca_num_to_issue;\n      //withdrawPayments(cur_alm.owner, RoasterShare);\n    } */\n    //last_rnd_id = _id;\n    executed = true;\n  }\n  function change_status_s(uint256 _id) public payable{\n    /* fetch the current alm */\n    Alms.Alm memory alm =  map_id_to_Alm[_id];\n    require(msg.sender == alm.owner, \"Err: Must own token to change status\");\n      uint256 alm_num_to_issue;\n       string memory alm_mint_date;\n        uint256 alm_cost;\n         uint256 alm_angel_coefficient;\n          uint256 alm_status;\n           string memory alm_product;\n    (alm_num_to_issue, alm_mint_date, alm_cost, alm_angel_coefficient, alm_status, alm_product) = abi.decode(alm.mint_data,(uint256, string, uint256, uint256, uint256, string));\n    /* change status on tokens to 'executed' & reencode */\n    alm.mint_data = abi.encode(alm_num_to_issue, alm_mint_date, alm_cost, alm_angel_coefficient, 3, alm_product);\n    map_id_to_Alm[_id] = alm;\n  }\n\n}\n",
  "sourcePath": "/Volumes/ETH/AngelTokens/contracts/AT_X.sol",
  "compiler": {
    "name": "solc",
    "version": "0.6.12+commit.27d51765.Emscripten.clang"
  },
  "schemaVersion": "3.3.2",
  "updatedAt": "2021-02-02T22:11:24.949Z",
  "networkType": "ethereum",
  "devdoc": {
    "kind": "dev",
    "methods": {
      "_asyncTransfer(address,uint256)": {
        "details": "Called by the payer to store the sent amount as credit to be pulled. Funds sent in this way are stored in an intermediate {Escrow} contract, so there is no danger of them being spent before withdrawal.",
        "params": {
          "amount": "The amount to transfer.",
          "dest": "The destination address of the funds."
        }
      },
      "balanceOf(address,uint256)": {
        "details": "See {IERC1155-balanceOf}. Requirements: - `account` cannot be the zero address."
      },
      "balanceOfBatch(address[],uint256[])": {
        "details": "See {IERC1155-balanceOfBatch}. Requirements: - `accounts` and `ids` must have the same length."
      },
      "isApprovedForAll(address,address)": {
        "details": "See {IERC1155-isApprovedForAll}."
      },
      "owner()": {
        "details": "Returns the address of the current owner."
      },
      "payments(address)": {
        "details": "Returns the payments owed to an address.",
        "params": {
          "dest": "The creditor's address."
        }
      },
      "renounceOwnership()": {
        "details": "Leaves the contract without owner. It will not be possible to call `onlyOwner` functions anymore. Can only be called by the current owner. NOTE: Renouncing ownership will leave the contract without an owner, thereby removing any functionality that is only available to the owner."
      },
      "safeBatchTransferFrom(address,address,uint256[],uint256[],bytes)": {
        "details": "See {IERC1155-safeBatchTransferFrom}."
      },
      "safeTransferFrom(address,address,uint256,uint256,bytes)": {
        "details": "See {IERC1155-safeTransferFrom}."
      },
      "setApprovalForAll(address,bool)": {
        "details": "See {IERC1155-setApprovalForAll}."
      },
      "supportsInterface(bytes4)": {
        "details": "See {IERC165-supportsInterface}. Time complexity O(1), guaranteed to always use less than 30 000 gas."
      },
      "transferOwnership(address)": {
        "details": "Transfers ownership of the contract to a new account (`newOwner`). Can only be called by the current owner."
      },
      "uri(uint256)": {
        "details": "See {IERC1155MetadataURI-uri}. This implementation returns the same URI for *all* token types. It relies on the token type ID substitution mechanism https://eips.ethereum.org/EIPS/eip-1155#metadata[defined in the EIP]. Clients calling this function must replace the `\\{id\\}` substring with the actual token type ID."
      },
      "withdrawPayments(address,uint256)": {
        "details": "Withdraw accumulated payments, forwarding all gas to the recipient. Note that _any_ account can call this function, not just the `payee`. This means that contracts unaware of the `PullPayment` protocol can still receive funds this way, by having a separate account call {withdrawPayments}. WARNING: Forwarding all gas opens the door to reentrancy vulnerabilities. Make sure you trust the recipient, or are either following the checks-effects-interactions pattern or using {ReentrancyGuard}.",
        "params": {
          "payee": "Whose payments will be withdrawn."
        }
      }
    },
    "version": 1
  },
  "userdoc": {
    "kind": "user",
    "methods": {},
    "version": 1
  }
}