{
  "contractName": "AT_X",
  "abi": [
    {
      "inputs": [],
      "stateMutability": "nonpayable",
      "type": "constructor"
    },
    {
      "anonymous": false,
      "inputs": [
        {
          "indexed": true,
          "internalType": "address",
          "name": "account",
          "type": "address"
        },
        {
          "indexed": true,
          "internalType": "address",
          "name": "operator",
          "type": "address"
        },
        {
          "indexed": false,
          "internalType": "bool",
          "name": "approved",
          "type": "bool"
        }
      ],
      "name": "ApprovalForAll",
      "type": "event"
    },
    {
      "anonymous": false,
      "inputs": [
        {
          "indexed": false,
          "internalType": "address",
          "name": "owner",
          "type": "address"
        },
        {
          "indexed": false,
          "internalType": "bytes",
          "name": "_uri",
          "type": "bytes"
        },
        {
          "indexed": false,
          "internalType": "string",
          "name": "_ename",
          "type": "string"
        },
        {
          "indexed": false,
          "internalType": "string",
          "name": "_esym",
          "type": "string"
        },
        {
          "indexed": false,
          "internalType": "uint256",
          "name": "_id",
          "type": "uint256"
        },
        {
          "indexed": false,
          "internalType": "bytes",
          "name": "mint_data",
          "type": "bytes"
        }
      ],
      "name": "ManifestedAngelToken",
      "type": "event"
    },
    {
      "anonymous": false,
      "inputs": [
        {
          "indexed": true,
          "internalType": "address",
          "name": "previousOwner",
          "type": "address"
        },
        {
          "indexed": true,
          "internalType": "address",
          "name": "newOwner",
          "type": "address"
        }
      ],
      "name": "OwnershipTransferred",
      "type": "event"
    },
    {
      "anonymous": false,
      "inputs": [
        {
          "indexed": true,
          "internalType": "address",
          "name": "operator",
          "type": "address"
        },
        {
          "indexed": true,
          "internalType": "address",
          "name": "from",
          "type": "address"
        },
        {
          "indexed": true,
          "internalType": "address",
          "name": "to",
          "type": "address"
        },
        {
          "indexed": false,
          "internalType": "uint256[]",
          "name": "ids",
          "type": "uint256[]"
        },
        {
          "indexed": false,
          "internalType": "uint256[]",
          "name": "values",
          "type": "uint256[]"
        }
      ],
      "name": "TransferBatch",
      "type": "event"
    },
    {
      "anonymous": false,
      "inputs": [
        {
          "indexed": true,
          "internalType": "address",
          "name": "operator",
          "type": "address"
        },
        {
          "indexed": true,
          "internalType": "address",
          "name": "from",
          "type": "address"
        },
        {
          "indexed": true,
          "internalType": "address",
          "name": "to",
          "type": "address"
        },
        {
          "indexed": false,
          "internalType": "uint256",
          "name": "id",
          "type": "uint256"
        },
        {
          "indexed": false,
          "internalType": "uint256",
          "name": "value",
          "type": "uint256"
        }
      ],
      "name": "TransferSingle",
      "type": "event"
    },
    {
      "anonymous": false,
      "inputs": [
        {
          "indexed": false,
          "internalType": "string",
          "name": "value",
          "type": "string"
        },
        {
          "indexed": true,
          "internalType": "uint256",
          "name": "id",
          "type": "uint256"
        }
      ],
      "name": "URI",
      "type": "event"
    },
    {
      "inputs": [
        {
          "internalType": "uint256",
          "name": "",
          "type": "uint256"
        }
      ],
      "name": "Angel_List",
      "outputs": [
        {
          "internalType": "address",
          "name": "",
          "type": "address"
        }
      ],
      "stateMutability": "view",
      "type": "function",
      "constant": true
    },
    {
      "inputs": [
        {
          "internalType": "uint256",
          "name": "",
          "type": "uint256"
        },
        {
          "internalType": "address",
          "name": "",
          "type": "address"
        }
      ],
      "name": "Angel_Map",
      "outputs": [
        {
          "internalType": "uint256",
          "name": "",
          "type": "uint256"
        }
      ],
      "stateMutability": "view",
      "type": "function",
      "constant": true
    },
    {
      "inputs": [],
      "name": "OA",
      "outputs": [
        {
          "internalType": "address",
          "name": "",
          "type": "address"
        }
      ],
      "stateMutability": "view",
      "type": "function",
      "constant": true
    },
    {
      "inputs": [
        {
          "internalType": "uint256",
          "name": "",
          "type": "uint256"
        }
      ],
      "name": "alms",
      "outputs": [
        {
          "internalType": "address payable",
          "name": "owner",
          "type": "address"
        },
        {
          "internalType": "bytes",
          "name": "uri",
          "type": "bytes"
        },
        {
          "internalType": "string",
          "name": "name",
          "type": "string"
        },
        {
          "internalType": "string",
          "name": "sym",
          "type": "string"
        },
        {
          "internalType": "uint256",
          "name": "id",
          "type": "uint256"
        },
        {
          "internalType": "bytes",
          "name": "mint_data",
          "type": "bytes"
        }
      ],
      "stateMutability": "view",
      "type": "function",
      "constant": true
    },
    {
      "inputs": [
        {
          "internalType": "address",
          "name": "account",
          "type": "address"
        },
        {
          "internalType": "uint256",
          "name": "id",
          "type": "uint256"
        }
      ],
      "name": "balanceOf",
      "outputs": [
        {
          "internalType": "uint256",
          "name": "",
          "type": "uint256"
        }
      ],
      "stateMutability": "view",
      "type": "function",
      "constant": true
    },
    {
      "inputs": [
        {
          "internalType": "address[]",
          "name": "accounts",
          "type": "address[]"
        },
        {
          "internalType": "uint256[]",
          "name": "ids",
          "type": "uint256[]"
        }
      ],
      "name": "balanceOfBatch",
      "outputs": [
        {
          "internalType": "uint256[]",
          "name": "",
          "type": "uint256[]"
        }
      ],
      "stateMutability": "view",
      "type": "function",
      "constant": true
    },
    {
      "inputs": [
        {
          "internalType": "address",
          "name": "_owner",
          "type": "address"
        },
        {
          "internalType": "address",
          "name": "_buyer",
          "type": "address"
        },
        {
          "internalType": "uint256",
          "name": "_id",
          "type": "uint256"
        },
        {
          "internalType": "uint256",
          "name": "_amount",
          "type": "uint256"
        },
        {
          "internalType": "bytes",
          "name": "_data",
          "type": "bytes"
        },
        {
          "internalType": "uint256",
          "name": "cost",
          "type": "uint256"
        }
      ],
      "name": "buyAlms",
      "outputs": [],
      "stateMutability": "nonpayable",
      "type": "function"
    },
    {
      "inputs": [],
      "name": "getAlmsLength",
      "outputs": [
        {
          "internalType": "uint256",
          "name": "",
          "type": "uint256"
        }
      ],
      "stateMutability": "view",
      "type": "function",
      "constant": true
    },
    {
      "inputs": [
        {
          "internalType": "address",
          "name": "account",
          "type": "address"
        },
        {
          "internalType": "address",
          "name": "operator",
          "type": "address"
        }
      ],
      "name": "isApprovedForAll",
      "outputs": [
        {
          "internalType": "bool",
          "name": "",
          "type": "bool"
        }
      ],
      "stateMutability": "view",
      "type": "function",
      "constant": true
    },
    {
      "inputs": [
        {
          "internalType": "uint256",
          "name": "",
          "type": "uint256"
        }
      ],
      "name": "is_on_manifest",
      "outputs": [
        {
          "internalType": "bool",
          "name": "",
          "type": "bool"
        }
      ],
      "stateMutability": "view",
      "type": "function",
      "constant": true
    },
    {
      "inputs": [],
      "name": "last_rnd_id",
      "outputs": [
        {
          "internalType": "uint256",
          "name": "",
          "type": "uint256"
        }
      ],
      "stateMutability": "view",
      "type": "function",
      "constant": true
    },
    {
      "inputs": [
        {
          "internalType": "uint256",
          "name": "",
          "type": "uint256"
        },
        {
          "internalType": "address",
          "name": "",
          "type": "address"
        }
      ],
      "name": "map_angel_to_payout",
      "outputs": [
        {
          "internalType": "uint256",
          "name": "",
          "type": "uint256"
        }
      ],
      "stateMutability": "view",
      "type": "function",
      "constant": true
    },
    {
      "inputs": [
        {
          "internalType": "uint256",
          "name": "",
          "type": "uint256"
        }
      ],
      "name": "map_id_to_Alm",
      "outputs": [
        {
          "internalType": "address payable",
          "name": "owner",
          "type": "address"
        },
        {
          "internalType": "bytes",
          "name": "uri",
          "type": "bytes"
        },
        {
          "internalType": "string",
          "name": "name",
          "type": "string"
        },
        {
          "internalType": "string",
          "name": "sym",
          "type": "string"
        },
        {
          "internalType": "uint256",
          "name": "id",
          "type": "uint256"
        },
        {
          "internalType": "bytes",
          "name": "mint_data",
          "type": "bytes"
        }
      ],
      "stateMutability": "view",
      "type": "function",
      "constant": true
    },
    {
      "inputs": [
        {
          "internalType": "address",
          "name": "",
          "type": "address"
        }
      ],
      "name": "map_owner_to_id",
      "outputs": [
        {
          "internalType": "uint256",
          "name": "",
          "type": "uint256"
        }
      ],
      "stateMutability": "view",
      "type": "function",
      "constant": true
    },
    {
      "inputs": [],
      "name": "owner",
      "outputs": [
        {
          "internalType": "address",
          "name": "",
          "type": "address"
        }
      ],
      "stateMutability": "view",
      "type": "function",
      "constant": true
    },
    {
      "inputs": [],
      "name": "renounceOwnership",
      "outputs": [],
      "stateMutability": "nonpayable",
      "type": "function"
    },
    {
      "inputs": [
        {
          "internalType": "address",
          "name": "from",
          "type": "address"
        },
        {
          "internalType": "address",
          "name": "to",
          "type": "address"
        },
        {
          "internalType": "uint256[]",
          "name": "ids",
          "type": "uint256[]"
        },
        {
          "internalType": "uint256[]",
          "name": "amounts",
          "type": "uint256[]"
        },
        {
          "internalType": "bytes",
          "name": "data",
          "type": "bytes"
        }
      ],
      "name": "safeBatchTransferFrom",
      "outputs": [],
      "stateMutability": "nonpayable",
      "type": "function"
    },
    {
      "inputs": [
        {
          "internalType": "address",
          "name": "from",
          "type": "address"
        },
        {
          "internalType": "address",
          "name": "to",
          "type": "address"
        },
        {
          "internalType": "uint256",
          "name": "id",
          "type": "uint256"
        },
        {
          "internalType": "uint256",
          "name": "amount",
          "type": "uint256"
        },
        {
          "internalType": "bytes",
          "name": "data",
          "type": "bytes"
        }
      ],
      "name": "safeTransferFrom",
      "outputs": [],
      "stateMutability": "nonpayable",
      "type": "function"
    },
    {
      "inputs": [
        {
          "internalType": "address",
          "name": "operator",
          "type": "address"
        },
        {
          "internalType": "bool",
          "name": "approved",
          "type": "bool"
        }
      ],
      "name": "setApprovalForAll",
      "outputs": [],
      "stateMutability": "nonpayable",
      "type": "function"
    },
    {
      "inputs": [
        {
          "internalType": "bytes4",
          "name": "interfaceId",
          "type": "bytes4"
        }
      ],
      "name": "supportsInterface",
      "outputs": [
        {
          "internalType": "bool",
          "name": "",
          "type": "bool"
        }
      ],
      "stateMutability": "view",
      "type": "function",
      "constant": true
    },
    {
      "inputs": [
        {
          "internalType": "string",
          "name": "_ename",
          "type": "string"
        },
        {
          "internalType": "string",
          "name": "_esym",
          "type": "string"
        },
        {
          "internalType": "uint256",
          "name": "_num_to_issue",
          "type": "uint256"
        },
        {
          "internalType": "string",
          "name": "_mint_date",
          "type": "string"
        },
        {
          "internalType": "uint256",
          "name": "_cost",
          "type": "uint256"
        },
        {
          "internalType": "uint256",
          "name": "_angel_coefficient",
          "type": "uint256"
        },
        {
          "internalType": "string",
          "name": "_product",
          "type": "string"
        }
      ],
      "name": "tokenGenesis",
      "outputs": [],
      "stateMutability": "nonpayable",
      "type": "function"
    },
    {
      "inputs": [
        {
          "internalType": "address",
          "name": "newOwner",
          "type": "address"
        }
      ],
      "name": "transferOwnership",
      "outputs": [],
      "stateMutability": "nonpayable",
      "type": "function"
    },
    {
      "inputs": [
        {
          "internalType": "uint256",
          "name": "",
          "type": "uint256"
        }
      ],
      "name": "uri",
      "outputs": [
        {
          "internalType": "string",
          "name": "",
          "type": "string"
        }
      ],
      "stateMutability": "view",
      "type": "function",
      "constant": true
    },
    {
      "inputs": [
        {
          "internalType": "address",
          "name": "_owner",
          "type": "address"
        },
        {
          "internalType": "uint256",
          "name": "_id",
          "type": "uint256"
        }
      ],
      "name": "crowdfund_execution",
      "outputs": [
        {
          "internalType": "bool",
          "name": "executed",
          "type": "bool"
        }
      ],
      "stateMutability": "nonpayable",
      "type": "function"
    },
    {
      "inputs": [
        {
          "internalType": "uint256",
          "name": "_id",
          "type": "uint256"
        }
      ],
      "name": "change_status_s",
      "outputs": [],
      "stateMutability": "nonpayable",
      "type": "function"
    }
  ],
  "bytecode": "0x608060405233600860006101000a81548173ffffffffffffffffffffffffffffffffffffffff021916908373ffffffffffffffffffffffffffffffffffffffff1602179055506000600c553480156200005757600080fd5b5060405180606001604052806038815260200162005f2f603891396200008a6301ffc9a760e01b6200018360201b60201c565b6200009b816200028c60201b60201c565b620000b363d9b67a2660e01b6200018360201b60201c565b620000cb630e89341c60e01b6200018360201b60201c565b506000620000de620002a860201b60201c565b905080600460006101000a81548173ffffffffffffffffffffffffffffffffffffffff021916908373ffffffffffffffffffffffffffffffffffffffff1602179055508073ffffffffffffffffffffffffffffffffffffffff16600073ffffffffffffffffffffffffffffffffffffffff167f8be0079c531659141344cd1fd0a4f28419497f9722a3daafe3b4186f6b6457e060405160405180910390a35062000356565b63ffffffff60e01b817bffffffffffffffffffffffffffffffffffffffffffffffffffffffff1916141562000220576040517f08c379a000000000000000000000000000000000000000000000000000000000815260040180806020018281038252601c8152602001807f4552433136353a20696e76616c696420696e746572666163652069640000000081525060200191505060405180910390fd5b6001600080837bffffffffffffffffffffffffffffffffffffffffffffffffffffffff19167bffffffffffffffffffffffffffffffffffffffffffffffffffffffff1916815260200190815260200160002060006101000a81548160ff02191690831515021790555050565b8060039080519060200190620002a4929190620002b0565b5050565b600033905090565b828054600181600116156101000203166002900490600052602060002090601f016020900481019282601f10620002f357805160ff191683800117855562000324565b8280016001018555821562000324579182015b828111156200032357825182559160200191906001019062000306565b5b50905062000333919062000337565b5090565b5b808211156200035257600081600090555060010162000338565b5090565b615bc980620003666000396000f3fe608060405234801561001057600080fd5b50600436106101725760003560e01c80635d91889a116100de578063a2fe5f6f11610097578063d2a55e3311610071578063d2a55e3314610fb5578063e985e9c5146111c4578063f242432a1461123e578063f2fde38b1461134d57610172565b8063a2fe5f6f14610c59578063bb0c15cf14610e68578063caae5f9414610f8157610172565b80635d91889a146108e1578063715018a6146108ff57806376cdf224146109095780638b5f406614610ba75780638da5cb5b14610bd5578063a22cb46514610c0957610172565b806331d9d60d1161013057806331d9d60d1461057c5780634b8ae8cd146105e05780634e1273f4146106245780634ed70f64146107c5578063590743e514610827578063592048851461087f57610172565b8062fdd58e1461017757806301ffc9a7146101d95780630e89341c1461023c5780631e5be179146102e35780632088b2d81461033b5780632eb2c2d614610359575b600080fd5b6101c36004803603604081101561018d57600080fd5b81019080803573ffffffffffffffffffffffffffffffffffffffff16906020019092919080359060200190929190505050611391565b6040518082815260200191505060405180910390f35b610224600480360360208110156101ef57600080fd5b8101908080357bffffffffffffffffffffffffffffffffffffffffffffffffffffffff19169060200190929190505050611471565b60405180821515815260200191505060405180910390f35b6102686004803603602081101561025257600080fd5b81019080803590602001909291905050506114d8565b6040518080602001828103825283818151815260200191508051906020019080838360005b838110156102a857808201518184015260208101905061028d565b50505050905090810190601f1680156102d55780820380516001836020036101000a031916815260200191505b509250505060405180910390f35b61030f600480360360208110156102f957600080fd5b810190808035906020019092919050505061157c565b604051808273ffffffffffffffffffffffffffffffffffffffff16815260200191505060405180910390f35b6103436115b8565b6040518082815260200191505060405180910390f35b61057a600480360360a081101561036f57600080fd5b81019080803573ffffffffffffffffffffffffffffffffffffffff169060200190929190803573ffffffffffffffffffffffffffffffffffffffff169060200190929190803590602001906401000000008111156103cc57600080fd5b8201836020820111156103de57600080fd5b8035906020019184602083028401116401000000008311171561040057600080fd5b919080806020026020016040519081016040528093929190818152602001838360200280828437600081840152601f19601f8201169050808301925050505050505091929192908035906020019064010000000081111561046057600080fd5b82018360208201111561047257600080fd5b8035906020019184602083028401116401000000008311171561049457600080fd5b919080806020026020016040519081016040528093929190818152602001838360200280828437600081840152601f19601f820116905080830192505050505050509192919290803590602001906401000000008111156104f457600080fd5b82018360208201111561050657600080fd5b8035906020019184600183028401116401000000008311171561052857600080fd5b91908080601f016020809104026020016040519081016040528093929190818152602001838380828437600081840152601f19601f8201169050808301925050505050505091929192905050506115be565b005b6105c86004803603604081101561059257600080fd5b81019080803573ffffffffffffffffffffffffffffffffffffffff16906020019092919080359060200190929190505050611a49565b60405180821515815260200191505060405180910390f35b61060c600480360360208110156105f657600080fd5b8101908080359060200190929190505050612ad3565b60405180821515815260200191505060405180910390f35b61076e6004803603604081101561063a57600080fd5b810190808035906020019064010000000081111561065757600080fd5b82018360208201111561066957600080fd5b8035906020019184602083028401116401000000008311171561068b57600080fd5b919080806020026020016040519081016040528093929190818152602001838360200280828437600081840152601f19601f820116905080830192505050505050509192919290803590602001906401000000008111156106eb57600080fd5b8201836020820111156106fd57600080fd5b8035906020019184602083028401116401000000008311171561071f57600080fd5b919080806020026020016040519081016040528093929190818152602001838360200280828437600081840152601f19601f820116905080830192505050505050509192919290505050612af3565b6040518080602001828103825283818151815260200191508051906020019060200280838360005b838110156107b1578082015181840152602081019050610796565b505050509050019250505060405180910390f35b610811600480360360408110156107db57600080fd5b8101908080359060200190929190803573ffffffffffffffffffffffffffffffffffffffff169060200190929190505050612ce5565b6040518082815260200191505060405180910390f35b6108696004803603602081101561083d57600080fd5b81019080803573ffffffffffffffffffffffffffffffffffffffff169060200190929190505050612d0a565b6040518082815260200191505060405180910390f35b6108cb6004803603604081101561089557600080fd5b8101908080359060200190929190803573ffffffffffffffffffffffffffffffffffffffff169060200190929190505050612d22565b6040518082815260200191505060405180910390f35b6108e9612d47565b6040518082815260200191505060405180910390f35b610907612d54565b005b610ba5600480360360e081101561091f57600080fd5b810190808035906020019064010000000081111561093c57600080fd5b82018360208201111561094e57600080fd5b8035906020019184600183028401116401000000008311171561097057600080fd5b91908080601f016020809104026020016040519081016040528093929190818152602001838380828437600081840152601f19601f820116905080830192505050505050509192919290803590602001906401000000008111156109d357600080fd5b8201836020820111156109e557600080fd5b80359060200191846001830284011164010000000083111715610a0757600080fd5b91908080601f016020809104026020016040519081016040528093929190818152602001838380828437600081840152601f19601f8201169050808301925050505050505091929192908035906020019092919080359060200190640100000000811115610a7457600080fd5b820183602082011115610a8657600080fd5b80359060200191846001830284011164010000000083111715610aa857600080fd5b91908080601f016020809104026020016040519081016040528093929190818152602001838380828437600081840152601f19601f820116905080830192505050505050509192919290803590602001909291908035906020019092919080359060200190640100000000811115610b1f57600080fd5b820183602082011115610b3157600080fd5b80359060200191846001830284011164010000000083111715610b5357600080fd5b91908080601f016020809104026020016040519081016040528093929190818152602001838380828437600081840152601f19601f820116905080830192505050505050509192919290505050612edf565b005b610bd360048036036020811015610bbd57600080fd5b8101908080359060200190929190505050613667565b005b610bdd613dd6565b604051808273ffffffffffffffffffffffffffffffffffffffff16815260200191505060405180910390f35b610c5760048036036040811015610c1f57600080fd5b81019080803573ffffffffffffffffffffffffffffffffffffffff169060200190929190803515159060200190929190505050613e00565b005b610c8560048036036020811015610c6f57600080fd5b8101908080359060200190929190505050613f99565b604051808773ffffffffffffffffffffffffffffffffffffffff1681526020018060200180602001806020018681526020018060200185810385528a818151815260200191508051906020019080838360005b83811015610cf3578082015181840152602081019050610cd8565b50505050905090810190601f168015610d205780820380516001836020036101000a031916815260200191505b50858103845289818151815260200191508051906020019080838360005b83811015610d59578082015181840152602081019050610d3e565b50505050905090810190601f168015610d865780820380516001836020036101000a031916815260200191505b50858103835288818151815260200191508051906020019080838360005b83811015610dbf578082015181840152602081019050610da4565b50505050905090810190601f168015610dec5780820380516001836020036101000a031916815260200191505b50858103825286818151815260200191508051906020019080838360005b83811015610e25578082015181840152602081019050610e0a565b50505050905090810190601f168015610e525780820380516001836020036101000a031916815260200191505b509a505050505050505050505060405180910390f35b610f7f600480360360c0811015610e7e57600080fd5b81019080803573ffffffffffffffffffffffffffffffffffffffff169060200190929190803573ffffffffffffffffffffffffffffffffffffffff169060200190929190803590602001909291908035906020019092919080359060200190640100000000811115610eef57600080fd5b820183602082011115610f0157600080fd5b80359060200191846001830284011164010000000083111715610f2357600080fd5b91908080601f016020809104026020016040519081016040528093929190818152602001838380828437600081840152601f19601f82011690508083019250505050505050919291929080359060200190929190505050614255565b005b610f8961438d565b604051808273ffffffffffffffffffffffffffffffffffffffff16815260200191505060405180910390f35b610fe160048036036020811015610fcb57600080fd5b81019080803590602001909291905050506143b3565b604051808773ffffffffffffffffffffffffffffffffffffffff1681526020018060200180602001806020018681526020018060200185810385528a818151815260200191508051906020019080838360005b8381101561104f578082015181840152602081019050611034565b50505050905090810190601f16801561107c5780820380516001836020036101000a031916815260200191505b50858103845289818151815260200191508051906020019080838360005b838110156110b557808201518184015260208101905061109a565b50505050905090810190601f1680156110e25780820380516001836020036101000a031916815260200191505b50858103835288818151815260200191508051906020019080838360005b8381101561111b578082015181840152602081019050611100565b50505050905090810190601f1680156111485780820380516001836020036101000a031916815260200191505b50858103825286818151815260200191508051906020019080838360005b83811015611181578082015181840152602081019050611166565b50505050905090810190601f1680156111ae5780820380516001836020036101000a031916815260200191505b509a505050505050505050505060405180910390f35b611226600480360360408110156111da57600080fd5b81019080803573ffffffffffffffffffffffffffffffffffffffff169060200190929190803573ffffffffffffffffffffffffffffffffffffffff16906020019092919050505061467c565b60405180821515815260200191505060405180910390f35b61134b600480360360a081101561125457600080fd5b81019080803573ffffffffffffffffffffffffffffffffffffffff169060200190929190803573ffffffffffffffffffffffffffffffffffffffff1690602001909291908035906020019092919080359060200190929190803590602001906401000000008111156112c557600080fd5b8201836020820111156112d757600080fd5b803590602001918460018302840111640100000000831117156112f957600080fd5b91908080601f016020809104026020016040519081016040528093929190818152602001838380828437600081840152601f19601f820116905080830192505050505050509192919290505050614710565b005b61138f6004803603602081101561136357600080fd5b81019080803573ffffffffffffffffffffffffffffffffffffffff169060200190929190505050614a84565b005b60008073ffffffffffffffffffffffffffffffffffffffff168373ffffffffffffffffffffffffffffffffffffffff161415611418576040517f08c379a000000000000000000000000000000000000000000000000000000000815260040180806020018281038252602b8152602001806159a8602b913960400191505060405180910390fd5b6001600083815260200190815260200160002060008473ffffffffffffffffffffffffffffffffffffffff1673ffffffffffffffffffffffffffffffffffffffff16815260200190815260200160002054905092915050565b6000806000837bffffffffffffffffffffffffffffffffffffffffffffffffffffffff19167bffffffffffffffffffffffffffffffffffffffffffffffffffffffff1916815260200190815260200160002060009054906101000a900460ff169050919050565b606060038054600181600116156101000203166002900480601f0160208091040260200160405190810160405280929190818152602001828054600181600116156101000203166002900480156115705780601f1061154557610100808354040283529160200191611570565b820191906000526020600020905b81548152906001019060200180831161155357829003601f168201915b50505050509050919050565b600a818154811061158957fe5b906000526020600020016000915054906101000a900473ffffffffffffffffffffffffffffffffffffffff1681565b600c5481565b8151835114611618576040517f08c379a0000000000000000000000000000000000000000000000000000000008152600401808060200182810382526028815260200180615b4b6028913960400191505060405180910390fd5b600073ffffffffffffffffffffffffffffffffffffffff168473ffffffffffffffffffffffffffffffffffffffff16141561169e576040517f08c379a0000000000000000000000000000000000000000000000000000000008152600401808060200182810382526025815260200180615a4e6025913960400191505060405180910390fd5b6116a6614c94565b73ffffffffffffffffffffffffffffffffffffffff168573ffffffffffffffffffffffffffffffffffffffff1614806116ec57506116eb856116e6614c94565b61467c565b5b611741576040517f08c379a0000000000000000000000000000000000000000000000000000000008152600401808060200182810382526032815260200180615a736032913960400191505060405180910390fd5b600061174b614c94565b905061175b818787878787614c9c565b60005b845181101561192c57600085828151811061177557fe5b60200260200101519050600085838151811061178d57fe5b60200260200101519050611814816040518060600160405280602a8152602001615aa5602a91396001600086815260200190815260200160002060008d73ffffffffffffffffffffffffffffffffffffffff1673ffffffffffffffffffffffffffffffffffffffff16815260200190815260200160002054614ca49092919063ffffffff16565b6001600084815260200190815260200160002060008b73ffffffffffffffffffffffffffffffffffffffff1673ffffffffffffffffffffffffffffffffffffffff168152602001908152602001600020819055506118cb816001600085815260200190815260200160002060008b73ffffffffffffffffffffffffffffffffffffffff1673ffffffffffffffffffffffffffffffffffffffff16815260200190815260200160002054614d6490919063ffffffff16565b6001600084815260200190815260200160002060008a73ffffffffffffffffffffffffffffffffffffffff1673ffffffffffffffffffffffffffffffffffffffff16815260200190815260200160002081905550505080600101905061175e565b508473ffffffffffffffffffffffffffffffffffffffff168673ffffffffffffffffffffffffffffffffffffffff168273ffffffffffffffffffffffffffffffffffffffff167f4a39dc06d4c0dbc64b70af90fd698a233a518aa5d07e595d983b8c0526c8f7fb8787604051808060200180602001838103835285818151815260200191508051906020019060200280838360005b838110156119dc5780820151818401526020810190506119c1565b50505050905001838103825284818151815260200191508051906020019060200280838360005b83811015611a1e578082015181840152602081019050611a03565b5050505090500194505050505060405180910390a4611a41818787878787614dec565b505050505050565b6000611a5361570e565b600760008481526020019081526020016000206040518060c00160405290816000820160009054906101000a900473ffffffffffffffffffffffffffffffffffffffff1673ffffffffffffffffffffffffffffffffffffffff1673ffffffffffffffffffffffffffffffffffffffff168152602001600182018054600181600116156101000203166002900480601f016020809104026020016040519081016040528092919081815260200182805460018160011615610100020316600290048015611b605780601f10611b3557610100808354040283529160200191611b60565b820191906000526020600020905b815481529060010190602001808311611b4357829003601f168201915b50505050508152602001600282018054600181600116156101000203166002900480601f016020809104026020016040519081016040528092919081815260200182805460018160011615610100020316600290048015611c025780601f10611bd757610100808354040283529160200191611c02565b820191906000526020600020905b815481529060010190602001808311611be557829003601f168201915b50505050508152602001600382018054600181600116156101000203166002900480601f016020809104026020016040519081016040528092919081815260200182805460018160011615610100020316600290048015611ca45780601f10611c7957610100808354040283529160200191611ca4565b820191906000526020600020905b815481529060010190602001808311611c8757829003601f168201915b5050505050815260200160048201548152602001600582018054600181600116156101000203166002900480601f016020809104026020016040519081016040528092919081815260200182805460018160011615610100020316600290048015611d505780601f10611d2557610100808354040283529160200191611d50565b820191906000526020600020905b815481529060010190602001808311611d3357829003601f168201915b50505050508152505090508060a0015180602001905160c0811015611d7457600080fd5b810190808051906020019092919080516040519392919084640100000000821115611d9e57600080fd5b83820191506020820185811115611db457600080fd5b8251866001820283011164010000000082111715611dd157600080fd5b8083526020830192505050908051906020019080838360005b83811015611e05578082015181840152602081019050611dea565b50505050905090810190601f168015611e325780820380516001836020036101000a031916815260200191505b5060405260200180519060200190929190805190602001909291908051906020019092919080516040519392919084640100000000821115611e7357600080fd5b83820191506020820185811115611e8957600080fd5b8251866001820283011164010000000082111715611ea657600080fd5b8083526020830192505050908051906020019080838360005b83811015611eda578082015181840152602081019050611ebf565b50505050905090810190601f168015611f075780820380516001836020036101000a031916815260200191505b50604052505050600d6000600e6000600f60006010600060116000601260008c9190509080519060200190611f3d92919061575a565b508b919050558a919050558991905055889190509080519060200190611f6492919061575a565b508791905055505050505050600d54600e600f54601054600260126040516020018087815260200180602001868152602001858152602001848152602001806020018381038352888181546001816001161561010002031660029004815260200191508054600181600116156101000203166002900480156120275780601f10611ffc57610100808354040283529160200191612027565b820191906000526020600020905b81548152906001019060200180831161200a57829003601f168201915b50508381038252848181546001816001161561010002031660029004815260200191508054600181600116156101000203166002900480156120aa5780601f1061207f576101008083540402835291602001916120aa565b820191906000526020600020905b81548152906001019060200180831161208d57829003601f168201915b5050985050505050505050506040516020818303038152906040528160a00181905250806007600085815260200190815260200160002060008201518160000160006101000a81548173ffffffffffffffffffffffffffffffffffffffff021916908373ffffffffffffffffffffffffffffffffffffffff16021790555060208201518160010190805190602001906121449291906157da565b50604082015181600201908051906020019061216192919061575a565b50606082015181600301908051906020019061217e92919061575a565b506080820151816004015560a08201518160050190805190602001906121a59291906157da565b509050506000600c5414612a66576121bb61570e565b60076000600c5481526020019081526020016000206040518060c00160405290816000820160009054906101000a900473ffffffffffffffffffffffffffffffffffffffff1673ffffffffffffffffffffffffffffffffffffffff1673ffffffffffffffffffffffffffffffffffffffff168152602001600182018054600181600116156101000203166002900480601f0160208091040260200160405190810160405280929190818152602001828054600181600116156101000203166002900480156122ca5780601f1061229f576101008083540402835291602001916122ca565b820191906000526020600020905b8154815290600101906020018083116122ad57829003601f168201915b50505050508152602001600282018054600181600116156101000203166002900480601f01602080910402602001604051908101604052809291908181526020018280546001816001161561010002031660029004801561236c5780601f106123415761010080835404028352916020019161236c565b820191906000526020600020905b81548152906001019060200180831161234f57829003601f168201915b50505050508152602001600382018054600181600116156101000203166002900480601f01602080910402602001604051908101604052809291908181526020018280546001816001161561010002031660029004801561240e5780601f106123e35761010080835404028352916020019161240e565b820191906000526020600020905b8154815290600101906020018083116123f157829003601f168201915b5050505050815260200160048201548152602001600582018054600181600116156101000203166002900480601f0160208091040260200160405190810160405280929190818152602001828054600181600116156101000203166002900480156124ba5780601f1061248f576101008083540402835291602001916124ba565b820191906000526020600020905b81548152906001019060200180831161249d57829003601f168201915b50505050508152505090508060a0015180602001905160c08110156124de57600080fd5b81019080805190602001909291908051604051939291908464010000000082111561250857600080fd5b8382019150602082018581111561251e57600080fd5b825186600182028301116401000000008211171561253b57600080fd5b8083526020830192505050908051906020019080838360005b8381101561256f578082015181840152602081019050612554565b50505050905090810190601f16801561259c5780820380516001836020036101000a031916815260200191505b50604052602001805190602001909291908051906020019092919080519060200190929190805160405193929190846401000000008211156125dd57600080fd5b838201915060208201858111156125f357600080fd5b825186600182028301116401000000008211171561261057600080fd5b8083526020830192505050908051906020019080838360005b83811015612644578082015181840152602081019050612629565b50505050905090810190601f1680156126715780820380516001836020036101000a031916815260200191505b506040525050506013600060146000601560006016600060176000601860008c91905090805190602001906126a792919061575a565b508b919050558a9190505589919050558891905090805190602001906126ce92919061575a565b508791905055505050505050600061157c601354601554020390506000600190505b600a8054905081116127bf576000600a828154811061270b57fe5b9060005260206000200160009054906101000a900473ffffffffffffffffffffffffffffffffffffffff169050600061274682600c54611391565b905060006016548202858161275757fe5b04905080601a60008b815260200190815260200160002060008573ffffffffffffffffffffffffffffffffffffffff1673ffffffffffffffffffffffffffffffffffffffff1681526020019081526020016000208190555050505080806001019150506126f0565b506016546013540281816127cf57fe5b04601a600087815260200190815260200160002060008873ffffffffffffffffffffffffffffffffffffffff1673ffffffffffffffffffffffffffffffffffffffff168152602001908152602001600020819055506013546014601554601654600460186040516020018087815260200180602001868152602001858152602001848152602001806020018381038352888181546001816001161561010002031660029004815260200191508054600181600116156101000203166002900480156128db5780601f106128b0576101008083540402835291602001916128db565b820191906000526020600020905b8154815290600101906020018083116128be57829003601f168201915b505083810382528481815460018160011615610100020316600290048152602001915080546001816001161561010002031660029004801561295e5780601f106129335761010080835404028352916020019161295e565b820191906000526020600020905b81548152906001019060200180831161294157829003601f168201915b5050985050505050505050506040516020818303038152906040528260a001819052508160076000600c54815260200190815260200160002060008201518160000160006101000a81548173ffffffffffffffffffffffffffffffffffffffff021916908373ffffffffffffffffffffffffffffffffffffffff16021790555060208201518160010190805190602001906129fa9291906157da565b506040820151816002019080519060200190612a1792919061575a565b506060820151816003019080519060200190612a3492919061575a565b506080820151816004015560a0820151816005019080519060200190612a5b9291906157da565b509050505050612ac1565b600260195402601a600085815260200190815260200160002060008673ffffffffffffffffffffffffffffffffffffffff1673ffffffffffffffffffffffffffffffffffffffff168152602001908152602001600020819055505b82600c81905550600191505092915050565b60056020528060005260406000206000915054906101000a900460ff1681565b60608151835114612b4f576040517f08c379a0000000000000000000000000000000000000000000000000000000008152600401808060200182810382526029815260200180615b226029913960400191505060405180910390fd5b6060835167ffffffffffffffff81118015612b6957600080fd5b50604051908082528060200260200182016040528015612b985781602001602082028036833780820191505090505b50905060005b8451811015612cda57600073ffffffffffffffffffffffffffffffffffffffff16858281518110612bcb57fe5b602002602001015173ffffffffffffffffffffffffffffffffffffffff161415612c40576040517f08c379a00000000000000000000000000000000000000000000000000000000081526004018080602001828103825260318152602001806159d36031913960400191505060405180910390fd5b60016000858381518110612c5057fe5b602002602001015181526020019081526020016000206000868381518110612c7457fe5b602002602001015173ffffffffffffffffffffffffffffffffffffffff1673ffffffffffffffffffffffffffffffffffffffff16815260200190815260200160002054828281518110612cc357fe5b602002602001018181525050806001019050612b9e565b508091505092915050565b601a602052816000526040600020602052806000526040600020600091509150505481565b60066020528060005260406000206000915090505481565b6009602052816000526040600020602052806000526040600020600091509150505481565b6000600b80549050905090565b612d5c614c94565b73ffffffffffffffffffffffffffffffffffffffff16600460009054906101000a900473ffffffffffffffffffffffffffffffffffffffff1673ffffffffffffffffffffffffffffffffffffffff1614612e1e576040517f08c379a00000000000000000000000000000000000000000000000000000000081526004018080602001828103825260208152602001807f4f776e61626c653a2063616c6c6572206973206e6f7420746865206f776e657281525060200191505060405180910390fd5b600073ffffffffffffffffffffffffffffffffffffffff16600460009054906101000a900473ffffffffffffffffffffffffffffffffffffffff1673ffffffffffffffffffffffffffffffffffffffff167f8be0079c531659141344cd1fd0a4f28419497f9722a3daafe3b4186f6b6457e060405160405180910390a36000600460006101000a81548173ffffffffffffffffffffffffffffffffffffffff021916908373ffffffffffffffffffffffffffffffffffffffff160217905550565b6000662386f26fc1000090506000886040516020018082805190602001908083835b60208310612f245780518252602082019150602081019050602083039250612f01565b6001836020036101000a0380198251168184511680821785525050505050509050019150506040516020818303038152906040528051906020012060001c90506000828281612f6f57fe5b0690506005600082815260200190815260200160002060009054906101000a900460ff1615612f9d57600080fd5b60016005600083815260200190815260200160002060006101000a81548160ff021916908315150217905550612fd161570e565b33816000019073ffffffffffffffffffffffffffffffffffffffff16908173ffffffffffffffffffffffffffffffffffffffff16815250508a81604001819052508981606001819052508181608001818152505060608a83604051602001808060200183815260200180602001838103835285818151815260200191508051906020019080838360005b8381101561307657808201518184015260208101905061305b565b50505050905090810190601f1680156130a35780820380516001836020036101000a031916815260200191505b50838103825260058152602001807f2e6a736f6e000000000000000000000000000000000000000000000000000000815250602001945050505050604051602081830303815290604052905080826020018190525060608a8a8a8a60018b604051602001808781526020018060200186815260200185815260200184815260200180602001838103835288818151815260200191508051906020019080838360005b83811015613160578082015181840152602081019050613145565b50505050905090810190601f16801561318d5780820380516001836020036101000a031916815260200191505b50838103825284818151815260200191508051906020019080838360005b838110156131c65780820151818401526020810190506131ab565b50505050905090810190601f1680156131f35780820380516001836020036101000a031916815260200191505b50985050505050505050506040516020818303038152906040529050808360a00181905250600b83908060018154018082558091505060019003906000526020600020906006020160009091909190915060008201518160000160006101000a81548173ffffffffffffffffffffffffffffffffffffffff021916908373ffffffffffffffffffffffffffffffffffffffff16021790555060208201518160010190805190602001906132a79291906157da565b5060408201518160020190805190602001906132c492919061575a565b5060608201518160030190805190602001906132e192919061575a565b506080820151816004015560a08201518160050190805190602001906133089291906157da565b50505083600660003373ffffffffffffffffffffffffffffffffffffffff1673ffffffffffffffffffffffffffffffffffffffff16815260200190815260200160002081905550826007600086815260200190815260200160002060008201518160000160006101000a81548173ffffffffffffffffffffffffffffffffffffffff021916908373ffffffffffffffffffffffffffffffffffffffff16021790555060208201518160010190805190602001906133c69291906157da565b5060408201518160020190805190602001906133e392919061575a565b50606082015181600301908051906020019061340092919061575a565b506080820151816004015560a08201518160050190805190602001906134279291906157da565b5090505061343733858d8461517b565b7fe4db4d9bae6a7ea1c8f58bae49da45e3112df950e97a0b718e738b109807232e836000015184602001518560400151866060015187608001518860a00151604051808773ffffffffffffffffffffffffffffffffffffffff1681526020018060200180602001806020018681526020018060200185810385528a818151815260200191508051906020019080838360005b838110156134e45780820151818401526020810190506134c9565b50505050905090810190601f1680156135115780820380516001836020036101000a031916815260200191505b50858103845289818151815260200191508051906020019080838360005b8381101561354a57808201518184015260208101905061352f565b50505050905090810190601f1680156135775780820380516001836020036101000a031916815260200191505b50858103835288818151815260200191508051906020019080838360005b838110156135b0578082015181840152602081019050613595565b50505050905090810190601f1680156135dd5780820380516001836020036101000a031916815260200191505b50858103825286818151815260200191508051906020019080838360005b838110156136165780820151818401526020810190506135fb565b50505050905090810190601f1680156136435780820380516001836020036101000a031916815260200191505b509a505050505050505050505060405180910390a150505050505050505050505050565b61366f61570e565b600760008381526020019081526020016000206040518060c00160405290816000820160009054906101000a900473ffffffffffffffffffffffffffffffffffffffff1673ffffffffffffffffffffffffffffffffffffffff1673ffffffffffffffffffffffffffffffffffffffff168152602001600182018054600181600116156101000203166002900480601f01602080910402602001604051908101604052809291908181526020018280546001816001161561010002031660029004801561377c5780601f106137515761010080835404028352916020019161377c565b820191906000526020600020905b81548152906001019060200180831161375f57829003601f168201915b50505050508152602001600282018054600181600116156101000203166002900480601f01602080910402602001604051908101604052809291908181526020018280546001816001161561010002031660029004801561381e5780601f106137f35761010080835404028352916020019161381e565b820191906000526020600020905b81548152906001019060200180831161380157829003601f168201915b50505050508152602001600382018054600181600116156101000203166002900480601f0160208091040260200160405190810160405280929190818152602001828054600181600116156101000203166002900480156138c05780601f10613895576101008083540402835291602001916138c0565b820191906000526020600020905b8154815290600101906020018083116138a357829003601f168201915b5050505050815260200160048201548152602001600582018054600181600116156101000203166002900480601f01602080910402602001604051908101604052809291908181526020018280546001816001161561010002031660029004801561396c5780601f106139415761010080835404028352916020019161396c565b820191906000526020600020905b81548152906001019060200180831161394f57829003601f168201915b5050505050815250509050806000015173ffffffffffffffffffffffffffffffffffffffff163373ffffffffffffffffffffffffffffffffffffffff16146139ff576040517f08c379a0000000000000000000000000000000000000000000000000000000008152600401808060200182810382526024815260200180615a2a6024913960400191505060405180910390fd5b60006060600080600060608660a0015180602001905160c0811015613a2357600080fd5b810190808051906020019092919080516040519392919084640100000000821115613a4d57600080fd5b83820191506020820185811115613a6357600080fd5b8251866001820283011164010000000082111715613a8057600080fd5b8083526020830192505050908051906020019080838360005b83811015613ab4578082015181840152602081019050613a99565b50505050905090810190601f168015613ae15780820380516001836020036101000a031916815260200191505b5060405260200180519060200190929190805190602001909291908051906020019092919080516040519392919084640100000000821115613b2257600080fd5b83820191506020820185811115613b3857600080fd5b8251866001820283011164010000000082111715613b5557600080fd5b8083526020830192505050908051906020019080838360005b83811015613b89578082015181840152602081019050613b6e565b50505050905090810190601f168015613bb65780820380516001836020036101000a031916815260200191505b50604052505050809650819750829850839950849a50859b5050505050505085858585600385604051602001808781526020018060200186815260200185815260200184815260200180602001838103835288818151815260200191508051906020019080838360005b83811015613c3b578082015181840152602081019050613c20565b50505050905090810190601f168015613c685780820380516001836020036101000a031916815260200191505b50838103825284818151815260200191508051906020019080838360005b83811015613ca1578082015181840152602081019050613c86565b50505050905090810190601f168015613cce5780820380516001836020036101000a031916815260200191505b50985050505050505050506040516020818303038152906040528760a0018190525086600760008a815260200190815260200160002060008201518160000160006101000a81548173ffffffffffffffffffffffffffffffffffffffff021916908373ffffffffffffffffffffffffffffffffffffffff1602179055506020820151816001019080519060200190613d679291906157da565b506040820151816002019080519060200190613d8492919061575a565b506060820151816003019080519060200190613da192919061575a565b506080820151816004015560a0820151816005019080519060200190613dc89291906157da565b509050505050505050505050565b6000600460009054906101000a900473ffffffffffffffffffffffffffffffffffffffff16905090565b8173ffffffffffffffffffffffffffffffffffffffff16613e1f614c94565b73ffffffffffffffffffffffffffffffffffffffff161415613e8c576040517f08c379a0000000000000000000000000000000000000000000000000000000008152600401808060200182810382526029815260200180615af96029913960400191505060405180910390fd5b8060026000613e99614c94565b73ffffffffffffffffffffffffffffffffffffffff1673ffffffffffffffffffffffffffffffffffffffff16815260200190815260200160002060008473ffffffffffffffffffffffffffffffffffffffff1673ffffffffffffffffffffffffffffffffffffffff16815260200190815260200160002060006101000a81548160ff0219169083151502179055508173ffffffffffffffffffffffffffffffffffffffff16613f46614c94565b73ffffffffffffffffffffffffffffffffffffffff167f17307eab39ab6107e8899845ad3d59bd9653f200f220920489ca2b5937696c318360405180821515815260200191505060405180910390a35050565b60076020528060005260406000206000915090508060000160009054906101000a900473ffffffffffffffffffffffffffffffffffffffff1690806001018054600181600116156101000203166002900480601f01602080910402602001604051908101604052809291908181526020018280546001816001161561010002031660029004801561406b5780601f106140405761010080835404028352916020019161406b565b820191906000526020600020905b81548152906001019060200180831161404e57829003601f168201915b505050505090806002018054600181600116156101000203166002900480601f0160208091040260200160405190810160405280929190818152602001828054600181600116156101000203166002900480156141095780601f106140de57610100808354040283529160200191614109565b820191906000526020600020905b8154815290600101906020018083116140ec57829003601f168201915b505050505090806003018054600181600116156101000203166002900480601f0160208091040260200160405190810160405280929190818152602001828054600181600116156101000203166002900480156141a75780601f1061417c576101008083540402835291602001916141a7565b820191906000526020600020905b81548152906001019060200180831161418a57829003601f168201915b505050505090806004015490806005018054600181600116156101000203166002900480601f01602080910402602001604051908101604052809291908181526020018280546001816001161561010002031660029004801561424b5780601f106142205761010080835404028352916020019161424b565b820191906000526020600020905b81548152906001019060200180831161422e57829003601f168201915b5050505050905086565b826142608786611391565b10156142b7576040517f08c379a000000000000000000000000000000000000000000000000000000000815260040180806020018281038252602a815260200180615acf602a913960400191505060405180910390fd5b6142c48686868686614710565b826009600086815260200190815260200160002060008773ffffffffffffffffffffffffffffffffffffffff1673ffffffffffffffffffffffffffffffffffffffff16815260200190815260200160002060008282540192505081905550600a859080600181540180825580915050600190039060005260206000200160009091909190916101000a81548173ffffffffffffffffffffffffffffffffffffffff021916908373ffffffffffffffffffffffffffffffffffffffff160217905550505050505050565b600860009054906101000a900473ffffffffffffffffffffffffffffffffffffffff1681565b600b81815481106143c057fe5b90600052602060002090600602016000915090508060000160009054906101000a900473ffffffffffffffffffffffffffffffffffffffff1690806001018054600181600116156101000203166002900480601f0160208091040260200160405190810160405280929190818152602001828054600181600116156101000203166002900480156144925780601f1061446757610100808354040283529160200191614492565b820191906000526020600020905b81548152906001019060200180831161447557829003601f168201915b505050505090806002018054600181600116156101000203166002900480601f0160208091040260200160405190810160405280929190818152602001828054600181600116156101000203166002900480156145305780601f1061450557610100808354040283529160200191614530565b820191906000526020600020905b81548152906001019060200180831161451357829003601f168201915b505050505090806003018054600181600116156101000203166002900480601f0160208091040260200160405190810160405280929190818152602001828054600181600116156101000203166002900480156145ce5780601f106145a3576101008083540402835291602001916145ce565b820191906000526020600020905b8154815290600101906020018083116145b157829003601f168201915b505050505090806004015490806005018054600181600116156101000203166002900480601f0160208091040260200160405190810160405280929190818152602001828054600181600116156101000203166002900480156146725780601f1061464757610100808354040283529160200191614672565b820191906000526020600020905b81548152906001019060200180831161465557829003601f168201915b5050505050905086565b6000600260008473ffffffffffffffffffffffffffffffffffffffff1673ffffffffffffffffffffffffffffffffffffffff16815260200190815260200160002060008373ffffffffffffffffffffffffffffffffffffffff1673ffffffffffffffffffffffffffffffffffffffff16815260200190815260200160002060009054906101000a900460ff16905092915050565b600073ffffffffffffffffffffffffffffffffffffffff168473ffffffffffffffffffffffffffffffffffffffff161415614796576040517f08c379a0000000000000000000000000000000000000000000000000000000008152600401808060200182810382526025815260200180615a4e6025913960400191505060405180910390fd5b8473ffffffffffffffffffffffffffffffffffffffff168473ffffffffffffffffffffffffffffffffffffffff161415614838576040517f08c379a00000000000000000000000000000000000000000000000000000000081526004018080602001828103825260208152602001807f455243313135353a2063616e6e6f74207472616e7366657220746f2073656c6681525060200191505060405180910390fd5b6000614842614c94565b90506148628187876148538861537e565b61485c8861537e565b87614c9c565b6148df836040518060600160405280602a8152602001615aa5602a91396001600088815260200190815260200160002060008a73ffffffffffffffffffffffffffffffffffffffff1673ffffffffffffffffffffffffffffffffffffffff16815260200190815260200160002054614ca49092919063ffffffff16565b6001600086815260200190815260200160002060008873ffffffffffffffffffffffffffffffffffffffff1673ffffffffffffffffffffffffffffffffffffffff16815260200190815260200160002081905550614996836001600087815260200190815260200160002060008873ffffffffffffffffffffffffffffffffffffffff1673ffffffffffffffffffffffffffffffffffffffff16815260200190815260200160002054614d6490919063ffffffff16565b6001600086815260200190815260200160002060008773ffffffffffffffffffffffffffffffffffffffff1673ffffffffffffffffffffffffffffffffffffffff168152602001908152602001600020819055508473ffffffffffffffffffffffffffffffffffffffff168673ffffffffffffffffffffffffffffffffffffffff168273ffffffffffffffffffffffffffffffffffffffff167fc3d58168c5ae7397731d063d5bbf3d657854427343f4c083240f7aacaa2d0f628787604051808381526020018281526020019250505060405180910390a4614a7c8187878787876153ee565b505050505050565b614a8c614c94565b73ffffffffffffffffffffffffffffffffffffffff16600460009054906101000a900473ffffffffffffffffffffffffffffffffffffffff1673ffffffffffffffffffffffffffffffffffffffff1614614b4e576040517f08c379a00000000000000000000000000000000000000000000000000000000081526004018080602001828103825260208152602001807f4f776e61626c653a2063616c6c6572206973206e6f7420746865206f776e657281525060200191505060405180910390fd5b600073ffffffffffffffffffffffffffffffffffffffff168173ffffffffffffffffffffffffffffffffffffffff161415614bd4576040517f08c379a0000000000000000000000000000000000000000000000000000000008152600401808060200182810382526026815260200180615a046026913960400191505060405180910390fd5b8073ffffffffffffffffffffffffffffffffffffffff16600460009054906101000a900473ffffffffffffffffffffffffffffffffffffffff1673ffffffffffffffffffffffffffffffffffffffff167f8be0079c531659141344cd1fd0a4f28419497f9722a3daafe3b4186f6b6457e060405160405180910390a380600460006101000a81548173ffffffffffffffffffffffffffffffffffffffff021916908373ffffffffffffffffffffffffffffffffffffffff16021790555050565b600033905090565b505050505050565b6000838311158290614d51576040517f08c379a00000000000000000000000000000000000000000000000000000000081526004018080602001828103825283818151815260200191508051906020019080838360005b83811015614d16578082015181840152602081019050614cfb565b50505050905090810190601f168015614d435780820380516001836020036101000a031916815260200191505b509250505060405180910390fd5b5060008385039050809150509392505050565b600080828401905083811015614de2576040517f08c379a000000000000000000000000000000000000000000000000000000000815260040180806020018281038252601b8152602001807f536166654d6174683a206164646974696f6e206f766572666c6f77000000000081525060200191505060405180910390fd5b8091505092915050565b614e0b8473ffffffffffffffffffffffffffffffffffffffff166156fb565b15615173578373ffffffffffffffffffffffffffffffffffffffff1663bc197c8187878686866040518663ffffffff1660e01b8152600401808673ffffffffffffffffffffffffffffffffffffffff1681526020018573ffffffffffffffffffffffffffffffffffffffff168152602001806020018060200180602001848103845287818151815260200191508051906020019060200280838360005b83811015614ec3578082015181840152602081019050614ea8565b50505050905001848103835286818151815260200191508051906020019060200280838360005b83811015614f05578082015181840152602081019050614eea565b50505050905001848103825285818151815260200191508051906020019080838360005b83811015614f44578082015181840152602081019050614f29565b50505050905090810190601f168015614f715780820380516001836020036101000a031916815260200191505b5098505050505050505050602060405180830381600087803b158015614f9657600080fd5b505af1925050508015614fca57506040513d6020811015614fb657600080fd5b810190808051906020019092919050505060015b6150d457614fd6615895565b80614fe15750615083565b806040517f08c379a00000000000000000000000000000000000000000000000000000000081526004018080602001828103825283818151815260200191508051906020019080838360005b8381101561504857808201518184015260208101905061502d565b50505050905090810190601f1680156150755780820380516001836020036101000a031916815260200191505b509250505060405180910390fd5b6040517f08c379a000000000000000000000000000000000000000000000000000000000815260040180806020018281038252603481526020018061594c6034913960400191505060405180910390fd5b63bc197c8160e01b7bffffffffffffffffffffffffffffffffffffffffffffffffffffffff1916817bffffffffffffffffffffffffffffffffffffffffffffffffffffffff191614615171576040517f08c379a00000000000000000000000000000000000000000000000000000000081526004018080602001828103825260288152602001806159806028913960400191505060405180910390fd5b505b505050505050565b600073ffffffffffffffffffffffffffffffffffffffff168473ffffffffffffffffffffffffffffffffffffffff161415615201576040517f08c379a0000000000000000000000000000000000000000000000000000000008152600401808060200182810382526021815260200180615b736021913960400191505060405180910390fd5b600061520b614c94565b905061522c8160008761521d8861537e565b6152268861537e565b87614c9c565b61528f836001600087815260200190815260200160002060008873ffffffffffffffffffffffffffffffffffffffff1673ffffffffffffffffffffffffffffffffffffffff16815260200190815260200160002054614d6490919063ffffffff16565b6001600086815260200190815260200160002060008773ffffffffffffffffffffffffffffffffffffffff1673ffffffffffffffffffffffffffffffffffffffff168152602001908152602001600020819055508473ffffffffffffffffffffffffffffffffffffffff16600073ffffffffffffffffffffffffffffffffffffffff168273ffffffffffffffffffffffffffffffffffffffff167fc3d58168c5ae7397731d063d5bbf3d657854427343f4c083240f7aacaa2d0f628787604051808381526020018281526020019250505060405180910390a4615377816000878787876153ee565b5050505050565b606080600167ffffffffffffffff8111801561539957600080fd5b506040519080825280602002602001820160405280156153c85781602001602082028036833780820191505090505b50905082816000815181106153d957fe5b60200260200101818152505080915050919050565b61540d8473ffffffffffffffffffffffffffffffffffffffff166156fb565b156156f3578373ffffffffffffffffffffffffffffffffffffffff1663f23a6e6187878686866040518663ffffffff1660e01b8152600401808673ffffffffffffffffffffffffffffffffffffffff1681526020018573ffffffffffffffffffffffffffffffffffffffff16815260200184815260200183815260200180602001828103825283818151815260200191508051906020019080838360005b838110156154c65780820151818401526020810190506154ab565b50505050905090810190601f1680156154f35780820380516001836020036101000a031916815260200191505b509650505050505050602060405180830381600087803b15801561551657600080fd5b505af192505050801561554a57506040513d602081101561553657600080fd5b810190808051906020019092919050505060015b61565457615556615895565b806155615750615603565b806040517f08c379a00000000000000000000000000000000000000000000000000000000081526004018080602001828103825283818151815260200191508051906020019080838360005b838110156155c85780820151818401526020810190506155ad565b50505050905090810190601f1680156155f55780820380516001836020036101000a031916815260200191505b509250505060405180910390fd5b6040517f08c379a000000000000000000000000000000000000000000000000000000000815260040180806020018281038252603481526020018061594c6034913960400191505060405180910390fd5b63f23a6e6160e01b7bffffffffffffffffffffffffffffffffffffffffffffffffffffffff1916817bffffffffffffffffffffffffffffffffffffffffffffffffffffffff1916146156f1576040517f08c379a00000000000000000000000000000000000000000000000000000000081526004018080602001828103825260288152602001806159806028913960400191505060405180910390fd5b505b505050505050565b600080823b905060008111915050919050565b6040518060c00160405280600073ffffffffffffffffffffffffffffffffffffffff16815260200160608152602001606081526020016060815260200160008152602001606081525090565b828054600181600116156101000203166002900490600052602060002090601f016020900481019282601f1061579b57805160ff19168380011785556157c9565b828001600101855582156157c9579182015b828111156157c85782518255916020019190600101906157ad565b5b5090506157d6919061585a565b5090565b828054600181600116156101000203166002900490600052602060002090601f016020900481019282601f1061581b57805160ff1916838001178555615849565b82800160010185558215615849579182015b8281111561584857825182559160200191906001019061582d565b5b509050615856919061585a565b5090565b5b8082111561587357600081600090555060010161585b565b5090565b6000601f19601f8301169050919050565b60008160e01c9050919050565b600060443d10156158a557615948565b60046000803e6158b6600051615888565b6308c379a081146158c75750615948565b60405160043d036004823e80513d602482011167ffffffffffffffff821117156158f357505050615948565b808201805167ffffffffffffffff811115615912575050505050615948565b8060208301013d850181111561592d57505050505050615948565b61593682615877565b60208401016040528296505050505050505b9056fe455243313135353a207472616e7366657220746f206e6f6e2045524331313535526563656976657220696d706c656d656e746572455243313135353a204552433131353552656365697665722072656a656374656420746f6b656e73455243313135353a2062616c616e636520717565727920666f7220746865207a65726f2061646472657373455243313135353a2062617463682062616c616e636520717565727920666f7220746865207a65726f20616464726573734f776e61626c653a206e6577206f776e657220697320746865207a65726f20616464726573734572723a204d757374206f776e20746f6b656e20746f206368616e676520737461747573455243313135353a207472616e7366657220746f20746865207a65726f2061646472657373455243313135353a207472616e736665722063616c6c6572206973206e6f74206f776e6572206e6f7220617070726f766564455243313135353a20696e73756666696369656e742062616c616e636520666f72207472616e736665724572723a206e6f7420656e6f75676820746f6b656e7320746f2066696c6c20796f7572206f7264657221455243313135353a2073657474696e6720617070726f76616c2073746174757320666f722073656c66455243313135353a206163636f756e747320616e6420696473206c656e677468206d69736d61746368455243313135353a2069647320616e6420616d6f756e7473206c656e677468206d69736d61746368455243313135353a206d696e7420746f20746865207a65726f2061646472657373a26469706673582212205d47477838c0b5b5bb74034c9eccbcd6b37023d0912f53e0f5b7de254d2ed71e64736f6c634300060c0033687474703a2f2f6c6f63616c686f73743a333030302f7075626c69632f23212f74726561737572655f63686573742f7b69647d2e6a736f6e",
  "immutableReferences": {},
  "source": "pragma solidity >=0.4.21 <0.7.0;\nimport \"./AngelToken.sol\";\n\ncontract AT_X is AngelToken {\n  uint256 public last_rnd_id = 0;\n  uint256 ca_num_to_issue;\n  string ca_mint_date;\n  uint256 ca_cost;\n  uint256 ca_angel_coefficient;\n  uint256 ca_status;\n  string ca_product;\n  uint256 la_num_to_issue;\n  string la_mint_date;\n  uint256 la_cost;\n  uint256 la_angel_coefficient;\n  uint256 la_status;\n  string la_product;\n  uint256 _total_angels_share;\n  mapping(uint256 => mapping(address => uint256)) public map_angel_to_payout;\n\n  constructor()\n   AngelToken()\n    public {}\n\n  function crowdfund_execution(address _owner, uint256 _id) public returns(bool executed){\n    //fetch the current alm and change its status\n    Alms.Alm memory cur_alm = map_id_to_Alm[_id];\n    (ca_num_to_issue, ca_mint_date, ca_cost, ca_angel_coefficient, ca_status, ca_product) = abi.decode(cur_alm.mint_data,(uint256, string, uint256, uint256, uint256, string));\n    //change status on tokens to 'executed' & reencode\n    cur_alm.mint_data = abi.encode(ca_num_to_issue, ca_mint_date, ca_cost, ca_angel_coefficient, 2, ca_product);\n    map_id_to_Alm[_id] = cur_alm;\n    if(last_rnd_id != 0){\n      //fetch the last alm to get payout details\n      Alms.Alm memory last_alm = map_id_to_Alm[last_rnd_id];\n      (la_num_to_issue, la_mint_date, la_cost, la_angel_coefficient, la_status, la_product) = abi.decode(last_alm.mint_data,(uint256, string, uint256, uint256, uint256, string));\n      //payout mapping\n      uint256 _total_angels_share = (la_cost * la_num_to_issue) - 5500;// subtract estimated expenses & overhead to import, produce, and ship product\n      for(uint256 i=1; i<=Angel_List.length; i++) {\n        address angel = Angel_List[i];\n        uint256 angels_bal = balanceOf(angel, last_rnd_id);\n        uint256 payout_amt = _total_angels_share / (angels_bal * la_angel_coefficient);\n        map_angel_to_payout[_id][angel] = payout_amt;\n\n        /* angel.transfer(payout_amt); */\n        /* has to be done in web3 */\n        // has to be on layer 2 and payouts have to accumulate to overcome transaction costs\n        // maybe angels could choose to keep their rewards in a yield pool and earn income on it until its value appreciates over gross costs\n      }\n      //Roaster Share\n      map_angel_to_payout[_id][_owner] = _total_angels_share / (la_num_to_issue * la_angel_coefficient);\n      /* _owner.transfer(_total_angels_share / (la_num_to_issue * la_angel_coefficient)); */\n      //change status on tokens to 'PAID' & reencode\n      last_alm.mint_data = abi.encode(la_num_to_issue, la_mint_date, la_cost, la_angel_coefficient, 4, la_product);\n      map_id_to_Alm[last_rnd_id] = last_alm;\n    }else{\n      //seed round\n      map_angel_to_payout[_id][_owner] = _total_angels_share * 2;\n      //one transfer for seed round, can be done on layer 1\n      /* _owner.transfer(la_cost * la_num_to_issue); */\n    }\n    last_rnd_id = _id;\n    executed = true;\n  }\n\n  function change_status_s(uint256 _id) public{\n    /* fetch the current alm */\n    Alms.Alm memory alm =  map_id_to_Alm[_id];\n    require(msg.sender == alm.owner, \"Err: Must own token to change status\");\n      uint256 alm_num_to_issue;\n       string memory alm_mint_date;\n        uint256 alm_cost;\n         uint256 alm_angel_coefficient;\n          uint256 alm_status;\n           string memory alm_product;\n    (alm_num_to_issue, alm_mint_date, alm_cost, alm_angel_coefficient, alm_status, alm_product) = abi.decode(alm.mint_data,(uint256, string, uint256, uint256, uint256, string));\n    /* change status on tokens to 'executed' & reencode */\n    alm.mint_data = abi.encode(alm_num_to_issue, alm_mint_date, alm_cost, alm_angel_coefficient, 3, alm_product);\n    map_id_to_Alm[_id] = alm;\n  }\n\n}\n",
  "sourcePath": "/Volumes/DEVBAR/eth/AngelTokens/contracts/AT_X.sol",
  "compiler": {
    "name": "solc",
    "version": "0.6.12+commit.27d51765.Emscripten.clang"
  },
  "schemaVersion": "3.3.2",
  "updatedAt": "2021-03-30T00:38:47.906Z",
  "networkType": "ethereum",
  "devdoc": {
    "kind": "dev",
    "methods": {
      "balanceOf(address,uint256)": {
        "details": "See {IERC1155-balanceOf}. Requirements: - `account` cannot be the zero address."
      },
      "balanceOfBatch(address[],uint256[])": {
        "details": "See {IERC1155-balanceOfBatch}. Requirements: - `accounts` and `ids` must have the same length."
      },
      "isApprovedForAll(address,address)": {
        "details": "See {IERC1155-isApprovedForAll}."
      },
      "owner()": {
        "details": "Returns the address of the current owner."
      },
      "renounceOwnership()": {
        "details": "Leaves the contract without owner. It will not be possible to call `onlyOwner` functions anymore. Can only be called by the current owner. NOTE: Renouncing ownership will leave the contract without an owner, thereby removing any functionality that is only available to the owner."
      },
      "safeBatchTransferFrom(address,address,uint256[],uint256[],bytes)": {
        "details": "See {IERC1155-safeBatchTransferFrom}."
      },
      "safeTransferFrom(address,address,uint256,uint256,bytes)": {
        "details": "See {IERC1155-safeTransferFrom}."
      },
      "setApprovalForAll(address,bool)": {
        "details": "See {IERC1155-setApprovalForAll}."
      },
      "supportsInterface(bytes4)": {
        "details": "See {IERC165-supportsInterface}. Time complexity O(1), guaranteed to always use less than 30 000 gas."
      },
      "transferOwnership(address)": {
        "details": "Transfers ownership of the contract to a new account (`newOwner`). Can only be called by the current owner."
      },
      "uri(uint256)": {
        "details": "See {IERC1155MetadataURI-uri}. This implementation returns the same URI for *all* token types. It relies on the token type ID substitution mechanism https://eips.ethereum.org/EIPS/eip-1155#metadata[defined in the EIP]. Clients calling this function must replace the `\\{id\\}` substring with the actual token type ID."
      }
    },
    "version": 1
  },
  "userdoc": {
    "kind": "user",
    "methods": {},
    "version": 1
  }
}