{
  "contractName": "CafLaMAngelTokenCrowdfund",
  "abi": [
    {
      "inputs": [
        {
          "internalType": "string",
          "name": "_ename",
          "type": "string"
        },
        {
          "internalType": "string",
          "name": "_esym",
          "type": "string"
        },
        {
          "internalType": "uint256",
          "name": "_num_to_issue",
          "type": "uint256"
        },
        {
          "internalType": "string",
          "name": "_mint_date",
          "type": "string"
        },
        {
          "internalType": "uint256",
          "name": "_cost",
          "type": "uint256"
        },
        {
          "internalType": "uint256",
          "name": "_angel_coefficient",
          "type": "uint256"
        },
        {
          "internalType": "string",
          "name": "_product",
          "type": "string"
        }
      ],
      "stateMutability": "nonpayable",
      "type": "constructor"
    },
    {
      "anonymous": false,
      "inputs": [
        {
          "indexed": true,
          "internalType": "address",
          "name": "account",
          "type": "address"
        },
        {
          "indexed": true,
          "internalType": "address",
          "name": "operator",
          "type": "address"
        },
        {
          "indexed": false,
          "internalType": "bool",
          "name": "approved",
          "type": "bool"
        }
      ],
      "name": "ApprovalForAll",
      "type": "event"
    },
    {
      "anonymous": false,
      "inputs": [
        {
          "indexed": false,
          "internalType": "address",
          "name": "owner",
          "type": "address"
        },
        {
          "indexed": false,
          "internalType": "bytes",
          "name": "_uri",
          "type": "bytes"
        },
        {
          "indexed": false,
          "internalType": "string",
          "name": "_ename",
          "type": "string"
        },
        {
          "indexed": false,
          "internalType": "string",
          "name": "_esym",
          "type": "string"
        },
        {
          "indexed": false,
          "internalType": "uint256",
          "name": "_id",
          "type": "uint256"
        },
        {
          "indexed": false,
          "internalType": "bytes",
          "name": "mint_data",
          "type": "bytes"
        }
      ],
      "name": "ManifestedAngelToken",
      "type": "event"
    },
    {
      "anonymous": false,
      "inputs": [
        {
          "indexed": true,
          "internalType": "address",
          "name": "operator",
          "type": "address"
        },
        {
          "indexed": true,
          "internalType": "address",
          "name": "from",
          "type": "address"
        },
        {
          "indexed": true,
          "internalType": "address",
          "name": "to",
          "type": "address"
        },
        {
          "indexed": false,
          "internalType": "uint256[]",
          "name": "ids",
          "type": "uint256[]"
        },
        {
          "indexed": false,
          "internalType": "uint256[]",
          "name": "values",
          "type": "uint256[]"
        }
      ],
      "name": "TransferBatch",
      "type": "event"
    },
    {
      "anonymous": false,
      "inputs": [
        {
          "indexed": true,
          "internalType": "address",
          "name": "operator",
          "type": "address"
        },
        {
          "indexed": true,
          "internalType": "address",
          "name": "from",
          "type": "address"
        },
        {
          "indexed": true,
          "internalType": "address",
          "name": "to",
          "type": "address"
        },
        {
          "indexed": false,
          "internalType": "uint256",
          "name": "id",
          "type": "uint256"
        },
        {
          "indexed": false,
          "internalType": "uint256",
          "name": "value",
          "type": "uint256"
        }
      ],
      "name": "TransferSingle",
      "type": "event"
    },
    {
      "anonymous": false,
      "inputs": [
        {
          "indexed": false,
          "internalType": "string",
          "name": "value",
          "type": "string"
        },
        {
          "indexed": true,
          "internalType": "uint256",
          "name": "id",
          "type": "uint256"
        }
      ],
      "name": "URI",
      "type": "event"
    },
    {
      "inputs": [],
      "name": "CafLaMAccount",
      "outputs": [
        {
          "internalType": "address",
          "name": "",
          "type": "address"
        }
      ],
      "stateMutability": "view",
      "type": "function"
    },
    {
      "inputs": [],
      "name": "OA",
      "outputs": [
        {
          "internalType": "address",
          "name": "",
          "type": "address"
        }
      ],
      "stateMutability": "view",
      "type": "function"
    },
    {
      "inputs": [
        {
          "internalType": "uint256",
          "name": "",
          "type": "uint256"
        }
      ],
      "name": "alms",
      "outputs": [
        {
          "internalType": "address",
          "name": "owner",
          "type": "address"
        },
        {
          "internalType": "bytes",
          "name": "uri",
          "type": "bytes"
        },
        {
          "internalType": "string",
          "name": "name",
          "type": "string"
        },
        {
          "internalType": "string",
          "name": "sym",
          "type": "string"
        },
        {
          "internalType": "uint256",
          "name": "id",
          "type": "uint256"
        },
        {
          "internalType": "bytes",
          "name": "mint_data",
          "type": "bytes"
        }
      ],
      "stateMutability": "view",
      "type": "function"
    },
    {
      "inputs": [
        {
          "internalType": "address",
          "name": "account",
          "type": "address"
        },
        {
          "internalType": "uint256",
          "name": "id",
          "type": "uint256"
        }
      ],
      "name": "balanceOf",
      "outputs": [
        {
          "internalType": "uint256",
          "name": "",
          "type": "uint256"
        }
      ],
      "stateMutability": "view",
      "type": "function"
    },
    {
      "inputs": [
        {
          "internalType": "address[]",
          "name": "accounts",
          "type": "address[]"
        },
        {
          "internalType": "uint256[]",
          "name": "ids",
          "type": "uint256[]"
        }
      ],
      "name": "balanceOfBatch",
      "outputs": [
        {
          "internalType": "uint256[]",
          "name": "",
          "type": "uint256[]"
        }
      ],
      "stateMutability": "view",
      "type": "function"
    },
    {
      "inputs": [],
      "name": "getAlmsLength",
      "outputs": [
        {
          "internalType": "uint256",
          "name": "",
          "type": "uint256"
        }
      ],
      "stateMutability": "view",
      "type": "function"
    },
    {
      "inputs": [
        {
          "internalType": "address",
          "name": "account",
          "type": "address"
        },
        {
          "internalType": "address",
          "name": "operator",
          "type": "address"
        }
      ],
      "name": "isApprovedForAll",
      "outputs": [
        {
          "internalType": "bool",
          "name": "",
          "type": "bool"
        }
      ],
      "stateMutability": "view",
      "type": "function"
    },
    {
      "inputs": [
        {
          "internalType": "uint256",
          "name": "",
          "type": "uint256"
        }
      ],
      "name": "is_on_manifest",
      "outputs": [
        {
          "internalType": "bool",
          "name": "",
          "type": "bool"
        }
      ],
      "stateMutability": "view",
      "type": "function"
    },
    {
      "inputs": [
        {
          "internalType": "uint256",
          "name": "",
          "type": "uint256"
        }
      ],
      "name": "map_id_to_Alm",
      "outputs": [
        {
          "internalType": "address",
          "name": "owner",
          "type": "address"
        },
        {
          "internalType": "bytes",
          "name": "uri",
          "type": "bytes"
        },
        {
          "internalType": "string",
          "name": "name",
          "type": "string"
        },
        {
          "internalType": "string",
          "name": "sym",
          "type": "string"
        },
        {
          "internalType": "uint256",
          "name": "id",
          "type": "uint256"
        },
        {
          "internalType": "bytes",
          "name": "mint_data",
          "type": "bytes"
        }
      ],
      "stateMutability": "view",
      "type": "function"
    },
    {
      "inputs": [
        {
          "internalType": "address",
          "name": "",
          "type": "address"
        }
      ],
      "name": "map_owner_to_id",
      "outputs": [
        {
          "internalType": "uint256",
          "name": "",
          "type": "uint256"
        }
      ],
      "stateMutability": "view",
      "type": "function"
    },
    {
      "inputs": [
        {
          "internalType": "string",
          "name": "",
          "type": "string"
        }
      ],
      "name": "map_uri_to_Alm",
      "outputs": [
        {
          "internalType": "address",
          "name": "owner",
          "type": "address"
        },
        {
          "internalType": "bytes",
          "name": "uri",
          "type": "bytes"
        },
        {
          "internalType": "string",
          "name": "name",
          "type": "string"
        },
        {
          "internalType": "string",
          "name": "sym",
          "type": "string"
        },
        {
          "internalType": "uint256",
          "name": "id",
          "type": "uint256"
        },
        {
          "internalType": "bytes",
          "name": "mint_data",
          "type": "bytes"
        }
      ],
      "stateMutability": "view",
      "type": "function"
    },
    {
      "inputs": [
        {
          "internalType": "address",
          "name": "from",
          "type": "address"
        },
        {
          "internalType": "address",
          "name": "to",
          "type": "address"
        },
        {
          "internalType": "uint256[]",
          "name": "ids",
          "type": "uint256[]"
        },
        {
          "internalType": "uint256[]",
          "name": "amounts",
          "type": "uint256[]"
        },
        {
          "internalType": "bytes",
          "name": "data",
          "type": "bytes"
        }
      ],
      "name": "safeBatchTransferFrom",
      "outputs": [],
      "stateMutability": "nonpayable",
      "type": "function"
    },
    {
      "inputs": [
        {
          "internalType": "address",
          "name": "from",
          "type": "address"
        },
        {
          "internalType": "address",
          "name": "to",
          "type": "address"
        },
        {
          "internalType": "uint256",
          "name": "id",
          "type": "uint256"
        },
        {
          "internalType": "uint256",
          "name": "amount",
          "type": "uint256"
        },
        {
          "internalType": "bytes",
          "name": "data",
          "type": "bytes"
        }
      ],
      "name": "safeTransferFrom",
      "outputs": [],
      "stateMutability": "nonpayable",
      "type": "function"
    },
    {
      "inputs": [
        {
          "internalType": "address",
          "name": "operator",
          "type": "address"
        },
        {
          "internalType": "bool",
          "name": "approved",
          "type": "bool"
        }
      ],
      "name": "setApprovalForAll",
      "outputs": [],
      "stateMutability": "nonpayable",
      "type": "function"
    },
    {
      "inputs": [
        {
          "internalType": "bytes4",
          "name": "interfaceId",
          "type": "bytes4"
        }
      ],
      "name": "supportsInterface",
      "outputs": [
        {
          "internalType": "bool",
          "name": "",
          "type": "bool"
        }
      ],
      "stateMutability": "view",
      "type": "function"
    },
    {
      "inputs": [
        {
          "internalType": "string",
          "name": "_ename",
          "type": "string"
        },
        {
          "internalType": "string",
          "name": "_esym",
          "type": "string"
        },
        {
          "internalType": "uint256",
          "name": "_num_to_issue",
          "type": "uint256"
        },
        {
          "internalType": "string",
          "name": "_mint_date",
          "type": "string"
        },
        {
          "internalType": "uint256",
          "name": "_cost",
          "type": "uint256"
        },
        {
          "internalType": "uint256",
          "name": "_angel_coefficient",
          "type": "uint256"
        },
        {
          "internalType": "string",
          "name": "_product",
          "type": "string"
        }
      ],
      "name": "tokenGenesis",
      "outputs": [],
      "stateMutability": "nonpayable",
      "type": "function"
    },
    {
      "inputs": [
        {
          "internalType": "uint256",
          "name": "",
          "type": "uint256"
        }
      ],
      "name": "uri",
      "outputs": [
        {
          "internalType": "string",
          "name": "",
          "type": "string"
        }
      ],
      "stateMutability": "view",
      "type": "function"
    },
    {
      "inputs": [
        {
          "internalType": "address payable",
          "name": "_owner",
          "type": "address"
        },
        {
          "internalType": "address",
          "name": "_buyer",
          "type": "address"
        },
        {
          "internalType": "uint256",
          "name": "_id",
          "type": "uint256"
        },
        {
          "internalType": "uint256",
          "name": "_amount",
          "type": "uint256"
        },
        {
          "internalType": "bytes",
          "name": "_data",
          "type": "bytes"
        },
        {
          "internalType": "uint256",
          "name": "cost",
          "type": "uint256"
        }
      ],
      "name": "buyAlms",
      "outputs": [
        {
          "internalType": "bool",
          "name": "progress",
          "type": "bool"
        }
      ],
      "stateMutability": "payable",
      "type": "function"
    }
  ],
  "bytecode": "0x608060405233600460006101000a81548173ffffffffffffffffffffffffffffffffffffffff021916908373ffffffffffffffffffffffffffffffffffffffff16021790555033600a60006101000a81548173ffffffffffffffffffffffffffffffffffffffff021916908373ffffffffffffffffffffffffffffffffffffffff1602179055503480156200009357600080fd5b5060405162005ee838038062005ee8833981810160405260e0811015620000b957600080fd5b8101908080516040519392919084640100000000821115620000da57600080fd5b83820191506020820185811115620000f157600080fd5b82518660018202830111640100000000821117156200010f57600080fd5b8083526020830192505050908051906020019080838360005b838110156200014557808201518184015260208101905062000128565b50505050905090810190601f168015620001735780820380516001836020036101000a031916815260200191505b50604052602001805160405193929190846401000000008211156200019757600080fd5b83820191506020820185811115620001ae57600080fd5b8251866001820283011164010000000082111715620001cc57600080fd5b8083526020830192505050908051906020019080838360005b8381101562000202578082015181840152602081019050620001e5565b50505050905090810190601f168015620002305780820380516001836020036101000a031916815260200191505b5060405260200180519060200190929190805160405193929190846401000000008211156200025e57600080fd5b838201915060208201858111156200027557600080fd5b82518660018202830111640100000000821117156200029357600080fd5b8083526020830192505050908051906020019080838360005b83811015620002c9578082015181840152602081019050620002ac565b50505050905090810190601f168015620002f75780820380516001836020036101000a031916815260200191505b506040526020018051906020019092919080519060200190929190805160405193929190846401000000008211156200032f57600080fd5b838201915060208201858111156200034657600080fd5b82518660018202830111640100000000821117156200036457600080fd5b8083526020830192505050908051906020019080838360005b838110156200039a5780820151818401526020810190506200037d565b50505050905090810190601f168015620003c85780820380516001836020036101000a031916815260200191505b50604052505050868686868686866040518060400160405280601681526020017f687474703a2f2f6c6f63616c686f73743a333030302f00000000000000000000815250620004246301ffc9a760e01b6200049160201b60201c565b62000435816200059a60201b60201c565b6200044d63d9b67a2660e01b6200049160201b60201c565b62000465630e89341c60e01b6200049160201b60201c565b506200047d87878787878787620005b660201b60201c565b505050505050505050505050505062001664565b63ffffffff60e01b817bffffffffffffffffffffffffffffffffffffffffffffffffffffffff191614156200052e576040517f08c379a000000000000000000000000000000000000000000000000000000000815260040180806020018281038252601c8152602001807f4552433136353a20696e76616c696420696e746572666163652069640000000081525060200191505060405180910390fd5b6001600080837bffffffffffffffffffffffffffffffffffffffffffffffffffffffff19167bffffffffffffffffffffffffffffffffffffffffffffffffffffffff1916815260200190815260200160002060006101000a81548160ff02191690831515021790555050565b8060039080519060200190620005b292919062001409565b5050565b6000620005c98862000cee60201b60201c565b90506005600082815260200190815260200160002060009054906101000a900460ff1615620005f757600080fd5b60016005600083815260200190815260200160002060006101000a81548160ff0219169083151502179055506200062d62001490565b33816000019073ffffffffffffffffffffffffffffffffffffffff16908173ffffffffffffffffffffffffffffffffffffffff16815250508881604001819052508781606001819052508181608001818152505060608883604051602001808060200183815260200180602001838103835285818151815260200191508051906020019080838360005b83811015620006d4578082015181840152602081019050620006b7565b50505050905090810190601f168015620007025780820380516001836020036101000a031916815260200191505b50838103825260058152602001807f2e6a736f6e0000000000000000000000000000000000000000000000000000008152506020019450505050506040516020818303038152906040529050808260200181905250606088888888600189604051602001808781526020018060200186815260200185815260200184815260200180602001838103835288818151815260200191508051906020019080838360005b83811015620007c1578082015181840152602081019050620007a4565b50505050905090810190601f168015620007ef5780820380516001836020036101000a031916815260200191505b50838103825284818151815260200191508051906020019080838360005b838110156200082a5780820151818401526020810190506200080d565b50505050905090810190601f168015620008585780820380516001836020036101000a031916815260200191505b50985050505050505050506040516020818303038152906040529050808360a00181905250600983908060018154018082558091505060019003906000526020600020906006020160009091909190915060008201518160000160006101000a81548173ffffffffffffffffffffffffffffffffffffffff021916908373ffffffffffffffffffffffffffffffffffffffff16021790555060208201518160010190805190602001906200090e929190620014dc565b5060408201518160020190805190602001906200092d92919062001409565b5060608201518160030190805190602001906200094c92919062001409565b506080820151816004015560a082015181600501908051906020019062000975929190620014dc565b50505083600660003373ffffffffffffffffffffffffffffffffffffffff1673ffffffffffffffffffffffffffffffffffffffff16815260200190815260200160002081905550826007600086815260200190815260200160002060008201518160000160006101000a81548173ffffffffffffffffffffffffffffffffffffffff021916908373ffffffffffffffffffffffffffffffffffffffff160217905550602082015181600101908051906020019062000a35929190620014dc565b50604082015181600201908051906020019062000a5492919062001409565b50606082015181600301908051906020019062000a7392919062001409565b506080820151816004015560a082015181600501908051906020019062000a9c929190620014dc565b5090505062000ab433858b8462000d8a60201b60201c565b7fe4db4d9bae6a7ea1c8f58bae49da45e3112df950e97a0b718e738b109807232e836000015184602001518560400151866060015187608001518860a00151604051808773ffffffffffffffffffffffffffffffffffffffff1681526020018060200180602001806020018681526020018060200185810385528a818151815260200191508051906020019080838360005b8381101562000b6357808201518184015260208101905062000b46565b50505050905090810190601f16801562000b915780820380516001836020036101000a031916815260200191505b50858103845289818151815260200191508051906020019080838360005b8381101562000bcc57808201518184015260208101905062000baf565b50505050905090810190601f16801562000bfa5780820380516001836020036101000a031916815260200191505b50858103835288818151815260200191508051906020019080838360005b8381101562000c3557808201518184015260208101905062000c18565b50505050905090810190601f16801562000c635780820380516001836020036101000a031916815260200191505b50858103825286818151815260200191508051906020019080838360005b8381101562000c9e57808201518184015260208101905062000c81565b50505050905090810190601f16801562000ccc5780820380516001836020036101000a031916815260200191505b509a505050505050505050505060405180910390a15050505050505050505050565b600080662386f26fc1000090506000836040516020018082805190602001908083835b6020831062000d36578051825260208201915060208101905060208303925062000d11565b6001836020036101000a0380198251168184511680821785525050505050509050019150506040516020818303038152906040528051906020012060001c905081818162000d8057fe5b0692505050919050565b600073ffffffffffffffffffffffffffffffffffffffff168473ffffffffffffffffffffffffffffffffffffffff16141562000e12576040517f08c379a000000000000000000000000000000000000000000000000000000000815260040180806020018281038252602881526020018062005ec06028913960400191505060405180910390fd5b600062000e2462000fbe60201b60201c565b905062000e5d8160008762000e3f8862000fc660201b60201c565b62000e508862000fc660201b60201c565b876200103960201b60201c565b62000ec7836001600087815260200190815260200160002060008873ffffffffffffffffffffffffffffffffffffffff1673ffffffffffffffffffffffffffffffffffffffff168152602001908152602001600020546200104160201b6200325d1790919060201c565b6001600086815260200190815260200160002060008773ffffffffffffffffffffffffffffffffffffffff1673ffffffffffffffffffffffffffffffffffffffff168152602001908152602001600020819055508473ffffffffffffffffffffffffffffffffffffffff16600073ffffffffffffffffffffffffffffffffffffffff168273ffffffffffffffffffffffffffffffffffffffff167fc3d58168c5ae7397731d063d5bbf3d657854427343f4c083240f7aacaa2d0f628787604051808381526020018281526020019250505060405180910390a462000fb781600087878787620010ca60201b60201c565b5050505050565b600033905090565b606080600167ffffffffffffffff8111801562000fe257600080fd5b50604051908082528060200260200182016040528015620010125781602001602082028036833780820191505090505b50905082816000815181106200102457fe5b60200260200101818152505080915050919050565b505050505050565b600080828401905083811015620010c0576040517f08c379a000000000000000000000000000000000000000000000000000000000815260040180806020018281038252601b8152602001807f536166654d6174683a206164646974696f6e206f766572666c6f77000000000081525060200191505060405180910390fd5b8091505092915050565b620010f68473ffffffffffffffffffffffffffffffffffffffff16620013f660201b620032e51760201c565b15620013ee578373ffffffffffffffffffffffffffffffffffffffff1663f23a6e6187878686866040518663ffffffff1660e01b8152600401808673ffffffffffffffffffffffffffffffffffffffff1681526020018573ffffffffffffffffffffffffffffffffffffffff16815260200184815260200183815260200180602001828103825283818151815260200191508051906020019080838360005b83811015620011b257808201518184015260208101905062001195565b50505050905090810190601f168015620011e05780820380516001836020036101000a031916815260200191505b509650505050505050602060405180830381600087803b1580156200120457600080fd5b505af19250505080156200123a57506040513d60208110156200122657600080fd5b810190808051906020019092919050505060015b6200134d5762001249620015a0565b80620012565750620012fb565b806040517f08c379a00000000000000000000000000000000000000000000000000000000081526004018080602001828103825283818151815260200191508051906020019080838360005b83811015620012bf578082015181840152602081019050620012a2565b50505050905090810190601f168015620012ed5780820380516001836020036101000a031916815260200191505b509250505060405180910390fd5b6040517f08c379a000000000000000000000000000000000000000000000000000000000815260040180806020018281038252603481526020018062005e646034913960400191505060405180910390fd5b63f23a6e6160e01b7bffffffffffffffffffffffffffffffffffffffffffffffffffffffff1916817bffffffffffffffffffffffffffffffffffffffffffffffffffffffff191614620013ec576040517f08c379a000000000000000000000000000000000000000000000000000000000815260040180806020018281038252602881526020018062005e986028913960400191505060405180910390fd5b505b505050505050565b600080823b905060008111915050919050565b828054600181600116156101000203166002900490600052602060002090601f016020900481019282601f106200144c57805160ff19168380011785556200147d565b828001600101855582156200147d579182015b828111156200147c5782518255916020019190600101906200145f565b5b5090506200148c919062001563565b5090565b6040518060c00160405280600073ffffffffffffffffffffffffffffffffffffffff16815260200160608152602001606081526020016060815260200160008152602001606081525090565b828054600181600116156101000203166002900490600052602060002090601f016020900481019282601f106200151f57805160ff191683800117855562001550565b8280016001018555821562001550579182015b828111156200154f57825182559160200191906001019062001532565b5b5090506200155f919062001563565b5090565b5b808211156200157e57600081600090555060010162001564565b5090565b6000601f19601f8301169050919050565b60008160e01c9050919050565b600060443d1015620015b25762001661565b60046000803e620015c560005162001593565b6308c379a08114620015d8575062001661565b60405160043d036004823e80513d602482011167ffffffffffffffff82111715620016065750505062001661565b808201805167ffffffffffffffff8111156200162757505050505062001661565b8060208301013d8501811115620016445750505050505062001661565b6200164f8262001582565b60208401016040528296505050505050505b90565b6147f080620016746000396000f3fe6080604052600436106101085760003560e01c80635d91889a11610095578063bb0c15cf11610064578063bb0c15cf14610f6d578063caae5f941461109c578063d2a55e33146110dd578063e985e9c5146112f9578063f242432a1461138057610108565b80635d91889a14610a1e57806376cdf22414610a49578063a22cb46514610cf4578063a2fe5f6f14610d5157610108565b80632ba5d427116100dc5780632ba5d427146102e15780632eb2c2d61461058a5780634b8ae8cd146107ba5780634e1273f41461080b578063590743e5146109b957610108565b8062fdd58e1461010d57806301ffc9a71461017c57806303a9c3d7146101ec5780630e89341c1461022d575b600080fd5b34801561011957600080fd5b506101666004803603604081101561013057600080fd5b81019080803573ffffffffffffffffffffffffffffffffffffffff1690602001909291908035906020019092919050505061149c565b6040518082815260200191505060405180910390f35b34801561018857600080fd5b506101d46004803603602081101561019f57600080fd5b8101908080357bffffffffffffffffffffffffffffffffffffffffffffffffffffffff1916906020019092919050505061157c565b60405180821515815260200191505060405180910390f35b3480156101f857600080fd5b506102016115e3565b604051808273ffffffffffffffffffffffffffffffffffffffff16815260200191505060405180910390f35b34801561023957600080fd5b506102666004803603602081101561025057600080fd5b8101908080359060200190929190505050611609565b6040518080602001828103825283818151815260200191508051906020019080838360005b838110156102a657808201518184015260208101905061028b565b50505050905090810190601f1680156102d35780820380516001836020036101000a031916815260200191505b509250505060405180910390f35b3480156102ed57600080fd5b506103a76004803603602081101561030457600080fd5b810190808035906020019064010000000081111561032157600080fd5b82018360208201111561033357600080fd5b8035906020019184600183028401116401000000008311171561035557600080fd5b91908080601f016020809104026020016040519081016040528093929190818152602001838380828437600081840152601f19601f8201169050808301925050505050505091929192905050506116ad565b604051808773ffffffffffffffffffffffffffffffffffffffff1681526020018060200180602001806020018681526020018060200185810385528a818151815260200191508051906020019080838360005b838110156104155780820151818401526020810190506103fa565b50505050905090810190601f1680156104425780820380516001836020036101000a031916815260200191505b50858103845289818151815260200191508051906020019080838360005b8381101561047b578082015181840152602081019050610460565b50505050905090810190601f1680156104a85780820380516001836020036101000a031916815260200191505b50858103835288818151815260200191508051906020019080838360005b838110156104e15780820151818401526020810190506104c6565b50505050905090810190601f16801561050e5780820380516001836020036101000a031916815260200191505b50858103825286818151815260200191508051906020019080838360005b8381101561054757808201518184015260208101905061052c565b50505050905090810190601f1680156105745780820380516001836020036101000a031916815260200191505b509a505050505050505050505060405180910390f35b34801561059657600080fd5b506107b8600480360360a08110156105ad57600080fd5b81019080803573ffffffffffffffffffffffffffffffffffffffff169060200190929190803573ffffffffffffffffffffffffffffffffffffffff1690602001909291908035906020019064010000000081111561060a57600080fd5b82018360208201111561061c57600080fd5b8035906020019184602083028401116401000000008311171561063e57600080fd5b919080806020026020016040519081016040528093929190818152602001838360200280828437600081840152601f19601f8201169050808301925050505050505091929192908035906020019064010000000081111561069e57600080fd5b8201836020820111156106b057600080fd5b803590602001918460208302840111640100000000831117156106d257600080fd5b919080806020026020016040519081016040528093929190818152602001838360200280828437600081840152601f19601f8201169050808301925050505050505091929192908035906020019064010000000081111561073257600080fd5b82018360208201111561074457600080fd5b8035906020019184600183028401116401000000008311171561076657600080fd5b91908080601f016020809104026020016040519081016040528093929190818152602001838380828437600081840152601f19601f82011690508083019250505050505050919291929050505061197f565b005b3480156107c657600080fd5b506107f3600480360360208110156107dd57600080fd5b8101908080359060200190929190505050611e0a565b60405180821515815260200191505060405180910390f35b34801561081757600080fd5b506109626004803603604081101561082e57600080fd5b810190808035906020019064010000000081111561084b57600080fd5b82018360208201111561085d57600080fd5b8035906020019184602083028401116401000000008311171561087f57600080fd5b919080806020026020016040519081016040528093929190818152602001838360200280828437600081840152601f19601f820116905080830192505050505050509192919290803590602001906401000000008111156108df57600080fd5b8201836020820111156108f157600080fd5b8035906020019184602083028401116401000000008311171561091357600080fd5b919080806020026020016040519081016040528093929190818152602001838360200280828437600081840152601f19601f820116905080830192505050505050509192919290505050611e2a565b6040518080602001828103825283818151815260200191508051906020019060200280838360005b838110156109a557808201518184015260208101905061098a565b505050509050019250505060405180910390f35b3480156109c557600080fd5b50610a08600480360360208110156109dc57600080fd5b81019080803573ffffffffffffffffffffffffffffffffffffffff16906020019092919050505061201c565b6040518082815260200191505060405180910390f35b348015610a2a57600080fd5b50610a33612034565b6040518082815260200191505060405180910390f35b348015610a5557600080fd5b50610cf2600480360360e0811015610a6c57600080fd5b8101908080359060200190640100000000811115610a8957600080fd5b820183602082011115610a9b57600080fd5b80359060200191846001830284011164010000000083111715610abd57600080fd5b91908080601f016020809104026020016040519081016040528093929190818152602001838380828437600081840152601f19601f82011690508083019250505050505050919291929080359060200190640100000000811115610b2057600080fd5b820183602082011115610b3257600080fd5b80359060200191846001830284011164010000000083111715610b5457600080fd5b91908080601f016020809104026020016040519081016040528093929190818152602001838380828437600081840152601f19601f8201169050808301925050505050505091929192908035906020019092919080359060200190640100000000811115610bc157600080fd5b820183602082011115610bd357600080fd5b80359060200191846001830284011164010000000083111715610bf557600080fd5b91908080601f016020809104026020016040519081016040528093929190818152602001838380828437600081840152601f19601f820116905080830192505050505050509192919290803590602001909291908035906020019092919080359060200190640100000000811115610c6c57600080fd5b820183602082011115610c7e57600080fd5b80359060200191846001830284011164010000000083111715610ca057600080fd5b91908080601f016020809104026020016040519081016040528093929190818152602001838380828437600081840152601f19601f820116905080830192505050505050509192919290505050612041565b005b348015610d0057600080fd5b50610d4f60048036036040811015610d1757600080fd5b81019080803573ffffffffffffffffffffffffffffffffffffffff169060200190929190803515159060200190929190505050612741565b005b348015610d5d57600080fd5b50610d8a60048036036020811015610d7457600080fd5b81019080803590602001909291905050506128da565b604051808773ffffffffffffffffffffffffffffffffffffffff1681526020018060200180602001806020018681526020018060200185810385528a818151815260200191508051906020019080838360005b83811015610df8578082015181840152602081019050610ddd565b50505050905090810190601f168015610e255780820380516001836020036101000a031916815260200191505b50858103845289818151815260200191508051906020019080838360005b83811015610e5e578082015181840152602081019050610e43565b50505050905090810190601f168015610e8b5780820380516001836020036101000a031916815260200191505b50858103835288818151815260200191508051906020019080838360005b83811015610ec4578082015181840152602081019050610ea9565b50505050905090810190601f168015610ef15780820380516001836020036101000a031916815260200191505b50858103825286818151815260200191508051906020019080838360005b83811015610f2a578082015181840152602081019050610f0f565b50505050905090810190601f168015610f575780820380516001836020036101000a031916815260200191505b509a505050505050505050505060405180910390f35b611084600480360360c0811015610f8357600080fd5b81019080803573ffffffffffffffffffffffffffffffffffffffff169060200190929190803573ffffffffffffffffffffffffffffffffffffffff169060200190929190803590602001909291908035906020019092919080359060200190640100000000811115610ff457600080fd5b82018360208201111561100657600080fd5b8035906020019184600183028401116401000000008311171561102857600080fd5b91908080601f016020809104026020016040519081016040528093929190818152602001838380828437600081840152601f19601f82011690508083019250505050505050919291929080359060200190929190505050612b96565b60405180821515815260200191505060405180910390f35b3480156110a857600080fd5b506110b1612c08565b604051808273ffffffffffffffffffffffffffffffffffffffff16815260200191505060405180910390f35b3480156110e957600080fd5b506111166004803603602081101561110057600080fd5b8101908080359060200190929190505050612c2e565b604051808773ffffffffffffffffffffffffffffffffffffffff1681526020018060200180602001806020018681526020018060200185810385528a818151815260200191508051906020019080838360005b83811015611184578082015181840152602081019050611169565b50505050905090810190601f1680156111b15780820380516001836020036101000a031916815260200191505b50858103845289818151815260200191508051906020019080838360005b838110156111ea5780820151818401526020810190506111cf565b50505050905090810190601f1680156112175780820380516001836020036101000a031916815260200191505b50858103835288818151815260200191508051906020019080838360005b83811015611250578082015181840152602081019050611235565b50505050905090810190601f16801561127d5780820380516001836020036101000a031916815260200191505b50858103825286818151815260200191508051906020019080838360005b838110156112b657808201518184015260208101905061129b565b50505050905090810190601f1680156112e35780820380516001836020036101000a031916815260200191505b509a505050505050505050505060405180910390f35b34801561130557600080fd5b506113686004803603604081101561131c57600080fd5b81019080803573ffffffffffffffffffffffffffffffffffffffff169060200190929190803573ffffffffffffffffffffffffffffffffffffffff169060200190929190505050612ef7565b60405180821515815260200191505060405180910390f35b34801561138c57600080fd5b5061149a600480360360a08110156113a357600080fd5b81019080803573ffffffffffffffffffffffffffffffffffffffff169060200190929190803573ffffffffffffffffffffffffffffffffffffffff16906020019092919080359060200190929190803590602001909291908035906020019064010000000081111561141457600080fd5b82018360208201111561142657600080fd5b8035906020019184600183028401116401000000008311171561144857600080fd5b91908080601f016020809104026020016040519081016040528093929190818152602001838380828437600081840152601f19601f820116905080830192505050505050509192919290505050612f8b565b005b60008073ffffffffffffffffffffffffffffffffffffffff168373ffffffffffffffffffffffffffffffffffffffff161415611523576040517f08c379a000000000000000000000000000000000000000000000000000000000815260040180806020018281038252602b81526020018061463c602b913960400191505060405180910390fd5b6001600083815260200190815260200160002060008473ffffffffffffffffffffffffffffffffffffffff1673ffffffffffffffffffffffffffffffffffffffff16815260200190815260200160002054905092915050565b6000806000837bffffffffffffffffffffffffffffffffffffffffffffffffffffffff19167bffffffffffffffffffffffffffffffffffffffffffffffffffffffff1916815260200190815260200160002060009054906101000a900460ff169050919050565b600a60009054906101000a900473ffffffffffffffffffffffffffffffffffffffff1681565b606060038054600181600116156101000203166002900480601f0160208091040260200160405190810160405280929190818152602001828054600181600116156101000203166002900480156116a15780601f10611676576101008083540402835291602001916116a1565b820191906000526020600020905b81548152906001019060200180831161168457829003601f168201915b50505050509050919050565b6008818051602081018201805184825260208301602085012081835280955050505050506000915090508060000160009054906101000a900473ffffffffffffffffffffffffffffffffffffffff1690806001018054600181600116156101000203166002900480601f0160208091040260200160405190810160405280929190818152602001828054600181600116156101000203166002900480156117955780601f1061176a57610100808354040283529160200191611795565b820191906000526020600020905b81548152906001019060200180831161177857829003601f168201915b505050505090806002018054600181600116156101000203166002900480601f0160208091040260200160405190810160405280929190818152602001828054600181600116156101000203166002900480156118335780601f1061180857610100808354040283529160200191611833565b820191906000526020600020905b81548152906001019060200180831161181657829003601f168201915b505050505090806003018054600181600116156101000203166002900480601f0160208091040260200160405190810160405280929190818152602001828054600181600116156101000203166002900480156118d15780601f106118a6576101008083540402835291602001916118d1565b820191906000526020600020905b8154815290600101906020018083116118b457829003601f168201915b505050505090806004015490806005018054600181600116156101000203166002900480601f0160208091040260200160405190810160405280929190818152602001828054600181600116156101000203166002900480156119755780601f1061194a57610100808354040283529160200191611975565b820191906000526020600020905b81548152906001019060200180831161195857829003601f168201915b5050505050905086565b81518351146119d9576040517f08c379a00000000000000000000000000000000000000000000000000000000081526004018080602001828103825260288152602001806147936028913960400191505060405180910390fd5b600073ffffffffffffffffffffffffffffffffffffffff168473ffffffffffffffffffffffffffffffffffffffff161415611a5f576040517f08c379a00000000000000000000000000000000000000000000000000000000081526004018080602001828103825260258152602001806146986025913960400191505060405180910390fd5b611a676132f8565b73ffffffffffffffffffffffffffffffffffffffff168573ffffffffffffffffffffffffffffffffffffffff161480611aad5750611aac85611aa76132f8565b612ef7565b5b611b02576040517f08c379a00000000000000000000000000000000000000000000000000000000081526004018080602001828103825260328152602001806146bd6032913960400191505060405180910390fd5b6000611b0c6132f8565b9050611b1c818787878787613300565b60005b8451811015611ced576000858281518110611b3657fe5b602002602001015190506000858381518110611b4e57fe5b60200260200101519050611bd5816040518060600160405280602a81526020016146ef602a91396001600086815260200190815260200160002060008d73ffffffffffffffffffffffffffffffffffffffff1673ffffffffffffffffffffffffffffffffffffffff168152602001908152602001600020546133089092919063ffffffff16565b6001600084815260200190815260200160002060008b73ffffffffffffffffffffffffffffffffffffffff1673ffffffffffffffffffffffffffffffffffffffff16815260200190815260200160002081905550611c8c816001600085815260200190815260200160002060008b73ffffffffffffffffffffffffffffffffffffffff1673ffffffffffffffffffffffffffffffffffffffff1681526020019081526020016000205461325d90919063ffffffff16565b6001600084815260200190815260200160002060008a73ffffffffffffffffffffffffffffffffffffffff1673ffffffffffffffffffffffffffffffffffffffff168152602001908152602001600020819055505050806001019050611b1f565b508473ffffffffffffffffffffffffffffffffffffffff168673ffffffffffffffffffffffffffffffffffffffff168273ffffffffffffffffffffffffffffffffffffffff167f4a39dc06d4c0dbc64b70af90fd698a233a518aa5d07e595d983b8c0526c8f7fb8787604051808060200180602001838103835285818151815260200191508051906020019060200280838360005b83811015611d9d578082015181840152602081019050611d82565b50505050905001838103825284818151815260200191508051906020019060200280838360005b83811015611ddf578082015181840152602081019050611dc4565b5050505090500194505050505060405180910390a4611e028187878787876133c8565b505050505050565b60056020528060005260406000206000915054906101000a900460ff1681565b60608151835114611e86576040517f08c379a000000000000000000000000000000000000000000000000000000000815260040180806020018281038252602981526020018061476a6029913960400191505060405180910390fd5b6060835167ffffffffffffffff81118015611ea057600080fd5b50604051908082528060200260200182016040528015611ecf5781602001602082028036833780820191505090505b50905060005b845181101561201157600073ffffffffffffffffffffffffffffffffffffffff16858281518110611f0257fe5b602002602001015173ffffffffffffffffffffffffffffffffffffffff161415611f77576040517f08c379a00000000000000000000000000000000000000000000000000000000081526004018080602001828103825260318152602001806146676031913960400191505060405180910390fd5b60016000858381518110611f8757fe5b602002602001015181526020019081526020016000206000868381518110611fab57fe5b602002602001015173ffffffffffffffffffffffffffffffffffffffff1673ffffffffffffffffffffffffffffffffffffffff16815260200190815260200160002054828281518110611ffa57fe5b602002602001018181525050806001019050611ed5565b508091505092915050565b60066020528060005260406000206000915090505481565b6000600980549050905090565b600061204c88613757565b90506005600082815260200190815260200160002060009054906101000a900460ff161561207957600080fd5b60016005600083815260200190815260200160002060006101000a81548160ff0219169083151502179055506120ad6143a2565b33816000019073ffffffffffffffffffffffffffffffffffffffff16908173ffffffffffffffffffffffffffffffffffffffff16815250508881604001819052508781606001819052508181608001818152505060608883604051602001808060200183815260200180602001838103835285818151815260200191508051906020019080838360005b83811015612152578082015181840152602081019050612137565b50505050905090810190601f16801561217f5780820380516001836020036101000a031916815260200191505b50838103825260058152602001807f2e6a736f6e0000000000000000000000000000000000000000000000000000008152506020019450505050506040516020818303038152906040529050808260200181905250606088888888600189604051602001808781526020018060200186815260200185815260200184815260200180602001838103835288818151815260200191508051906020019080838360005b8381101561223c578082015181840152602081019050612221565b50505050905090810190601f1680156122695780820380516001836020036101000a031916815260200191505b50838103825284818151815260200191508051906020019080838360005b838110156122a2578082015181840152602081019050612287565b50505050905090810190601f1680156122cf5780820380516001836020036101000a031916815260200191505b50985050505050505050506040516020818303038152906040529050808360a00181905250600983908060018154018082558091505060019003906000526020600020906006020160009091909190915060008201518160000160006101000a81548173ffffffffffffffffffffffffffffffffffffffff021916908373ffffffffffffffffffffffffffffffffffffffff16021790555060208201518160010190805190602001906123839291906143ee565b5060408201518160020190805190602001906123a092919061446e565b5060608201518160030190805190602001906123bd92919061446e565b506080820151816004015560a08201518160050190805190602001906123e49291906143ee565b50505083600660003373ffffffffffffffffffffffffffffffffffffffff1673ffffffffffffffffffffffffffffffffffffffff16815260200190815260200160002081905550826007600086815260200190815260200160002060008201518160000160006101000a81548173ffffffffffffffffffffffffffffffffffffffff021916908373ffffffffffffffffffffffffffffffffffffffff16021790555060208201518160010190805190602001906124a29291906143ee565b5060408201518160020190805190602001906124bf92919061446e565b5060608201518160030190805190602001906124dc92919061446e565b506080820151816004015560a08201518160050190805190602001906125039291906143ee565b5090505061251333858b846137f0565b7fe4db4d9bae6a7ea1c8f58bae49da45e3112df950e97a0b718e738b109807232e836000015184602001518560400151866060015187608001518860a00151604051808773ffffffffffffffffffffffffffffffffffffffff1681526020018060200180602001806020018681526020018060200185810385528a818151815260200191508051906020019080838360005b838110156125c05780820151818401526020810190506125a5565b50505050905090810190601f1680156125ed5780820380516001836020036101000a031916815260200191505b50858103845289818151815260200191508051906020019080838360005b8381101561262657808201518184015260208101905061260b565b50505050905090810190601f1680156126535780820380516001836020036101000a031916815260200191505b50858103835288818151815260200191508051906020019080838360005b8381101561268c578082015181840152602081019050612671565b50505050905090810190601f1680156126b95780820380516001836020036101000a031916815260200191505b50858103825286818151815260200191508051906020019080838360005b838110156126f25780820151818401526020810190506126d7565b50505050905090810190601f16801561271f5780820380516001836020036101000a031916815260200191505b509a505050505050505050505060405180910390a15050505050505050505050565b8173ffffffffffffffffffffffffffffffffffffffff166127606132f8565b73ffffffffffffffffffffffffffffffffffffffff1614156127cd576040517f08c379a00000000000000000000000000000000000000000000000000000000081526004018080602001828103825260298152602001806147416029913960400191505060405180910390fd5b80600260006127da6132f8565b73ffffffffffffffffffffffffffffffffffffffff1673ffffffffffffffffffffffffffffffffffffffff16815260200190815260200160002060008473ffffffffffffffffffffffffffffffffffffffff1673ffffffffffffffffffffffffffffffffffffffff16815260200190815260200160002060006101000a81548160ff0219169083151502179055508173ffffffffffffffffffffffffffffffffffffffff166128876132f8565b73ffffffffffffffffffffffffffffffffffffffff167f17307eab39ab6107e8899845ad3d59bd9653f200f220920489ca2b5937696c318360405180821515815260200191505060405180910390a35050565b60076020528060005260406000206000915090508060000160009054906101000a900473ffffffffffffffffffffffffffffffffffffffff1690806001018054600181600116156101000203166002900480601f0160208091040260200160405190810160405280929190818152602001828054600181600116156101000203166002900480156129ac5780601f10612981576101008083540402835291602001916129ac565b820191906000526020600020905b81548152906001019060200180831161298f57829003601f168201915b505050505090806002018054600181600116156101000203166002900480601f016020809104026020016040519081016040528092919081815260200182805460018160011615610100020316600290048015612a4a5780601f10612a1f57610100808354040283529160200191612a4a565b820191906000526020600020905b815481529060010190602001808311612a2d57829003601f168201915b505050505090806003018054600181600116156101000203166002900480601f016020809104026020016040519081016040528092919081815260200182805460018160011615610100020316600290048015612ae85780601f10612abd57610100808354040283529160200191612ae8565b820191906000526020600020905b815481529060010190602001808311612acb57829003601f168201915b505050505090806004015490806005018054600181600116156101000203166002900480601f016020809104026020016040519081016040528092919081815260200182805460018160011615610100020316600290048015612b8c5780601f10612b6157610100808354040283529160200191612b8c565b820191906000526020600020905b815481529060010190602001808311612b6f57829003601f168201915b5050505050905086565b6000838202341015612ba757600080fd5b8673ffffffffffffffffffffffffffffffffffffffff166108fc349081150290604051600060405180830381858888f19350505050612be557600080fd5b612bf28787878787612f8b565b612bfc87866139f3565b90509695505050505050565b600460009054906101000a900473ffffffffffffffffffffffffffffffffffffffff1681565b60098181548110612c3b57fe5b90600052602060002090600602016000915090508060000160009054906101000a900473ffffffffffffffffffffffffffffffffffffffff1690806001018054600181600116156101000203166002900480601f016020809104026020016040519081016040528092919081815260200182805460018160011615610100020316600290048015612d0d5780601f10612ce257610100808354040283529160200191612d0d565b820191906000526020600020905b815481529060010190602001808311612cf057829003601f168201915b505050505090806002018054600181600116156101000203166002900480601f016020809104026020016040519081016040528092919081815260200182805460018160011615610100020316600290048015612dab5780601f10612d8057610100808354040283529160200191612dab565b820191906000526020600020905b815481529060010190602001808311612d8e57829003601f168201915b505050505090806003018054600181600116156101000203166002900480601f016020809104026020016040519081016040528092919081815260200182805460018160011615610100020316600290048015612e495780601f10612e1e57610100808354040283529160200191612e49565b820191906000526020600020905b815481529060010190602001808311612e2c57829003601f168201915b505050505090806004015490806005018054600181600116156101000203166002900480601f016020809104026020016040519081016040528092919081815260200182805460018160011615610100020316600290048015612eed5780601f10612ec257610100808354040283529160200191612eed565b820191906000526020600020905b815481529060010190602001808311612ed057829003601f168201915b5050505050905086565b6000600260008473ffffffffffffffffffffffffffffffffffffffff1673ffffffffffffffffffffffffffffffffffffffff16815260200190815260200160002060008373ffffffffffffffffffffffffffffffffffffffff1673ffffffffffffffffffffffffffffffffffffffff16815260200190815260200160002060009054906101000a900460ff16905092915050565b600073ffffffffffffffffffffffffffffffffffffffff168473ffffffffffffffffffffffffffffffffffffffff161415613011576040517f08c379a00000000000000000000000000000000000000000000000000000000081526004018080602001828103825260258152602001806146986025913960400191505060405180910390fd5b600061301b6132f8565b905061303b81878761302c88614025565b61303588614025565b87613300565b6130b8836040518060600160405280602a81526020016146ef602a91396001600088815260200190815260200160002060008a73ffffffffffffffffffffffffffffffffffffffff1673ffffffffffffffffffffffffffffffffffffffff168152602001908152602001600020546133089092919063ffffffff16565b6001600086815260200190815260200160002060008873ffffffffffffffffffffffffffffffffffffffff1673ffffffffffffffffffffffffffffffffffffffff1681526020019081526020016000208190555061316f836001600087815260200190815260200160002060008873ffffffffffffffffffffffffffffffffffffffff1673ffffffffffffffffffffffffffffffffffffffff1681526020019081526020016000205461325d90919063ffffffff16565b6001600086815260200190815260200160002060008773ffffffffffffffffffffffffffffffffffffffff1673ffffffffffffffffffffffffffffffffffffffff168152602001908152602001600020819055508473ffffffffffffffffffffffffffffffffffffffff168673ffffffffffffffffffffffffffffffffffffffff168273ffffffffffffffffffffffffffffffffffffffff167fc3d58168c5ae7397731d063d5bbf3d657854427343f4c083240f7aacaa2d0f628787604051808381526020018281526020019250505060405180910390a4613255818787878787614095565b505050505050565b6000808284019050838110156132db576040517f08c379a000000000000000000000000000000000000000000000000000000000815260040180806020018281038252601b8152602001807f536166654d6174683a206164646974696f6e206f766572666c6f77000000000081525060200191505060405180910390fd5b8091505092915050565b600080823b905060008111915050919050565b600033905090565b505050505050565b60008383111582906133b5576040517f08c379a00000000000000000000000000000000000000000000000000000000081526004018080602001828103825283818151815260200191508051906020019080838360005b8381101561337a57808201518184015260208101905061335f565b50505050905090810190601f1680156133a75780820380516001836020036101000a031916815260200191505b509250505060405180910390fd5b5060008385039050809150509392505050565b6133e78473ffffffffffffffffffffffffffffffffffffffff166132e5565b1561374f578373ffffffffffffffffffffffffffffffffffffffff1663bc197c8187878686866040518663ffffffff1660e01b8152600401808673ffffffffffffffffffffffffffffffffffffffff1681526020018573ffffffffffffffffffffffffffffffffffffffff168152602001806020018060200180602001848103845287818151815260200191508051906020019060200280838360005b8381101561349f578082015181840152602081019050613484565b50505050905001848103835286818151815260200191508051906020019060200280838360005b838110156134e15780820151818401526020810190506134c6565b50505050905001848103825285818151815260200191508051906020019080838360005b83811015613520578082015181840152602081019050613505565b50505050905090810190601f16801561354d5780820380516001836020036101000a031916815260200191505b5098505050505050505050602060405180830381600087803b15801561357257600080fd5b505af19250505080156135a657506040513d602081101561359257600080fd5b810190808051906020019092919050505060015b6136b0576135b2614529565b806135bd575061365f565b806040517f08c379a00000000000000000000000000000000000000000000000000000000081526004018080602001828103825283818151815260200191508051906020019080838360005b83811015613624578082015181840152602081019050613609565b50505050905090810190601f1680156136515780820380516001836020036101000a031916815260200191505b509250505060405180910390fd5b6040517f08c379a00000000000000000000000000000000000000000000000000000000081526004018080602001828103825260348152602001806145e06034913960400191505060405180910390fd5b63bc197c8160e01b7bffffffffffffffffffffffffffffffffffffffffffffffffffffffff1916817bffffffffffffffffffffffffffffffffffffffffffffffffffffffff19161461374d576040517f08c379a00000000000000000000000000000000000000000000000000000000081526004018080602001828103825260288152602001806146146028913960400191505060405180910390fd5b505b505050505050565b600080662386f26fc1000090506000836040516020018082805190602001908083835b6020831061379d578051825260208201915060208101905060208303925061377a565b6001836020036101000a0380198251168184511680821785525050505050509050019150506040516020818303038152906040528051906020012060001c90508181816137e657fe5b0692505050919050565b600073ffffffffffffffffffffffffffffffffffffffff168473ffffffffffffffffffffffffffffffffffffffff161415613876576040517f08c379a00000000000000000000000000000000000000000000000000000000081526004018080602001828103825260288152602001806147196028913960400191505060405180910390fd5b60006138806132f8565b90506138a18160008761389288614025565b61389b88614025565b87613300565b613904836001600087815260200190815260200160002060008873ffffffffffffffffffffffffffffffffffffffff1673ffffffffffffffffffffffffffffffffffffffff1681526020019081526020016000205461325d90919063ffffffff16565b6001600086815260200190815260200160002060008773ffffffffffffffffffffffffffffffffffffffff1673ffffffffffffffffffffffffffffffffffffffff168152602001908152602001600020819055508473ffffffffffffffffffffffffffffffffffffffff16600073ffffffffffffffffffffffffffffffffffffffff168273ffffffffffffffffffffffffffffffffffffffff167fc3d58168c5ae7397731d063d5bbf3d657854427343f4c083240f7aacaa2d0f628787604051808381526020018281526020019250505060405180910390a46139ec81600087878787614095565b5050505050565b600080613a00848461149c565b141561401a5760019050613a126143a2565b600760008481526020019081526020016000206040518060c00160405290816000820160009054906101000a900473ffffffffffffffffffffffffffffffffffffffff1673ffffffffffffffffffffffffffffffffffffffff1673ffffffffffffffffffffffffffffffffffffffff168152602001600182018054600181600116156101000203166002900480601f016020809104026020016040519081016040528092919081815260200182805460018160011615610100020316600290048015613b1f5780601f10613af457610100808354040283529160200191613b1f565b820191906000526020600020905b815481529060010190602001808311613b0257829003601f168201915b50505050508152602001600282018054600181600116156101000203166002900480601f016020809104026020016040519081016040528092919081815260200182805460018160011615610100020316600290048015613bc15780601f10613b9657610100808354040283529160200191613bc1565b820191906000526020600020905b815481529060010190602001808311613ba457829003601f168201915b50505050508152602001600382018054600181600116156101000203166002900480601f016020809104026020016040519081016040528092919081815260200182805460018160011615610100020316600290048015613c635780601f10613c3857610100808354040283529160200191613c63565b820191906000526020600020905b815481529060010190602001808311613c4657829003601f168201915b5050505050815260200160048201548152602001600582018054600181600116156101000203166002900480601f016020809104026020016040519081016040528092919081815260200182805460018160011615610100020316600290048015613d0f5780601f10613ce457610100808354040283529160200191613d0f565b820191906000526020600020905b815481529060010190602001808311613cf257829003601f168201915b505050505081525050905060006060600080600060608660a0015180602001905160c0811015613d3e57600080fd5b810190808051906020019092919080516040519392919084640100000000821115613d6857600080fd5b83820191506020820185811115613d7e57600080fd5b8251866001820283011164010000000082111715613d9b57600080fd5b8083526020830192505050908051906020019080838360005b83811015613dcf578082015181840152602081019050613db4565b50505050905090810190601f168015613dfc5780820380516001836020036101000a031916815260200191505b5060405260200180519060200190929190805190602001909291908051906020019092919080516040519392919084640100000000821115613e3d57600080fd5b83820191506020820185811115613e5357600080fd5b8251866001820283011164010000000082111715613e7057600080fd5b8083526020830192505050908051906020019080838360005b83811015613ea4578082015181840152602081019050613e89565b50505050905090810190601f168015613ed15780820380516001836020036101000a031916815260200191505b50604052505050809650819750829850839950849a50859b5050505050505060029150858585858585604051602001808781526020018060200186815260200185815260200184815260200180602001838103835288818151815260200191508051906020019080838360005b83811015613f59578082015181840152602081019050613f3e565b50505050905090810190601f168015613f865780820380516001836020036101000a031916815260200191505b50838103825284818151815260200191508051906020019080838360005b83811015613fbf578082015181840152602081019050613fa4565b50505050905090810190601f168015613fec5780820380516001836020036101000a031916815260200191505b50985050505050505050506040516020818303038152906040528760a001819052505050505050505061401f565b600090505b92915050565b606080600167ffffffffffffffff8111801561404057600080fd5b5060405190808252806020026020018201604052801561406f5781602001602082028036833780820191505090505b509050828160008151811061408057fe5b60200260200101818152505080915050919050565b6140b48473ffffffffffffffffffffffffffffffffffffffff166132e5565b1561439a578373ffffffffffffffffffffffffffffffffffffffff1663f23a6e6187878686866040518663ffffffff1660e01b8152600401808673ffffffffffffffffffffffffffffffffffffffff1681526020018573ffffffffffffffffffffffffffffffffffffffff16815260200184815260200183815260200180602001828103825283818151815260200191508051906020019080838360005b8381101561416d578082015181840152602081019050614152565b50505050905090810190601f16801561419a5780820380516001836020036101000a031916815260200191505b509650505050505050602060405180830381600087803b1580156141bd57600080fd5b505af19250505080156141f157506040513d60208110156141dd57600080fd5b810190808051906020019092919050505060015b6142fb576141fd614529565b8061420857506142aa565b806040517f08c379a00000000000000000000000000000000000000000000000000000000081526004018080602001828103825283818151815260200191508051906020019080838360005b8381101561426f578082015181840152602081019050614254565b50505050905090810190601f16801561429c5780820380516001836020036101000a031916815260200191505b509250505060405180910390fd5b6040517f08c379a00000000000000000000000000000000000000000000000000000000081526004018080602001828103825260348152602001806145e06034913960400191505060405180910390fd5b63f23a6e6160e01b7bffffffffffffffffffffffffffffffffffffffffffffffffffffffff1916817bffffffffffffffffffffffffffffffffffffffffffffffffffffffff191614614398576040517f08c379a00000000000000000000000000000000000000000000000000000000081526004018080602001828103825260288152602001806146146028913960400191505060405180910390fd5b505b505050505050565b6040518060c00160405280600073ffffffffffffffffffffffffffffffffffffffff16815260200160608152602001606081526020016060815260200160008152602001606081525090565b828054600181600116156101000203166002900490600052602060002090601f016020900481019282601f1061442f57805160ff191683800117855561445d565b8280016001018555821561445d579182015b8281111561445c578251825591602001919060010190614441565b5b50905061446a91906144ee565b5090565b828054600181600116156101000203166002900490600052602060002090601f016020900481019282601f106144af57805160ff19168380011785556144dd565b828001600101855582156144dd579182015b828111156144dc5782518255916020019190600101906144c1565b5b5090506144ea91906144ee565b5090565b5b808211156145075760008160009055506001016144ef565b5090565b6000601f19601f8301169050919050565b60008160e01c9050919050565b600060443d1015614539576145dc565b60046000803e61454a60005161451c565b6308c379a0811461455b57506145dc565b60405160043d036004823e80513d602482011167ffffffffffffffff82111715614587575050506145dc565b808201805167ffffffffffffffff8111156145a65750505050506145dc565b8060208301013d85018111156145c1575050505050506145dc565b6145ca8261450b565b60208401016040528296505050505050505b9056fe455243313135353a207472616e7366657220746f206e6f6e2045524331313535526563656976657220696d706c656d656e746572455243313135353a204552433131353552656365697665722072656a656374656420746f6b656e73455243313135353a2062616c616e636520717565727920666f7220746865207a65726f2061646472657373455243313135353a2062617463682062616c616e636520717565727920666f7220746865207a65726f2061646472657373455243313135353a207472616e7366657220746f20746865207a65726f2061646472657373455243313135353a207472616e736665722063616c6c6572206973206e6f74206f776e6572206e6f7220617070726f766564455243313135353a20696e73756666696369656e742062616c616e636520666f72207472616e73666572455243313135353a206e6f206d696e74696e6720746f20746865207a65726f206164647265737321455243313135353a2073657474696e6720617070726f76616c2073746174757320666f722073656c66455243313135353a206163636f756e747320616e6420696473206c656e677468206d69736d61746368455243313135353a2069647320616e6420616d6f756e7473206c656e677468206d69736d61746368a26469706673582212208d553044752fb8c3c672a70787e7cc5801c84039384b19065e9391fdce9209fa64736f6c634300060c0033455243313135353a207472616e7366657220746f206e6f6e2045524331313535526563656976657220696d706c656d656e746572455243313135353a204552433131353552656365697665722072656a656374656420746f6b656e73455243313135353a206e6f206d696e74696e6720746f20746865207a65726f206164647265737321",
  "immutableReferences": {},
  "source": "pragma solidity >=0.4.21 <0.7.0;\nimport \"@openzeppelin/contracts/utils/Counters.sol\";\nimport \"./AngelToken.sol\";\n\ncontract CafLaMAngelTokenCrowdfund is AngelToken{\n  /* using SafeMath for uint256; */\n  /* using Address for address; */\n  address public CafLaMAccount = msg.sender;\n\n  constructor(\n      string memory _ename, // endeavor name\n       string memory _esym,  // endeavor symbol\n        uint256 _num_to_issue,\n         string memory _mint_date,\n          uint256 _cost,\n           uint256 _angel_coefficient,\n             string memory _product\n             )\n  AngelToken(_ename, _esym, _num_to_issue, _mint_date, _cost, _angel_coefficient, _product) public {}\n\n  function buyAlms(address payable _owner, address _buyer, uint256 _id, uint256 _amount, bytes memory _data, uint256 cost) public payable returns(bool progress){\n      require(msg.value >= (cost * _amount));\n      //setApprovalForAll(, true);//eventually move to whitelist to tighten the exposure\n      require(_owner.send(msg.value));\n      /* address payable oa = OA; */\n      /* require(oa.send(1/10000)); // rice for the deities */\n      ERC1155.safeTransferFrom(_owner, _buyer, _id, _amount, _data);\n      progress = checkProgress(_owner, _id);\n      return progress;\n  }\n  function checkProgress(address _owner, uint256 _id) private returns(bool complete) {\n    if(balanceOf(_owner,_id) == 0){\n      /* crowd_sale_complete */\n      complete = true;\n      /*   send email to minter to prompt a week long roast session */\n      /* fetch the current alm */\n      Alm memory cur_alm =  map_id_to_Alm[_id];\n      uint256 _num_to_issue;\n       string memory _mint_date;\n        uint256 _cost;\n         uint256 _angel_coefficient;\n          uint256 _status;\n           string memory _product;\n      (_num_to_issue, _mint_date, _cost, _angel_coefficient, _status, _product) = abi.decode(cur_alm.mint_data,(uint256, string, uint256, uint256, uint256, string));\n\n      /* change status on tokens to 'executed' */\n      _status = 2;\n\n      cur_alm.mint_data = abi.encode(_num_to_issue, _mint_date, _cost, _angel_coefficient, _status, _product);\n\n      /* load the last tokens with their angel's share */\n\n\n      /* const total_fund = alm._cost * alm._num_to_issue\n      alm.angel_coefficient = 0.0005 * (total_fund - expenses); */\n    /* pause tokens until next round executes*/\n   } else {\n     complete = false;\n   }\n   return complete;\n  }\n\n}\n",
  "sourcePath": "/Volumes/ETH/AngelTokens/contracts/AngelMint.sol",
  "compiler": {
    "name": "solc",
    "version": "0.6.12+commit.27d51765.Emscripten.clang"
  },
  "schemaVersion": "3.3.2",
  "updatedAt": "2021-01-07T18:26:21.309Z",
  "devdoc": {
    "kind": "dev",
    "methods": {
      "balanceOf(address,uint256)": {
        "details": "See {IERC1155-balanceOf}. Requirements: - `account` cannot be the zero address."
      },
      "balanceOfBatch(address[],uint256[])": {
        "details": "See {IERC1155-balanceOfBatch}. Requirements: - `accounts` and `ids` must have the same length."
      },
      "isApprovedForAll(address,address)": {
        "details": "See {IERC1155-isApprovedForAll}."
      },
      "safeBatchTransferFrom(address,address,uint256[],uint256[],bytes)": {
        "details": "See {IERC1155-safeBatchTransferFrom}."
      },
      "safeTransferFrom(address,address,uint256,uint256,bytes)": {
        "details": "See {IERC1155-safeTransferFrom}."
      },
      "setApprovalForAll(address,bool)": {
        "details": "See {IERC1155-setApprovalForAll}."
      },
      "supportsInterface(bytes4)": {
        "details": "See {IERC165-supportsInterface}. Time complexity O(1), guaranteed to always use less than 30 000 gas."
      },
      "uri(uint256)": {
        "details": "See {IERC1155MetadataURI-uri}. This implementation returns the same URI for *all* token types. It relies on the token type ID substitution mechanism https://eips.ethereum.org/EIPS/eip-1155#metadata[defined in the EIP]. Clients calling this function must replace the `\\{id\\}` substring with the actual token type ID."
      }
    },
    "version": 1
  },
  "userdoc": {
    "kind": "user",
    "methods": {},
    "version": 1
  }
}